{
  "address": "0xB7101989eAc2808F8319D1465D18678343FFe21D",
  "abi": [
    {
      "inputs": [],
      "stateMutability": "nonpayable",
      "type": "constructor"
    },
    {
      "inputs": [
        {
          "internalType": "uint256",
          "name": "tokenId",
          "type": "uint256"
        }
      ],
      "name": "NeuralNFTMarketplace__AlreadyListed",
      "type": "error"
    },
    {
      "inputs": [],
      "name": "NeuralNFTMarketplace__CannotCallOutsideContract",
      "type": "error"
    },
    {
      "inputs": [],
      "name": "NeuralNFTMarketplace__InsufficientFunds",
      "type": "error"
    },
    {
      "inputs": [],
      "name": "NeuralNFTMarketplace__NoProceeds",
      "type": "error"
    },
    {
      "inputs": [],
      "name": "NeuralNFTMarketplace__NotApprovedForMarketplace",
      "type": "error"
    },
    {
      "inputs": [
        {
          "internalType": "uint256",
          "name": "tokenId",
          "type": "uint256"
        },
        {
          "internalType": "address",
          "name": "caller",
          "type": "address"
        }
      ],
      "name": "NeuralNFTMarketplace__NotCreator",
      "type": "error"
    },
    {
      "inputs": [
        {
          "internalType": "uint256",
          "name": "tokenId",
          "type": "uint256"
        }
      ],
      "name": "NeuralNFTMarketplace__NotListed",
      "type": "error"
    },
    {
      "inputs": [],
      "name": "NeuralNFTMarketplace__NotOwner",
      "type": "error"
    },
    {
      "inputs": [],
      "name": "NeuralNFTMarketplace__PriceMustBeAboveZero",
      "type": "error"
    },
    {
      "inputs": [
        {
          "internalType": "uint256",
          "name": "tokenId",
          "type": "uint256"
        },
        {
          "internalType": "uint256",
          "name": "price",
          "type": "uint256"
        }
      ],
      "name": "NeuralNFTMarketplace__PriceNotMet",
      "type": "error"
    },
    {
      "inputs": [
        {
          "internalType": "uint96",
          "name": "",
          "type": "uint96"
        }
      ],
      "name": "NeuralNFTMarketplace__RoyaltyFeesTooHigh",
      "type": "error"
    },
    {
      "inputs": [],
      "name": "NeuralNFTMarketplace__TransferFailed",
      "type": "error"
    },
    {
      "anonymous": false,
      "inputs": [
        {
          "indexed": true,
          "internalType": "address",
          "name": "owner",
          "type": "address"
        },
        {
          "indexed": true,
          "internalType": "address",
          "name": "approved",
          "type": "address"
        },
        {
          "indexed": true,
          "internalType": "uint256",
          "name": "tokenId",
          "type": "uint256"
        }
      ],
      "name": "Approval",
      "type": "event"
    },
    {
      "anonymous": false,
      "inputs": [
        {
          "indexed": true,
          "internalType": "address",
          "name": "owner",
          "type": "address"
        },
        {
          "indexed": true,
          "internalType": "address",
          "name": "operator",
          "type": "address"
        },
        {
          "indexed": false,
          "internalType": "bool",
          "name": "approved",
          "type": "bool"
        }
      ],
      "name": "ApprovalForAll",
      "type": "event"
    },
    {
      "anonymous": false,
      "inputs": [
        {
          "indexed": true,
          "internalType": "address",
          "name": "buyer",
          "type": "address"
        },
        {
          "indexed": true,
          "internalType": "uint256",
          "name": "tokenId",
          "type": "uint256"
        },
        {
          "indexed": false,
          "internalType": "uint256",
          "name": "price",
          "type": "uint256"
        }
      ],
      "name": "ItemBought",
      "type": "event"
    },
    {
      "anonymous": false,
      "inputs": [
        {
          "indexed": true,
          "internalType": "address",
          "name": "seller",
          "type": "address"
        },
        {
          "indexed": true,
          "internalType": "uint256",
          "name": "tokenId",
          "type": "uint256"
        }
      ],
      "name": "ItemCancelled",
      "type": "event"
    },
    {
      "anonymous": false,
      "inputs": [
        {
          "indexed": true,
          "internalType": "address",
          "name": "seller",
          "type": "address"
        },
        {
          "indexed": true,
          "internalType": "uint256",
          "name": "tokenId",
          "type": "uint256"
        },
        {
          "indexed": false,
          "internalType": "uint256",
          "name": "price",
          "type": "uint256"
        }
      ],
      "name": "ItemListed",
      "type": "event"
    },
    {
      "anonymous": false,
      "inputs": [
        {
          "indexed": true,
          "internalType": "address",
          "name": "creator",
          "type": "address"
        },
        {
          "indexed": true,
          "internalType": "uint256",
          "name": "tokenId",
          "type": "uint256"
        },
        {
          "indexed": false,
          "internalType": "uint256",
          "name": "royaltyFees",
          "type": "uint256"
        }
      ],
      "name": "NewNftMinted",
      "type": "event"
    },
    {
      "anonymous": false,
      "inputs": [
        {
          "indexed": true,
          "internalType": "address",
          "name": "creator",
          "type": "address"
        },
        {
          "indexed": true,
          "internalType": "uint256",
          "name": "tokenId",
          "type": "uint256"
        },
        {
          "indexed": false,
          "internalType": "uint256",
          "name": "royaltyFees",
          "type": "uint256"
        }
      ],
      "name": "NftRoyaltyUpdated",
      "type": "event"
    },
    {
      "anonymous": false,
      "inputs": [
        {
          "indexed": true,
          "internalType": "address",
          "name": "from",
          "type": "address"
        },
        {
          "indexed": true,
          "internalType": "address",
          "name": "to",
          "type": "address"
        },
        {
          "indexed": true,
          "internalType": "uint256",
          "name": "tokenId",
          "type": "uint256"
        }
      ],
      "name": "Transfer",
      "type": "event"
    },
    {
      "stateMutability": "payable",
      "type": "fallback"
    },
    {
      "inputs": [],
      "name": "PLATFORM_FEE",
      "outputs": [
        {
          "internalType": "uint256",
          "name": "",
          "type": "uint256"
        }
      ],
      "stateMutability": "view",
      "type": "function"
    },
    {
      "inputs": [
        {
          "internalType": "address",
          "name": "to",
          "type": "address"
        },
        {
          "internalType": "uint256",
          "name": "tokenId",
          "type": "uint256"
        }
      ],
      "name": "approve",
      "outputs": [],
      "stateMutability": "nonpayable",
      "type": "function"
    },
    {
      "inputs": [
        {
          "internalType": "address",
          "name": "owner",
          "type": "address"
        }
      ],
      "name": "balanceOf",
      "outputs": [
        {
          "internalType": "uint256",
          "name": "",
          "type": "uint256"
        }
      ],
      "stateMutability": "view",
      "type": "function"
    },
    {
      "inputs": [
        {
          "internalType": "uint256",
          "name": "tokenId",
          "type": "uint256"
        }
      ],
      "name": "buyItem",
      "outputs": [],
      "stateMutability": "payable",
      "type": "function"
    },
    {
      "inputs": [
        {
          "internalType": "uint256",
          "name": "tokenId",
          "type": "uint256"
        }
      ],
      "name": "cancelListing",
      "outputs": [],
      "stateMutability": "nonpayable",
      "type": "function"
    },
    {
      "inputs": [
        {
          "internalType": "uint256",
          "name": "tokenId",
          "type": "uint256"
        }
      ],
      "name": "getApproved",
      "outputs": [
        {
          "internalType": "address",
          "name": "",
          "type": "address"
        }
      ],
      "stateMutability": "view",
      "type": "function"
    },
    {
      "inputs": [
        {
          "internalType": "address",
          "name": "seller",
          "type": "address"
        }
      ],
      "name": "getEarnings",
      "outputs": [
        {
          "internalType": "uint256",
          "name": "",
          "type": "uint256"
        }
      ],
      "stateMutability": "view",
      "type": "function"
    },
    {
      "inputs": [],
      "name": "getListFee",
      "outputs": [
        {
          "internalType": "uint256",
          "name": "",
          "type": "uint256"
        }
      ],
      "stateMutability": "view",
      "type": "function"
    },
    {
      "inputs": [
        {
          "internalType": "uint256",
          "name": "tokenId",
          "type": "uint256"
        }
      ],
      "name": "getListing",
      "outputs": [
        {
          "components": [
            {
              "internalType": "uint256",
              "name": "price",
              "type": "uint256"
            },
            {
              "internalType": "address",
              "name": "seller",
              "type": "address"
            }
          ],
          "internalType": "struct NeuralNFTMarketplace.Listing",
          "name": "",
          "type": "tuple"
        }
      ],
      "stateMutability": "view",
      "type": "function"
    },
    {
      "inputs": [],
      "name": "getPlatformFee",
      "outputs": [
        {
          "internalType": "uint256",
          "name": "",
          "type": "uint256"
        }
      ],
      "stateMutability": "pure",
      "type": "function"
    },
    {
      "inputs": [
        {
          "internalType": "address",
          "name": "owner",
          "type": "address"
        },
        {
          "internalType": "address",
          "name": "operator",
          "type": "address"
        }
      ],
      "name": "isApprovedForAll",
      "outputs": [
        {
          "internalType": "bool",
          "name": "",
          "type": "bool"
        }
      ],
      "stateMutability": "view",
      "type": "function"
    },
    {
      "inputs": [
        {
          "internalType": "uint256",
          "name": "tokenId",
          "type": "uint256"
        },
        {
          "internalType": "uint256",
          "name": "price",
          "type": "uint256"
        }
      ],
      "name": "listItem",
      "outputs": [],
      "stateMutability": "payable",
      "type": "function"
    },
    {
      "inputs": [
        {
          "internalType": "string",
          "name": "nftURI",
          "type": "string"
        },
        {
          "internalType": "address",
          "name": "royaltyReceiver",
          "type": "address"
        },
        {
          "internalType": "uint96",
          "name": "_royaltyFeesInBips",
          "type": "uint96"
        }
      ],
      "name": "mintNft",
      "outputs": [
        {
          "internalType": "uint256",
          "name": "newItemId",
          "type": "uint256"
        }
      ],
      "stateMutability": "nonpayable",
      "type": "function"
    },
    {
      "inputs": [],
      "name": "name",
      "outputs": [
        {
          "internalType": "string",
          "name": "",
          "type": "string"
        }
      ],
      "stateMutability": "view",
      "type": "function"
    },
    {
      "inputs": [
        {
          "internalType": "uint256",
          "name": "tokenId",
          "type": "uint256"
        }
      ],
      "name": "ownerOf",
      "outputs": [
        {
          "internalType": "address",
          "name": "",
          "type": "address"
        }
      ],
      "stateMutability": "view",
      "type": "function"
    },
    {
      "inputs": [
        {
          "internalType": "uint256",
          "name": "_tokenId",
          "type": "uint256"
        },
        {
          "internalType": "uint256",
          "name": "_salePrice",
          "type": "uint256"
        }
      ],
      "name": "royaltyInfo",
      "outputs": [
        {
          "internalType": "address",
          "name": "",
          "type": "address"
        },
        {
          "internalType": "uint256",
          "name": "",
          "type": "uint256"
        }
      ],
      "stateMutability": "view",
      "type": "function"
    },
    {
      "inputs": [],
      "name": "s_list_fee",
      "outputs": [
        {
          "internalType": "uint256",
          "name": "",
          "type": "uint256"
        }
      ],
      "stateMutability": "view",
      "type": "function"
    },
    {
      "inputs": [
        {
          "internalType": "address",
          "name": "from",
          "type": "address"
        },
        {
          "internalType": "address",
          "name": "to",
          "type": "address"
        },
        {
          "internalType": "uint256",
          "name": "tokenId",
          "type": "uint256"
        }
      ],
      "name": "safeTransferFrom",
      "outputs": [],
      "stateMutability": "nonpayable",
      "type": "function"
    },
    {
      "inputs": [
        {
          "internalType": "address",
          "name": "from",
          "type": "address"
        },
        {
          "internalType": "address",
          "name": "to",
          "type": "address"
        },
        {
          "internalType": "uint256",
          "name": "tokenId",
          "type": "uint256"
        },
        {
          "internalType": "bytes",
          "name": "data",
          "type": "bytes"
        }
      ],
      "name": "safeTransferFrom",
      "outputs": [],
      "stateMutability": "nonpayable",
      "type": "function"
    },
    {
      "inputs": [
        {
          "internalType": "address",
          "name": "operator",
          "type": "address"
        },
        {
          "internalType": "bool",
          "name": "approved",
          "type": "bool"
        }
      ],
      "name": "setApprovalForAll",
      "outputs": [],
      "stateMutability": "nonpayable",
      "type": "function"
    },
    {
      "inputs": [
        {
          "internalType": "uint256",
          "name": "newListFee",
          "type": "uint256"
        }
      ],
      "name": "setListFee",
      "outputs": [],
      "stateMutability": "nonpayable",
      "type": "function"
    },
    {
      "inputs": [
        {
          "internalType": "uint256",
          "name": "_tokenId",
          "type": "uint256"
        },
        {
          "internalType": "address",
          "name": "_receiver",
          "type": "address"
        },
        {
          "internalType": "uint96",
          "name": "_royaltyFeesInBips",
          "type": "uint96"
        }
      ],
      "name": "setRoyaltyInfo",
      "outputs": [],
      "stateMutability": "nonpayable",
      "type": "function"
    },
    {
      "inputs": [
        {
          "internalType": "bytes4",
          "name": "interfaceId",
          "type": "bytes4"
        }
      ],
      "name": "supportsInterface",
      "outputs": [
        {
          "internalType": "bool",
          "name": "",
          "type": "bool"
        }
      ],
      "stateMutability": "view",
      "type": "function"
    },
    {
      "inputs": [],
      "name": "symbol",
      "outputs": [
        {
          "internalType": "string",
          "name": "",
          "type": "string"
        }
      ],
      "stateMutability": "view",
      "type": "function"
    },
    {
      "inputs": [
        {
          "internalType": "uint256",
          "name": "tokenId",
          "type": "uint256"
        }
      ],
      "name": "tokenURI",
      "outputs": [
        {
          "internalType": "string",
          "name": "",
          "type": "string"
        }
      ],
      "stateMutability": "view",
      "type": "function"
    },
    {
      "inputs": [
        {
          "internalType": "address",
          "name": "from",
          "type": "address"
        },
        {
          "internalType": "address",
          "name": "to",
          "type": "address"
        },
        {
          "internalType": "uint256",
          "name": "tokenId",
          "type": "uint256"
        }
      ],
      "name": "transferFrom",
      "outputs": [],
      "stateMutability": "nonpayable",
      "type": "function"
    },
    {
      "inputs": [
        {
          "internalType": "uint256",
          "name": "tokenId",
          "type": "uint256"
        },
        {
          "internalType": "uint256",
          "name": "newPrice",
          "type": "uint256"
        }
      ],
      "name": "updateListing",
      "outputs": [],
      "stateMutability": "payable",
      "type": "function"
    },
    {
      "inputs": [],
      "name": "withdrawProceeds",
      "outputs": [],
      "stateMutability": "nonpayable",
      "type": "function"
    },
    {
      "stateMutability": "payable",
      "type": "receive"
    }
  ],
  "transactionHash": "0xed47f161eb67d84d7d458ace9f4c52f235cef3e5a1270fd6a12412124f977959",
  "args": [],
  "numDeployments": 5,
  "solcInputHash": "4ec44d5f2cd5a1595ab7eb2174b17d62",
  "bytecode": "0x60a060405266038d7ea4c68000600e553480156200001c57600080fd5b506040518060400160405280600981526020017f4e657572616c4e465400000000000000000000000000000000000000000000008152506040518060400160405280600481526020017f4e4e4654000000000000000000000000000000000000000000000000000000008152508160029080519060200190620000a192919062000102565b508060039080519060200190620000ba92919062000102565b50505060016009819055503373ffffffffffffffffffffffffffffffffffffffff1660808173ffffffffffffffffffffffffffffffffffffffff1660601b8152505062000217565b8280546200011090620001b2565b90600052602060002090601f01602090048101928262000134576000855562000180565b82601f106200014f57805160ff191683800117855562000180565b8280016001018555821562000180579182015b828111156200017f57825182559160200191906001019062000162565b5b5090506200018f919062000193565b5090565b5b80821115620001ae57600081600090555060010162000194565b5090565b60006002820490506001821680620001cb57607f821691505b60208210811415620001e257620001e1620001e8565b5b50919050565b7f4e487b7100000000000000000000000000000000000000000000000000000000600052602260045260246000fd5b60805160601c6149e062000259600039600081816101c70152818161023f015281816109ce01528181610de60152818161170c015261209801526149e06000f3fe6080604052600436106101bb5760003560e01c80636352211e116100ec578063a22cb4651161008a578063c87b56dd11610064578063c87b56dd14610707578063e7fb74c714610744578063e985e9c514610760578063fb5134921461079d57610238565b8063a22cb4651461068a578063b88d4fde146106b3578063c379f647146106dc57610238565b8063883efa67116100c6578063883efa67146105ef5780639038e6931461060b57806395d89b41146106225780639ed19d801461064d57610238565b80636352211e1461054a5780636ea8bc101461058757806370a08231146105b257610238565b80631495fa99116101595780632a55205a116101335780632a55205a1461048f578063305a67a8146104cd57806334fbc9a1146104f657806342842e0e1461052157610238565b80631495fa99146104145780631d0488601461043d57806323b872dd1461046657610238565b8063081812fc11610195578063081812fc14610334578063095ea7b314610371578063107a274a1461039a578063131b9c04146103d757610238565b80630179ea88146102b057806301ffc9a7146102cc57806306fdde031461030957610238565b366102385734600c60007f000000000000000000000000000000000000000000000000000000000000000073ffffffffffffffffffffffffffffffffffffffff1673ffffffffffffffffffffffffffffffffffffffff168152602001908152602001600020600082825461022f9190614195565b92505081905550005b34600c60007f000000000000000000000000000000000000000000000000000000000000000073ffffffffffffffffffffffffffffffffffffffff1673ffffffffffffffffffffffffffffffffffffffff16815260200190815260200160002060008282546102a79190614195565b92505081905550005b6102ca60048036038101906102c59190613971565b6107c8565b005b3480156102d857600080fd5b506102f360048036038101906102ee9190613828565b610ab7565b6040516103009190613de5565b60405180910390f35b34801561031557600080fd5b5061031e610ac9565b60405161032b9190613e00565b60405180910390f35b34801561034057600080fd5b5061035b600480360381019061035691906138f1565b610b5b565b6040516103689190613d55565b60405180910390f35b34801561037d57600080fd5b50610398600480360381019061039391906137e8565b610ba1565b005b3480156103a657600080fd5b506103c160048036038101906103bc91906138f1565b610baf565b6040516103ce9190614002565b60405180910390f35b3480156103e357600080fd5b506103fe60048036038101906103f99190613665565b610c3c565b60405161040b919061401d565b60405180910390f35b34801561042057600080fd5b5061043b6004803603810190610436919061391e565b610c85565b005b34801561044957600080fd5b50610464600480360381019061045f91906138f1565b610de4565b005b34801561047257600080fd5b5061048d600480360381019061048891906136d2565b610e73565b005b34801561049b57600080fd5b506104b660048036038101906104b19190613971565b610eea565b6040516104c4929190613dbc565b60405180910390f35b3480156104d957600080fd5b506104f460048036038101906104ef91906138f1565b6110d5565b005b34801561050257600080fd5b5061050b6112f6565b604051610518919061401d565b60405180910390f35b34801561052d57600080fd5b50610548600480360381019061054391906136d2565b6112fb565b005b34801561055657600080fd5b50610571600480360381019061056c91906138f1565b611372565b60405161057e9190613d55565b60405180910390f35b34801561059357600080fd5b5061059c611424565b6040516105a9919061401d565b60405180910390f35b3480156105be57600080fd5b506105d960048036038101906105d49190613665565b61142d565b6040516105e6919061401d565b60405180910390f35b61060960048036038101906106049190613971565b6114e5565b005b34801561061757600080fd5b50610620611865565b005b34801561062e57600080fd5b50610637611a25565b6040516106449190613e00565b60405180910390f35b34801561065957600080fd5b50610674600480360381019061066f9190613882565b611ab7565b604051610681919061401d565b60405180910390f35b34801561069657600080fd5b506106b160048036038101906106ac91906137a8565b611c43565b005b3480156106bf57600080fd5b506106da60048036038101906106d59190613725565b611c59565b005b3480156106e857600080fd5b506106f1611cbb565b6040516106fe919061401d565b60405180910390f35b34801561071357600080fd5b5061072e600480360381019061072991906138f1565b611cc1565b60405161073b9190613e00565b60405180910390f35b61075e600480360381019061075991906138f1565b611dd4565b005b34801561076c57600080fd5b5061078760048036038101906107829190613692565b6121aa565b6040516107949190613de5565b60405180910390f35b3480156107a957600080fd5b506107b261223e565b6040516107bf919061401d565b60405180910390f35b81336107d382611372565b73ffffffffffffffffffffffffffffffffffffffff168173ffffffffffffffffffffffffffffffffffffffff1614610837576040517f2ac3f91100000000000000000000000000000000000000000000000000000000815260040160405180910390fd5b836000600b6000838152602001908152602001600020604051806040016040529081600082015481526020016001820160009054906101000a900473ffffffffffffffffffffffffffffffffffffffff1673ffffffffffffffffffffffffffffffffffffffff1673ffffffffffffffffffffffffffffffffffffffff16815250509050600081600001511161090357816040517fdb363db80000000000000000000000000000000000000000000000000000000081526004016108fa919061401d565b60405180910390fd5b60026009541415610949576040517f08c379a000000000000000000000000000000000000000000000000000000000815260040161094090613fe2565b60405180910390fd5b6002600981905550600e5434101561098d576040517fade20f9200000000000000000000000000000000000000000000000000000000815260040160405180910390fd5b600085116109c7576040517ff1c64ea600000000000000000000000000000000000000000000000000000000815260040160405180910390fd5b34600c60007f000000000000000000000000000000000000000000000000000000000000000073ffffffffffffffffffffffffffffffffffffffff1673ffffffffffffffffffffffffffffffffffffffff1681526020019081526020016000206000828254610a369190614195565b9250508190555084600b600088815260200190815260200160002060000181905550853373ffffffffffffffffffffffffffffffffffffffff167f94e7b934c857a9e3202e8ed9c1f3f96e396b7d2b5885930d2001abcb51ff58fa87604051610a9f919061401d565b60405180910390a36001600981905550505050505050565b6000610ac282612248565b9050919050565b606060028054610ad89061438a565b80601f0160208091040260200160405190810160405280929190818152602001828054610b049061438a565b8015610b515780601f10610b2657610100808354040283529160200191610b51565b820191906000526020600020905b815481529060010190602001808311610b3457829003601f168201915b5050505050905090565b6000610b668261232a565b6006600083815260200190815260200160002060009054906101000a900473ffffffffffffffffffffffffffffffffffffffff169050919050565b610bab8282612375565b5050565b610bb7613434565b600b6000838152602001908152602001600020604051806040016040529081600082015481526020016001820160009054906101000a900473ffffffffffffffffffffffffffffffffffffffff1673ffffffffffffffffffffffffffffffffffffffff1673ffffffffffffffffffffffffffffffffffffffff16815250509050919050565b6000600c60008373ffffffffffffffffffffffffffffffffffffffff1673ffffffffffffffffffffffffffffffffffffffff168152602001908152602001600020549050919050565b806107d0816bffffffffffffffffffffffff161115610cdb57806040517f05a79cda000000000000000000000000000000000000000000000000000000008152600401610cd291906140a5565b60405180910390fd5b83338073ffffffffffffffffffffffffffffffffffffffff16600d600084815260200190815260200160002060009054906101000a900473ffffffffffffffffffffffffffffffffffffffff1673ffffffffffffffffffffffffffffffffffffffff1614610d825781816040517fee3671ac000000000000000000000000000000000000000000000000000000008152600401610d79929190614038565b60405180910390fd5b610d8d86868661248d565b853373ffffffffffffffffffffffffffffffffffffffff167f1f3bfe210cd26bc968a819810d10348b0b3b33fbbd03dac99294ca195b417c6086604051610dd4919061408a565b60405180910390a3505050505050565b7f000000000000000000000000000000000000000000000000000000000000000073ffffffffffffffffffffffffffffffffffffffff163373ffffffffffffffffffffffffffffffffffffffff1614610e69576040517f2ac3f91100000000000000000000000000000000000000000000000000000000815260040160405180910390fd5b80600e8190555050565b333073ffffffffffffffffffffffffffffffffffffffff168173ffffffffffffffffffffffffffffffffffffffff1614610ed9576040517f6ac50df200000000000000000000000000000000000000000000000000000000815260040160405180910390fd5b610ee4848484612635565b50505050565b6000806000600160008681526020019081526020016000206040518060400160405290816000820160009054906101000a900473ffffffffffffffffffffffffffffffffffffffff1673ffffffffffffffffffffffffffffffffffffffff1673ffffffffffffffffffffffffffffffffffffffff1681526020016000820160149054906101000a90046bffffffffffffffffffffffff166bffffffffffffffffffffffff166bffffffffffffffffffffffff16815250509050600073ffffffffffffffffffffffffffffffffffffffff16816000015173ffffffffffffffffffffffffffffffffffffffff1614156110805760006040518060400160405290816000820160009054906101000a900473ffffffffffffffffffffffffffffffffffffffff1673ffffffffffffffffffffffffffffffffffffffff1673ffffffffffffffffffffffffffffffffffffffff1681526020016000820160149054906101000a90046bffffffffffffffffffffffff166bffffffffffffffffffffffff166bffffffffffffffffffffffff168152505090505b600061108a612695565b6bffffffffffffffffffffffff1682602001516bffffffffffffffffffffffff16866110b6919061421c565b6110c091906141eb565b90508160000151819350935050509250929050565b80336110e082611372565b73ffffffffffffffffffffffffffffffffffffffff168173ffffffffffffffffffffffffffffffffffffffff1614611144576040517f2ac3f91100000000000000000000000000000000000000000000000000000000815260040160405180910390fd5b826000600b6000838152602001908152602001600020604051806040016040529081600082015481526020016001820160009054906101000a900473ffffffffffffffffffffffffffffffffffffffff1673ffffffffffffffffffffffffffffffffffffffff1673ffffffffffffffffffffffffffffffffffffffff16815250509050600081600001511161121057816040517fdb363db8000000000000000000000000000000000000000000000000000000008152600401611207919061401d565b60405180910390fd5b60026009541415611256576040517f08c379a000000000000000000000000000000000000000000000000000000000815260040161124d90613fe2565b60405180910390fd5b6002600981905550600b60008681526020019081526020016000206000808201600090556001820160006101000a81549073ffffffffffffffffffffffffffffffffffffffff02191690555050843373ffffffffffffffffffffffffffffffffffffffff167f6be0c8480cb6f0bffcd4a654fb162c986ba528d5ff0e743ee21b1fc900fa264f60405160405180910390a360016009819055505050505050565b600281565b333073ffffffffffffffffffffffffffffffffffffffff168173ffffffffffffffffffffffffffffffffffffffff1614611361576040517f6ac50df200000000000000000000000000000000000000000000000000000000815260040160405180910390fd5b61136c84848461269f565b50505050565b6000806004600084815260200190815260200160002060009054906101000a900473ffffffffffffffffffffffffffffffffffffffff169050600073ffffffffffffffffffffffffffffffffffffffff168173ffffffffffffffffffffffffffffffffffffffff16141561141b576040517f08c379a000000000000000000000000000000000000000000000000000000000815260040161141290613f42565b60405180910390fd5b80915050919050565b60006002905090565b60008073ffffffffffffffffffffffffffffffffffffffff168273ffffffffffffffffffffffffffffffffffffffff16141561149e576040517f08c379a000000000000000000000000000000000000000000000000000000000815260040161149590613ec2565b60405180910390fd5b600560008373ffffffffffffffffffffffffffffffffffffffff1673ffffffffffffffffffffffffffffffffffffffff168152602001908152602001600020549050919050565b81336000600b6000848152602001908152602001600020604051806040016040529081600082015481526020016001820160009054906101000a900473ffffffffffffffffffffffffffffffffffffffff1673ffffffffffffffffffffffffffffffffffffffff1673ffffffffffffffffffffffffffffffffffffffff168152505090506000816000015111156115b357826040517fe000ca910000000000000000000000000000000000000000000000000000000081526004016115aa919061401d565b60405180910390fd5b84336115be82611372565b73ffffffffffffffffffffffffffffffffffffffff168173ffffffffffffffffffffffffffffffffffffffff1614611622576040517f2ac3f91100000000000000000000000000000000000000000000000000000000815260040160405180910390fd5b600e5434101561165e576040517fade20f9200000000000000000000000000000000000000000000000000000000815260040160405180910390fd5b60008611611698576040517ff1c64ea600000000000000000000000000000000000000000000000000000000815260040160405180910390fd5b3073ffffffffffffffffffffffffffffffffffffffff166116b888610b5b565b73ffffffffffffffffffffffffffffffffffffffff1614611705576040517f913365f800000000000000000000000000000000000000000000000000000000815260040160405180910390fd5b34600c60007f000000000000000000000000000000000000000000000000000000000000000073ffffffffffffffffffffffffffffffffffffffff1673ffffffffffffffffffffffffffffffffffffffff16815260200190815260200160002060008282546117749190614195565b9250508190555060405180604001604052808781526020013373ffffffffffffffffffffffffffffffffffffffff16815250600b60008981526020019081526020016000206000820151816000015560208201518160010160006101000a81548173ffffffffffffffffffffffffffffffffffffffff021916908373ffffffffffffffffffffffffffffffffffffffff160217905550905050863373ffffffffffffffffffffffffffffffffffffffff167f94e7b934c857a9e3202e8ed9c1f3f96e396b7d2b5885930d2001abcb51ff58fa88604051611854919061401d565b60405180910390a350505050505050565b600260095414156118ab576040517f08c379a00000000000000000000000000000000000000000000000000000000081526004016118a290613fe2565b60405180910390fd5b60026009819055506000600c60003373ffffffffffffffffffffffffffffffffffffffff1673ffffffffffffffffffffffffffffffffffffffff16815260200190815260200160002054905060008111611931576040517f22be094a00000000000000000000000000000000000000000000000000000000815260040160405180910390fd5b6000600c60003373ffffffffffffffffffffffffffffffffffffffff1673ffffffffffffffffffffffffffffffffffffffff1681526020019081526020016000208190555060003373ffffffffffffffffffffffffffffffffffffffff168260405161199c90613d40565b60006040518083038185875af1925050503d80600081146119d9576040519150601f19603f3d011682016040523d82523d6000602084013e6119de565b606091505b5050905080611a19576040517f1413ec4b00000000000000000000000000000000000000000000000000000000815260040160405180910390fd5b50506001600981905550565b606060038054611a349061438a565b80601f0160208091040260200160405190810160405280929190818152602001828054611a609061438a565b8015611aad5780601f10611a8257610100808354040283529160200191611aad565b820191906000526020600020905b815481529060010190602001808311611a9057829003601f168201915b5050505050905090565b6000816107d0816bffffffffffffffffffffffff161115611b0f57806040517f05a79cda000000000000000000000000000000000000000000000000000000008152600401611b0691906140a5565b60405180910390fd5b60026009541415611b55576040517f08c379a0000000000000000000000000000000000000000000000000000000008152600401611b4c90613fe2565b60405180910390fd5b6002600981905550611b67600a6126bf565b9150611b7333836126cd565b611b7e828585610c85565b611b8882866126eb565b33600d600084815260200190815260200160002060006101000a81548173ffffffffffffffffffffffffffffffffffffffff021916908373ffffffffffffffffffffffffffffffffffffffff160217905550611be4600a61275f565b813373ffffffffffffffffffffffffffffffffffffffff167f061b141191d79859f7cc6256c1b9e5f380052197831efe9135841c0ff4de7e6385604051611c2b919061408a565b60405180910390a36001600981905550509392505050565b611c55611c4e612775565b838361277d565b5050565b611c6a611c64612775565b836128ea565b611ca9576040517f08c379a0000000000000000000000000000000000000000000000000000000008152600401611ca090613fc2565b60405180910390fd5b611cb58484848461297f565b50505050565b600e5481565b6060611ccc8261232a565b6000600860008481526020019081526020016000208054611cec9061438a565b80601f0160208091040260200160405190810160405280929190818152602001828054611d189061438a565b8015611d655780601f10611d3a57610100808354040283529160200191611d65565b820191906000526020600020905b815481529060010190602001808311611d4857829003601f168201915b505050505090506000611d766129db565b9050600081511415611d8c578192505050611dcf565b600082511115611dc1578082604051602001611da9929190613d1c565b60405160208183030381529060405292505050611dcf565b611dca846129f2565b925050505b919050565b806000600b6000838152602001908152602001600020604051806040016040529081600082015481526020016001820160009054906101000a900473ffffffffffffffffffffffffffffffffffffffff1673ffffffffffffffffffffffffffffffffffffffff1673ffffffffffffffffffffffffffffffffffffffff168152505090506000816000015111611ea057816040517fdb363db8000000000000000000000000000000000000000000000000000000008152600401611e97919061401d565b60405180910390fd5b60026009541415611ee6576040517f08c379a0000000000000000000000000000000000000000000000000000000008152600401611edd90613fe2565b60405180910390fd5b60026009819055506000600b6000858152602001908152602001600020604051806040016040529081600082015481526020016001820160009054906101000a900473ffffffffffffffffffffffffffffffffffffffff1673ffffffffffffffffffffffffffffffffffffffff1673ffffffffffffffffffffffffffffffffffffffff168152505090508060000151341015611fbf578381600001516040517f8eb7b75f000000000000000000000000000000000000000000000000000000008152600401611fb6929190614061565b60405180910390fd5b606460026064611fcf9190614276565b34611fda919061421c565b611fe491906141eb565b600c6000836020015173ffffffffffffffffffffffffffffffffffffffff1673ffffffffffffffffffffffffffffffffffffffff168152602001908152602001600020546120329190614195565b600c6000836020015173ffffffffffffffffffffffffffffffffffffffff1673ffffffffffffffffffffffffffffffffffffffff168152602001908152602001600020819055506064600234612088919061421c565b61209291906141eb565b600c60007f000000000000000000000000000000000000000000000000000000000000000073ffffffffffffffffffffffffffffffffffffffff1673ffffffffffffffffffffffffffffffffffffffff16815260200190815260200160002081905550600b60008581526020019081526020016000206000808201600090556001820160006101000a81549073ffffffffffffffffffffffffffffffffffffffff02191690555050612149816020015133866112fb565b833373ffffffffffffffffffffffffffffffffffffffff167ffe2094c9ff56716cb07edf0cff82da158f346cb3bb2d89703228ab4eb0c329b68360000151604051612194919061401d565b60405180910390a3506001600981905550505050565b6000600760008473ffffffffffffffffffffffffffffffffffffffff1673ffffffffffffffffffffffffffffffffffffffff16815260200190815260200160002060008373ffffffffffffffffffffffffffffffffffffffff1673ffffffffffffffffffffffffffffffffffffffff16815260200190815260200160002060009054906101000a900460ff16905092915050565b6000600e54905090565b60007f80ac58cd000000000000000000000000000000000000000000000000000000007bffffffffffffffffffffffffffffffffffffffffffffffffffffffff1916827bffffffffffffffffffffffffffffffffffffffffffffffffffffffff1916148061231357507f5b5e139f000000000000000000000000000000000000000000000000000000007bffffffffffffffffffffffffffffffffffffffffffffffffffffffff1916827bffffffffffffffffffffffffffffffffffffffffffffffffffffffff1916145b80612323575061232282612a5a565b5b9050919050565b61233381612ad4565b612372576040517f08c379a000000000000000000000000000000000000000000000000000000000815260040161236990613f42565b60405180910390fd5b50565b600061238082611372565b90508073ffffffffffffffffffffffffffffffffffffffff168373ffffffffffffffffffffffffffffffffffffffff1614156123f1576040517f08c379a00000000000000000000000000000000000000000000000000000000081526004016123e890613f62565b60405180910390fd5b8073ffffffffffffffffffffffffffffffffffffffff16612410612775565b73ffffffffffffffffffffffffffffffffffffffff16148061243f575061243e81612439612775565b6121aa565b5b61247e576040517f08c379a000000000000000000000000000000000000000000000000000000000815260040161247590613f02565b60405180910390fd5b6124888383612b40565b505050565b612495612695565b6bffffffffffffffffffffffff16816bffffffffffffffffffffffff1611156124f3576040517f08c379a00000000000000000000000000000000000000000000000000000000081526004016124ea90613fa2565b60405180910390fd5b600073ffffffffffffffffffffffffffffffffffffffff168273ffffffffffffffffffffffffffffffffffffffff161415612563576040517f08c379a000000000000000000000000000000000000000000000000000000000815260040161255a90613f82565b60405180910390fd5b60405180604001604052808373ffffffffffffffffffffffffffffffffffffffff168152602001826bffffffffffffffffffffffff168152506001600085815260200190815260200160002060008201518160000160006101000a81548173ffffffffffffffffffffffffffffffffffffffff021916908373ffffffffffffffffffffffffffffffffffffffff16021790555060208201518160000160146101000a8154816bffffffffffffffffffffffff02191690836bffffffffffffffffffffffff160217905550905050505050565b612646612640612775565b826128ea565b612685576040517f08c379a000000000000000000000000000000000000000000000000000000000815260040161267c90613fc2565b60405180910390fd5b612690838383612bf9565b505050565b6000612710905090565b6126ba83838360405180602001604052806000815250611c59565b505050565b600081600001549050919050565b6126e7828260405180602001604052806000815250612e60565b5050565b6126f482612ad4565b612733576040517f08c379a000000000000000000000000000000000000000000000000000000000815260040161272a90613ee2565b60405180910390fd5b8060086000848152602001908152602001600020908051906020019061275a929190613464565b505050565b6001816000016000828254019250508190555050565b600033905090565b8173ffffffffffffffffffffffffffffffffffffffff168373ffffffffffffffffffffffffffffffffffffffff1614156127ec576040517f08c379a00000000000000000000000000000000000000000000000000000000081526004016127e390613ea2565b60405180910390fd5b80600760008573ffffffffffffffffffffffffffffffffffffffff1673ffffffffffffffffffffffffffffffffffffffff16815260200190815260200160002060008473ffffffffffffffffffffffffffffffffffffffff1673ffffffffffffffffffffffffffffffffffffffff16815260200190815260200160002060006101000a81548160ff0219169083151502179055508173ffffffffffffffffffffffffffffffffffffffff168373ffffffffffffffffffffffffffffffffffffffff167f17307eab39ab6107e8899845ad3d59bd9653f200f220920489ca2b5937696c31836040516128dd9190613de5565b60405180910390a3505050565b6000806128f683611372565b90508073ffffffffffffffffffffffffffffffffffffffff168473ffffffffffffffffffffffffffffffffffffffff161480612938575061293781856121aa565b5b8061297657508373ffffffffffffffffffffffffffffffffffffffff1661295e84610b5b565b73ffffffffffffffffffffffffffffffffffffffff16145b91505092915050565b61298a848484612bf9565b61299684848484612ebb565b6129d5576040517f08c379a00000000000000000000000000000000000000000000000000000000081526004016129cc90613e22565b60405180910390fd5b50505050565b606060405180602001604052806000815250905090565b60606129fd8261232a565b6000612a076129db565b90506000815111612a275760405180602001604052806000815250612a52565b80612a3184613052565b604051602001612a42929190613d1c565b6040516020818303038152906040525b915050919050565b60007f2a55205a000000000000000000000000000000000000000000000000000000007bffffffffffffffffffffffffffffffffffffffffffffffffffffffff1916827bffffffffffffffffffffffffffffffffffffffffffffffffffffffff19161480612acd5750612acc826131b3565b5b9050919050565b60008073ffffffffffffffffffffffffffffffffffffffff166004600084815260200190815260200160002060009054906101000a900473ffffffffffffffffffffffffffffffffffffffff1673ffffffffffffffffffffffffffffffffffffffff1614159050919050565b816006600083815260200190815260200160002060006101000a81548173ffffffffffffffffffffffffffffffffffffffff021916908373ffffffffffffffffffffffffffffffffffffffff160217905550808273ffffffffffffffffffffffffffffffffffffffff16612bb383611372565b73ffffffffffffffffffffffffffffffffffffffff167f8c5be1e5ebec7d5bd14f71427d1e84f3dd0314c0f7b2291e5b200ac8c7c3b92560405160405180910390a45050565b8273ffffffffffffffffffffffffffffffffffffffff16612c1982611372565b73ffffffffffffffffffffffffffffffffffffffff1614612c6f576040517f08c379a0000000000000000000000000000000000000000000000000000000008152600401612c6690613e42565b60405180910390fd5b600073ffffffffffffffffffffffffffffffffffffffff168273ffffffffffffffffffffffffffffffffffffffff161415612cdf576040517f08c379a0000000000000000000000000000000000000000000000000000000008152600401612cd690613e82565b60405180910390fd5b612cea83838361321d565b612cf5600082612b40565b6001600560008573ffffffffffffffffffffffffffffffffffffffff1673ffffffffffffffffffffffffffffffffffffffff1681526020019081526020016000206000828254612d459190614276565b925050819055506001600560008473ffffffffffffffffffffffffffffffffffffffff1673ffffffffffffffffffffffffffffffffffffffff1681526020019081526020016000206000828254612d9c9190614195565b92505081905550816004600083815260200190815260200160002060006101000a81548173ffffffffffffffffffffffffffffffffffffffff021916908373ffffffffffffffffffffffffffffffffffffffff160217905550808273ffffffffffffffffffffffffffffffffffffffff168473ffffffffffffffffffffffffffffffffffffffff167fddf252ad1be2c89b69c2b068fc378daa952ba7f163c4a11628f55a4df523b3ef60405160405180910390a4612e5b83838361322d565b505050565b612e6a8383613232565b612e776000848484612ebb565b612eb6576040517f08c379a0000000000000000000000000000000000000000000000000000000008152600401612ead90613e22565b60405180910390fd5b505050565b6000612edc8473ffffffffffffffffffffffffffffffffffffffff1661340c565b15613045578373ffffffffffffffffffffffffffffffffffffffff1663150b7a02612f05612775565b8786866040518563ffffffff1660e01b8152600401612f279493929190613d70565b602060405180830381600087803b158015612f4157600080fd5b505af1925050508015612f7257506040513d601f19601f82011682018060405250810190612f6f9190613855565b60015b612ff5573d8060008114612fa2576040519150601f19603f3d011682016040523d82523d6000602084013e612fa7565b606091505b50600081511415612fed576040517f08c379a0000000000000000000000000000000000000000000000000000000008152600401612fe490613e22565b60405180910390fd5b805181602001fd5b63150b7a0260e01b7bffffffffffffffffffffffffffffffffffffffffffffffffffffffff1916817bffffffffffffffffffffffffffffffffffffffffffffffffffffffff19161491505061304a565b600190505b949350505050565b6060600082141561309a576040518060400160405280600181526020017f300000000000000000000000000000000000000000000000000000000000000081525090506131ae565b600082905060005b600082146130cc5780806130b5906143ed565b915050600a826130c591906141eb565b91506130a2565b60008167ffffffffffffffff8111156130e8576130e7614523565b5b6040519080825280601f01601f19166020018201604052801561311a5781602001600182028036833780820191505090505b5090505b600085146131a7576001826131339190614276565b9150600a856131429190614436565b603061314e9190614195565b60f81b818381518110613164576131636144f4565b5b60200101907effffffffffffffffffffffffffffffffffffffffffffffffffffffffffffff1916908160001a905350600a856131a091906141eb565b945061311e565b8093505050505b919050565b60007f01ffc9a7000000000000000000000000000000000000000000000000000000007bffffffffffffffffffffffffffffffffffffffffffffffffffffffff1916827bffffffffffffffffffffffffffffffffffffffffffffffffffffffff1916149050919050565b61322883838361342f565b505050565b505050565b600073ffffffffffffffffffffffffffffffffffffffff168273ffffffffffffffffffffffffffffffffffffffff1614156132a2576040517f08c379a000000000000000000000000000000000000000000000000000000000815260040161329990613f22565b60405180910390fd5b6132ab81612ad4565b156132eb576040517f08c379a00000000000000000000000000000000000000000000000000000000081526004016132e290613e62565b60405180910390fd5b6132f76000838361321d565b6001600560008473ffffffffffffffffffffffffffffffffffffffff1673ffffffffffffffffffffffffffffffffffffffff16815260200190815260200160002060008282546133479190614195565b92505081905550816004600083815260200190815260200160002060006101000a81548173ffffffffffffffffffffffffffffffffffffffff021916908373ffffffffffffffffffffffffffffffffffffffff160217905550808273ffffffffffffffffffffffffffffffffffffffff16600073ffffffffffffffffffffffffffffffffffffffff167fddf252ad1be2c89b69c2b068fc378daa952ba7f163c4a11628f55a4df523b3ef60405160405180910390a46134086000838361322d565b5050565b6000808273ffffffffffffffffffffffffffffffffffffffff163b119050919050565b505050565b604051806040016040528060008152602001600073ffffffffffffffffffffffffffffffffffffffff1681525090565b8280546134709061438a565b90600052602060002090601f01602090048101928261349257600085556134d9565b82601f106134ab57805160ff19168380011785556134d9565b828001600101855582156134d9579182015b828111156134d85782518255916020019190600101906134bd565b5b5090506134e691906134ea565b5090565b5b808211156135035760008160009055506001016134eb565b5090565b600061351a613515846140e5565b6140c0565b90508281526020810184848401111561353657613535614557565b5b613541848285614348565b509392505050565b600061355c61355784614116565b6140c0565b90508281526020810184848401111561357857613577614557565b5b613583848285614348565b509392505050565b60008135905061359a81614937565b92915050565b6000813590506135af8161494e565b92915050565b6000813590506135c481614965565b92915050565b6000815190506135d981614965565b92915050565b600082601f8301126135f4576135f3614552565b5b8135613604848260208601613507565b91505092915050565b600082601f83011261362257613621614552565b5b8135613632848260208601613549565b91505092915050565b60008135905061364a8161497c565b92915050565b60008135905061365f81614993565b92915050565b60006020828403121561367b5761367a614561565b5b60006136898482850161358b565b91505092915050565b600080604083850312156136a9576136a8614561565b5b60006136b78582860161358b565b92505060206136c88582860161358b565b9150509250929050565b6000806000606084860312156136eb576136ea614561565b5b60006136f98682870161358b565b935050602061370a8682870161358b565b925050604061371b8682870161363b565b9150509250925092565b6000806000806080858703121561373f5761373e614561565b5b600061374d8782880161358b565b945050602061375e8782880161358b565b935050604061376f8782880161363b565b925050606085013567ffffffffffffffff8111156137905761378f61455c565b5b61379c878288016135df565b91505092959194509250565b600080604083850312156137bf576137be614561565b5b60006137cd8582860161358b565b92505060206137de858286016135a0565b9150509250929050565b600080604083850312156137ff576137fe614561565b5b600061380d8582860161358b565b925050602061381e8582860161363b565b9150509250929050565b60006020828403121561383e5761383d614561565b5b600061384c848285016135b5565b91505092915050565b60006020828403121561386b5761386a614561565b5b6000613879848285016135ca565b91505092915050565b60008060006060848603121561389b5761389a614561565b5b600084013567ffffffffffffffff8111156138b9576138b861455c565b5b6138c58682870161360d565b93505060206138d68682870161358b565b92505060406138e786828701613650565b9150509250925092565b60006020828403121561390757613906614561565b5b60006139158482850161363b565b91505092915050565b60008060006060848603121561393757613936614561565b5b60006139458682870161363b565b93505060206139568682870161358b565b925050604061396786828701613650565b9150509250925092565b6000806040838503121561398857613987614561565b5b60006139968582860161363b565b92505060206139a78582860161363b565b9150509250929050565b6139ba816142aa565b82525050565b6139c9816142aa565b82525050565b6139d8816142bc565b82525050565b60006139e982614147565b6139f3818561415d565b9350613a03818560208601614357565b613a0c81614566565b840191505092915050565b6000613a2282614152565b613a2c8185614179565b9350613a3c818560208601614357565b613a4581614566565b840191505092915050565b6000613a5b82614152565b613a65818561418a565b9350613a75818560208601614357565b80840191505092915050565b6000613a8e603283614179565b9150613a9982614577565b604082019050919050565b6000613ab1602583614179565b9150613abc826145c6565b604082019050919050565b6000613ad4601c83614179565b9150613adf82614615565b602082019050919050565b6000613af7602483614179565b9150613b028261463e565b604082019050919050565b6000613b1a601983614179565b9150613b258261468d565b602082019050919050565b6000613b3d602983614179565b9150613b48826146b6565b604082019050919050565b6000613b60602e83614179565b9150613b6b82614705565b604082019050919050565b6000613b83603e83614179565b9150613b8e82614754565b604082019050919050565b6000613ba6602083614179565b9150613bb1826147a3565b602082019050919050565b6000613bc9601883614179565b9150613bd4826147cc565b602082019050919050565b6000613bec602183614179565b9150613bf7826147f5565b604082019050919050565b6000613c0f60008361416e565b9150613c1a82614844565b600082019050919050565b6000613c32601b83614179565b9150613c3d82614847565b602082019050919050565b6000613c55602a83614179565b9150613c6082614870565b604082019050919050565b6000613c78602e83614179565b9150613c83826148bf565b604082019050919050565b6000613c9b601f83614179565b9150613ca68261490e565b602082019050919050565b604082016000820151613cc76000850182613ce0565b506020820151613cda60208501826139b1565b50505050565b613ce981614314565b82525050565b613cf881614314565b82525050565b613d0781614336565b82525050565b613d168161431e565b82525050565b6000613d288285613a50565b9150613d348284613a50565b91508190509392505050565b6000613d4b82613c02565b9150819050919050565b6000602082019050613d6a60008301846139c0565b92915050565b6000608082019050613d8560008301876139c0565b613d9260208301866139c0565b613d9f6040830185613cef565b8181036060830152613db181846139de565b905095945050505050565b6000604082019050613dd160008301856139c0565b613dde6020830184613cef565b9392505050565b6000602082019050613dfa60008301846139cf565b92915050565b60006020820190508181036000830152613e1a8184613a17565b905092915050565b60006020820190508181036000830152613e3b81613a81565b9050919050565b60006020820190508181036000830152613e5b81613aa4565b9050919050565b60006020820190508181036000830152613e7b81613ac7565b9050919050565b60006020820190508181036000830152613e9b81613aea565b9050919050565b60006020820190508181036000830152613ebb81613b0d565b9050919050565b60006020820190508181036000830152613edb81613b30565b9050919050565b60006020820190508181036000830152613efb81613b53565b9050919050565b60006020820190508181036000830152613f1b81613b76565b9050919050565b60006020820190508181036000830152613f3b81613b99565b9050919050565b60006020820190508181036000830152613f5b81613bbc565b9050919050565b60006020820190508181036000830152613f7b81613bdf565b9050919050565b60006020820190508181036000830152613f9b81613c25565b9050919050565b60006020820190508181036000830152613fbb81613c48565b9050919050565b60006020820190508181036000830152613fdb81613c6b565b9050919050565b60006020820190508181036000830152613ffb81613c8e565b9050919050565b60006040820190506140176000830184613cb1565b92915050565b60006020820190506140326000830184613cef565b92915050565b600060408201905061404d6000830185613cef565b61405a60208301846139c0565b9392505050565b60006040820190506140766000830185613cef565b6140836020830184613cef565b9392505050565b600060208201905061409f6000830184613cfe565b92915050565b60006020820190506140ba6000830184613d0d565b92915050565b60006140ca6140db565b90506140d682826143bc565b919050565b6000604051905090565b600067ffffffffffffffff821115614100576140ff614523565b5b61410982614566565b9050602081019050919050565b600067ffffffffffffffff82111561413157614130614523565b5b61413a82614566565b9050602081019050919050565b600081519050919050565b600081519050919050565b600082825260208201905092915050565b600081905092915050565b600082825260208201905092915050565b600081905092915050565b60006141a082614314565b91506141ab83614314565b9250827fffffffffffffffffffffffffffffffffffffffffffffffffffffffffffffffff038211156141e0576141df614467565b5b828201905092915050565b60006141f682614314565b915061420183614314565b92508261421157614210614496565b5b828204905092915050565b600061422782614314565b915061423283614314565b9250817fffffffffffffffffffffffffffffffffffffffffffffffffffffffffffffffff048311821515161561426b5761426a614467565b5b828202905092915050565b600061428182614314565b915061428c83614314565b92508282101561429f5761429e614467565b5b828203905092915050565b60006142b5826142f4565b9050919050565b60008115159050919050565b60007fffffffff0000000000000000000000000000000000000000000000000000000082169050919050565b600073ffffffffffffffffffffffffffffffffffffffff82169050919050565b6000819050919050565b60006bffffffffffffffffffffffff82169050919050565b60006143418261431e565b9050919050565b82818337600083830152505050565b60005b8381101561437557808201518184015260208101905061435a565b83811115614384576000848401525b50505050565b600060028204905060018216806143a257607f821691505b602082108114156143b6576143b56144c5565b5b50919050565b6143c582614566565b810181811067ffffffffffffffff821117156143e4576143e3614523565b5b80604052505050565b60006143f882614314565b91507fffffffffffffffffffffffffffffffffffffffffffffffffffffffffffffffff82141561442b5761442a614467565b5b600182019050919050565b600061444182614314565b915061444c83614314565b92508261445c5761445b614496565b5b828206905092915050565b7f4e487b7100000000000000000000000000000000000000000000000000000000600052601160045260246000fd5b7f4e487b7100000000000000000000000000000000000000000000000000000000600052601260045260246000fd5b7f4e487b7100000000000000000000000000000000000000000000000000000000600052602260045260246000fd5b7f4e487b7100000000000000000000000000000000000000000000000000000000600052603260045260246000fd5b7f4e487b7100000000000000000000000000000000000000000000000000000000600052604160045260246000fd5b600080fd5b600080fd5b600080fd5b600080fd5b6000601f19601f8301169050919050565b7f4552433732313a207472616e7366657220746f206e6f6e20455243373231526560008201527f63656976657220696d706c656d656e7465720000000000000000000000000000602082015250565b7f4552433732313a207472616e736665722066726f6d20696e636f72726563742060008201527f6f776e6572000000000000000000000000000000000000000000000000000000602082015250565b7f4552433732313a20746f6b656e20616c7265616479206d696e74656400000000600082015250565b7f4552433732313a207472616e7366657220746f20746865207a65726f2061646460008201527f7265737300000000000000000000000000000000000000000000000000000000602082015250565b7f4552433732313a20617070726f766520746f2063616c6c657200000000000000600082015250565b7f4552433732313a2061646472657373207a65726f206973206e6f74206120766160008201527f6c6964206f776e65720000000000000000000000000000000000000000000000602082015250565b7f45524337323155524953746f726167653a2055524920736574206f66206e6f6e60008201527f6578697374656e7420746f6b656e000000000000000000000000000000000000602082015250565b7f4552433732313a20617070726f76652063616c6c6572206973206e6f7420746f60008201527f6b656e206f776e6572206e6f7220617070726f76656420666f7220616c6c0000602082015250565b7f4552433732313a206d696e7420746f20746865207a65726f2061646472657373600082015250565b7f4552433732313a20696e76616c696420746f6b656e2049440000000000000000600082015250565b7f4552433732313a20617070726f76616c20746f2063757272656e74206f776e6560008201527f7200000000000000000000000000000000000000000000000000000000000000602082015250565b50565b7f455243323938313a20496e76616c696420706172616d65746572730000000000600082015250565b7f455243323938313a20726f79616c7479206665652077696c6c2065786365656460008201527f2073616c65507269636500000000000000000000000000000000000000000000602082015250565b7f4552433732313a2063616c6c6572206973206e6f7420746f6b656e206f776e6560008201527f72206e6f7220617070726f766564000000000000000000000000000000000000602082015250565b7f5265656e7472616e637947756172643a207265656e7472616e742063616c6c00600082015250565b614940816142aa565b811461494b57600080fd5b50565b614957816142bc565b811461496257600080fd5b50565b61496e816142c8565b811461497957600080fd5b50565b61498581614314565b811461499057600080fd5b50565b61499c8161431e565b81146149a757600080fd5b5056fea26469706673582212205e56925121bc048ae892bae52df22980bf39ba1156155889fa4b5a5fabd7871864736f6c63430008070033",
  "devdoc": {
    "author": "Gabriel Antony Xaviour",
    "details": "ENeural NFTs are ERC2981 to provide",
    "events": {
      "ItemListed(address,uint256,uint256)": {
        "details": "Fired for indexing data using theGraph protocol (https://thegraph.com/docs/en/about/)"
      }
    },
    "kind": "dev",
    "methods": {
      "approve(address,uint256)": {
        "details": "See {IERC721-approve}."
      },
      "balanceOf(address)": {
        "details": "See {IERC721-balanceOf}."
      },
      "buyItem(uint256)": {
        "params": {
          "tokenId": "The ID of the NFT in the NFT contract"
        }
      },
      "cancelListing(uint256)": {
        "params": {
          "tokenId": "The ID of the NFT in the NFT contract"
        }
      },
      "getApproved(uint256)": {
        "details": "See {IERC721-getApproved}."
      },
      "isApprovedForAll(address,address)": {
        "details": "See {IERC721-isApprovedForAll}."
      },
      "listItem(uint256,uint256)": {
        "params": {
          "price": "The desired listing price by the seller",
          "tokenId": "The ID of the NFT in the NFT contract"
        }
      },
      "name()": {
        "details": "See {IERC721Metadata-name}."
      },
      "ownerOf(uint256)": {
        "details": "See {IERC721-ownerOf}."
      },
      "royaltyInfo(uint256,uint256)": {
        "details": "Returns how much royalty is owed and to whom, based on a sale price that may be denominated in any unit of exchange. The royalty amount is denominated and should be paid in that same unit of exchange."
      },
      "safeTransferFrom(address,address,uint256)": {
        "details": "See {IERC721-safeTransferFrom}."
      },
      "safeTransferFrom(address,address,uint256,bytes)": {
        "details": "See {IERC721-safeTransferFrom}."
      },
      "setApprovalForAll(address,bool)": {
        "details": "See {IERC721-setApprovalForAll}."
      },
      "symbol()": {
        "details": "See {IERC721Metadata-symbol}."
      },
      "tokenURI(uint256)": {
        "details": "See {IERC721Metadata-tokenURI}."
      },
      "transferFrom(address,address,uint256)": {
        "details": "See {IERC721-transferFrom}."
      },
      "updateListing(uint256,uint256)": {
        "params": {
          "newPrice": "The updated listing price proposed by the seller",
          "tokenId": "The ID of the NFT in the NFT contract"
        }
      },
      "withdrawProceeds()": {
        "details": "Reentrancy guard put into action preventing multiple calls to this function"
      }
    },
    "title": "NeuralNFTMarketplace",
    "version": 1
  },
  "userdoc": {
    "errors": {
      "NeuralNFTMarketplace__PriceMustBeAboveZero()": [
        {
          "notice": "Error Declarations"
        }
      ]
    },
    "kind": "user",
    "methods": {
      "PLATFORM_FEE()": {
        "notice": "2% of the sale of a NFT goes to the owner of the contract"
      },
      "buyItem(uint256)": {
        "notice": "Buys an NFT which is on sale in the marketplace"
      },
      "cancelListing(uint256)": {
        "notice": "Cancels a listing by the user in the marketplace"
      },
      "constructor": {
        "notice": "Initializes the marketplace and owner of the contract."
      },
      "listItem(uint256,uint256)": {
        "notice": "Lists an NFT for sale on the marketplace"
      },
      "setListFee(uint256)": {
        "notice": "Getters and Setters"
      },
      "updateListing(uint256,uint256)": {
        "notice": "Updates a listing by the user which is on sale in the marketplace"
      },
      "withdrawProceeds()": {
        "notice": "Withdraws the earnings made by the user in the marketplace"
      }
    },
    "notice": "A marketplace for NFTs with the sixth sense",
    "version": 1
  },
  "storageLayout": {
    "storage": [
      {
        "astId": 1228,
        "contract": "contracts/NeuralNFTMarketplace.sol:NeuralNFTMarketplace",
        "label": "_defaultRoyaltyInfo",
        "offset": 0,
        "slot": "0",
        "type": "t_struct(RoyaltyInfo)1225_storage"
      },
      {
        "astId": 1233,
        "contract": "contracts/NeuralNFTMarketplace.sol:NeuralNFTMarketplace",
        "label": "_tokenRoyaltyInfo",
        "offset": 0,
        "slot": "1",
        "type": "t_mapping(t_uint256,t_struct(RoyaltyInfo)1225_storage)"
      },
      {
        "astId": 84,
        "contract": "contracts/NeuralNFTMarketplace.sol:NeuralNFTMarketplace",
        "label": "_name",
        "offset": 0,
        "slot": "2",
        "type": "t_string_storage"
      },
      {
        "astId": 86,
        "contract": "contracts/NeuralNFTMarketplace.sol:NeuralNFTMarketplace",
        "label": "_symbol",
        "offset": 0,
        "slot": "3",
        "type": "t_string_storage"
      },
      {
        "astId": 90,
        "contract": "contracts/NeuralNFTMarketplace.sol:NeuralNFTMarketplace",
        "label": "_owners",
        "offset": 0,
        "slot": "4",
        "type": "t_mapping(t_uint256,t_address)"
      },
      {
        "astId": 94,
        "contract": "contracts/NeuralNFTMarketplace.sol:NeuralNFTMarketplace",
        "label": "_balances",
        "offset": 0,
        "slot": "5",
        "type": "t_mapping(t_address,t_uint256)"
      },
      {
        "astId": 98,
        "contract": "contracts/NeuralNFTMarketplace.sol:NeuralNFTMarketplace",
        "label": "_tokenApprovals",
        "offset": 0,
        "slot": "6",
        "type": "t_mapping(t_uint256,t_address)"
      },
      {
        "astId": 104,
        "contract": "contracts/NeuralNFTMarketplace.sol:NeuralNFTMarketplace",
        "label": "_operatorApprovals",
        "offset": 0,
        "slot": "7",
        "type": "t_mapping(t_address,t_mapping(t_address,t_bool))"
      },
      {
        "astId": 1072,
        "contract": "contracts/NeuralNFTMarketplace.sol:NeuralNFTMarketplace",
        "label": "_tokenURIs",
        "offset": 0,
        "slot": "8",
        "type": "t_mapping(t_uint256,t_string_storage)"
      },
      {
        "astId": 29,
        "contract": "contracts/NeuralNFTMarketplace.sol:NeuralNFTMarketplace",
        "label": "_status",
        "offset": 0,
        "slot": "9",
        "type": "t_uint256"
      },
      {
        "astId": 2123,
        "contract": "contracts/NeuralNFTMarketplace.sol:NeuralNFTMarketplace",
        "label": "_tokenIds",
        "offset": 0,
        "slot": "10",
        "type": "t_struct(Counter)1732_storage"
      },
      {
        "astId": 2139,
        "contract": "contracts/NeuralNFTMarketplace.sol:NeuralNFTMarketplace",
        "label": "s_listings",
        "offset": 0,
        "slot": "11",
        "type": "t_mapping(t_uint256,t_struct(Listing)2128_storage)"
      },
      {
        "astId": 2143,
        "contract": "contracts/NeuralNFTMarketplace.sol:NeuralNFTMarketplace",
        "label": "s_earnings",
        "offset": 0,
        "slot": "12",
        "type": "t_mapping(t_address,t_uint256)"
      },
      {
        "astId": 2147,
        "contract": "contracts/NeuralNFTMarketplace.sol:NeuralNFTMarketplace",
        "label": "s_creator",
        "offset": 0,
        "slot": "13",
        "type": "t_mapping(t_uint256,t_address)"
      },
      {
        "astId": 2150,
        "contract": "contracts/NeuralNFTMarketplace.sol:NeuralNFTMarketplace",
        "label": "s_list_fee",
        "offset": 0,
        "slot": "14",
        "type": "t_uint256"
      }
    ],
    "types": {
      "t_address": {
        "encoding": "inplace",
        "label": "address",
        "numberOfBytes": "20"
      },
      "t_bool": {
        "encoding": "inplace",
        "label": "bool",
        "numberOfBytes": "1"
      },
      "t_mapping(t_address,t_bool)": {
        "encoding": "mapping",
        "key": "t_address",
        "label": "mapping(address => bool)",
        "numberOfBytes": "32",
        "value": "t_bool"
      },
      "t_mapping(t_address,t_mapping(t_address,t_bool))": {
        "encoding": "mapping",
        "key": "t_address",
        "label": "mapping(address => mapping(address => bool))",
        "numberOfBytes": "32",
        "value": "t_mapping(t_address,t_bool)"
      },
      "t_mapping(t_address,t_uint256)": {
        "encoding": "mapping",
        "key": "t_address",
        "label": "mapping(address => uint256)",
        "numberOfBytes": "32",
        "value": "t_uint256"
      },
      "t_mapping(t_uint256,t_address)": {
        "encoding": "mapping",
        "key": "t_uint256",
        "label": "mapping(uint256 => address)",
        "numberOfBytes": "32",
        "value": "t_address"
      },
      "t_mapping(t_uint256,t_string_storage)": {
        "encoding": "mapping",
        "key": "t_uint256",
        "label": "mapping(uint256 => string)",
        "numberOfBytes": "32",
        "value": "t_string_storage"
      },
      "t_mapping(t_uint256,t_struct(Listing)2128_storage)": {
        "encoding": "mapping",
        "key": "t_uint256",
        "label": "mapping(uint256 => struct NeuralNFTMarketplace.Listing)",
        "numberOfBytes": "32",
        "value": "t_struct(Listing)2128_storage"
      },
      "t_mapping(t_uint256,t_struct(RoyaltyInfo)1225_storage)": {
        "encoding": "mapping",
        "key": "t_uint256",
        "label": "mapping(uint256 => struct ERC2981.RoyaltyInfo)",
        "numberOfBytes": "32",
        "value": "t_struct(RoyaltyInfo)1225_storage"
      },
      "t_string_storage": {
        "encoding": "bytes",
        "label": "string",
        "numberOfBytes": "32"
      },
      "t_struct(Counter)1732_storage": {
        "encoding": "inplace",
        "label": "struct Counters.Counter",
        "members": [
          {
            "astId": 1731,
            "contract": "contracts/NeuralNFTMarketplace.sol:NeuralNFTMarketplace",
            "label": "_value",
            "offset": 0,
            "slot": "0",
            "type": "t_uint256"
          }
        ],
        "numberOfBytes": "32"
      },
      "t_struct(Listing)2128_storage": {
        "encoding": "inplace",
        "label": "struct NeuralNFTMarketplace.Listing",
        "members": [
          {
            "astId": 2125,
            "contract": "contracts/NeuralNFTMarketplace.sol:NeuralNFTMarketplace",
            "label": "price",
            "offset": 0,
            "slot": "0",
            "type": "t_uint256"
          },
          {
            "astId": 2127,
            "contract": "contracts/NeuralNFTMarketplace.sol:NeuralNFTMarketplace",
            "label": "seller",
            "offset": 0,
            "slot": "1",
            "type": "t_address"
          }
        ],
        "numberOfBytes": "64"
      },
      "t_struct(RoyaltyInfo)1225_storage": {
        "encoding": "inplace",
        "label": "struct ERC2981.RoyaltyInfo",
        "members": [
          {
            "astId": 1222,
            "contract": "contracts/NeuralNFTMarketplace.sol:NeuralNFTMarketplace",
            "label": "receiver",
            "offset": 0,
            "slot": "0",
            "type": "t_address"
          },
          {
            "astId": 1224,
            "contract": "contracts/NeuralNFTMarketplace.sol:NeuralNFTMarketplace",
            "label": "royaltyFraction",
            "offset": 20,
            "slot": "0",
            "type": "t_uint96"
          }
        ],
        "numberOfBytes": "32"
      },
      "t_uint256": {
        "encoding": "inplace",
        "label": "uint256",
        "numberOfBytes": "32"
      },
      "t_uint96": {
        "encoding": "inplace",
        "label": "uint96",
        "numberOfBytes": "12"
      }
    }
  }
}