{
  "_format": "hh-sol-artifact-1",
  "contractName": "NeuralNFTMarketplace",
  "sourceName": "contracts/NeuralNFTMarketplace.sol",
  "abi": [
    {
      "inputs": [],
      "stateMutability": "nonpayable",
      "type": "constructor"
    },
    {
      "inputs": [],
      "name": "NeuralNFTMarketplace__AlreadyApproved",
      "type": "error"
    },
    {
      "inputs": [
        {
          "internalType": "address",
          "name": "nftAddress",
          "type": "address"
        },
        {
          "internalType": "uint256",
          "name": "tokenId",
          "type": "uint256"
        }
      ],
      "name": "NeuralNFTMarketplace__AlreadyListed",
      "type": "error"
    },
    {
      "inputs": [],
      "name": "NeuralNFTMarketplace__InsufficientFunds",
      "type": "error"
    },
    {
      "inputs": [],
      "name": "NeuralNFTMarketplace__NoProceeds",
      "type": "error"
    },
    {
      "inputs": [],
      "name": "NeuralNFTMarketplace__NotApprovedForMarketplace",
      "type": "error"
    },
    {
      "inputs": [
        {
          "internalType": "address",
          "name": "nftAddress",
          "type": "address"
        },
        {
          "internalType": "uint256",
          "name": "tokenId",
          "type": "uint256"
        }
      ],
      "name": "NeuralNFTMarketplace__NotListed",
      "type": "error"
    },
    {
      "inputs": [],
      "name": "NeuralNFTMarketplace__NotOwner",
      "type": "error"
    },
    {
      "inputs": [],
      "name": "NeuralNFTMarketplace__PriceMustBeAboveZero",
      "type": "error"
    },
    {
      "inputs": [
        {
          "internalType": "address",
          "name": "nftAddress",
          "type": "address"
        },
        {
          "internalType": "uint256",
          "name": "tokenId",
          "type": "uint256"
        },
        {
          "internalType": "uint256",
          "name": "price",
          "type": "uint256"
        }
      ],
      "name": "NeuralNFTMarketplace__PriceNotMet",
      "type": "error"
    },
    {
      "inputs": [],
      "name": "NeuralNFTMarketplace__TransferFailed",
      "type": "error"
    },
    {
      "anonymous": false,
      "inputs": [
        {
          "indexed": true,
          "internalType": "address",
          "name": "owner",
          "type": "address"
        },
        {
          "indexed": true,
          "internalType": "address",
          "name": "nftAddress",
          "type": "address"
        },
        {
          "indexed": false,
          "internalType": "string",
          "name": "abiHash",
          "type": "string"
        }
      ],
      "name": "ApprovedNftAddress",
      "type": "event"
    },
    {
      "anonymous": false,
      "inputs": [
        {
          "indexed": true,
          "internalType": "address",
          "name": "buyer",
          "type": "address"
        },
        {
          "indexed": true,
          "internalType": "address",
          "name": "nftAddress",
          "type": "address"
        },
        {
          "indexed": true,
          "internalType": "uint256",
          "name": "tokenId",
          "type": "uint256"
        },
        {
          "indexed": false,
          "internalType": "uint256",
          "name": "price",
          "type": "uint256"
        }
      ],
      "name": "ItemBought",
      "type": "event"
    },
    {
      "anonymous": false,
      "inputs": [
        {
          "indexed": true,
          "internalType": "address",
          "name": "seller",
          "type": "address"
        },
        {
          "indexed": true,
          "internalType": "address",
          "name": "nftAddress",
          "type": "address"
        },
        {
          "indexed": true,
          "internalType": "uint256",
          "name": "tokenId",
          "type": "uint256"
        }
      ],
      "name": "ItemCancelled",
      "type": "event"
    },
    {
      "anonymous": false,
      "inputs": [
        {
          "indexed": true,
          "internalType": "address",
          "name": "seller",
          "type": "address"
        },
        {
          "indexed": true,
          "internalType": "address",
          "name": "nftAddress",
          "type": "address"
        },
        {
          "indexed": true,
          "internalType": "uint256",
          "name": "tokenId",
          "type": "uint256"
        },
        {
          "indexed": false,
          "internalType": "uint256",
          "name": "price",
          "type": "uint256"
        }
      ],
      "name": "ItemListed",
      "type": "event"
    },
    {
      "stateMutability": "payable",
      "type": "fallback"
    },
    {
      "inputs": [],
      "name": "LIST_FEE",
      "outputs": [
        {
          "internalType": "uint256",
          "name": "",
          "type": "uint256"
        }
      ],
      "stateMutability": "view",
      "type": "function"
    },
    {
      "inputs": [],
      "name": "PLATFORM_FEE",
      "outputs": [
        {
          "internalType": "uint256",
          "name": "",
          "type": "uint256"
        }
      ],
      "stateMutability": "view",
      "type": "function"
    },
    {
      "inputs": [
        {
          "internalType": "address",
          "name": "nftAddress",
          "type": "address"
        },
        {
          "internalType": "string",
          "name": "nftAbiHash",
          "type": "string"
        }
      ],
      "name": "approveNftAddress",
      "outputs": [],
      "stateMutability": "nonpayable",
      "type": "function"
    },
    {
      "inputs": [
        {
          "internalType": "address",
          "name": "nftAddress",
          "type": "address"
        },
        {
          "internalType": "uint256",
          "name": "tokenId",
          "type": "uint256"
        }
      ],
      "name": "buyItem",
      "outputs": [],
      "stateMutability": "payable",
      "type": "function"
    },
    {
      "inputs": [
        {
          "internalType": "address",
          "name": "nftAddress",
          "type": "address"
        },
        {
          "internalType": "uint256",
          "name": "tokenId",
          "type": "uint256"
        }
      ],
      "name": "cancelListing",
      "outputs": [],
      "stateMutability": "nonpayable",
      "type": "function"
    },
    {
      "inputs": [
        {
          "internalType": "address",
          "name": "seller",
          "type": "address"
        }
      ],
      "name": "getEarnings",
      "outputs": [
        {
          "internalType": "uint256",
          "name": "",
          "type": "uint256"
        }
      ],
      "stateMutability": "view",
      "type": "function"
    },
    {
      "inputs": [],
      "name": "getListFee",
      "outputs": [
        {
          "internalType": "uint256",
          "name": "",
          "type": "uint256"
        }
      ],
      "stateMutability": "pure",
      "type": "function"
    },
    {
      "inputs": [
        {
          "internalType": "address",
          "name": "nftAddress",
          "type": "address"
        },
        {
          "internalType": "uint256",
          "name": "tokenId",
          "type": "uint256"
        }
      ],
      "name": "getListing",
      "outputs": [
        {
          "components": [
            {
              "internalType": "uint256",
              "name": "price",
              "type": "uint256"
            },
            {
              "internalType": "address",
              "name": "seller",
              "type": "address"
            }
          ],
          "internalType": "struct NeuralNFTMarketplace.Listing",
          "name": "",
          "type": "tuple"
        }
      ],
      "stateMutability": "view",
      "type": "function"
    },
    {
      "inputs": [],
      "name": "getPlatformFee",
      "outputs": [
        {
          "internalType": "uint256",
          "name": "",
          "type": "uint256"
        }
      ],
      "stateMutability": "pure",
      "type": "function"
    },
    {
      "inputs": [
        {
          "internalType": "address",
          "name": "nftAddress",
          "type": "address"
        }
      ],
      "name": "isApproved",
      "outputs": [
        {
          "internalType": "bool",
          "name": "",
          "type": "bool"
        }
      ],
      "stateMutability": "view",
      "type": "function"
    },
    {
      "inputs": [
        {
          "internalType": "address",
          "name": "nftAddress",
          "type": "address"
        },
        {
          "internalType": "uint256",
          "name": "tokenId",
          "type": "uint256"
        },
        {
          "internalType": "uint256",
          "name": "price",
          "type": "uint256"
        }
      ],
      "name": "listItem",
      "outputs": [],
      "stateMutability": "payable",
      "type": "function"
    },
    {
      "inputs": [
        {
          "internalType": "address",
          "name": "nftAddress",
          "type": "address"
        },
        {
          "internalType": "uint256",
          "name": "tokenId",
          "type": "uint256"
        },
        {
          "internalType": "uint256",
          "name": "newPrice",
          "type": "uint256"
        }
      ],
      "name": "updateListing",
      "outputs": [],
      "stateMutability": "payable",
      "type": "function"
    },
    {
      "inputs": [],
      "name": "withdrawProceeds",
      "outputs": [],
      "stateMutability": "nonpayable",
      "type": "function"
    },
    {
      "stateMutability": "payable",
      "type": "receive"
    }
  ],
  "bytecode": "0x60a060405234801561001057600080fd5b5060016000819055503373ffffffffffffffffffffffffffffffffffffffff1660808173ffffffffffffffffffffffffffffffffffffffff1660601b8152505060805160601c6122006100896000396000818160d20152818161014a01528181610a21015281816110d701526118bf01526122006000f3fe6080604052600436106100c65760003560e01c806388700d1c1161007f5780639f37092a116100595780639f37092a1461034f578063b2ddee061461036b578063f772adf114610394578063fb513492146103b057610143565b806388700d1c146102df57806389bfd38f1461031c5780639038e6931461033857610143565b8063131b9c04146101bb578063187f026f146101f857806334fbc9a11461022357806360bded231461024e578063673448dd146102775780636ea8bc10146102b457610143565b366101435734600260007f000000000000000000000000000000000000000000000000000000000000000073ffffffffffffffffffffffffffffffffffffffff1673ffffffffffffffffffffffffffffffffffffffff168152602001908152602001600020600082825461013a9190611eee565b92505081905550005b34600260007f000000000000000000000000000000000000000000000000000000000000000073ffffffffffffffffffffffffffffffffffffffff1673ffffffffffffffffffffffffffffffffffffffff16815260200190815260200160002060008282546101b29190611eee565b92505081905550005b3480156101c757600080fd5b506101e260048036038101906101dd9190611af0565b6103db565b6040516101ef9190611e56565b60405180910390f35b34801561020457600080fd5b5061020d610424565b60405161021a9190611e56565b60405180910390f35b34801561022f57600080fd5b50610238610430565b6040516102459190611e56565b60405180910390f35b34801561025a57600080fd5b5061027560048036038101906102709190611b4a565b610435565b005b34801561028357600080fd5b5061029e60048036038101906102999190611af0565b61057a565b6040516102ab9190611dde565b60405180910390f35b3480156102c057600080fd5b506102c96105d0565b6040516102d69190611e56565b60405180910390f35b3480156102eb57600080fd5b5061030660048036038101906103019190611ba6565b6105d9565b6040516103139190611e3b565b60405180910390f35b61033660048036038101906103319190611be6565b6106a4565b005b34801561034457600080fd5b5061034d610bd4565b005b61036960048036038101906103649190611ba6565b610d94565b005b34801561037757600080fd5b50610392600480360381019061038d9190611ba6565b6112a3565b005b6103ae60048036038101906103a99190611be6565b6115e8565b005b3480156103bc57600080fd5b506103c5611a01565b6040516103d29190611e56565b60405180910390f35b6000600260008373ffffffffffffffffffffffffffffffffffffffff1673ffffffffffffffffffffffffffffffffffffffff168152602001908152602001600020549050919050565b674563918244f4000081565b600281565b600360008373ffffffffffffffffffffffffffffffffffffffff1673ffffffffffffffffffffffffffffffffffffffff16815260200190815260200160002060009054906101000a900460ff16156104b9576040517f2accba6100000000000000000000000000000000000000000000000000000000815260040160405180910390fd5b6001600360008473ffffffffffffffffffffffffffffffffffffffff1673ffffffffffffffffffffffffffffffffffffffff16815260200190815260200160002060006101000a81548160ff0219169083151502179055508173ffffffffffffffffffffffffffffffffffffffff163373ffffffffffffffffffffffffffffffffffffffff167f9928fb82781979b657e4a95fd6d2ef71d40785ccce57c3408bdb9b8c82a0b4e88360405161056e9190611df9565b60405180910390a35050565b6000600360008373ffffffffffffffffffffffffffffffffffffffff1673ffffffffffffffffffffffffffffffffffffffff16815260200190815260200160002060009054906101000a900460ff169050919050565b60006002905090565b6105e1611a11565b600160008473ffffffffffffffffffffffffffffffffffffffff1673ffffffffffffffffffffffffffffffffffffffff1681526020019081526020016000206000838152602001908152602001600020604051806040016040529081600082015481526020016001820160009054906101000a900473ffffffffffffffffffffffffffffffffffffffff1673ffffffffffffffffffffffffffffffffffffffff1673ffffffffffffffffffffffffffffffffffffffff1681525050905092915050565b8282336000600160008573ffffffffffffffffffffffffffffffffffffffff1673ffffffffffffffffffffffffffffffffffffffff1681526020019081526020016000206000848152602001908152602001600020604051806040016040529081600082015481526020016001820160009054906101000a900473ffffffffffffffffffffffffffffffffffffffff1673ffffffffffffffffffffffffffffffffffffffff1673ffffffffffffffffffffffffffffffffffffffff168152505090506000816000015111156107b25783836040517f931ab0480000000000000000000000000000000000000000000000000000000081526004016107a9929190611d7e565b60405180910390fd5b868633600083905060008173ffffffffffffffffffffffffffffffffffffffff16636352211e856040518263ffffffff1660e01b81526004016107f59190611e56565b60206040518083038186803b15801561080d57600080fd5b505afa158015610821573d6000803e3d6000fd5b505050506040513d601f19601f820116820180604052508101906108459190611b1d565b90508073ffffffffffffffffffffffffffffffffffffffff168373ffffffffffffffffffffffffffffffffffffffff16146108ac576040517f2ac3f91100000000000000000000000000000000000000000000000000000000815260040160405180910390fd5b674563918244f400003410156108ee576040517fade20f9200000000000000000000000000000000000000000000000000000000815260040160405180910390fd5b60008a11610928576040517ff1c64ea600000000000000000000000000000000000000000000000000000000815260040160405180910390fd5b60008c90503073ffffffffffffffffffffffffffffffffffffffff168173ffffffffffffffffffffffffffffffffffffffff1663081812fc8e6040518263ffffffff1660e01b815260040161097d9190611e56565b60206040518083038186803b15801561099557600080fd5b505afa1580156109a9573d6000803e3d6000fd5b505050506040513d601f19601f820116820180604052508101906109cd9190611b1d565b73ffffffffffffffffffffffffffffffffffffffff1614610a1a576040517f913365f800000000000000000000000000000000000000000000000000000000815260040160405180910390fd5b34600260007f000000000000000000000000000000000000000000000000000000000000000073ffffffffffffffffffffffffffffffffffffffff1673ffffffffffffffffffffffffffffffffffffffff1681526020019081526020016000206000828254610a899190611eee565b9250508190555060405180604001604052808c81526020013373ffffffffffffffffffffffffffffffffffffffff16815250600160008f73ffffffffffffffffffffffffffffffffffffffff1673ffffffffffffffffffffffffffffffffffffffff16815260200190815260200160002060008e81526020019081526020016000206000820151816000015560208201518160010160006101000a81548173ffffffffffffffffffffffffffffffffffffffff021916908373ffffffffffffffffffffffffffffffffffffffff1602179055509050508b8d73ffffffffffffffffffffffffffffffffffffffff163373ffffffffffffffffffffffffffffffffffffffff167fd547e933094f12a9159076970143ebe73234e64480317844b0dcb36117116de48e604051610bbd9190611e56565b60405180910390a450505050505050505050505050565b60026000541415610c1a576040517f08c379a0000000000000000000000000000000000000000000000000000000008152600401610c1190611e1b565b60405180910390fd5b60026000819055506000600260003373ffffffffffffffffffffffffffffffffffffffff1673ffffffffffffffffffffffffffffffffffffffff16815260200190815260200160002054905060008111610ca0576040517f22be094a00000000000000000000000000000000000000000000000000000000815260040160405180910390fd5b6000600260003373ffffffffffffffffffffffffffffffffffffffff1673ffffffffffffffffffffffffffffffffffffffff1681526020019081526020016000208190555060003373ffffffffffffffffffffffffffffffffffffffff1682604051610d0b90611d32565b60006040518083038185875af1925050503d8060008114610d48576040519150601f19603f3d011682016040523d82523d6000602084013e610d4d565b606091505b5050905080610d88576040517f1413ec4b00000000000000000000000000000000000000000000000000000000815260040160405180910390fd5b50506001600081905550565b81816000600160008473ffffffffffffffffffffffffffffffffffffffff1673ffffffffffffffffffffffffffffffffffffffff1681526020019081526020016000206000838152602001908152602001600020604051806040016040529081600082015481526020016001820160009054906101000a900473ffffffffffffffffffffffffffffffffffffffff1673ffffffffffffffffffffffffffffffffffffffff1673ffffffffffffffffffffffffffffffffffffffff168152505090506000816000015111610ea05782826040517f8b33057a000000000000000000000000000000000000000000000000000000008152600401610e97929190611d7e565b60405180910390fd5b60026000541415610ee6576040517f08c379a0000000000000000000000000000000000000000000000000000000008152600401610edd90611e1b565b60405180910390fd5b60026000819055506000600160008773ffffffffffffffffffffffffffffffffffffffff1673ffffffffffffffffffffffffffffffffffffffff1681526020019081526020016000206000868152602001908152602001600020604051806040016040529081600082015481526020016001820160009054906101000a900473ffffffffffffffffffffffffffffffffffffffff1673ffffffffffffffffffffffffffffffffffffffff1673ffffffffffffffffffffffffffffffffffffffff168152505090508060000151341015610ffe57308582600001516040517f01940db8000000000000000000000000000000000000000000000000000000008152600401610ff593929190611da7565b60405180910390fd5b60646002606461100e9190611fcf565b346110199190611f75565b6110239190611f44565b60026000836020015173ffffffffffffffffffffffffffffffffffffffff1673ffffffffffffffffffffffffffffffffffffffff168152602001908152602001600020546110719190611eee565b60026000836020015173ffffffffffffffffffffffffffffffffffffffff1673ffffffffffffffffffffffffffffffffffffffff1681526020019081526020016000208190555060646002346110c79190611f75565b6110d19190611f44565b600260007f000000000000000000000000000000000000000000000000000000000000000073ffffffffffffffffffffffffffffffffffffffff1673ffffffffffffffffffffffffffffffffffffffff16815260200190815260200160002081905550600160008773ffffffffffffffffffffffffffffffffffffffff1673ffffffffffffffffffffffffffffffffffffffff16815260200190815260200160002060008681526020019081526020016000206000808201600090556001820160006101000a81549073ffffffffffffffffffffffffffffffffffffffff021916905550508573ffffffffffffffffffffffffffffffffffffffff166342842e0e826020015133886040518463ffffffff1660e01b81526004016111f793929190611d47565b600060405180830381600087803b15801561121157600080fd5b505af1158015611225573d6000803e3d6000fd5b50505050848673ffffffffffffffffffffffffffffffffffffffff163373ffffffffffffffffffffffffffffffffffffffff167f263223b1dd81e51054a4e6f791d45a4a1ddb4aadcd93a2dfd892615c3fdac187846000015160405161128b9190611e56565b60405180910390a45060016000819055505050505050565b818133600083905060008173ffffffffffffffffffffffffffffffffffffffff16636352211e856040518263ffffffff1660e01b81526004016112e69190611e56565b60206040518083038186803b1580156112fe57600080fd5b505afa158015611312573d6000803e3d6000fd5b505050506040513d601f19601f820116820180604052508101906113369190611b1d565b90508073ffffffffffffffffffffffffffffffffffffffff168373ffffffffffffffffffffffffffffffffffffffff161461139d576040517f2ac3f91100000000000000000000000000000000000000000000000000000000815260040160405180910390fd5b86866000600160008473ffffffffffffffffffffffffffffffffffffffff1673ffffffffffffffffffffffffffffffffffffffff1681526020019081526020016000206000838152602001908152602001600020604051806040016040529081600082015481526020016001820160009054906101000a900473ffffffffffffffffffffffffffffffffffffffff1673ffffffffffffffffffffffffffffffffffffffff1673ffffffffffffffffffffffffffffffffffffffff1681525050905060008160000151116114a95782826040517f8b33057a0000000000000000000000000000000000000000000000000000000081526004016114a0929190611d7e565b60405180910390fd5b600260005414156114ef576040517f08c379a00000000000000000000000000000000000000000000000000000000081526004016114e690611e1b565b60405180910390fd5b6002600081905550600160008b73ffffffffffffffffffffffffffffffffffffffff1673ffffffffffffffffffffffffffffffffffffffff16815260200190815260200160002060008a81526020019081526020016000206000808201600090556001820160006101000a81549073ffffffffffffffffffffffffffffffffffffffff02191690555050888a73ffffffffffffffffffffffffffffffffffffffff163373ffffffffffffffffffffffffffffffffffffffff167f6e08c1d889d309942730e4afa7963d0c5294a34a479f2c8cf39a953f287dcdee60405160405180910390a4600160008190555050505050505050505050565b6002600054141561162e576040517f08c379a000000000000000000000000000000000000000000000000000000000815260040161162590611e1b565b60405180910390fd5b6002600081905550828233600083905060008173ffffffffffffffffffffffffffffffffffffffff16636352211e856040518263ffffffff1660e01b81526004016116799190611e56565b60206040518083038186803b15801561169157600080fd5b505afa1580156116a5573d6000803e3d6000fd5b505050506040513d601f19601f820116820180604052508101906116c99190611b1d565b90508073ffffffffffffffffffffffffffffffffffffffff168373ffffffffffffffffffffffffffffffffffffffff1614611730576040517f2ac3f91100000000000000000000000000000000000000000000000000000000815260040160405180910390fd5b87876000600160008473ffffffffffffffffffffffffffffffffffffffff1673ffffffffffffffffffffffffffffffffffffffff1681526020019081526020016000206000838152602001908152602001600020604051806040016040529081600082015481526020016001820160009054906101000a900473ffffffffffffffffffffffffffffffffffffffff1673ffffffffffffffffffffffffffffffffffffffff1673ffffffffffffffffffffffffffffffffffffffff16815250509050600081600001511161183c5782826040517f8b33057a000000000000000000000000000000000000000000000000000000008152600401611833929190611d7e565b60405180910390fd5b674563918244f4000034101561187e576040517fade20f9200000000000000000000000000000000000000000000000000000000815260040160405180910390fd5b600089116118b8576040517ff1c64ea600000000000000000000000000000000000000000000000000000000815260040160405180910390fd5b34600260007f000000000000000000000000000000000000000000000000000000000000000073ffffffffffffffffffffffffffffffffffffffff1673ffffffffffffffffffffffffffffffffffffffff16815260200190815260200160002060008282546119279190611eee565b9250508190555088600160008d73ffffffffffffffffffffffffffffffffffffffff1673ffffffffffffffffffffffffffffffffffffffff16815260200190815260200160002060008c815260200190815260200160002060000181905550898b73ffffffffffffffffffffffffffffffffffffffff163373ffffffffffffffffffffffffffffffffffffffff167fd547e933094f12a9159076970143ebe73234e64480317844b0dcb36117116de48c6040516119e49190611e56565b60405180910390a450505050505050506001600081905550505050565b6000674563918244f40000905090565b604051806040016040528060008152602001600073ffffffffffffffffffffffffffffffffffffffff1681525090565b6000611a54611a4f84611e96565b611e71565b905082815260208101848484011115611a7057611a6f612150565b5b611a7b84828561204b565b509392505050565b600081359050611a928161219c565b92915050565b600081519050611aa78161219c565b92915050565b600082601f830112611ac257611ac161214b565b5b8135611ad2848260208601611a41565b91505092915050565b600081359050611aea816121b3565b92915050565b600060208284031215611b0657611b0561215a565b5b6000611b1484828501611a83565b91505092915050565b600060208284031215611b3357611b3261215a565b5b6000611b4184828501611a98565b91505092915050565b60008060408385031215611b6157611b6061215a565b5b6000611b6f85828601611a83565b925050602083013567ffffffffffffffff811115611b9057611b8f612155565b5b611b9c85828601611aad565b9150509250929050565b60008060408385031215611bbd57611bbc61215a565b5b6000611bcb85828601611a83565b9250506020611bdc85828601611adb565b9150509250929050565b600080600060608486031215611bff57611bfe61215a565b5b6000611c0d86828701611a83565b9350506020611c1e86828701611adb565b9250506040611c2f86828701611adb565b9150509250925092565b611c4281612003565b82525050565b611c5181612003565b82525050565b611c6081612015565b82525050565b6000611c7182611ec7565b611c7b8185611edd565b9350611c8b81856020860161205a565b611c948161215f565b840191505092915050565b6000611cac600083611ed2565b9150611cb782612170565b600082019050919050565b6000611ccf601f83611edd565b9150611cda82612173565b602082019050919050565b604082016000820151611cfb6000850182611d14565b506020820151611d0e6020850182611c39565b50505050565b611d1d81612041565b82525050565b611d2c81612041565b82525050565b6000611d3d82611c9f565b9150819050919050565b6000606082019050611d5c6000830186611c48565b611d696020830185611c48565b611d766040830184611d23565b949350505050565b6000604082019050611d936000830185611c48565b611da06020830184611d23565b9392505050565b6000606082019050611dbc6000830186611c48565b611dc96020830185611d23565b611dd66040830184611d23565b949350505050565b6000602082019050611df36000830184611c57565b92915050565b60006020820190508181036000830152611e138184611c66565b905092915050565b60006020820190508181036000830152611e3481611cc2565b9050919050565b6000604082019050611e506000830184611ce5565b92915050565b6000602082019050611e6b6000830184611d23565b92915050565b6000611e7b611e8c565b9050611e87828261208d565b919050565b6000604051905090565b600067ffffffffffffffff821115611eb157611eb061211c565b5b611eba8261215f565b9050602081019050919050565b600081519050919050565b600081905092915050565b600082825260208201905092915050565b6000611ef982612041565b9150611f0483612041565b9250827fffffffffffffffffffffffffffffffffffffffffffffffffffffffffffffffff03821115611f3957611f386120be565b5b828201905092915050565b6000611f4f82612041565b9150611f5a83612041565b925082611f6a57611f696120ed565b5b828204905092915050565b6000611f8082612041565b9150611f8b83612041565b9250817fffffffffffffffffffffffffffffffffffffffffffffffffffffffffffffffff0483118215151615611fc457611fc36120be565b5b828202905092915050565b6000611fda82612041565b9150611fe583612041565b925082821015611ff857611ff76120be565b5b828203905092915050565b600061200e82612021565b9050919050565b60008115159050919050565b600073ffffffffffffffffffffffffffffffffffffffff82169050919050565b6000819050919050565b82818337600083830152505050565b60005b8381101561207857808201518184015260208101905061205d565b83811115612087576000848401525b50505050565b6120968261215f565b810181811067ffffffffffffffff821117156120b5576120b461211c565b5b80604052505050565b7f4e487b7100000000000000000000000000000000000000000000000000000000600052601160045260246000fd5b7f4e487b7100000000000000000000000000000000000000000000000000000000600052601260045260246000fd5b7f4e487b7100000000000000000000000000000000000000000000000000000000600052604160045260246000fd5b600080fd5b600080fd5b600080fd5b600080fd5b6000601f19601f8301169050919050565b50565b7f5265656e7472616e637947756172643a207265656e7472616e742063616c6c00600082015250565b6121a581612003565b81146121b057600080fd5b50565b6121bc81612041565b81146121c757600080fd5b5056fea2646970667358221220ce3916e32eb9cfc77fd8fa67d928d90215da241dc6086ffcbc7de2bf4fd473ae64736f6c63430008070033",
  "linkReferences": {},
  "deployedLinkReferences": {}
}