{
  "_format": "hh-sol-artifact-1",
  "contractName": "NeuralNFTMarketplace",
  "sourceName": "contracts/NeuralNFTMarketplace.sol",
  "abi": [
    {
      "inputs": [],
      "stateMutability": "nonpayable",
      "type": "constructor"
    },
    {
      "inputs": [
        {
          "internalType": "uint256",
          "name": "tokenId",
          "type": "uint256"
        }
      ],
      "name": "NeuralNFTMarketplace__AlreadyListed",
      "type": "error"
    },
    {
      "inputs": [],
      "name": "NeuralNFTMarketplace__InsufficientFunds",
      "type": "error"
    },
    {
      "inputs": [],
      "name": "NeuralNFTMarketplace__NoEarnings",
      "type": "error"
    },
    {
      "inputs": [],
      "name": "NeuralNFTMarketplace__NotCreator",
      "type": "error"
    },
    {
      "inputs": [
        {
          "internalType": "uint256",
          "name": "tokenId",
          "type": "uint256"
        }
      ],
      "name": "NeuralNFTMarketplace__NotListed",
      "type": "error"
    },
    {
      "inputs": [],
      "name": "NeuralNFTMarketplace__NotOwner",
      "type": "error"
    },
    {
      "inputs": [],
      "name": "NeuralNFTMarketplace__PriceMustBeAboveZero",
      "type": "error"
    },
    {
      "inputs": [
        {
          "internalType": "uint256",
          "name": "tokenId",
          "type": "uint256"
        },
        {
          "internalType": "uint256",
          "name": "price",
          "type": "uint256"
        }
      ],
      "name": "NeuralNFTMarketplace__PriceNotMet",
      "type": "error"
    },
    {
      "inputs": [
        {
          "internalType": "uint96",
          "name": "",
          "type": "uint96"
        }
      ],
      "name": "NeuralNFTMarketplace__RoyaltyFeesTooHigh",
      "type": "error"
    },
    {
      "inputs": [],
      "name": "NeuralNFTMarketplace__TransferFailed",
      "type": "error"
    },
    {
      "anonymous": false,
      "inputs": [
        {
          "indexed": true,
          "internalType": "address",
          "name": "owner",
          "type": "address"
        },
        {
          "indexed": true,
          "internalType": "address",
          "name": "approved",
          "type": "address"
        },
        {
          "indexed": true,
          "internalType": "uint256",
          "name": "tokenId",
          "type": "uint256"
        }
      ],
      "name": "Approval",
      "type": "event"
    },
    {
      "anonymous": false,
      "inputs": [
        {
          "indexed": true,
          "internalType": "address",
          "name": "owner",
          "type": "address"
        },
        {
          "indexed": true,
          "internalType": "address",
          "name": "operator",
          "type": "address"
        },
        {
          "indexed": false,
          "internalType": "bool",
          "name": "approved",
          "type": "bool"
        }
      ],
      "name": "ApprovalForAll",
      "type": "event"
    },
    {
      "anonymous": false,
      "inputs": [
        {
          "indexed": true,
          "internalType": "address",
          "name": "buyer",
          "type": "address"
        },
        {
          "indexed": true,
          "internalType": "uint256",
          "name": "tokenId",
          "type": "uint256"
        },
        {
          "indexed": false,
          "internalType": "uint256",
          "name": "price",
          "type": "uint256"
        }
      ],
      "name": "ItemBought",
      "type": "event"
    },
    {
      "anonymous": false,
      "inputs": [
        {
          "indexed": true,
          "internalType": "address",
          "name": "seller",
          "type": "address"
        },
        {
          "indexed": true,
          "internalType": "uint256",
          "name": "tokenId",
          "type": "uint256"
        }
      ],
      "name": "ItemCancelled",
      "type": "event"
    },
    {
      "anonymous": false,
      "inputs": [
        {
          "indexed": true,
          "internalType": "address",
          "name": "seller",
          "type": "address"
        },
        {
          "indexed": true,
          "internalType": "uint256",
          "name": "tokenId",
          "type": "uint256"
        },
        {
          "indexed": false,
          "internalType": "uint256",
          "name": "price",
          "type": "uint256"
        }
      ],
      "name": "ItemListed",
      "type": "event"
    },
    {
      "anonymous": false,
      "inputs": [
        {
          "indexed": true,
          "internalType": "address",
          "name": "creator",
          "type": "address"
        },
        {
          "indexed": true,
          "internalType": "uint256",
          "name": "tokenId",
          "type": "uint256"
        },
        {
          "indexed": false,
          "internalType": "uint96",
          "name": "royaltyFees",
          "type": "uint96"
        }
      ],
      "name": "NewNftMinted",
      "type": "event"
    },
    {
      "anonymous": false,
      "inputs": [
        {
          "indexed": true,
          "internalType": "uint256",
          "name": "tokenId",
          "type": "uint256"
        },
        {
          "indexed": false,
          "internalType": "uint96",
          "name": "royaltyFees",
          "type": "uint96"
        }
      ],
      "name": "NftRoyaltyUpdated",
      "type": "event"
    },
    {
      "anonymous": false,
      "inputs": [
        {
          "indexed": true,
          "internalType": "address",
          "name": "from",
          "type": "address"
        },
        {
          "indexed": true,
          "internalType": "address",
          "name": "to",
          "type": "address"
        },
        {
          "indexed": true,
          "internalType": "uint256",
          "name": "tokenId",
          "type": "uint256"
        }
      ],
      "name": "Transfer",
      "type": "event"
    },
    {
      "stateMutability": "payable",
      "type": "fallback"
    },
    {
      "inputs": [],
      "name": "PLATFORM_FEE",
      "outputs": [
        {
          "internalType": "uint256",
          "name": "",
          "type": "uint256"
        }
      ],
      "stateMutability": "view",
      "type": "function"
    },
    {
      "inputs": [
        {
          "internalType": "address",
          "name": "to",
          "type": "address"
        },
        {
          "internalType": "uint256",
          "name": "tokenId",
          "type": "uint256"
        }
      ],
      "name": "approve",
      "outputs": [],
      "stateMutability": "nonpayable",
      "type": "function"
    },
    {
      "inputs": [
        {
          "internalType": "address",
          "name": "owner",
          "type": "address"
        }
      ],
      "name": "balanceOf",
      "outputs": [
        {
          "internalType": "uint256",
          "name": "",
          "type": "uint256"
        }
      ],
      "stateMutability": "view",
      "type": "function"
    },
    {
      "inputs": [
        {
          "internalType": "uint256",
          "name": "tokenId",
          "type": "uint256"
        }
      ],
      "name": "buyItem",
      "outputs": [],
      "stateMutability": "payable",
      "type": "function"
    },
    {
      "inputs": [
        {
          "internalType": "uint256",
          "name": "tokenId",
          "type": "uint256"
        }
      ],
      "name": "cancelListing",
      "outputs": [],
      "stateMutability": "nonpayable",
      "type": "function"
    },
    {
      "inputs": [
        {
          "internalType": "uint256",
          "name": "tokenId",
          "type": "uint256"
        }
      ],
      "name": "getApproved",
      "outputs": [
        {
          "internalType": "address",
          "name": "",
          "type": "address"
        }
      ],
      "stateMutability": "view",
      "type": "function"
    },
    {
      "inputs": [
        {
          "internalType": "uint256",
          "name": "tokenId",
          "type": "uint256"
        }
      ],
      "name": "getCreator",
      "outputs": [
        {
          "internalType": "address",
          "name": "",
          "type": "address"
        }
      ],
      "stateMutability": "view",
      "type": "function"
    },
    {
      "inputs": [],
      "name": "getEarnings",
      "outputs": [
        {
          "internalType": "uint256",
          "name": "",
          "type": "uint256"
        }
      ],
      "stateMutability": "view",
      "type": "function"
    },
    {
      "inputs": [],
      "name": "getListFee",
      "outputs": [
        {
          "internalType": "uint256",
          "name": "",
          "type": "uint256"
        }
      ],
      "stateMutability": "view",
      "type": "function"
    },
    {
      "inputs": [
        {
          "internalType": "uint256",
          "name": "tokenId",
          "type": "uint256"
        }
      ],
      "name": "getListing",
      "outputs": [
        {
          "components": [
            {
              "internalType": "uint256",
              "name": "price",
              "type": "uint256"
            },
            {
              "internalType": "address",
              "name": "seller",
              "type": "address"
            }
          ],
          "internalType": "struct NeuralNFTMarketplace.Listing",
          "name": "",
          "type": "tuple"
        }
      ],
      "stateMutability": "view",
      "type": "function"
    },
    {
      "inputs": [],
      "name": "getPlatformFee",
      "outputs": [
        {
          "internalType": "uint256",
          "name": "",
          "type": "uint256"
        }
      ],
      "stateMutability": "pure",
      "type": "function"
    },
    {
      "inputs": [
        {
          "internalType": "address",
          "name": "owner",
          "type": "address"
        },
        {
          "internalType": "address",
          "name": "operator",
          "type": "address"
        }
      ],
      "name": "isApprovedForAll",
      "outputs": [
        {
          "internalType": "bool",
          "name": "",
          "type": "bool"
        }
      ],
      "stateMutability": "view",
      "type": "function"
    },
    {
      "inputs": [
        {
          "internalType": "uint256",
          "name": "tokenId",
          "type": "uint256"
        },
        {
          "internalType": "uint256",
          "name": "price",
          "type": "uint256"
        }
      ],
      "name": "listItem",
      "outputs": [],
      "stateMutability": "payable",
      "type": "function"
    },
    {
      "inputs": [
        {
          "internalType": "string",
          "name": "nftURI",
          "type": "string"
        },
        {
          "internalType": "address",
          "name": "royaltyReceiver",
          "type": "address"
        },
        {
          "internalType": "uint96",
          "name": "_royaltyFeesInBips",
          "type": "uint96"
        }
      ],
      "name": "mintNft",
      "outputs": [
        {
          "internalType": "uint256",
          "name": "newItemId",
          "type": "uint256"
        }
      ],
      "stateMutability": "nonpayable",
      "type": "function"
    },
    {
      "inputs": [],
      "name": "name",
      "outputs": [
        {
          "internalType": "string",
          "name": "",
          "type": "string"
        }
      ],
      "stateMutability": "view",
      "type": "function"
    },
    {
      "inputs": [
        {
          "internalType": "uint256",
          "name": "tokenId",
          "type": "uint256"
        }
      ],
      "name": "ownerOf",
      "outputs": [
        {
          "internalType": "address",
          "name": "",
          "type": "address"
        }
      ],
      "stateMutability": "view",
      "type": "function"
    },
    {
      "inputs": [
        {
          "internalType": "uint256",
          "name": "_tokenId",
          "type": "uint256"
        },
        {
          "internalType": "uint256",
          "name": "_salePrice",
          "type": "uint256"
        }
      ],
      "name": "royaltyInfo",
      "outputs": [
        {
          "internalType": "address",
          "name": "",
          "type": "address"
        },
        {
          "internalType": "uint256",
          "name": "",
          "type": "uint256"
        }
      ],
      "stateMutability": "view",
      "type": "function"
    },
    {
      "inputs": [],
      "name": "s_list_fee",
      "outputs": [
        {
          "internalType": "uint256",
          "name": "",
          "type": "uint256"
        }
      ],
      "stateMutability": "view",
      "type": "function"
    },
    {
      "inputs": [
        {
          "internalType": "address",
          "name": "from",
          "type": "address"
        },
        {
          "internalType": "address",
          "name": "to",
          "type": "address"
        },
        {
          "internalType": "uint256",
          "name": "tokenId",
          "type": "uint256"
        }
      ],
      "name": "safeTransferFrom",
      "outputs": [],
      "stateMutability": "nonpayable",
      "type": "function"
    },
    {
      "inputs": [
        {
          "internalType": "address",
          "name": "from",
          "type": "address"
        },
        {
          "internalType": "address",
          "name": "to",
          "type": "address"
        },
        {
          "internalType": "uint256",
          "name": "tokenId",
          "type": "uint256"
        },
        {
          "internalType": "bytes",
          "name": "data",
          "type": "bytes"
        }
      ],
      "name": "safeTransferFrom",
      "outputs": [],
      "stateMutability": "nonpayable",
      "type": "function"
    },
    {
      "inputs": [
        {
          "internalType": "address",
          "name": "operator",
          "type": "address"
        },
        {
          "internalType": "bool",
          "name": "approved",
          "type": "bool"
        }
      ],
      "name": "setApprovalForAll",
      "outputs": [],
      "stateMutability": "nonpayable",
      "type": "function"
    },
    {
      "inputs": [
        {
          "internalType": "uint256",
          "name": "newListFee",
          "type": "uint256"
        }
      ],
      "name": "setListFee",
      "outputs": [],
      "stateMutability": "nonpayable",
      "type": "function"
    },
    {
      "inputs": [
        {
          "internalType": "uint256",
          "name": "_tokenId",
          "type": "uint256"
        },
        {
          "internalType": "address",
          "name": "_receiver",
          "type": "address"
        },
        {
          "internalType": "uint96",
          "name": "_royaltyFeesInBips",
          "type": "uint96"
        }
      ],
      "name": "setRoyaltyInfo",
      "outputs": [],
      "stateMutability": "nonpayable",
      "type": "function"
    },
    {
      "inputs": [
        {
          "internalType": "bytes4",
          "name": "interfaceId",
          "type": "bytes4"
        }
      ],
      "name": "supportsInterface",
      "outputs": [
        {
          "internalType": "bool",
          "name": "",
          "type": "bool"
        }
      ],
      "stateMutability": "view",
      "type": "function"
    },
    {
      "inputs": [],
      "name": "symbol",
      "outputs": [
        {
          "internalType": "string",
          "name": "",
          "type": "string"
        }
      ],
      "stateMutability": "view",
      "type": "function"
    },
    {
      "inputs": [
        {
          "internalType": "uint256",
          "name": "tokenId",
          "type": "uint256"
        }
      ],
      "name": "tokenURI",
      "outputs": [
        {
          "internalType": "string",
          "name": "",
          "type": "string"
        }
      ],
      "stateMutability": "view",
      "type": "function"
    },
    {
      "inputs": [
        {
          "internalType": "address",
          "name": "from",
          "type": "address"
        },
        {
          "internalType": "address",
          "name": "to",
          "type": "address"
        },
        {
          "internalType": "uint256",
          "name": "tokenId",
          "type": "uint256"
        }
      ],
      "name": "transferFrom",
      "outputs": [],
      "stateMutability": "nonpayable",
      "type": "function"
    },
    {
      "inputs": [
        {
          "internalType": "uint256",
          "name": "tokenId",
          "type": "uint256"
        },
        {
          "internalType": "uint256",
          "name": "newPrice",
          "type": "uint256"
        }
      ],
      "name": "updateListing",
      "outputs": [],
      "stateMutability": "payable",
      "type": "function"
    },
    {
      "inputs": [],
      "name": "withdrawEarnings",
      "outputs": [],
      "stateMutability": "nonpayable",
      "type": "function"
    },
    {
      "stateMutability": "payable",
      "type": "receive"
    }
  ],
  "bytecode": "0x60a060405266038d7ea4c68000600e553480156200001c57600080fd5b506040518060400160405280600981526020017f4e657572616c4e465400000000000000000000000000000000000000000000008152506040518060400160405280600481526020017f4e4e4654000000000000000000000000000000000000000000000000000000008152508160029080519060200190620000a1929190620001a1565b508060039080519060200190620000ba929190620001a1565b5050506001600981905550620000f97f1638379c2c525734eac8c109ed4a82fc65fca049f92f3de62a3c7ab54b839de260001b6200019e60201b60201c565b6200012d7f93f508bff8b44cedfb3a10c39fac18385848df1cf007c1adac06896303538f8460001b6200019e60201b60201c565b620001617f6690a420fc30d5f2190419acdbce9a876298107678f5ad7c10a060336e6e820d60001b6200019e60201b60201c565b3373ffffffffffffffffffffffffffffffffffffffff1660808173ffffffffffffffffffffffffffffffffffffffff1660601b81525050620002b6565b50565b828054620001af9062000251565b90600052602060002090601f016020900481019282620001d357600085556200021f565b82601f10620001ee57805160ff19168380011785556200021f565b828001600101855582156200021f579182015b828111156200021e57825182559160200191906001019062000201565b5b5090506200022e919062000232565b5090565b5b808211156200024d57600081600090555060010162000233565b5090565b600060028204905060018216806200026a57607f821691505b6020821081141562000281576200028062000287565b5b50919050565b7f4e487b7100000000000000000000000000000000000000000000000000000000600052602260045260246000fd5b60805160601c617214620002f8600039600081816101fe015281816102fa01528181610fb2015281816119e7015281816131c101526147d801526172146000f3fe6080604052600436106101c65760003560e01c80636ea8bc10116100f7578063b73c6ce911610095578063d48e638a11610064578063d48e638a146107ed578063e7fb74c71461082a578063e985e9c514610846578063fb513492146108835761026f565b8063b73c6ce914610745578063b88d4fde1461075c578063c379f64714610785578063c87b56dd146107b05761026f565b806390666232116100d1578063906662321461068957806395d89b41146106b45780639ed19d80146106df578063a22cb4651461071c5761026f565b80636ea8bc101461060557806370a0823114610630578063883efa671461066d5761026f565b80631d04886011610164578063305a67a81161013e578063305a67a81461054b57806334fbc9a11461057457806342842e0e1461059f5780636352211e146105c85761026f565b80631d048860146104bb57806323b872dd146104e45780632a55205a1461050d5761026f565b8063081812fc116101a0578063081812fc146103ef578063095ea7b31461042c578063107a274a146104555780631495fa99146104925761026f565b80630179ea881461036b57806301ffc9a71461038757806306fdde03146103c45761026f565b3661026f576101f77fba74efb9e0c0460fa23ecb01853b0cd07e1df6489c97814f63dcb41ce5636ceb60001b6108ae565b34600c60007f000000000000000000000000000000000000000000000000000000000000000073ffffffffffffffffffffffffffffffffffffffff1673ffffffffffffffffffffffffffffffffffffffff168152602001908152602001600020600082825461026691906169db565b92505081905550005b61029b7f9d5ddf8729ffc552bbd4bd03ce054311e89242d064ef2d9fcae5180a0824b38760001b6108ae565b6102c77f29cb0070fb8788b93b0a9e2e88224a57ea5f7091b5a580a0c79570f74426f2a260001b6108ae565b6102f37f8ffc82504de5be95ae6a215fa9cfd8d1202dc09f1d9e4c2fda87b06ad8b0695760001b6108ae565b34600c60007f000000000000000000000000000000000000000000000000000000000000000073ffffffffffffffffffffffffffffffffffffffff1673ffffffffffffffffffffffffffffffffffffffff168152602001908152602001600020600082825461036291906169db565b92505081905550005b610385600480360381019061038091906161d3565b6108b1565b005b34801561039357600080fd5b506103ae60048036038101906103a9919061608a565b61114b565b6040516103bb919061666f565b60405180910390f35b3480156103d057600080fd5b506103d96111e1565b6040516103e6919061668a565b60405180910390f35b3480156103fb57600080fd5b5061041660048036038101906104119190616153565b611273565b60405161042391906165a8565b60405180910390f35b34801561043857600080fd5b50610453600480360381019061044e919061604a565b6112b9565b005b34801561046157600080fd5b5061047c60048036038101906104779190616153565b6113d1565b604051610489919061688c565b60405180910390f35b34801561049e57600080fd5b506104b960048036038101906104b49190616180565b6114e2565b005b3480156104c757600080fd5b506104e260048036038101906104dd9190616153565b611961565b005b3480156104f057600080fd5b5061050b60048036038101906105069190615f34565b611b50565b005b34801561051957600080fd5b50610534600480360381019061052f91906161d3565b611e41565b604051610542929190616646565b60405180910390f35b34801561055757600080fd5b50610572600480360381019061056d9190616153565b61202c565b005b34801561058057600080fd5b506105896125bc565b60405161059691906168a7565b60405180910390f35b3480156105ab57600080fd5b506105c660048036038101906105c19190615f34565b6125c1565b005b3480156105d457600080fd5b506105ef60048036038101906105ea9190616153565b6128b2565b6040516105fc91906165a8565b60405180910390f35b34801561061157600080fd5b5061061a612964565b60405161062791906168a7565b60405180910390f35b34801561063c57600080fd5b5061065760048036038101906106529190615ec7565b6129f1565b60405161066491906168a7565b60405180910390f35b610687600480360381019061068291906161d3565b612aa9565b005b34801561069557600080fd5b5061069e6133ca565b6040516106ab91906168a7565b60405180910390f35b3480156106c057600080fd5b506106c9613495565b6040516106d6919061668a565b60405180910390f35b3480156106eb57600080fd5b50610706600480360381019061070191906160e4565b613527565b60405161071391906168a7565b60405180910390f35b34801561072857600080fd5b50610743600480360381019061073e919061600a565b613a7b565b005b34801561075157600080fd5b5061075a613a91565b005b34801561076857600080fd5b50610783600480360381019061077e9190615f87565b613f3d565b005b34801561079157600080fd5b5061079a613f9f565b6040516107a791906168a7565b60405180910390f35b3480156107bc57600080fd5b506107d760048036038101906107d29190616153565b613fa5565b6040516107e4919061668a565b60405180910390f35b3480156107f957600080fd5b50610814600480360381019061080f9190616153565b6140b8565b60405161082191906165a8565b60405180910390f35b610844600480360381019061083f9190616153565b614179565b005b34801561085257600080fd5b5061086d60048036038101906108689190615ef4565b614a3c565b60405161087a919061666f565b60405180910390f35b34801561088f57600080fd5b50610898614ad0565b6040516108a591906168a7565b60405180910390f35b50565b81336108df7fcb168806450aa41e4b601bf4f0a757720a6357a12b7545124b70521aa2be211760001b6108ae565b61090b7f9dc7553da9f5413f0e3fc885f2a7dd8fdae523089bd83fe265fea96ffc2f75a360001b6108ae565b6109377fcb76b337504450227dfe97df6b3db56e06691e912453827958a061df4f73c55560001b6108ae565b610940826128b2565b73ffffffffffffffffffffffffffffffffffffffff168173ffffffffffffffffffffffffffffffffffffffff16146109fc5761099e7ffa3e625988a393013f775fb07c23e7065d9ab3977736d3c50ff8b3f2147b3c1e60001b6108ae565b6109ca7fd769ffa7177d37c00c96b6dfe85f62434d1054c119345d79ffff0dcfadc00b8460001b6108ae565b6040517f2ac3f91100000000000000000000000000000000000000000000000000000000815260040160405180910390fd5b610a287fabf07ef971dfb06796cf9ef8d0384c9bb7683b641beed23f5ebf1f94adf7e88660001b6108ae565b610a547f48ffd5f71f9ed4a001d3ef05b34918a72712408d52eaa9fd459c47c66628f94f60001b6108ae565b83610a817f737e76c557fbf21dfe9c9a290dbe38426dc2999505c1db841d453ce609650b9460001b6108ae565b610aad7f12963fdbb1c88ab5e6c9968488d9a3aaf67489b4526f9e02bf68e2d2866006ca60001b6108ae565b610ad97ffe819165ef2fd86c8e79f82f8cc4f798359fd4368b0c7c78533a16d299599c0960001b6108ae565b6000600b6000838152602001908152602001600020604051806040016040529081600082015481526020016001820160009054906101000a900473ffffffffffffffffffffffffffffffffffffffff1673ffffffffffffffffffffffffffffffffffffffff1673ffffffffffffffffffffffffffffffffffffffff16815250509050610b877f41569c7844e8a439c68891225b2cc87157312e9e02c034568e11364f4dbf6b7c60001b6108ae565b610bb37f27992a9b285d7814e1516fb293ca3516147fa07b7fd58becf443ada06f8d983860001b6108ae565b6000816000015111610c5457610beb7fe0d1fb15572ade9ad366b8373a366e0c30187d2e016c00660739e4f95f61c6d760001b6108ae565b610c177ffb575a0d6fc9616cabd448d310d1aaa9df4056510a1653ea4c968e76f64a0f2b60001b6108ae565b816040517fdb363db8000000000000000000000000000000000000000000000000000000008152600401610c4b91906168a7565b60405180910390fd5b610c7f7e84fb59643a8bed7213da39dadcfc4fa0b29d6af2d972b83668e6deed8cd32a60001b6108ae565b610cab7f5a6db8743f76ce739db18380435420d88882c0f4f1bc2d7b4457a16d4324fa0160001b6108ae565b60026009541415610cf1576040517f08c379a0000000000000000000000000000000000000000000000000000000008152600401610ce89061686c565b60405180910390fd5b6002600981905550610d257f7e0247c4228a4a80d999a5c61bb454f84e5204f3310398450d7f9aa14a95d48e60001b6108ae565b610d517f52250d22fc67494cd2acbe9ed84fc6ab4376cd45d0ea46a4e041522bf3b11de960001b6108ae565b610d7d7f25c773e1f3b6d2bd2cdb70b62af5d87cb500527ccd599a2a74d55869bc164d9060001b6108ae565b600e54341015610e1157610db37ffb69c364953567409704504ab58fe1dc684def0bcaf58e420787da8c1a87d91d60001b6108ae565b610ddf7f3ff506b64a4a4fdcab63f0be341ebc4c78f2405848f8de76c3e7226e2749badd60001b6108ae565b6040517fade20f9200000000000000000000000000000000000000000000000000000000815260040160405180910390fd5b610e3d7f91c2d19e1b3df30f48bb1b723a7210cd5dd1de771eddee444d973e41bc66a6ad60001b6108ae565b610e697f6a9f7f7a98dd38d4e0572094609f68791de6c0ed0c90fdd425d7d61b223c670960001b6108ae565b610e957f2aaba13048858edd82411bec269c69c5d14da4dfaf5f138275a2d100b8a3fba060001b6108ae565b60008511610f2757610ec97f7490bb7f424ef075961c17c0484393fb1e42cb5d8e42c15512e0f53ba6370ae660001b6108ae565b610ef57f40de71d39cf23ae79b66052fa9c65169ef28d213b877d8b18da1193f32ab6eea60001b6108ae565b6040517ff1c64ea600000000000000000000000000000000000000000000000000000000815260040160405180910390fd5b610f537fc3b9e15b3d454d17f074d8c6445e10e596991c8f35ebc5963a4aef6a963f722c60001b6108ae565b610f7f7fc1890fc9ef8ee78645b7620f2b35ede0eb3b4f589352b1b57b06c16a6e0d19c060001b6108ae565b610fab7f9b5715aa797af8f6ff1155093a88830ac46972d492e0a4256d433c9b7926528460001b6108ae565b34600c60007f000000000000000000000000000000000000000000000000000000000000000073ffffffffffffffffffffffffffffffffffffffff1673ffffffffffffffffffffffffffffffffffffffff168152602001908152602001600020600082825461101a91906169db565b9250508190555061104d7f419f3cc3a32ef7686d6ad12385c747e68d50420e6e5dd53be81f746a03064e1360001b6108ae565b6110797f84c01fe35ff2937f4be0d1605da73652a873da003d807030369c6272da786b9860001b6108ae565b84600b6000888152602001908152602001600020600001819055506110c07f50b17710647ce37b77d905cef645fce3702a5dda84f5e567b1e5173babed4ea560001b6108ae565b6110ec7fc4df244e29ae97b44dc1f558fa1b74b716b089656091c9858ed317ec4a09f2fb60001b6108ae565b853373ffffffffffffffffffffffffffffffffffffffff167f94e7b934c857a9e3202e8ed9c1f3f96e396b7d2b5885930d2001abcb51ff58fa8760405161113391906168a7565b60405180910390a36001600981905550505050505050565b60006111797fcfb919d45fe67d89e861cab8b93d59048a3e60b98ef30f954a966e4ae06751a260001b6108ae565b6111a57f4a9829aaf7f5d3e0b7f597396ab9886628e031f0b09a9b3b8c082fedf49cf38b60001b6108ae565b6111d17f227785c86c4eef2efdb4486cc7503446d4b14857fd4adab4624ea92160f496ef60001b6108ae565b6111da82614b5e565b9050919050565b6060600280546111f090616bbe565b80601f016020809104026020016040519081016040528092919081815260200182805461121c90616bbe565b80156112695780601f1061123e57610100808354040283529160200191611269565b820191906000526020600020905b81548152906001019060200180831161124c57829003601f168201915b5050505050905090565b600061127e82614c40565b6006600083815260200190815260200160002060009054906101000a900473ffffffffffffffffffffffffffffffffffffffff169050919050565b60006112c4826128b2565b90508073ffffffffffffffffffffffffffffffffffffffff168373ffffffffffffffffffffffffffffffffffffffff161415611335576040517f08c379a000000000000000000000000000000000000000000000000000000000815260040161132c906167ec565b60405180910390fd5b8073ffffffffffffffffffffffffffffffffffffffff16611354614c8b565b73ffffffffffffffffffffffffffffffffffffffff16148061138357506113828161137d614c8b565b614a3c565b5b6113c2576040517f08c379a00000000000000000000000000000000000000000000000000000000081526004016113b99061678c565b60405180910390fd5b6113cc8383614c93565b505050565b6113d9615c96565b6114057fc9e2af8d85d1609ed0aedb3a34c834a5914ef18eda0f1ffb0adba586ada37aa860001b6108ae565b6114317f2ac304c7aef0a176e90c3cb6d1b61e1a00da428e68c54b7ae75f6d516ac33a9b60001b6108ae565b61145d7f17618e216889b39810adc8a2e9b8111c42e3eb7357eb4d62a6854891fda79ba660001b6108ae565b600b6000838152602001908152602001600020604051806040016040529081600082015481526020016001820160009054906101000a900473ffffffffffffffffffffffffffffffffffffffff1673ffffffffffffffffffffffffffffffffffffffff1673ffffffffffffffffffffffffffffffffffffffff16815250509050919050565b8061150f7f3dcf37abc1ffcd80ea829d12052f6ac3154fa3a00bbfbe0b5e21e19c4c59a8ae60001b6108ae565b61153b7fe20b663712d9c495aa72e597d7dfb0401859cf570c0bc13578f9ba81b792cf2860001b6108ae565b6115677f5ecb9f5c32590d48dbc0c0b11741b09f070c0e551a657af31bcd427f38e3108a60001b6108ae565b6107d0816bffffffffffffffffffffffff161115611614576115ab7f9afe986ad7ffefa365b4ed30e1e02a9581e101e970428db5f66e41e4232b403f60001b6108ae565b6115d77f5f2e4624db6f7363a8f4abbfb35b212d761128b78c73d9a6425e9fb96334ab3d60001b6108ae565b806040517f05a79cda00000000000000000000000000000000000000000000000000000000815260040161160b91906168eb565b60405180910390fd5b6116407f4551231fc23cf4bb1aa4afedd5dee9e78c2b94406b9f64e3a4cfabba2c9f818e60001b6108ae565b61166c7ff039132163a5f7801a2fbb086743469c2887224b0af33bf5fabba52e3292a61460001b6108ae565b833361169a7fdfb94b207b246f2e0a448bcb87f47125ec02c64bd0e24d3d92114c41734d0f5260001b6108ae565b6116c67fc711b8796a0a0c1f8717f3bf4907612df044b0e53b66aed71cea4219c0582c8460001b6108ae565b6116f27f0fff58686c2c2ed235cedc5a81f4359be8b3e5f8ce9845b24f7b87ef109c81f460001b6108ae565b8073ffffffffffffffffffffffffffffffffffffffff16600d600084815260200190815260200160002060009054906101000a900473ffffffffffffffffffffffffffffffffffffffff1673ffffffffffffffffffffffffffffffffffffffff16146117e2576117847fd59bfedead4c4133af407706d0a326ea2fedc8bf140008a4df2b0d5eb1c7dfe060001b6108ae565b6117b07f757c463c734e23cd53e149eba38ca04281ff104cb6c7621b8e8b470c25770d0060001b6108ae565b6040517f0bfc395c00000000000000000000000000000000000000000000000000000000815260040160405180910390fd5b61180e7f13cf4fbfb5bb80e636cae74154c2e6db46c8ed53f46086308519c71a15053bcb60001b6108ae565b61183a7ff6e594d5aa6c4a2738da5f274e93badf8c2c8e7ee5f069dcbc7c77316ea0b3e860001b6108ae565b6118667f44c035fadd0313ba71c93eec204685146dda61d954f92c9378ff1ea0298a271d60001b6108ae565b6118927fbb7cdd11b8855e557a13ca7da9a81136ad3159e72f12c5668d3ccaf4880707fa60001b6108ae565b6118be7ff05fc695318e80cbce918cee87d0356ee5250fb836e4913200de83c15184bec760001b6108ae565b6118c9868686614d4c565b6118f57f9f973c5c26c73bf70adeb65530c347a46f11b9e944c41945d32c4389a5f8c50160001b6108ae565b6119217fa993e43eb98e1d8c9e3f7e7ff4434d6ba2ed8688ef0e85c1a07e6ca465e0298060001b6108ae565b857f51a561a62c793496a64ccae0329d6a4a31b3b2107025e3d0770a06b6188f50638560405161195191906168eb565b60405180910390a2505050505050565b61198d7f258cf62669124deb5bd01a49b8e2f96524e833d2d9eec00b90d8371196edabee60001b6108ae565b6119b97f2d0f73e7aaf3afd5d86748c326aa0e5cc7358e14a0272dddf486aa88903614ab60001b6108ae565b6119e57f99c976f97884d3d8c2d5078f2006bfd420b40ec1ad2eecc22bbd1d6b3f99c18c60001b6108ae565b7f000000000000000000000000000000000000000000000000000000000000000073ffffffffffffffffffffffffffffffffffffffff163373ffffffffffffffffffffffffffffffffffffffff1614611ac257611a647fa25b34db491f2f14a9604d9752dec13a22bc11ba128e92713d6d039ccda494c960001b6108ae565b611a907f55bbea01cc96cc3980bc11c190e0c2151fea5bfcfbc4419266c51dbca09c35d460001b6108ae565b6040517f2ac3f91100000000000000000000000000000000000000000000000000000000815260040160405180910390fd5b611aee7fa43553de15f53f905d78f3c6be508658902bc1782e9e487be2f3b325211103cb60001b6108ae565b611b1a7f8d433f5e640f000aee17da1554eae07f1e449351fa05cb7de4f737c83b3add7e60001b6108ae565b611b467ffde16152725163d2e933e69a9710f6d1ab85ac7b321f6e27db6c425f704a6cd660001b6108ae565b80600e8190555050565b8083611b7e7ff5a0721b442a96163aa91bf942f823ff148a77d93c1e163fcc7d8f6d9f65447760001b6108ae565b611baa7f4887810e7f88b7f6288e33b8e16a20d45ff7271e89405e9abcc74b4ae75b266460001b6108ae565b611bd67f4d45e336443e4819a4292518ead59e44a7de8ca3acac6d20bcd990c341352ef560001b6108ae565b6000600b6000848152602001908152602001600020604051806040016040529081600082015481526020016001820160009054906101000a900473ffffffffffffffffffffffffffffffffffffffff1673ffffffffffffffffffffffffffffffffffffffff1673ffffffffffffffffffffffffffffffffffffffff16815250509050611c847fe39210987ed3a10482ba56acf6b24d57d8e1f093e8a5d2ef774f3698e591800360001b6108ae565b611cb07fa2d52ce9aa978c789abde36e137bee5a704080d7c9eb2defa4475497225c1baa60001b6108ae565b600081600001511115611d5257611ce97f521e5caf69339e2c35e7a37256542f560a7e0357444e1ad44457aeffffa176d260001b6108ae565b611d157f14318abdb35f1b19ab9c5230e334389623c0934349bc4b272af64ca23c739f9760001b6108ae565b826040517fe000ca91000000000000000000000000000000000000000000000000000000008152600401611d4991906168a7565b60405180910390fd5b611d7e7fb1d6e26c63b2859f0f8bab6bcbafc7aca4f9a6325f517c32638e215aea3dfc1d60001b6108ae565b611daa7f4472596a9b5bef1115cf53d0e64aa5b09d3304bb6e9767e2379238ed22cd95c160001b6108ae565b611dd67f772d64f1f78e3d9996c12eb3bb696d86c2e09afe303fa89a5ed00f2cd181169f60001b6108ae565b611e027f4be67a67ee409250ccf3c9b483e131673aa8defe3f9d2ed4149efb16c2941b9660001b6108ae565b611e2e7f83a0a5de34caf700ac21e5fb057bfad7d610b7eec724ee4a9566abe18ae7375560001b6108ae565b611e39868686614ef4565b505050505050565b6000806000600160008681526020019081526020016000206040518060400160405290816000820160009054906101000a900473ffffffffffffffffffffffffffffffffffffffff1673ffffffffffffffffffffffffffffffffffffffff1673ffffffffffffffffffffffffffffffffffffffff1681526020016000820160149054906101000a90046bffffffffffffffffffffffff166bffffffffffffffffffffffff166bffffffffffffffffffffffff16815250509050600073ffffffffffffffffffffffffffffffffffffffff16816000015173ffffffffffffffffffffffffffffffffffffffff161415611fd75760006040518060400160405290816000820160009054906101000a900473ffffffffffffffffffffffffffffffffffffffff1673ffffffffffffffffffffffffffffffffffffffff1673ffffffffffffffffffffffffffffffffffffffff1681526020016000820160149054906101000a90046bffffffffffffffffffffffff166bffffffffffffffffffffffff166bffffffffffffffffffffffff168152505090505b6000611fe1614f54565b6bffffffffffffffffffffffff1682602001516bffffffffffffffffffffffff168661200d9190616a62565b6120179190616a31565b90508160000151819350935050509250929050565b803361205a7fcb168806450aa41e4b601bf4f0a757720a6357a12b7545124b70521aa2be211760001b6108ae565b6120867f9dc7553da9f5413f0e3fc885f2a7dd8fdae523089bd83fe265fea96ffc2f75a360001b6108ae565b6120b27fcb76b337504450227dfe97df6b3db56e06691e912453827958a061df4f73c55560001b6108ae565b6120bb826128b2565b73ffffffffffffffffffffffffffffffffffffffff168173ffffffffffffffffffffffffffffffffffffffff1614612177576121197ffa3e625988a393013f775fb07c23e7065d9ab3977736d3c50ff8b3f2147b3c1e60001b6108ae565b6121457fd769ffa7177d37c00c96b6dfe85f62434d1054c119345d79ffff0dcfadc00b8460001b6108ae565b6040517f2ac3f91100000000000000000000000000000000000000000000000000000000815260040160405180910390fd5b6121a37fabf07ef971dfb06796cf9ef8d0384c9bb7683b641beed23f5ebf1f94adf7e88660001b6108ae565b6121cf7f48ffd5f71f9ed4a001d3ef05b34918a72712408d52eaa9fd459c47c66628f94f60001b6108ae565b826121fc7f737e76c557fbf21dfe9c9a290dbe38426dc2999505c1db841d453ce609650b9460001b6108ae565b6122287f12963fdbb1c88ab5e6c9968488d9a3aaf67489b4526f9e02bf68e2d2866006ca60001b6108ae565b6122547ffe819165ef2fd86c8e79f82f8cc4f798359fd4368b0c7c78533a16d299599c0960001b6108ae565b6000600b6000838152602001908152602001600020604051806040016040529081600082015481526020016001820160009054906101000a900473ffffffffffffffffffffffffffffffffffffffff1673ffffffffffffffffffffffffffffffffffffffff1673ffffffffffffffffffffffffffffffffffffffff168152505090506123027f41569c7844e8a439c68891225b2cc87157312e9e02c034568e11364f4dbf6b7c60001b6108ae565b61232e7f27992a9b285d7814e1516fb293ca3516147fa07b7fd58becf443ada06f8d983860001b6108ae565b60008160000151116123cf576123667fe0d1fb15572ade9ad366b8373a366e0c30187d2e016c00660739e4f95f61c6d760001b6108ae565b6123927ffb575a0d6fc9616cabd448d310d1aaa9df4056510a1653ea4c968e76f64a0f2b60001b6108ae565b816040517fdb363db80000000000000000000000000000000000000000000000000000000081526004016123c691906168a7565b60405180910390fd5b6123fa7e84fb59643a8bed7213da39dadcfc4fa0b29d6af2d972b83668e6deed8cd32a60001b6108ae565b6124267f5a6db8743f76ce739db18380435420d88882c0f4f1bc2d7b4457a16d4324fa0160001b6108ae565b6002600954141561246c576040517f08c379a00000000000000000000000000000000000000000000000000000000081526004016124639061686c565b60405180910390fd5b60026009819055506124a07fce0117a10c31ae8e398898638d069d88525695710aa53d1df596952f454c7ec060001b6108ae565b6124cc7fbd5f467cf7f5efccc737ce123807a64174f5e8d9e56607979d38a5a14d96665b60001b6108ae565b600b60008681526020019081526020016000206000808201600090556001820160006101000a81549073ffffffffffffffffffffffffffffffffffffffff0219169055505061253d7fe2a4371c214a75ab9c203e1c8ca6a16ccc72ff342e9aa5e605c250929e1cd09960001b6108ae565b6125697ff7811259a938526df1c7f6031a9793708033584254bd82766848dd9aaeac632760001b6108ae565b843373ffffffffffffffffffffffffffffffffffffffff167f6be0c8480cb6f0bffcd4a654fb162c986ba528d5ff0e743ee21b1fc900fa264f60405160405180910390a360016009819055505050505050565b600281565b80836125ef7ff5a0721b442a96163aa91bf942f823ff148a77d93c1e163fcc7d8f6d9f65447760001b6108ae565b61261b7f4887810e7f88b7f6288e33b8e16a20d45ff7271e89405e9abcc74b4ae75b266460001b6108ae565b6126477f4d45e336443e4819a4292518ead59e44a7de8ca3acac6d20bcd990c341352ef560001b6108ae565b6000600b6000848152602001908152602001600020604051806040016040529081600082015481526020016001820160009054906101000a900473ffffffffffffffffffffffffffffffffffffffff1673ffffffffffffffffffffffffffffffffffffffff1673ffffffffffffffffffffffffffffffffffffffff168152505090506126f57fe39210987ed3a10482ba56acf6b24d57d8e1f093e8a5d2ef774f3698e591800360001b6108ae565b6127217fa2d52ce9aa978c789abde36e137bee5a704080d7c9eb2defa4475497225c1baa60001b6108ae565b6000816000015111156127c35761275a7f521e5caf69339e2c35e7a37256542f560a7e0357444e1ad44457aeffffa176d260001b6108ae565b6127867f14318abdb35f1b19ab9c5230e334389623c0934349bc4b272af64ca23c739f9760001b6108ae565b826040517fe000ca910000000000000000000000000000000000000000000000000000000081526004016127ba91906168a7565b60405180910390fd5b6127ef7fb1d6e26c63b2859f0f8bab6bcbafc7aca4f9a6325f517c32638e215aea3dfc1d60001b6108ae565b61281b7f4472596a9b5bef1115cf53d0e64aa5b09d3304bb6e9767e2379238ed22cd95c160001b6108ae565b6128477fb0ec91cbb376fa3b87a960a60cc93d907c02cf52c6f1c360d9951d067be52ca060001b6108ae565b6128737fbdc6305d6f7f16c2e29e4645df12ddb87dacbf2b92061d042a3db01528fe574160001b6108ae565b61289f7f18ee02a1816898f684ab8f8708c81853c635a4ec1c4a4f8aa316118cfaaa7d0f60001b6108ae565b6128aa868686614ef4565b505050505050565b6000806004600084815260200190815260200160002060009054906101000a900473ffffffffffffffffffffffffffffffffffffffff169050600073ffffffffffffffffffffffffffffffffffffffff168173ffffffffffffffffffffffffffffffffffffffff16141561295b576040517f08c379a0000000000000000000000000000000000000000000000000000000008152600401612952906167cc565b60405180910390fd5b80915050919050565b60006129927fc68cce5bc8b36d05ec56c7833a55cc18a389f4c7e9a6554aa6a6244ec7625da360001b6108ae565b6129be7fa7d95b76cea5e00af93607e52262858d0942cf8cd2cdca41194af3e64b67817460001b6108ae565b6129ea7ffa72a67c3bc08312ed2cf796d1ab342fba54ef36bb0aeac2ffda58e90eb5984160001b6108ae565b6002905090565b60008073ffffffffffffffffffffffffffffffffffffffff168273ffffffffffffffffffffffffffffffffffffffff161415612a62576040517f08c379a0000000000000000000000000000000000000000000000000000000008152600401612a599061674c565b60405180910390fd5b600560008373ffffffffffffffffffffffffffffffffffffffff1673ffffffffffffffffffffffffffffffffffffffff168152602001908152602001600020549050919050565b8133612ad77ff5a0721b442a96163aa91bf942f823ff148a77d93c1e163fcc7d8f6d9f65447760001b6108ae565b612b037f4887810e7f88b7f6288e33b8e16a20d45ff7271e89405e9abcc74b4ae75b266460001b6108ae565b612b2f7f4d45e336443e4819a4292518ead59e44a7de8ca3acac6d20bcd990c341352ef560001b6108ae565b6000600b6000848152602001908152602001600020604051806040016040529081600082015481526020016001820160009054906101000a900473ffffffffffffffffffffffffffffffffffffffff1673ffffffffffffffffffffffffffffffffffffffff1673ffffffffffffffffffffffffffffffffffffffff16815250509050612bdd7fe39210987ed3a10482ba56acf6b24d57d8e1f093e8a5d2ef774f3698e591800360001b6108ae565b612c097fa2d52ce9aa978c789abde36e137bee5a704080d7c9eb2defa4475497225c1baa60001b6108ae565b600081600001511115612cab57612c427f521e5caf69339e2c35e7a37256542f560a7e0357444e1ad44457aeffffa176d260001b6108ae565b612c6e7f14318abdb35f1b19ab9c5230e334389623c0934349bc4b272af64ca23c739f9760001b6108ae565b826040517fe000ca91000000000000000000000000000000000000000000000000000000008152600401612ca291906168a7565b60405180910390fd5b612cd77fb1d6e26c63b2859f0f8bab6bcbafc7aca4f9a6325f517c32638e215aea3dfc1d60001b6108ae565b612d037f4472596a9b5bef1115cf53d0e64aa5b09d3304bb6e9767e2379238ed22cd95c160001b6108ae565b8433612d317fcb168806450aa41e4b601bf4f0a757720a6357a12b7545124b70521aa2be211760001b6108ae565b612d5d7f9dc7553da9f5413f0e3fc885f2a7dd8fdae523089bd83fe265fea96ffc2f75a360001b6108ae565b612d897fcb76b337504450227dfe97df6b3db56e06691e912453827958a061df4f73c55560001b6108ae565b612d92826128b2565b73ffffffffffffffffffffffffffffffffffffffff168173ffffffffffffffffffffffffffffffffffffffff1614612e4e57612df07ffa3e625988a393013f775fb07c23e7065d9ab3977736d3c50ff8b3f2147b3c1e60001b6108ae565b612e1c7fd769ffa7177d37c00c96b6dfe85f62434d1054c119345d79ffff0dcfadc00b8460001b6108ae565b6040517f2ac3f91100000000000000000000000000000000000000000000000000000000815260040160405180910390fd5b612e7a7fabf07ef971dfb06796cf9ef8d0384c9bb7683b641beed23f5ebf1f94adf7e88660001b6108ae565b612ea67f48ffd5f71f9ed4a001d3ef05b34918a72712408d52eaa9fd459c47c66628f94f60001b6108ae565b612ed27f142176da661119dc4028a8f823b2fb865fa0dfb7610711c3186c975988114d3e60001b6108ae565b612efe7f9cab605156f81067aa47b7ff2b927f5e027ef3b77bba341a6a0995e6c5e5bc7960001b6108ae565b612f2a7f13236717de8098f439954858158ffaef5fbcb5122debcd68f2d773d52d9d1fba60001b6108ae565b600e54341015612fbe57612f607f75a67387ecedad6ea7781eb8565e4e0c39a4e1d632304b1707bbbff990eb5fc460001b6108ae565b612f8c7f6bf750641ba0110a529fcc37606d68d42e6a0bfe4657058b2bad2d629721eebd60001b6108ae565b6040517fade20f9200000000000000000000000000000000000000000000000000000000815260040160405180910390fd5b612fea7f7778c80a34461b30bfbfb84baba972e216113267fcdda21b204d8d30cdb02ee860001b6108ae565b6130167fa3d29ad79e2ca89ba8b6c264cc2eea51ae1402c5d42af34fd3aa47b36795609b60001b6108ae565b6130427f1b188c3717b05a5edeeb0de6fdd3b74f639b561b08f1dd4241a6a4cfe5c83d0e60001b6108ae565b600086116130d4576130767f5e48d8acf0e6e0c23230e098d2296f753ea63bd6b9c6a660cde78bc6b516e56560001b6108ae565b6130a27fa897aa6feaf90adc4d6752cb146d3a5e313002d09d2beb31ed9436179a9072e960001b6108ae565b6040517ff1c64ea600000000000000000000000000000000000000000000000000000000815260040160405180910390fd5b6131007f2e0c50d27aeac12945e01914dbf2b65fa18f89cbdb38b4e78086e097cf1cfb5360001b6108ae565b61312c7f43b8b9cd14a30b47bf4367127a21a5ac681ac02c157eb7f29634fe96e98c2c6260001b6108ae565b6131587fda6ed935d815996a56763182758b0947f9e54e9615c5a7d1d996b7c503dbd32560001b6108ae565b61316230886112b9565b61318e7f0efbab92380c665895dc8e99255da24dbedec64d9325ee42f3846fa59fb6c7be60001b6108ae565b6131ba7fbc6876d11cf28be37955e52e9b5169ebfd393d5bb4d051b0b5ca4d64321057b060001b6108ae565b34600c60007f000000000000000000000000000000000000000000000000000000000000000073ffffffffffffffffffffffffffffffffffffffff1673ffffffffffffffffffffffffffffffffffffffff168152602001908152602001600020600082825461322991906169db565b9250508190555061325c7f178b73bb3fe047b67464650ccbe498501c298367b0e3515ea3cc9a6dcafac3af60001b6108ae565b6132887f3b21f1ac2f546a18376a5b1104e17047a0092cad90f9a9aecca370a677272fde60001b6108ae565b60405180604001604052808781526020013373ffffffffffffffffffffffffffffffffffffffff16815250600b60008981526020019081526020016000206000820151816000015560208201518160010160006101000a81548173ffffffffffffffffffffffffffffffffffffffff021916908373ffffffffffffffffffffffffffffffffffffffff1602179055509050506133467f2df6f5befa79c74d5e5b1c110eba36e6cb79d11a260fd4573be056f56e1425ed60001b6108ae565b6133727f0e235c357c22040fbb578ec091e31c8edfbbf4c5440324c8ca2de18eea9ea69660001b6108ae565b863373ffffffffffffffffffffffffffffffffffffffff167f94e7b934c857a9e3202e8ed9c1f3f96e396b7d2b5885930d2001abcb51ff58fa886040516133b991906168a7565b60405180910390a350505050505050565b60006133f87f0db3cc9ece5c4e186b697df46af865043aba0894571b57c7d192aaee5c71da2060001b6108ae565b6134247fe71c1ff5d69a0c4bcfdcdc5dbb004bed78e6bf140cc076eab6736de68761bbfe60001b6108ae565b6134507f15cc3a0d71ea1f3a55cfeb477ca185ce1756f2a83263cb992e61f814387b4f5a60001b6108ae565b600c60003373ffffffffffffffffffffffffffffffffffffffff1673ffffffffffffffffffffffffffffffffffffffff16815260200190815260200160002054905090565b6060600380546134a490616bbe565b80601f01602080910402602001604051908101604052809291908181526020018280546134d090616bbe565b801561351d5780601f106134f25761010080835404028352916020019161351d565b820191906000526020600020905b81548152906001019060200180831161350057829003601f168201915b5050505050905090565b6000816135567f3dcf37abc1ffcd80ea829d12052f6ac3154fa3a00bbfbe0b5e21e19c4c59a8ae60001b6108ae565b6135827fe20b663712d9c495aa72e597d7dfb0401859cf570c0bc13578f9ba81b792cf2860001b6108ae565b6135ae7f5ecb9f5c32590d48dbc0c0b11741b09f070c0e551a657af31bcd427f38e3108a60001b6108ae565b6107d0816bffffffffffffffffffffffff16111561365b576135f27f9afe986ad7ffefa365b4ed30e1e02a9581e101e970428db5f66e41e4232b403f60001b6108ae565b61361e7f5f2e4624db6f7363a8f4abbfb35b212d761128b78c73d9a6425e9fb96334ab3d60001b6108ae565b806040517f05a79cda00000000000000000000000000000000000000000000000000000000815260040161365291906168eb565b60405180910390fd5b6136877f4551231fc23cf4bb1aa4afedd5dee9e78c2b94406b9f64e3a4cfabba2c9f818e60001b6108ae565b6136b37ff039132163a5f7801a2fbb086743469c2887224b0af33bf5fabba52e3292a61460001b6108ae565b600260095414156136f9576040517f08c379a00000000000000000000000000000000000000000000000000000000081526004016136f09061686c565b60405180910390fd5b600260098190555061372d7fa23a07e91309ae696346a923fd0f6db67b9ae9c8a1e26a65d6f166cbbf1445cd60001b6108ae565b6137597f931e7b9b5c3022d6cdb4344e7865631fd634ea0587bfc1c185a4deaae2bc876460001b6108ae565b6137857f90ef1d737af3b873b78440abc98dadd9b688d53a113b121fa691197a81e8781e60001b6108ae565b61378f600a614f5e565b91506137bd7fb045312574e425b0e5b7aee37981b83cf5478974f20895d7ded76e9c4474d66160001b6108ae565b6137e97f0861e445686127ae661fe75f16ee2dfc196e45adf933c6579f9113d7b1ee463360001b6108ae565b6137f33383614f6c565b61381f7f2cc607d57daa2c1351ba62733e3c8e64e7b0c731501858d5be542ca5aa2f7f4160001b6108ae565b61384b7f37d15baf07a3fc6742e50e741a86353776ae3321c2b3457c9055caa8270ed8be60001b6108ae565b613856828585614d4c565b6138827f3b12c2dc1f7ee8ca887d21d99b3bf417f866ad2169355993e62be7c43f9a118360001b6108ae565b6138ae7fb02113f469dd15b79a62c6027d9ae974b7f33e1f1252058bf17ba02eb4b91fa560001b6108ae565b6138b88286614f8a565b6138e47f5c848d2eb816ce16b48f208e7a4eee99ca87d6396bc6fce772b46dc4f507b45960001b6108ae565b6139107f6fb33d37728379845821d28b80000c4fd9a1a4f71c570287d9b6708bac1d30e960001b6108ae565b33600d600084815260200190815260200160002060006101000a81548173ffffffffffffffffffffffffffffffffffffffff021916908373ffffffffffffffffffffffffffffffffffffffff16021790555061398e7f4ca100b45ac51969f1153197a38b2408dae1a8cb82774307f0cf04d710c90b2e60001b6108ae565b6139ba7fd927d560df16b5ebf0d35505c9d198ffd95cee22cca1183da583a3a4821c8aeb60001b6108ae565b6139c4600a614ffe565b6139f07fe26d3102b0fa4ab868350a5dfabf3fee3ffd2728846dc89fc801ce2d0350670060001b6108ae565b613a1c7f2c8d9fe7638fc3888bbc96345ef062444578ad49f9ab53543324b4e556db0ecb60001b6108ae565b813373ffffffffffffffffffffffffffffffffffffffff167fd3d96b5226b0f7dc725f612a664675b5e04ef0727b38f7f6b22c5f2398ca707985604051613a6391906168eb565b60405180910390a36001600981905550509392505050565b613a8d613a86614c8b565b8383615014565b5050565b60026009541415613ad7576040517f08c379a0000000000000000000000000000000000000000000000000000000008152600401613ace9061686c565b60405180910390fd5b6002600981905550613b0b7ff23d5a064d8580f58040b027eb3f05eb5d7bf4f570795db6309fa86af7039b3a60001b6108ae565b613b377fe538e3e2935c514142faa29ab45de02b8bb4b0480844a4fba8e00399c88330f360001b6108ae565b613b637f373802666ff88644cf94f1023a6555a378a6b1a387e2b16f5f6f121d1e8986cb60001b6108ae565b6000600c60003373ffffffffffffffffffffffffffffffffffffffff1673ffffffffffffffffffffffffffffffffffffffff168152602001908152602001600020549050613bd37f16d01caf3ecea707ef21953e6421fb21db691a3255c3c53e0d85501b9734a6ee60001b6108ae565b613bff7ff176bf73014ad914795d6e796c9bae6842cbea7779bb1187c01287556a54286e60001b6108ae565b60008111613c9157613c337f876ae248c8b67e48686cee172f78c53c23b73add0a3779fa3b539ccae3c47ce760001b6108ae565b613c5f7fcc2c112eb068870236b63d9733b5e07239a721c7eea1b51988ffe8b21de387e860001b6108ae565b6040517ff0c1bf7100000000000000000000000000000000000000000000000000000000815260040160405180910390fd5b613cbd7f348c76c3f91fcd5e9c09d5729d68c699b9ee183c1504380bcdd3c055674eacf560001b6108ae565b613ce97f77b9ae822c3c72f22494c44189cda28ac380beeeca146c7f4f30bd7baa76d2de60001b6108ae565b613d157f0ff4d3ebb3dc47d97da07b030364e992102732ff1da7d8cdc7a4bacd1ad8fd4c60001b6108ae565b6000600c60003373ffffffffffffffffffffffffffffffffffffffff1673ffffffffffffffffffffffffffffffffffffffff16815260200190815260200160002081905550613d867f359bf7db061460255a178d9df36aad2f89dd71145af8281fdfd8bd54c86873b560001b6108ae565b613db27f45fd3a0c6e64db6055b2d1aa18170d486c5480957f535684afa1c99fd886253b60001b6108ae565b60003373ffffffffffffffffffffffffffffffffffffffff1682604051613dd890616593565b60006040518083038185875af1925050503d8060008114613e15576040519150601f19603f3d011682016040523d82523d6000602084013e613e1a565b606091505b50509050613e4a7f0292853441e1e23479e96cf4624541b6e59637ccff8cf3173a5a078f6ec20ea360001b6108ae565b613e767fbc3a0d50b3fccadaef59b90490f4e588e343adb7eec87af2eae3869a3f8f62a560001b6108ae565b80613f0557613ea77fc813f19f354e9fc9fdc4f46b6cd68d7c816fb8f7550c28ed67545ad09750547360001b6108ae565b613ed37fa3107daae25ce828b8a9faa02f02b3a614f92c9ae5dcb0a4d3b1f293cd966d1560001b6108ae565b6040517f1413ec4b00000000000000000000000000000000000000000000000000000000815260040160405180910390fd5b613f317f572759618ccd39b53b6a2d3e075b7195a5e8ad951477ef86f3ee240b1ea0909560001b6108ae565b50506001600981905550565b613f4e613f48614c8b565b83615181565b613f8d576040517f08c379a0000000000000000000000000000000000000000000000000000000008152600401613f849061684c565b60405180910390fd5b613f9984848484615216565b50505050565b600e5481565b6060613fb082614c40565b6000600860008481526020019081526020016000208054613fd090616bbe565b80601f0160208091040260200160405190810160405280929190818152602001828054613ffc90616bbe565b80156140495780601f1061401e57610100808354040283529160200191614049565b820191906000526020600020905b81548152906001019060200180831161402c57829003601f168201915b50505050509050600061405a615272565b90506000815114156140705781925050506140b3565b6000825111156140a557808260405160200161408d92919061656f565b604051602081830303815290604052925050506140b3565b6140ae84615289565b925050505b919050565b60006140e67f04ab6cc3e6670b8aeda927ad3cd39d60bcff43db49235dc598bbc62fda92b7eb60001b6108ae565b6141127f9e12a31e634079be296ecae21370f5a2499c9e0b554506b3e437403bf2d4260260001b6108ae565b61413e7f991fdb10f41de9eb15379bc8475373826653da09a39590ffcf03005b1b7247ff60001b6108ae565b600d600083815260200190815260200160002060009054906101000a900473ffffffffffffffffffffffffffffffffffffffff169050919050565b806141a67f737e76c557fbf21dfe9c9a290dbe38426dc2999505c1db841d453ce609650b9460001b6108ae565b6141d27f12963fdbb1c88ab5e6c9968488d9a3aaf67489b4526f9e02bf68e2d2866006ca60001b6108ae565b6141fe7ffe819165ef2fd86c8e79f82f8cc4f798359fd4368b0c7c78533a16d299599c0960001b6108ae565b6000600b6000838152602001908152602001600020604051806040016040529081600082015481526020016001820160009054906101000a900473ffffffffffffffffffffffffffffffffffffffff1673ffffffffffffffffffffffffffffffffffffffff1673ffffffffffffffffffffffffffffffffffffffff168152505090506142ac7f41569c7844e8a439c68891225b2cc87157312e9e02c034568e11364f4dbf6b7c60001b6108ae565b6142d87f27992a9b285d7814e1516fb293ca3516147fa07b7fd58becf443ada06f8d983860001b6108ae565b6000816000015111614379576143107fe0d1fb15572ade9ad366b8373a366e0c30187d2e016c00660739e4f95f61c6d760001b6108ae565b61433c7ffb575a0d6fc9616cabd448d310d1aaa9df4056510a1653ea4c968e76f64a0f2b60001b6108ae565b816040517fdb363db800000000000000000000000000000000000000000000000000000000815260040161437091906168a7565b60405180910390fd5b6143a47e84fb59643a8bed7213da39dadcfc4fa0b29d6af2d972b83668e6deed8cd32a60001b6108ae565b6143d07f5a6db8743f76ce739db18380435420d88882c0f4f1bc2d7b4457a16d4324fa0160001b6108ae565b60026009541415614416576040517f08c379a000000000000000000000000000000000000000000000000000000000815260040161440d9061686c565b60405180910390fd5b600260098190555061444a7fe8764d0cbeb756d83518893f4d56fae06e0b4115f6988f7d37bd0603c84357a060001b6108ae565b6144767ff477279a61646ab48ace3b7f515b433137384218aafcc09e521078489fd7f73660001b6108ae565b6144a27ffe43ab811033b6e198b89c5046aeb8e13b6253070bf863a01410a73ad349fa3a60001b6108ae565b6000600b6000858152602001908152602001600020604051806040016040529081600082015481526020016001820160009054906101000a900473ffffffffffffffffffffffffffffffffffffffff1673ffffffffffffffffffffffffffffffffffffffff1673ffffffffffffffffffffffffffffffffffffffff168152505090506145507f023820af55b85e89a4afe61f8ec6aad9e726655b384da47732a549718b9a054e60001b6108ae565b61457c7f74a3a2a1a158a20bfc77c4dfc8d805ed32c3c6adfc37dcc94fdd93bf199617b860001b6108ae565b8060000151341015614623576145b47fe202ab022cb973ba7d2f099f0ce36ab600b442e2287a8afdafa3e3c9ae3a2c9e60001b6108ae565b6145e07fe274620638a6d8b0650117bf7b6a75bb70a91bbf7a667adf5753b21546ef704e60001b6108ae565b8381600001516040517f8eb7b75f00000000000000000000000000000000000000000000000000000000815260040161461a9291906168c2565b60405180910390fd5b61464f7fcab87ba6e9f24388d40885da8ffa2f6959cac430620d4efdb43f349fd50c6c6260001b6108ae565b61467b7f0c0e6bbf909124638db695ec0e7ac50212696e112e192ccdc8df466ecad73e1260001b6108ae565b6146a77f965e62b2baf8867b4eacb3356801629891df88eea2a51e60342aa5fbcc8580b460001b6108ae565b6064600260646146b79190616abc565b346146c29190616a62565b6146cc9190616a31565b600c6000836020015173ffffffffffffffffffffffffffffffffffffffff1673ffffffffffffffffffffffffffffffffffffffff1681526020019081526020016000205461471a91906169db565b600c6000836020015173ffffffffffffffffffffffffffffffffffffffff1673ffffffffffffffffffffffffffffffffffffffff1681526020019081526020016000208190555061478d7fcac7dfe6020442ad6233d2ce68d5de0623d8cdff2038334dbf141b3150637e3260001b6108ae565b6147b97f681ea434712156a47d00045ed050b1ace85f5a103f23bbf855ba329bbf19dc7160001b6108ae565b60646002346147c89190616a62565b6147d29190616a31565b600c60007f000000000000000000000000000000000000000000000000000000000000000073ffffffffffffffffffffffffffffffffffffffff1673ffffffffffffffffffffffffffffffffffffffff168152602001908152602001600020600082825461484091906169db565b925050819055506148737f3968c508a6f353208e950f8bde2b49beaf9923c83ad9852bf83d86242fc0cea060001b6108ae565b600b60008581526020019081526020016000206000808201600090556001820160006101000a81549073ffffffffffffffffffffffffffffffffffffffff021916905550506148e47fcea7bd2091b53def6af3d89ab989f0d0dfed8c7d9ed0ea5c982cd99aa4b391e960001b6108ae565b6149107f59ec862d723614eb916aa179aa7f1fcebbffa6a3fc7985846ab5f37a0e39b6d860001b6108ae565b3073ffffffffffffffffffffffffffffffffffffffff166342842e0e826020015133876040518463ffffffff1660e01b8152600401614951939291906165c3565b600060405180830381600087803b15801561496b57600080fd5b505af115801561497f573d6000803e3d6000fd5b505050506149af7f7243e2c8a95435868144434f1de6cf680e856ee340ff5e9282934573109edd8960001b6108ae565b6149db7f562dee1dc2355c89bf9ee81bb2d9143052b1bf07dd5165907e5ae477b04b129d60001b6108ae565b833373ffffffffffffffffffffffffffffffffffffffff167ffe2094c9ff56716cb07edf0cff82da158f346cb3bb2d89703228ab4eb0c329b68360000151604051614a2691906168a7565b60405180910390a3506001600981905550505050565b6000600760008473ffffffffffffffffffffffffffffffffffffffff1673ffffffffffffffffffffffffffffffffffffffff16815260200190815260200160002060008373ffffffffffffffffffffffffffffffffffffffff1673ffffffffffffffffffffffffffffffffffffffff16815260200190815260200160002060009054906101000a900460ff16905092915050565b6000614afe7f6d2b062cb5f41f4598ef5429cd789426251a44a73498ef772f24e940b6d9001360001b6108ae565b614b2a7f76326dcea30ca27030185db2470d79d184f179ff43020ba51d17ff8275d0eb6c60001b6108ae565b614b567f222d74ccee861ac38dd77b8fe69169dd6dc497ced5abd440766724ac61e75c9d60001b6108ae565b600e54905090565b60007f80ac58cd000000000000000000000000000000000000000000000000000000007bffffffffffffffffffffffffffffffffffffffffffffffffffffffff1916827bffffffffffffffffffffffffffffffffffffffffffffffffffffffff19161480614c2957507f5b5e139f000000000000000000000000000000000000000000000000000000007bffffffffffffffffffffffffffffffffffffffffffffffffffffffff1916827bffffffffffffffffffffffffffffffffffffffffffffffffffffffff1916145b80614c395750614c38826152f1565b5b9050919050565b614c498161536b565b614c88576040517f08c379a0000000000000000000000000000000000000000000000000000000008152600401614c7f906167cc565b60405180910390fd5b50565b600033905090565b816006600083815260200190815260200160002060006101000a81548173ffffffffffffffffffffffffffffffffffffffff021916908373ffffffffffffffffffffffffffffffffffffffff160217905550808273ffffffffffffffffffffffffffffffffffffffff16614d06836128b2565b73ffffffffffffffffffffffffffffffffffffffff167f8c5be1e5ebec7d5bd14f71427d1e84f3dd0314c0f7b2291e5b200ac8c7c3b92560405160405180910390a45050565b614d54614f54565b6bffffffffffffffffffffffff16816bffffffffffffffffffffffff161115614db2576040517f08c379a0000000000000000000000000000000000000000000000000000000008152600401614da99061682c565b60405180910390fd5b600073ffffffffffffffffffffffffffffffffffffffff168273ffffffffffffffffffffffffffffffffffffffff161415614e22576040517f08c379a0000000000000000000000000000000000000000000000000000000008152600401614e199061680c565b60405180910390fd5b60405180604001604052808373ffffffffffffffffffffffffffffffffffffffff168152602001826bffffffffffffffffffffffff168152506001600085815260200190815260200160002060008201518160000160006101000a81548173ffffffffffffffffffffffffffffffffffffffff021916908373ffffffffffffffffffffffffffffffffffffffff16021790555060208201518160000160146101000a8154816bffffffffffffffffffffffff02191690836bffffffffffffffffffffffff160217905550905050505050565b614f05614eff614c8b565b82615181565b614f44576040517f08c379a0000000000000000000000000000000000000000000000000000000008152600401614f3b9061684c565b60405180910390fd5b614f4f8383836153d7565b505050565b6000612710905090565b600081600001549050919050565b614f8682826040518060200160405280600081525061563e565b5050565b614f938261536b565b614fd2576040517f08c379a0000000000000000000000000000000000000000000000000000000008152600401614fc99061676c565b60405180910390fd5b80600860008481526020019081526020016000209080519060200190614ff9929190615cc6565b505050565b6001816000016000828254019250508190555050565b8173ffffffffffffffffffffffffffffffffffffffff168373ffffffffffffffffffffffffffffffffffffffff161415615083576040517f08c379a000000000000000000000000000000000000000000000000000000000815260040161507a9061672c565b60405180910390fd5b80600760008573ffffffffffffffffffffffffffffffffffffffff1673ffffffffffffffffffffffffffffffffffffffff16815260200190815260200160002060008473ffffffffffffffffffffffffffffffffffffffff1673ffffffffffffffffffffffffffffffffffffffff16815260200190815260200160002060006101000a81548160ff0219169083151502179055508173ffffffffffffffffffffffffffffffffffffffff168373ffffffffffffffffffffffffffffffffffffffff167f17307eab39ab6107e8899845ad3d59bd9653f200f220920489ca2b5937696c3183604051615174919061666f565b60405180910390a3505050565b60008061518d836128b2565b90508073ffffffffffffffffffffffffffffffffffffffff168473ffffffffffffffffffffffffffffffffffffffff1614806151cf57506151ce8185614a3c565b5b8061520d57508373ffffffffffffffffffffffffffffffffffffffff166151f584611273565b73ffffffffffffffffffffffffffffffffffffffff16145b91505092915050565b6152218484846153d7565b61522d84848484615699565b61526c576040517f08c379a0000000000000000000000000000000000000000000000000000000008152600401615263906166ac565b60405180910390fd5b50505050565b606060405180602001604052806000815250905090565b606061529482614c40565b600061529e615272565b905060008151116152be57604051806020016040528060008152506152e9565b806152c884615830565b6040516020016152d992919061656f565b6040516020818303038152906040525b915050919050565b60007f2a55205a000000000000000000000000000000000000000000000000000000007bffffffffffffffffffffffffffffffffffffffffffffffffffffffff1916827bffffffffffffffffffffffffffffffffffffffffffffffffffffffff19161480615364575061536382615991565b5b9050919050565b60008073ffffffffffffffffffffffffffffffffffffffff166004600084815260200190815260200160002060009054906101000a900473ffffffffffffffffffffffffffffffffffffffff1673ffffffffffffffffffffffffffffffffffffffff1614159050919050565b8273ffffffffffffffffffffffffffffffffffffffff166153f7826128b2565b73ffffffffffffffffffffffffffffffffffffffff161461544d576040517f08c379a0000000000000000000000000000000000000000000000000000000008152600401615444906166cc565b60405180910390fd5b600073ffffffffffffffffffffffffffffffffffffffff168273ffffffffffffffffffffffffffffffffffffffff1614156154bd576040517f08c379a00000000000000000000000000000000000000000000000000000000081526004016154b49061670c565b60405180910390fd5b6154c88383836159fb565b6154d3600082614c93565b6001600560008573ffffffffffffffffffffffffffffffffffffffff1673ffffffffffffffffffffffffffffffffffffffff16815260200190815260200160002060008282546155239190616abc565b925050819055506001600560008473ffffffffffffffffffffffffffffffffffffffff1673ffffffffffffffffffffffffffffffffffffffff168152602001908152602001600020600082825461557a91906169db565b92505081905550816004600083815260200190815260200160002060006101000a81548173ffffffffffffffffffffffffffffffffffffffff021916908373ffffffffffffffffffffffffffffffffffffffff160217905550808273ffffffffffffffffffffffffffffffffffffffff168473ffffffffffffffffffffffffffffffffffffffff167fddf252ad1be2c89b69c2b068fc378daa952ba7f163c4a11628f55a4df523b3ef60405160405180910390a4615639838383615a8f565b505050565b6156488383615a94565b6156556000848484615699565b615694576040517f08c379a000000000000000000000000000000000000000000000000000000000815260040161568b906166ac565b60405180910390fd5b505050565b60006156ba8473ffffffffffffffffffffffffffffffffffffffff16615c6e565b15615823578373ffffffffffffffffffffffffffffffffffffffff1663150b7a026156e3614c8b565b8786866040518563ffffffff1660e01b815260040161570594939291906165fa565b602060405180830381600087803b15801561571f57600080fd5b505af192505050801561575057506040513d601f19601f8201168201806040525081019061574d91906160b7565b60015b6157d3573d8060008114615780576040519150601f19603f3d011682016040523d82523d6000602084013e615785565b606091505b506000815114156157cb576040517f08c379a00000000000000000000000000000000000000000000000000000000081526004016157c2906166ac565b60405180910390fd5b805181602001fd5b63150b7a0260e01b7bffffffffffffffffffffffffffffffffffffffffffffffffffffffff1916817bffffffffffffffffffffffffffffffffffffffffffffffffffffffff191614915050615828565b600190505b949350505050565b60606000821415615878576040518060400160405280600181526020017f3000000000000000000000000000000000000000000000000000000000000000815250905061598c565b600082905060005b600082146158aa57808061589390616c21565b915050600a826158a39190616a31565b9150615880565b60008167ffffffffffffffff8111156158c6576158c5616d57565b5b6040519080825280601f01601f1916602001820160405280156158f85781602001600182028036833780820191505090505b5090505b60008514615985576001826159119190616abc565b9150600a856159209190616c6a565b603061592c91906169db565b60f81b81838151811061594257615941616d28565b5b60200101907effffffffffffffffffffffffffffffffffffffffffffffffffffffffffffff1916908160001a905350600a8561597e9190616a31565b94506158fc565b8093505050505b919050565b60007f01ffc9a7000000000000000000000000000000000000000000000000000000007bffffffffffffffffffffffffffffffffffffffffffffffffffffffff1916827bffffffffffffffffffffffffffffffffffffffffffffffffffffffff1916149050919050565b615a277ff52844dff43c0b2d6c7b0b2dab3d59a2f31207aa6d0b58985cfe6da45ed7c3e760001b6108ae565b615a537f319b830e0fa9b100d4faecdafcbec80729cfbb0a1947e1c11ba56a0408685ec160001b6108ae565b615a7f7f2d4628f1f4ee42ee6b551fb1a73d0f151b550b48e2a2200af235c2a133bbe16d60001b6108ae565b615a8a838383615c91565b505050565b505050565b600073ffffffffffffffffffffffffffffffffffffffff168273ffffffffffffffffffffffffffffffffffffffff161415615b04576040517f08c379a0000000000000000000000000000000000000000000000000000000008152600401615afb906167ac565b60405180910390fd5b615b0d8161536b565b15615b4d576040517f08c379a0000000000000000000000000000000000000000000000000000000008152600401615b44906166ec565b60405180910390fd5b615b59600083836159fb565b6001600560008473ffffffffffffffffffffffffffffffffffffffff1673ffffffffffffffffffffffffffffffffffffffff1681526020019081526020016000206000828254615ba991906169db565b92505081905550816004600083815260200190815260200160002060006101000a81548173ffffffffffffffffffffffffffffffffffffffff021916908373ffffffffffffffffffffffffffffffffffffffff160217905550808273ffffffffffffffffffffffffffffffffffffffff16600073ffffffffffffffffffffffffffffffffffffffff167fddf252ad1be2c89b69c2b068fc378daa952ba7f163c4a11628f55a4df523b3ef60405160405180910390a4615c6a60008383615a8f565b5050565b6000808273ffffffffffffffffffffffffffffffffffffffff163b119050919050565b505050565b604051806040016040528060008152602001600073ffffffffffffffffffffffffffffffffffffffff1681525090565b828054615cd290616bbe565b90600052602060002090601f016020900481019282615cf45760008555615d3b565b82601f10615d0d57805160ff1916838001178555615d3b565b82800160010185558215615d3b579182015b82811115615d3a578251825591602001919060010190615d1f565b5b509050615d489190615d4c565b5090565b5b80821115615d65576000816000905550600101615d4d565b5090565b6000615d7c615d778461692b565b616906565b905082815260208101848484011115615d9857615d97616d8b565b5b615da3848285616b7c565b509392505050565b6000615dbe615db98461695c565b616906565b905082815260208101848484011115615dda57615dd9616d8b565b5b615de5848285616b7c565b509392505050565b600081359050615dfc8161716b565b92915050565b600081359050615e1181617182565b92915050565b600081359050615e2681617199565b92915050565b600081519050615e3b81617199565b92915050565b600082601f830112615e5657615e55616d86565b5b8135615e66848260208601615d69565b91505092915050565b600082601f830112615e8457615e83616d86565b5b8135615e94848260208601615dab565b91505092915050565b600081359050615eac816171b0565b92915050565b600081359050615ec1816171c7565b92915050565b600060208284031215615edd57615edc616d95565b5b6000615eeb84828501615ded565b91505092915050565b60008060408385031215615f0b57615f0a616d95565b5b6000615f1985828601615ded565b9250506020615f2a85828601615ded565b9150509250929050565b600080600060608486031215615f4d57615f4c616d95565b5b6000615f5b86828701615ded565b9350506020615f6c86828701615ded565b9250506040615f7d86828701615e9d565b9150509250925092565b60008060008060808587031215615fa157615fa0616d95565b5b6000615faf87828801615ded565b9450506020615fc087828801615ded565b9350506040615fd187828801615e9d565b925050606085013567ffffffffffffffff811115615ff257615ff1616d90565b5b615ffe87828801615e41565b91505092959194509250565b6000806040838503121561602157616020616d95565b5b600061602f85828601615ded565b925050602061604085828601615e02565b9150509250929050565b6000806040838503121561606157616060616d95565b5b600061606f85828601615ded565b925050602061608085828601615e9d565b9150509250929050565b6000602082840312156160a05761609f616d95565b5b60006160ae84828501615e17565b91505092915050565b6000602082840312156160cd576160cc616d95565b5b60006160db84828501615e2c565b91505092915050565b6000806000606084860312156160fd576160fc616d95565b5b600084013567ffffffffffffffff81111561611b5761611a616d90565b5b61612786828701615e6f565b935050602061613886828701615ded565b925050604061614986828701615eb2565b9150509250925092565b60006020828403121561616957616168616d95565b5b600061617784828501615e9d565b91505092915050565b60008060006060848603121561619957616198616d95565b5b60006161a786828701615e9d565b93505060206161b886828701615ded565b92505060406161c986828701615eb2565b9150509250925092565b600080604083850312156161ea576161e9616d95565b5b60006161f885828601615e9d565b925050602061620985828601615e9d565b9150509250929050565b61621c81616af0565b82525050565b61622b81616af0565b82525050565b61623a81616b02565b82525050565b600061624b8261698d565b61625581856169a3565b9350616265818560208601616b8b565b61626e81616d9a565b840191505092915050565b600061628482616998565b61628e81856169bf565b935061629e818560208601616b8b565b6162a781616d9a565b840191505092915050565b60006162bd82616998565b6162c781856169d0565b93506162d7818560208601616b8b565b80840191505092915050565b60006162f06032836169bf565b91506162fb82616dab565b604082019050919050565b60006163136025836169bf565b915061631e82616dfa565b604082019050919050565b6000616336601c836169bf565b915061634182616e49565b602082019050919050565b60006163596024836169bf565b915061636482616e72565b604082019050919050565b600061637c6019836169bf565b915061638782616ec1565b602082019050919050565b600061639f6029836169bf565b91506163aa82616eea565b604082019050919050565b60006163c2602e836169bf565b91506163cd82616f39565b604082019050919050565b60006163e5603e836169bf565b91506163f082616f88565b604082019050919050565b60006164086020836169bf565b915061641382616fd7565b602082019050919050565b600061642b6018836169bf565b915061643682617000565b602082019050919050565b600061644e6021836169bf565b915061645982617029565b604082019050919050565b60006164716000836169b4565b915061647c82617078565b600082019050919050565b6000616494601b836169bf565b915061649f8261707b565b602082019050919050565b60006164b7602a836169bf565b91506164c2826170a4565b604082019050919050565b60006164da602e836169bf565b91506164e5826170f3565b604082019050919050565b60006164fd601f836169bf565b915061650882617142565b602082019050919050565b6040820160008201516165296000850182616542565b50602082015161653c6020850182616213565b50505050565b61654b81616b5a565b82525050565b61655a81616b5a565b82525050565b61656981616b64565b82525050565b600061657b82856162b2565b915061658782846162b2565b91508190509392505050565b600061659e82616464565b9150819050919050565b60006020820190506165bd6000830184616222565b92915050565b60006060820190506165d86000830186616222565b6165e56020830185616222565b6165f26040830184616551565b949350505050565b600060808201905061660f6000830187616222565b61661c6020830186616222565b6166296040830185616551565b818103606083015261663b8184616240565b905095945050505050565b600060408201905061665b6000830185616222565b6166686020830184616551565b9392505050565b60006020820190506166846000830184616231565b92915050565b600060208201905081810360008301526166a48184616279565b905092915050565b600060208201905081810360008301526166c5816162e3565b9050919050565b600060208201905081810360008301526166e581616306565b9050919050565b6000602082019050818103600083015261670581616329565b9050919050565b600060208201905081810360008301526167258161634c565b9050919050565b600060208201905081810360008301526167458161636f565b9050919050565b6000602082019050818103600083015261676581616392565b9050919050565b60006020820190508181036000830152616785816163b5565b9050919050565b600060208201905081810360008301526167a5816163d8565b9050919050565b600060208201905081810360008301526167c5816163fb565b9050919050565b600060208201905081810360008301526167e58161641e565b9050919050565b6000602082019050818103600083015261680581616441565b9050919050565b6000602082019050818103600083015261682581616487565b9050919050565b60006020820190508181036000830152616845816164aa565b9050919050565b60006020820190508181036000830152616865816164cd565b9050919050565b60006020820190508181036000830152616885816164f0565b9050919050565b60006040820190506168a16000830184616513565b92915050565b60006020820190506168bc6000830184616551565b92915050565b60006040820190506168d76000830185616551565b6168e46020830184616551565b9392505050565b60006020820190506169006000830184616560565b92915050565b6000616910616921565b905061691c8282616bf0565b919050565b6000604051905090565b600067ffffffffffffffff82111561694657616945616d57565b5b61694f82616d9a565b9050602081019050919050565b600067ffffffffffffffff82111561697757616976616d57565b5b61698082616d9a565b9050602081019050919050565b600081519050919050565b600081519050919050565b600082825260208201905092915050565b600081905092915050565b600082825260208201905092915050565b600081905092915050565b60006169e682616b5a565b91506169f183616b5a565b9250827fffffffffffffffffffffffffffffffffffffffffffffffffffffffffffffffff03821115616a2657616a25616c9b565b5b828201905092915050565b6000616a3c82616b5a565b9150616a4783616b5a565b925082616a5757616a56616cca565b5b828204905092915050565b6000616a6d82616b5a565b9150616a7883616b5a565b9250817fffffffffffffffffffffffffffffffffffffffffffffffffffffffffffffffff0483118215151615616ab157616ab0616c9b565b5b828202905092915050565b6000616ac782616b5a565b9150616ad283616b5a565b925082821015616ae557616ae4616c9b565b5b828203905092915050565b6000616afb82616b3a565b9050919050565b60008115159050919050565b60007fffffffff0000000000000000000000000000000000000000000000000000000082169050919050565b600073ffffffffffffffffffffffffffffffffffffffff82169050919050565b6000819050919050565b60006bffffffffffffffffffffffff82169050919050565b82818337600083830152505050565b60005b83811015616ba9578082015181840152602081019050616b8e565b83811115616bb8576000848401525b50505050565b60006002820490506001821680616bd657607f821691505b60208210811415616bea57616be9616cf9565b5b50919050565b616bf982616d9a565b810181811067ffffffffffffffff82111715616c1857616c17616d57565b5b80604052505050565b6000616c2c82616b5a565b91507fffffffffffffffffffffffffffffffffffffffffffffffffffffffffffffffff821415616c5f57616c5e616c9b565b5b600182019050919050565b6000616c7582616b5a565b9150616c8083616b5a565b925082616c9057616c8f616cca565b5b828206905092915050565b7f4e487b7100000000000000000000000000000000000000000000000000000000600052601160045260246000fd5b7f4e487b7100000000000000000000000000000000000000000000000000000000600052601260045260246000fd5b7f4e487b7100000000000000000000000000000000000000000000000000000000600052602260045260246000fd5b7f4e487b7100000000000000000000000000000000000000000000000000000000600052603260045260246000fd5b7f4e487b7100000000000000000000000000000000000000000000000000000000600052604160045260246000fd5b600080fd5b600080fd5b600080fd5b600080fd5b6000601f19601f8301169050919050565b7f4552433732313a207472616e7366657220746f206e6f6e20455243373231526560008201527f63656976657220696d706c656d656e7465720000000000000000000000000000602082015250565b7f4552433732313a207472616e736665722066726f6d20696e636f72726563742060008201527f6f776e6572000000000000000000000000000000000000000000000000000000602082015250565b7f4552433732313a20746f6b656e20616c7265616479206d696e74656400000000600082015250565b7f4552433732313a207472616e7366657220746f20746865207a65726f2061646460008201527f7265737300000000000000000000000000000000000000000000000000000000602082015250565b7f4552433732313a20617070726f766520746f2063616c6c657200000000000000600082015250565b7f4552433732313a2061646472657373207a65726f206973206e6f74206120766160008201527f6c6964206f776e65720000000000000000000000000000000000000000000000602082015250565b7f45524337323155524953746f726167653a2055524920736574206f66206e6f6e60008201527f6578697374656e7420746f6b656e000000000000000000000000000000000000602082015250565b7f4552433732313a20617070726f76652063616c6c6572206973206e6f7420746f60008201527f6b656e206f776e6572206e6f7220617070726f76656420666f7220616c6c0000602082015250565b7f4552433732313a206d696e7420746f20746865207a65726f2061646472657373600082015250565b7f4552433732313a20696e76616c696420746f6b656e2049440000000000000000600082015250565b7f4552433732313a20617070726f76616c20746f2063757272656e74206f776e6560008201527f7200000000000000000000000000000000000000000000000000000000000000602082015250565b50565b7f455243323938313a20496e76616c696420706172616d65746572730000000000600082015250565b7f455243323938313a20726f79616c7479206665652077696c6c2065786365656460008201527f2073616c65507269636500000000000000000000000000000000000000000000602082015250565b7f4552433732313a2063616c6c6572206973206e6f7420746f6b656e206f776e6560008201527f72206e6f7220617070726f766564000000000000000000000000000000000000602082015250565b7f5265656e7472616e637947756172643a207265656e7472616e742063616c6c00600082015250565b61717481616af0565b811461717f57600080fd5b50565b61718b81616b02565b811461719657600080fd5b50565b6171a281616b0e565b81146171ad57600080fd5b50565b6171b981616b5a565b81146171c457600080fd5b50565b6171d081616b64565b81146171db57600080fd5b5056fea2646970667358221220afbc4062e338062294e04910e734477e8f95c5661d68b355ac1d66243c52555c64736f6c63430008070033",
  "linkReferences": {},
  "deployedLinkReferences": {}
}