{
  "_format": "hh-sol-artifact-1",
  "contractName": "NeuralNFTMarketplace",
  "sourceName": "contracts/NeuralNFTMarketplace.sol",
  "abi": [
    {
      "inputs": [],
      "stateMutability": "nonpayable",
      "type": "constructor"
    },
    {
      "inputs": [
        {
          "internalType": "uint256",
          "name": "tokenId",
          "type": "uint256"
        }
      ],
      "name": "NeuralNFTMarketplace__AlreadyListed",
      "type": "error"
    },
    {
      "inputs": [],
      "name": "NeuralNFTMarketplace__InsufficientFunds",
      "type": "error"
    },
    {
      "inputs": [],
      "name": "NeuralNFTMarketplace__NoProceeds",
      "type": "error"
    },
    {
      "inputs": [],
      "name": "NeuralNFTMarketplace__NotApprovedForMarketplace",
      "type": "error"
    },
    {
      "inputs": [
        {
          "internalType": "uint256",
          "name": "tokenId",
          "type": "uint256"
        },
        {
          "internalType": "address",
          "name": "caller",
          "type": "address"
        }
      ],
      "name": "NeuralNFTMarketplace__NotCreator",
      "type": "error"
    },
    {
      "inputs": [
        {
          "internalType": "uint256",
          "name": "tokenId",
          "type": "uint256"
        }
      ],
      "name": "NeuralNFTMarketplace__NotListed",
      "type": "error"
    },
    {
      "inputs": [],
      "name": "NeuralNFTMarketplace__NotOwner",
      "type": "error"
    },
    {
      "inputs": [],
      "name": "NeuralNFTMarketplace__PriceMustBeAboveZero",
      "type": "error"
    },
    {
      "inputs": [
        {
          "internalType": "uint256",
          "name": "tokenId",
          "type": "uint256"
        },
        {
          "internalType": "uint256",
          "name": "price",
          "type": "uint256"
        }
      ],
      "name": "NeuralNFTMarketplace__PriceNotMet",
      "type": "error"
    },
    {
      "inputs": [
        {
          "internalType": "uint96",
          "name": "",
          "type": "uint96"
        }
      ],
      "name": "NeuralNFTMarketplace__RoyaltyFeesTooHigh",
      "type": "error"
    },
    {
      "inputs": [],
      "name": "NeuralNFTMarketplace__TransferFailed",
      "type": "error"
    },
    {
      "anonymous": false,
      "inputs": [
        {
          "indexed": true,
          "internalType": "address",
          "name": "owner",
          "type": "address"
        },
        {
          "indexed": true,
          "internalType": "address",
          "name": "approved",
          "type": "address"
        },
        {
          "indexed": true,
          "internalType": "uint256",
          "name": "tokenId",
          "type": "uint256"
        }
      ],
      "name": "Approval",
      "type": "event"
    },
    {
      "anonymous": false,
      "inputs": [
        {
          "indexed": true,
          "internalType": "address",
          "name": "owner",
          "type": "address"
        },
        {
          "indexed": true,
          "internalType": "address",
          "name": "operator",
          "type": "address"
        },
        {
          "indexed": false,
          "internalType": "bool",
          "name": "approved",
          "type": "bool"
        }
      ],
      "name": "ApprovalForAll",
      "type": "event"
    },
    {
      "anonymous": false,
      "inputs": [
        {
          "indexed": true,
          "internalType": "address",
          "name": "buyer",
          "type": "address"
        },
        {
          "indexed": true,
          "internalType": "uint256",
          "name": "tokenId",
          "type": "uint256"
        },
        {
          "indexed": false,
          "internalType": "uint256",
          "name": "price",
          "type": "uint256"
        }
      ],
      "name": "ItemBought",
      "type": "event"
    },
    {
      "anonymous": false,
      "inputs": [
        {
          "indexed": true,
          "internalType": "address",
          "name": "seller",
          "type": "address"
        },
        {
          "indexed": true,
          "internalType": "uint256",
          "name": "tokenId",
          "type": "uint256"
        }
      ],
      "name": "ItemCancelled",
      "type": "event"
    },
    {
      "anonymous": false,
      "inputs": [
        {
          "indexed": true,
          "internalType": "address",
          "name": "seller",
          "type": "address"
        },
        {
          "indexed": true,
          "internalType": "uint256",
          "name": "tokenId",
          "type": "uint256"
        },
        {
          "indexed": false,
          "internalType": "uint256",
          "name": "price",
          "type": "uint256"
        }
      ],
      "name": "ItemListed",
      "type": "event"
    },
    {
      "anonymous": false,
      "inputs": [
        {
          "indexed": true,
          "internalType": "address",
          "name": "creator",
          "type": "address"
        },
        {
          "indexed": true,
          "internalType": "uint256",
          "name": "tokenId",
          "type": "uint256"
        },
        {
          "indexed": false,
          "internalType": "uint96",
          "name": "royaltyFees",
          "type": "uint96"
        }
      ],
      "name": "NewNftMinted",
      "type": "event"
    },
    {
      "anonymous": false,
      "inputs": [
        {
          "indexed": true,
          "internalType": "uint256",
          "name": "tokenId",
          "type": "uint256"
        },
        {
          "indexed": false,
          "internalType": "uint96",
          "name": "royaltyFees",
          "type": "uint96"
        }
      ],
      "name": "NftRoyaltyUpdated",
      "type": "event"
    },
    {
      "anonymous": false,
      "inputs": [
        {
          "indexed": true,
          "internalType": "address",
          "name": "from",
          "type": "address"
        },
        {
          "indexed": true,
          "internalType": "address",
          "name": "to",
          "type": "address"
        },
        {
          "indexed": true,
          "internalType": "uint256",
          "name": "tokenId",
          "type": "uint256"
        }
      ],
      "name": "Transfer",
      "type": "event"
    },
    {
      "stateMutability": "payable",
      "type": "fallback"
    },
    {
      "inputs": [],
      "name": "PLATFORM_FEE",
      "outputs": [
        {
          "internalType": "uint256",
          "name": "",
          "type": "uint256"
        }
      ],
      "stateMutability": "view",
      "type": "function"
    },
    {
      "inputs": [
        {
          "internalType": "address",
          "name": "to",
          "type": "address"
        },
        {
          "internalType": "uint256",
          "name": "tokenId",
          "type": "uint256"
        }
      ],
      "name": "approve",
      "outputs": [],
      "stateMutability": "nonpayable",
      "type": "function"
    },
    {
      "inputs": [
        {
          "internalType": "address",
          "name": "owner",
          "type": "address"
        }
      ],
      "name": "balanceOf",
      "outputs": [
        {
          "internalType": "uint256",
          "name": "",
          "type": "uint256"
        }
      ],
      "stateMutability": "view",
      "type": "function"
    },
    {
      "inputs": [
        {
          "internalType": "uint256",
          "name": "tokenId",
          "type": "uint256"
        }
      ],
      "name": "buyItem",
      "outputs": [],
      "stateMutability": "payable",
      "type": "function"
    },
    {
      "inputs": [
        {
          "internalType": "uint256",
          "name": "tokenId",
          "type": "uint256"
        }
      ],
      "name": "cancelListing",
      "outputs": [],
      "stateMutability": "nonpayable",
      "type": "function"
    },
    {
      "inputs": [
        {
          "internalType": "uint256",
          "name": "tokenId",
          "type": "uint256"
        }
      ],
      "name": "getApproved",
      "outputs": [
        {
          "internalType": "address",
          "name": "",
          "type": "address"
        }
      ],
      "stateMutability": "view",
      "type": "function"
    },
    {
      "inputs": [],
      "name": "getEarnings",
      "outputs": [
        {
          "internalType": "uint256",
          "name": "",
          "type": "uint256"
        }
      ],
      "stateMutability": "view",
      "type": "function"
    },
    {
      "inputs": [],
      "name": "getListFee",
      "outputs": [
        {
          "internalType": "uint256",
          "name": "",
          "type": "uint256"
        }
      ],
      "stateMutability": "view",
      "type": "function"
    },
    {
      "inputs": [
        {
          "internalType": "uint256",
          "name": "tokenId",
          "type": "uint256"
        }
      ],
      "name": "getListing",
      "outputs": [
        {
          "components": [
            {
              "internalType": "uint256",
              "name": "price",
              "type": "uint256"
            },
            {
              "internalType": "address",
              "name": "seller",
              "type": "address"
            }
          ],
          "internalType": "struct NeuralNFTMarketplace.Listing",
          "name": "",
          "type": "tuple"
        }
      ],
      "stateMutability": "view",
      "type": "function"
    },
    {
      "inputs": [],
      "name": "getPlatformFee",
      "outputs": [
        {
          "internalType": "uint256",
          "name": "",
          "type": "uint256"
        }
      ],
      "stateMutability": "pure",
      "type": "function"
    },
    {
      "inputs": [
        {
          "internalType": "address",
          "name": "owner",
          "type": "address"
        },
        {
          "internalType": "address",
          "name": "operator",
          "type": "address"
        }
      ],
      "name": "isApprovedForAll",
      "outputs": [
        {
          "internalType": "bool",
          "name": "",
          "type": "bool"
        }
      ],
      "stateMutability": "view",
      "type": "function"
    },
    {
      "inputs": [
        {
          "internalType": "uint256",
          "name": "tokenId",
          "type": "uint256"
        },
        {
          "internalType": "uint256",
          "name": "price",
          "type": "uint256"
        }
      ],
      "name": "listItem",
      "outputs": [],
      "stateMutability": "payable",
      "type": "function"
    },
    {
      "inputs": [
        {
          "internalType": "string",
          "name": "nftURI",
          "type": "string"
        },
        {
          "internalType": "address",
          "name": "royaltyReceiver",
          "type": "address"
        },
        {
          "internalType": "uint96",
          "name": "_royaltyFeesInBips",
          "type": "uint96"
        }
      ],
      "name": "mintNft",
      "outputs": [
        {
          "internalType": "uint256",
          "name": "newItemId",
          "type": "uint256"
        }
      ],
      "stateMutability": "nonpayable",
      "type": "function"
    },
    {
      "inputs": [],
      "name": "name",
      "outputs": [
        {
          "internalType": "string",
          "name": "",
          "type": "string"
        }
      ],
      "stateMutability": "view",
      "type": "function"
    },
    {
      "inputs": [
        {
          "internalType": "uint256",
          "name": "tokenId",
          "type": "uint256"
        }
      ],
      "name": "ownerOf",
      "outputs": [
        {
          "internalType": "address",
          "name": "",
          "type": "address"
        }
      ],
      "stateMutability": "view",
      "type": "function"
    },
    {
      "inputs": [
        {
          "internalType": "uint256",
          "name": "_tokenId",
          "type": "uint256"
        },
        {
          "internalType": "uint256",
          "name": "_salePrice",
          "type": "uint256"
        }
      ],
      "name": "royaltyInfo",
      "outputs": [
        {
          "internalType": "address",
          "name": "",
          "type": "address"
        },
        {
          "internalType": "uint256",
          "name": "",
          "type": "uint256"
        }
      ],
      "stateMutability": "view",
      "type": "function"
    },
    {
      "inputs": [],
      "name": "s_list_fee",
      "outputs": [
        {
          "internalType": "uint256",
          "name": "",
          "type": "uint256"
        }
      ],
      "stateMutability": "view",
      "type": "function"
    },
    {
      "inputs": [
        {
          "internalType": "address",
          "name": "from",
          "type": "address"
        },
        {
          "internalType": "address",
          "name": "to",
          "type": "address"
        },
        {
          "internalType": "uint256",
          "name": "tokenId",
          "type": "uint256"
        }
      ],
      "name": "safeTransferFrom",
      "outputs": [],
      "stateMutability": "nonpayable",
      "type": "function"
    },
    {
      "inputs": [
        {
          "internalType": "address",
          "name": "from",
          "type": "address"
        },
        {
          "internalType": "address",
          "name": "to",
          "type": "address"
        },
        {
          "internalType": "uint256",
          "name": "tokenId",
          "type": "uint256"
        },
        {
          "internalType": "bytes",
          "name": "data",
          "type": "bytes"
        }
      ],
      "name": "safeTransferFrom",
      "outputs": [],
      "stateMutability": "nonpayable",
      "type": "function"
    },
    {
      "inputs": [
        {
          "internalType": "address",
          "name": "operator",
          "type": "address"
        },
        {
          "internalType": "bool",
          "name": "approved",
          "type": "bool"
        }
      ],
      "name": "setApprovalForAll",
      "outputs": [],
      "stateMutability": "nonpayable",
      "type": "function"
    },
    {
      "inputs": [
        {
          "internalType": "uint256",
          "name": "newListFee",
          "type": "uint256"
        }
      ],
      "name": "setListFee",
      "outputs": [],
      "stateMutability": "nonpayable",
      "type": "function"
    },
    {
      "inputs": [
        {
          "internalType": "uint256",
          "name": "_tokenId",
          "type": "uint256"
        },
        {
          "internalType": "address",
          "name": "_receiver",
          "type": "address"
        },
        {
          "internalType": "uint96",
          "name": "_royaltyFeesInBips",
          "type": "uint96"
        }
      ],
      "name": "setRoyaltyInfo",
      "outputs": [],
      "stateMutability": "nonpayable",
      "type": "function"
    },
    {
      "inputs": [
        {
          "internalType": "bytes4",
          "name": "interfaceId",
          "type": "bytes4"
        }
      ],
      "name": "supportsInterface",
      "outputs": [
        {
          "internalType": "bool",
          "name": "",
          "type": "bool"
        }
      ],
      "stateMutability": "view",
      "type": "function"
    },
    {
      "inputs": [],
      "name": "symbol",
      "outputs": [
        {
          "internalType": "string",
          "name": "",
          "type": "string"
        }
      ],
      "stateMutability": "view",
      "type": "function"
    },
    {
      "inputs": [
        {
          "internalType": "uint256",
          "name": "tokenId",
          "type": "uint256"
        }
      ],
      "name": "tokenURI",
      "outputs": [
        {
          "internalType": "string",
          "name": "",
          "type": "string"
        }
      ],
      "stateMutability": "view",
      "type": "function"
    },
    {
      "inputs": [
        {
          "internalType": "address",
          "name": "from",
          "type": "address"
        },
        {
          "internalType": "address",
          "name": "to",
          "type": "address"
        },
        {
          "internalType": "uint256",
          "name": "tokenId",
          "type": "uint256"
        }
      ],
      "name": "transferFrom",
      "outputs": [],
      "stateMutability": "nonpayable",
      "type": "function"
    },
    {
      "inputs": [
        {
          "internalType": "uint256",
          "name": "tokenId",
          "type": "uint256"
        },
        {
          "internalType": "uint256",
          "name": "newPrice",
          "type": "uint256"
        }
      ],
      "name": "updateListing",
      "outputs": [],
      "stateMutability": "payable",
      "type": "function"
    },
    {
      "inputs": [],
      "name": "withdrawProceeds",
      "outputs": [],
      "stateMutability": "nonpayable",
      "type": "function"
    },
    {
      "stateMutability": "payable",
      "type": "receive"
    }
  ],
  "bytecode": "0x60a060405266038d7ea4c68000600e553480156200001c57600080fd5b506040518060400160405280600981526020017f4e657572616c4e465400000000000000000000000000000000000000000000008152506040518060400160405280600481526020017f4e4e4654000000000000000000000000000000000000000000000000000000008152508160029080519060200190620000a192919062000102565b508060039080519060200190620000ba92919062000102565b50505060016009819055503373ffffffffffffffffffffffffffffffffffffffff1660808173ffffffffffffffffffffffffffffffffffffffff1660601b8152505062000217565b8280546200011090620001b2565b90600052602060002090601f01602090048101928262000134576000855562000180565b82601f106200014f57805160ff191683800117855562000180565b8280016001018555821562000180579182015b828111156200017f57825182559160200191906001019062000162565b5b5090506200018f919062000193565b5090565b5b80821115620001ae57600081600090555060010162000194565b5090565b60006002820490506001821680620001cb57607f821691505b60208210811415620001e257620001e1620001e8565b5b50919050565b7f4e487b7100000000000000000000000000000000000000000000000000000000600052602260045260246000fd5b60805160601c614bdd62000259600039600081816101c70152818161023f015281816109bc01528181610d74015281816117af01526121820152614bdd6000f3fe6080604052600436106101bb5760003560e01c80636ea8bc10116100ec578063a22cb4651161008a578063c87b56dd11610064578063c87b56dd146106f5578063e7fb74c714610732578063e985e9c51461074e578063fb5134921461078b57610238565b8063a22cb46514610678578063b88d4fde146106a1578063c379f647146106ca57610238565b80639038e693116100c65780639038e693146105ce57806390666232146105e557806395d89b41146106105780639ed19d801461063b57610238565b80636ea8bc101461054a57806370a0823114610575578063883efa67146105b257610238565b80631d04886011610159578063305a67a811610133578063305a67a81461049057806334fbc9a1146104b957806342842e0e146104e45780636352211e1461050d57610238565b80631d0488601461040057806323b872dd146104295780632a55205a1461045257610238565b8063081812fc11610195578063081812fc14610334578063095ea7b314610371578063107a274a1461039a5780631495fa99146103d757610238565b80630179ea88146102b057806301ffc9a7146102cc57806306fdde031461030957610238565b366102385734600c60007f000000000000000000000000000000000000000000000000000000000000000073ffffffffffffffffffffffffffffffffffffffff1673ffffffffffffffffffffffffffffffffffffffff168152602001908152602001600020600082825461022f91906143a4565b92505081905550005b34600c60007f000000000000000000000000000000000000000000000000000000000000000073ffffffffffffffffffffffffffffffffffffffff1673ffffffffffffffffffffffffffffffffffffffff16815260200190815260200160002060008282546102a791906143a4565b92505081905550005b6102ca60048036038101906102c59190613b73565b6107b6565b005b3480156102d857600080fd5b506102f360048036038101906102ee9190613a2a565b610aa5565b604051610300919061400f565b60405180910390f35b34801561031557600080fd5b5061031e610ab7565b60405161032b919061402a565b60405180910390f35b34801561034057600080fd5b5061035b60048036038101906103569190613af3565b610b49565b6040516103689190613f48565b60405180910390f35b34801561037d57600080fd5b50610398600480360381019061039391906139ea565b610b8f565b005b3480156103a657600080fd5b506103c160048036038101906103bc9190613af3565b610b9d565b6040516103ce919061422c565b60405180910390f35b3480156103e357600080fd5b506103fe60048036038101906103f99190613b20565b610c2a565b005b34801561040c57600080fd5b5061042760048036038101906104229190613af3565b610d72565b005b34801561043557600080fd5b50610450600480360381019061044b91906138d4565b610e01565b005b34801561045e57600080fd5b5061047960048036038101906104749190613b73565b610ee2565b604051610487929190613fe6565b60405180910390f35b34801561049c57600080fd5b506104b760048036038101906104b29190613af3565b6110cd565b005b3480156104c557600080fd5b506104ce6112ee565b6040516104db9190614247565b60405180910390f35b3480156104f057600080fd5b5061050b600480360381019061050691906138d4565b6112f3565b005b34801561051957600080fd5b50610534600480360381019061052f9190613af3565b61140b565b6040516105419190613f48565b60405180910390f35b34801561055657600080fd5b5061055f6114bd565b60405161056c9190614247565b60405180910390f35b34801561058157600080fd5b5061059c60048036038101906105979190613867565b6114c6565b6040516105a99190614247565b60405180910390f35b6105cc60048036038101906105c79190613b73565b61157e565b005b3480156105da57600080fd5b506105e3611908565b005b3480156105f157600080fd5b506105fa611ac8565b6040516106079190614247565b60405180910390f35b34801561061c57600080fd5b50610625611b0f565b604051610632919061402a565b60405180910390f35b34801561064757600080fd5b50610662600480360381019061065d9190613a84565b611ba1565b60405161066f9190614247565b60405180910390f35b34801561068457600080fd5b5061069f600480360381019061069a91906139aa565b611d2d565b005b3480156106ad57600080fd5b506106c860048036038101906106c39190613927565b611d43565b005b3480156106d657600080fd5b506106df611da5565b6040516106ec9190614247565b60405180910390f35b34801561070157600080fd5b5061071c60048036038101906107179190613af3565b611dab565b604051610729919061402a565b60405180910390f35b61074c60048036038101906107479190613af3565b611ebe565b005b34801561075a57600080fd5b5061077560048036038101906107709190613894565b61230a565b604051610782919061400f565b60405180910390f35b34801561079757600080fd5b506107a061239e565b6040516107ad9190614247565b60405180910390f35b81336107c18261140b565b73ffffffffffffffffffffffffffffffffffffffff168173ffffffffffffffffffffffffffffffffffffffff1614610825576040517f2ac3f91100000000000000000000000000000000000000000000000000000000815260040160405180910390fd5b836000600b6000838152602001908152602001600020604051806040016040529081600082015481526020016001820160009054906101000a900473ffffffffffffffffffffffffffffffffffffffff1673ffffffffffffffffffffffffffffffffffffffff1673ffffffffffffffffffffffffffffffffffffffff1681525050905060008160000151116108f157816040517fdb363db80000000000000000000000000000000000000000000000000000000081526004016108e89190614247565b60405180910390fd5b60026009541415610937576040517f08c379a000000000000000000000000000000000000000000000000000000000815260040161092e9061420c565b60405180910390fd5b6002600981905550600e5434101561097b576040517fade20f9200000000000000000000000000000000000000000000000000000000815260040160405180910390fd5b600085116109b5576040517ff1c64ea600000000000000000000000000000000000000000000000000000000815260040160405180910390fd5b34600c60007f000000000000000000000000000000000000000000000000000000000000000073ffffffffffffffffffffffffffffffffffffffff1673ffffffffffffffffffffffffffffffffffffffff1681526020019081526020016000206000828254610a2491906143a4565b9250508190555084600b600088815260200190815260200160002060000181905550853373ffffffffffffffffffffffffffffffffffffffff167f94e7b934c857a9e3202e8ed9c1f3f96e396b7d2b5885930d2001abcb51ff58fa87604051610a8d9190614247565b60405180910390a36001600981905550505050505050565b6000610ab0826123a8565b9050919050565b606060028054610ac690614587565b80601f0160208091040260200160405190810160405280929190818152602001828054610af290614587565b8015610b3f5780601f10610b1457610100808354040283529160200191610b3f565b820191906000526020600020905b815481529060010190602001808311610b2257829003601f168201915b5050505050905090565b6000610b548261248a565b6006600083815260200190815260200160002060009054906101000a900473ffffffffffffffffffffffffffffffffffffffff169050919050565b610b9982826124d5565b5050565b610ba5613636565b600b6000838152602001908152602001600020604051806040016040529081600082015481526020016001820160009054906101000a900473ffffffffffffffffffffffffffffffffffffffff1673ffffffffffffffffffffffffffffffffffffffff1673ffffffffffffffffffffffffffffffffffffffff16815250509050919050565b806107d0816bffffffffffffffffffffffff161115610c8057806040517f05a79cda000000000000000000000000000000000000000000000000000000008152600401610c7791906142b4565b60405180910390fd5b83338073ffffffffffffffffffffffffffffffffffffffff16600d600084815260200190815260200160002060009054906101000a900473ffffffffffffffffffffffffffffffffffffffff1673ffffffffffffffffffffffffffffffffffffffff1614610d275781816040517fee3671ac000000000000000000000000000000000000000000000000000000008152600401610d1e929190614262565b60405180910390fd5b610d328686866125ed565b857f51a561a62c793496a64ccae0329d6a4a31b3b2107025e3d0770a06b6188f506385604051610d6291906142b4565b60405180910390a2505050505050565b7f000000000000000000000000000000000000000000000000000000000000000073ffffffffffffffffffffffffffffffffffffffff163373ffffffffffffffffffffffffffffffffffffffff1614610df7576040517f2ac3f91100000000000000000000000000000000000000000000000000000000815260040160405180910390fd5b80600e8190555050565b80836000600b6000848152602001908152602001600020604051806040016040529081600082015481526020016001820160009054906101000a900473ffffffffffffffffffffffffffffffffffffffff1673ffffffffffffffffffffffffffffffffffffffff1673ffffffffffffffffffffffffffffffffffffffff16815250509050600081600001511115610ecf57826040517fe000ca91000000000000000000000000000000000000000000000000000000008152600401610ec69190614247565b60405180910390fd5b610eda868686612795565b505050505050565b6000806000600160008681526020019081526020016000206040518060400160405290816000820160009054906101000a900473ffffffffffffffffffffffffffffffffffffffff1673ffffffffffffffffffffffffffffffffffffffff1673ffffffffffffffffffffffffffffffffffffffff1681526020016000820160149054906101000a90046bffffffffffffffffffffffff166bffffffffffffffffffffffff166bffffffffffffffffffffffff16815250509050600073ffffffffffffffffffffffffffffffffffffffff16816000015173ffffffffffffffffffffffffffffffffffffffff1614156110785760006040518060400160405290816000820160009054906101000a900473ffffffffffffffffffffffffffffffffffffffff1673ffffffffffffffffffffffffffffffffffffffff1673ffffffffffffffffffffffffffffffffffffffff1681526020016000820160149054906101000a90046bffffffffffffffffffffffff166bffffffffffffffffffffffff166bffffffffffffffffffffffff168152505090505b60006110826127f5565b6bffffffffffffffffffffffff1682602001516bffffffffffffffffffffffff16866110ae919061442b565b6110b891906143fa565b90508160000151819350935050509250929050565b80336110d88261140b565b73ffffffffffffffffffffffffffffffffffffffff168173ffffffffffffffffffffffffffffffffffffffff161461113c576040517f2ac3f91100000000000000000000000000000000000000000000000000000000815260040160405180910390fd5b826000600b6000838152602001908152602001600020604051806040016040529081600082015481526020016001820160009054906101000a900473ffffffffffffffffffffffffffffffffffffffff1673ffffffffffffffffffffffffffffffffffffffff1673ffffffffffffffffffffffffffffffffffffffff16815250509050600081600001511161120857816040517fdb363db80000000000000000000000000000000000000000000000000000000081526004016111ff9190614247565b60405180910390fd5b6002600954141561124e576040517f08c379a00000000000000000000000000000000000000000000000000000000081526004016112459061420c565b60405180910390fd5b6002600981905550600b60008681526020019081526020016000206000808201600090556001820160006101000a81549073ffffffffffffffffffffffffffffffffffffffff02191690555050843373ffffffffffffffffffffffffffffffffffffffff167f6be0c8480cb6f0bffcd4a654fb162c986ba528d5ff0e743ee21b1fc900fa264f60405160405180910390a360016009819055505050505050565b600281565b80836000600b6000848152602001908152602001600020604051806040016040529081600082015481526020016001820160009054906101000a900473ffffffffffffffffffffffffffffffffffffffff1673ffffffffffffffffffffffffffffffffffffffff1673ffffffffffffffffffffffffffffffffffffffff168152505090506000816000015111156113c157826040517fe000ca910000000000000000000000000000000000000000000000000000000081526004016113b89190614247565b60405180910390fd5b6113f83073ffffffffffffffffffffffffffffffffffffffff163373ffffffffffffffffffffffffffffffffffffffff16146127ff565b611403868686612795565b505050505050565b6000806004600084815260200190815260200160002060009054906101000a900473ffffffffffffffffffffffffffffffffffffffff169050600073ffffffffffffffffffffffffffffffffffffffff168173ffffffffffffffffffffffffffffffffffffffff1614156114b4576040517f08c379a00000000000000000000000000000000000000000000000000000000081526004016114ab9061416c565b60405180910390fd5b80915050919050565b60006002905090565b60008073ffffffffffffffffffffffffffffffffffffffff168273ffffffffffffffffffffffffffffffffffffffff161415611537576040517f08c379a000000000000000000000000000000000000000000000000000000000815260040161152e906140ec565b60405180910390fd5b600560008373ffffffffffffffffffffffffffffffffffffffff1673ffffffffffffffffffffffffffffffffffffffff168152602001908152602001600020549050919050565b81336000600b6000848152602001908152602001600020604051806040016040529081600082015481526020016001820160009054906101000a900473ffffffffffffffffffffffffffffffffffffffff1673ffffffffffffffffffffffffffffffffffffffff1673ffffffffffffffffffffffffffffffffffffffff1681525050905060008160000151111561164c57826040517fe000ca910000000000000000000000000000000000000000000000000000000081526004016116439190614247565b60405180910390fd5b84336116578261140b565b73ffffffffffffffffffffffffffffffffffffffff168173ffffffffffffffffffffffffffffffffffffffff16146116bb576040517f2ac3f91100000000000000000000000000000000000000000000000000000000815260040160405180910390fd5b600e543410156116f7576040517fade20f9200000000000000000000000000000000000000000000000000000000815260040160405180910390fd5b60008611611731576040517ff1c64ea600000000000000000000000000000000000000000000000000000000815260040160405180910390fd5b61173b3088610b8f565b3073ffffffffffffffffffffffffffffffffffffffff1661175b88610b49565b73ffffffffffffffffffffffffffffffffffffffff16146117a8576040517f913365f800000000000000000000000000000000000000000000000000000000815260040160405180910390fd5b34600c60007f000000000000000000000000000000000000000000000000000000000000000073ffffffffffffffffffffffffffffffffffffffff1673ffffffffffffffffffffffffffffffffffffffff168152602001908152602001600020600082825461181791906143a4565b9250508190555060405180604001604052808781526020013373ffffffffffffffffffffffffffffffffffffffff16815250600b60008981526020019081526020016000206000820151816000015560208201518160010160006101000a81548173ffffffffffffffffffffffffffffffffffffffff021916908373ffffffffffffffffffffffffffffffffffffffff160217905550905050863373ffffffffffffffffffffffffffffffffffffffff167f94e7b934c857a9e3202e8ed9c1f3f96e396b7d2b5885930d2001abcb51ff58fa886040516118f79190614247565b60405180910390a350505050505050565b6002600954141561194e576040517f08c379a00000000000000000000000000000000000000000000000000000000081526004016119459061420c565b60405180910390fd5b60026009819055506000600c60003373ffffffffffffffffffffffffffffffffffffffff1673ffffffffffffffffffffffffffffffffffffffff168152602001908152602001600020549050600081116119d4576040517f22be094a00000000000000000000000000000000000000000000000000000000815260040160405180910390fd5b6000600c60003373ffffffffffffffffffffffffffffffffffffffff1673ffffffffffffffffffffffffffffffffffffffff1681526020019081526020016000208190555060003373ffffffffffffffffffffffffffffffffffffffff1682604051611a3f90613f33565b60006040518083038185875af1925050503d8060008114611a7c576040519150601f19603f3d011682016040523d82523d6000602084013e611a81565b606091505b5050905080611abc576040517f1413ec4b00000000000000000000000000000000000000000000000000000000815260040160405180910390fd5b50506001600981905550565b6000600c60003373ffffffffffffffffffffffffffffffffffffffff1673ffffffffffffffffffffffffffffffffffffffff16815260200190815260200160002054905090565b606060038054611b1e90614587565b80601f0160208091040260200160405190810160405280929190818152602001828054611b4a90614587565b8015611b975780601f10611b6c57610100808354040283529160200191611b97565b820191906000526020600020905b815481529060010190602001808311611b7a57829003601f168201915b5050505050905090565b6000816107d0816bffffffffffffffffffffffff161115611bf957806040517f05a79cda000000000000000000000000000000000000000000000000000000008152600401611bf091906142b4565b60405180910390fd5b60026009541415611c3f576040517f08c379a0000000000000000000000000000000000000000000000000000000008152600401611c369061420c565b60405180910390fd5b6002600981905550611c51600a612898565b9150611c5d33836128a6565b611c688285856125ed565b611c7282866128c4565b33600d600084815260200190815260200160002060006101000a81548173ffffffffffffffffffffffffffffffffffffffff021916908373ffffffffffffffffffffffffffffffffffffffff160217905550611cce600a612938565b813373ffffffffffffffffffffffffffffffffffffffff167fd3d96b5226b0f7dc725f612a664675b5e04ef0727b38f7f6b22c5f2398ca707985604051611d1591906142b4565b60405180910390a36001600981905550509392505050565b611d3f611d3861294e565b8383612956565b5050565b611d54611d4e61294e565b83612ac3565b611d93576040517f08c379a0000000000000000000000000000000000000000000000000000000008152600401611d8a906141ec565b60405180910390fd5b611d9f84848484612b58565b50505050565b600e5481565b6060611db68261248a565b6000600860008481526020019081526020016000208054611dd690614587565b80601f0160208091040260200160405190810160405280929190818152602001828054611e0290614587565b8015611e4f5780601f10611e2457610100808354040283529160200191611e4f565b820191906000526020600020905b815481529060010190602001808311611e3257829003601f168201915b505050505090506000611e60612bb4565b9050600081511415611e76578192505050611eb9565b600082511115611eab578082604051602001611e93929190613f0f565b60405160208183030381529060405292505050611eb9565b611eb484612bcb565b925050505b919050565b806000600b6000838152602001908152602001600020604051806040016040529081600082015481526020016001820160009054906101000a900473ffffffffffffffffffffffffffffffffffffffff1673ffffffffffffffffffffffffffffffffffffffff1673ffffffffffffffffffffffffffffffffffffffff168152505090506000816000015111611f8a57816040517fdb363db8000000000000000000000000000000000000000000000000000000008152600401611f819190614247565b60405180910390fd5b60026009541415611fd0576040517f08c379a0000000000000000000000000000000000000000000000000000000008152600401611fc79061420c565b60405180910390fd5b60026009819055506000600b6000858152602001908152602001600020604051806040016040529081600082015481526020016001820160009054906101000a900473ffffffffffffffffffffffffffffffffffffffff1673ffffffffffffffffffffffffffffffffffffffff1673ffffffffffffffffffffffffffffffffffffffff1681525050905080600001513410156120a9578381600001516040517f8eb7b75f0000000000000000000000000000000000000000000000000000000081526004016120a092919061428b565b60405180910390fd5b6064600260646120b99190614485565b346120c4919061442b565b6120ce91906143fa565b600c6000836020015173ffffffffffffffffffffffffffffffffffffffff1673ffffffffffffffffffffffffffffffffffffffff1681526020019081526020016000205461211c91906143a4565b600c6000836020015173ffffffffffffffffffffffffffffffffffffffff1673ffffffffffffffffffffffffffffffffffffffff168152602001908152602001600020819055506064600234612172919061442b565b61217c91906143fa565b600c60007f000000000000000000000000000000000000000000000000000000000000000073ffffffffffffffffffffffffffffffffffffffff1673ffffffffffffffffffffffffffffffffffffffff16815260200190815260200160002060008282546121ea91906143a4565b92505081905550600b60008581526020019081526020016000206000808201600090556001820160006101000a81549073ffffffffffffffffffffffffffffffffffffffff021916905550503073ffffffffffffffffffffffffffffffffffffffff166342842e0e826020015133876040518463ffffffff1660e01b815260040161227793929190613f63565b600060405180830381600087803b15801561229157600080fd5b505af11580156122a5573d6000803e3d6000fd5b50505050833373ffffffffffffffffffffffffffffffffffffffff167ffe2094c9ff56716cb07edf0cff82da158f346cb3bb2d89703228ab4eb0c329b683600001516040516122f49190614247565b60405180910390a3506001600981905550505050565b6000600760008473ffffffffffffffffffffffffffffffffffffffff1673ffffffffffffffffffffffffffffffffffffffff16815260200190815260200160002060008373ffffffffffffffffffffffffffffffffffffffff1673ffffffffffffffffffffffffffffffffffffffff16815260200190815260200160002060009054906101000a900460ff16905092915050565b6000600e54905090565b60007f80ac58cd000000000000000000000000000000000000000000000000000000007bffffffffffffffffffffffffffffffffffffffffffffffffffffffff1916827bffffffffffffffffffffffffffffffffffffffffffffffffffffffff1916148061247357507f5b5e139f000000000000000000000000000000000000000000000000000000007bffffffffffffffffffffffffffffffffffffffffffffffffffffffff1916827bffffffffffffffffffffffffffffffffffffffffffffffffffffffff1916145b80612483575061248282612c33565b5b9050919050565b61249381612cad565b6124d2576040517f08c379a00000000000000000000000000000000000000000000000000000000081526004016124c99061416c565b60405180910390fd5b50565b60006124e08261140b565b90508073ffffffffffffffffffffffffffffffffffffffff168373ffffffffffffffffffffffffffffffffffffffff161415612551576040517f08c379a00000000000000000000000000000000000000000000000000000000081526004016125489061418c565b60405180910390fd5b8073ffffffffffffffffffffffffffffffffffffffff1661257061294e565b73ffffffffffffffffffffffffffffffffffffffff16148061259f575061259e8161259961294e565b61230a565b5b6125de576040517f08c379a00000000000000000000000000000000000000000000000000000000081526004016125d59061412c565b60405180910390fd5b6125e88383612d19565b505050565b6125f56127f5565b6bffffffffffffffffffffffff16816bffffffffffffffffffffffff161115612653576040517f08c379a000000000000000000000000000000000000000000000000000000000815260040161264a906141cc565b60405180910390fd5b600073ffffffffffffffffffffffffffffffffffffffff168273ffffffffffffffffffffffffffffffffffffffff1614156126c3576040517f08c379a00000000000000000000000000000000000000000000000000000000081526004016126ba906141ac565b60405180910390fd5b60405180604001604052808373ffffffffffffffffffffffffffffffffffffffff168152602001826bffffffffffffffffffffffff168152506001600085815260200190815260200160002060008201518160000160006101000a81548173ffffffffffffffffffffffffffffffffffffffff021916908373ffffffffffffffffffffffffffffffffffffffff16021790555060208201518160000160146101000a8154816bffffffffffffffffffffffff02191690836bffffffffffffffffffffffff160217905550905050505050565b6127a66127a061294e565b82612ac3565b6127e5576040517f08c379a00000000000000000000000000000000000000000000000000000000081526004016127dc906141ec565b60405180910390fd5b6127f0838383612dd2565b505050565b6000612710905090565b61289581604051602401612813919061400f565b6040516020818303038152906040527f32458eed000000000000000000000000000000000000000000000000000000007bffffffffffffffffffffffffffffffffffffffffffffffffffffffff19166020820180517bffffffffffffffffffffffffffffffffffffffffffffffffffffffff8381831617835250505050613039565b50565b600081600001549050919050565b6128c0828260405180602001604052806000815250613062565b5050565b6128cd82612cad565b61290c576040517f08c379a00000000000000000000000000000000000000000000000000000000081526004016129039061410c565b60405180910390fd5b80600860008481526020019081526020016000209080519060200190612933929190613666565b505050565b6001816000016000828254019250508190555050565b600033905090565b8173ffffffffffffffffffffffffffffffffffffffff168373ffffffffffffffffffffffffffffffffffffffff1614156129c5576040517f08c379a00000000000000000000000000000000000000000000000000000000081526004016129bc906140cc565b60405180910390fd5b80600760008573ffffffffffffffffffffffffffffffffffffffff1673ffffffffffffffffffffffffffffffffffffffff16815260200190815260200160002060008473ffffffffffffffffffffffffffffffffffffffff1673ffffffffffffffffffffffffffffffffffffffff16815260200190815260200160002060006101000a81548160ff0219169083151502179055508173ffffffffffffffffffffffffffffffffffffffff168373ffffffffffffffffffffffffffffffffffffffff167f17307eab39ab6107e8899845ad3d59bd9653f200f220920489ca2b5937696c3183604051612ab6919061400f565b60405180910390a3505050565b600080612acf8361140b565b90508073ffffffffffffffffffffffffffffffffffffffff168473ffffffffffffffffffffffffffffffffffffffff161480612b115750612b10818561230a565b5b80612b4f57508373ffffffffffffffffffffffffffffffffffffffff16612b3784610b49565b73ffffffffffffffffffffffffffffffffffffffff16145b91505092915050565b612b63848484612dd2565b612b6f848484846130bd565b612bae576040517f08c379a0000000000000000000000000000000000000000000000000000000008152600401612ba59061404c565b60405180910390fd5b50505050565b606060405180602001604052806000815250905090565b6060612bd68261248a565b6000612be0612bb4565b90506000815111612c005760405180602001604052806000815250612c2b565b80612c0a84613254565b604051602001612c1b929190613f0f565b6040516020818303038152906040525b915050919050565b60007f2a55205a000000000000000000000000000000000000000000000000000000007bffffffffffffffffffffffffffffffffffffffffffffffffffffffff1916827bffffffffffffffffffffffffffffffffffffffffffffffffffffffff19161480612ca65750612ca5826133b5565b5b9050919050565b60008073ffffffffffffffffffffffffffffffffffffffff166004600084815260200190815260200160002060009054906101000a900473ffffffffffffffffffffffffffffffffffffffff1673ffffffffffffffffffffffffffffffffffffffff1614159050919050565b816006600083815260200190815260200160002060006101000a81548173ffffffffffffffffffffffffffffffffffffffff021916908373ffffffffffffffffffffffffffffffffffffffff160217905550808273ffffffffffffffffffffffffffffffffffffffff16612d8c8361140b565b73ffffffffffffffffffffffffffffffffffffffff167f8c5be1e5ebec7d5bd14f71427d1e84f3dd0314c0f7b2291e5b200ac8c7c3b92560405160405180910390a45050565b8273ffffffffffffffffffffffffffffffffffffffff16612df28261140b565b73ffffffffffffffffffffffffffffffffffffffff1614612e48576040517f08c379a0000000000000000000000000000000000000000000000000000000008152600401612e3f9061406c565b60405180910390fd5b600073ffffffffffffffffffffffffffffffffffffffff168273ffffffffffffffffffffffffffffffffffffffff161415612eb8576040517f08c379a0000000000000000000000000000000000000000000000000000000008152600401612eaf906140ac565b60405180910390fd5b612ec383838361341f565b612ece600082612d19565b6001600560008573ffffffffffffffffffffffffffffffffffffffff1673ffffffffffffffffffffffffffffffffffffffff1681526020019081526020016000206000828254612f1e9190614485565b925050819055506001600560008473ffffffffffffffffffffffffffffffffffffffff1673ffffffffffffffffffffffffffffffffffffffff1681526020019081526020016000206000828254612f7591906143a4565b92505081905550816004600083815260200190815260200160002060006101000a81548173ffffffffffffffffffffffffffffffffffffffff021916908373ffffffffffffffffffffffffffffffffffffffff160217905550808273ffffffffffffffffffffffffffffffffffffffff168473ffffffffffffffffffffffffffffffffffffffff167fddf252ad1be2c89b69c2b068fc378daa952ba7f163c4a11628f55a4df523b3ef60405160405180910390a461303483838361342f565b505050565b60008151905060006a636f6e736f6c652e6c6f679050602083016000808483855afa5050505050565b61306c8383613434565b61307960008484846130bd565b6130b8576040517f08c379a00000000000000000000000000000000000000000000000000000000081526004016130af9061404c565b60405180910390fd5b505050565b60006130de8473ffffffffffffffffffffffffffffffffffffffff1661360e565b15613247578373ffffffffffffffffffffffffffffffffffffffff1663150b7a0261310761294e565b8786866040518563ffffffff1660e01b81526004016131299493929190613f9a565b602060405180830381600087803b15801561314357600080fd5b505af192505050801561317457506040513d601f19601f820116820180604052508101906131719190613a57565b60015b6131f7573d80600081146131a4576040519150601f19603f3d011682016040523d82523d6000602084013e6131a9565b606091505b506000815114156131ef576040517f08c379a00000000000000000000000000000000000000000000000000000000081526004016131e69061404c565b60405180910390fd5b805181602001fd5b63150b7a0260e01b7bffffffffffffffffffffffffffffffffffffffffffffffffffffffff1916817bffffffffffffffffffffffffffffffffffffffffffffffffffffffff19161491505061324c565b600190505b949350505050565b6060600082141561329c576040518060400160405280600181526020017f300000000000000000000000000000000000000000000000000000000000000081525090506133b0565b600082905060005b600082146132ce5780806132b7906145ea565b915050600a826132c791906143fa565b91506132a4565b60008167ffffffffffffffff8111156132ea576132e9614720565b5b6040519080825280601f01601f19166020018201604052801561331c5781602001600182028036833780820191505090505b5090505b600085146133a9576001826133359190614485565b9150600a856133449190614633565b603061335091906143a4565b60f81b818381518110613366576133656146f1565b5b60200101907effffffffffffffffffffffffffffffffffffffffffffffffffffffffffffff1916908160001a905350600a856133a291906143fa565b9450613320565b8093505050505b919050565b60007f01ffc9a7000000000000000000000000000000000000000000000000000000007bffffffffffffffffffffffffffffffffffffffffffffffffffffffff1916827bffffffffffffffffffffffffffffffffffffffffffffffffffffffff1916149050919050565b61342a838383613631565b505050565b505050565b600073ffffffffffffffffffffffffffffffffffffffff168273ffffffffffffffffffffffffffffffffffffffff1614156134a4576040517f08c379a000000000000000000000000000000000000000000000000000000000815260040161349b9061414c565b60405180910390fd5b6134ad81612cad565b156134ed576040517f08c379a00000000000000000000000000000000000000000000000000000000081526004016134e49061408c565b60405180910390fd5b6134f96000838361341f565b6001600560008473ffffffffffffffffffffffffffffffffffffffff1673ffffffffffffffffffffffffffffffffffffffff168152602001908152602001600020600082825461354991906143a4565b92505081905550816004600083815260200190815260200160002060006101000a81548173ffffffffffffffffffffffffffffffffffffffff021916908373ffffffffffffffffffffffffffffffffffffffff160217905550808273ffffffffffffffffffffffffffffffffffffffff16600073ffffffffffffffffffffffffffffffffffffffff167fddf252ad1be2c89b69c2b068fc378daa952ba7f163c4a11628f55a4df523b3ef60405160405180910390a461360a6000838361342f565b5050565b6000808273ffffffffffffffffffffffffffffffffffffffff163b119050919050565b505050565b604051806040016040528060008152602001600073ffffffffffffffffffffffffffffffffffffffff1681525090565b82805461367290614587565b90600052602060002090601f01602090048101928261369457600085556136db565b82601f106136ad57805160ff19168380011785556136db565b828001600101855582156136db579182015b828111156136da5782518255916020019190600101906136bf565b5b5090506136e891906136ec565b5090565b5b808211156137055760008160009055506001016136ed565b5090565b600061371c613717846142f4565b6142cf565b90508281526020810184848401111561373857613737614754565b5b613743848285614545565b509392505050565b600061375e61375984614325565b6142cf565b90508281526020810184848401111561377a57613779614754565b5b613785848285614545565b509392505050565b60008135905061379c81614b34565b92915050565b6000813590506137b181614b4b565b92915050565b6000813590506137c681614b62565b92915050565b6000815190506137db81614b62565b92915050565b600082601f8301126137f6576137f561474f565b5b8135613806848260208601613709565b91505092915050565b600082601f8301126138245761382361474f565b5b813561383484826020860161374b565b91505092915050565b60008135905061384c81614b79565b92915050565b60008135905061386181614b90565b92915050565b60006020828403121561387d5761387c61475e565b5b600061388b8482850161378d565b91505092915050565b600080604083850312156138ab576138aa61475e565b5b60006138b98582860161378d565b92505060206138ca8582860161378d565b9150509250929050565b6000806000606084860312156138ed576138ec61475e565b5b60006138fb8682870161378d565b935050602061390c8682870161378d565b925050604061391d8682870161383d565b9150509250925092565b600080600080608085870312156139415761394061475e565b5b600061394f8782880161378d565b94505060206139608782880161378d565b93505060406139718782880161383d565b925050606085013567ffffffffffffffff81111561399257613991614759565b5b61399e878288016137e1565b91505092959194509250565b600080604083850312156139c1576139c061475e565b5b60006139cf8582860161378d565b92505060206139e0858286016137a2565b9150509250929050565b60008060408385031215613a0157613a0061475e565b5b6000613a0f8582860161378d565b9250506020613a208582860161383d565b9150509250929050565b600060208284031215613a4057613a3f61475e565b5b6000613a4e848285016137b7565b91505092915050565b600060208284031215613a6d57613a6c61475e565b5b6000613a7b848285016137cc565b91505092915050565b600080600060608486031215613a9d57613a9c61475e565b5b600084013567ffffffffffffffff811115613abb57613aba614759565b5b613ac78682870161380f565b9350506020613ad88682870161378d565b9250506040613ae986828701613852565b9150509250925092565b600060208284031215613b0957613b0861475e565b5b6000613b178482850161383d565b91505092915050565b600080600060608486031215613b3957613b3861475e565b5b6000613b478682870161383d565b9350506020613b588682870161378d565b9250506040613b6986828701613852565b9150509250925092565b60008060408385031215613b8a57613b8961475e565b5b6000613b988582860161383d565b9250506020613ba98582860161383d565b9150509250929050565b613bbc816144b9565b82525050565b613bcb816144b9565b82525050565b613bda816144cb565b82525050565b6000613beb82614356565b613bf5818561436c565b9350613c05818560208601614554565b613c0e81614763565b840191505092915050565b6000613c2482614361565b613c2e8185614388565b9350613c3e818560208601614554565b613c4781614763565b840191505092915050565b6000613c5d82614361565b613c678185614399565b9350613c77818560208601614554565b80840191505092915050565b6000613c90603283614388565b9150613c9b82614774565b604082019050919050565b6000613cb3602583614388565b9150613cbe826147c3565b604082019050919050565b6000613cd6601c83614388565b9150613ce182614812565b602082019050919050565b6000613cf9602483614388565b9150613d048261483b565b604082019050919050565b6000613d1c601983614388565b9150613d278261488a565b602082019050919050565b6000613d3f602983614388565b9150613d4a826148b3565b604082019050919050565b6000613d62602e83614388565b9150613d6d82614902565b604082019050919050565b6000613d85603e83614388565b9150613d9082614951565b604082019050919050565b6000613da8602083614388565b9150613db3826149a0565b602082019050919050565b6000613dcb601883614388565b9150613dd6826149c9565b602082019050919050565b6000613dee602183614388565b9150613df9826149f2565b604082019050919050565b6000613e1160008361437d565b9150613e1c82614a41565b600082019050919050565b6000613e34601b83614388565b9150613e3f82614a44565b602082019050919050565b6000613e57602a83614388565b9150613e6282614a6d565b604082019050919050565b6000613e7a602e83614388565b9150613e8582614abc565b604082019050919050565b6000613e9d601f83614388565b9150613ea882614b0b565b602082019050919050565b604082016000820151613ec96000850182613ee2565b506020820151613edc6020850182613bb3565b50505050565b613eeb81614523565b82525050565b613efa81614523565b82525050565b613f098161452d565b82525050565b6000613f1b8285613c52565b9150613f278284613c52565b91508190509392505050565b6000613f3e82613e04565b9150819050919050565b6000602082019050613f5d6000830184613bc2565b92915050565b6000606082019050613f786000830186613bc2565b613f856020830185613bc2565b613f926040830184613ef1565b949350505050565b6000608082019050613faf6000830187613bc2565b613fbc6020830186613bc2565b613fc96040830185613ef1565b8181036060830152613fdb8184613be0565b905095945050505050565b6000604082019050613ffb6000830185613bc2565b6140086020830184613ef1565b9392505050565b60006020820190506140246000830184613bd1565b92915050565b600060208201905081810360008301526140448184613c19565b905092915050565b6000602082019050818103600083015261406581613c83565b9050919050565b6000602082019050818103600083015261408581613ca6565b9050919050565b600060208201905081810360008301526140a581613cc9565b9050919050565b600060208201905081810360008301526140c581613cec565b9050919050565b600060208201905081810360008301526140e581613d0f565b9050919050565b6000602082019050818103600083015261410581613d32565b9050919050565b6000602082019050818103600083015261412581613d55565b9050919050565b6000602082019050818103600083015261414581613d78565b9050919050565b6000602082019050818103600083015261416581613d9b565b9050919050565b6000602082019050818103600083015261418581613dbe565b9050919050565b600060208201905081810360008301526141a581613de1565b9050919050565b600060208201905081810360008301526141c581613e27565b9050919050565b600060208201905081810360008301526141e581613e4a565b9050919050565b6000602082019050818103600083015261420581613e6d565b9050919050565b6000602082019050818103600083015261422581613e90565b9050919050565b60006040820190506142416000830184613eb3565b92915050565b600060208201905061425c6000830184613ef1565b92915050565b60006040820190506142776000830185613ef1565b6142846020830184613bc2565b9392505050565b60006040820190506142a06000830185613ef1565b6142ad6020830184613ef1565b9392505050565b60006020820190506142c96000830184613f00565b92915050565b60006142d96142ea565b90506142e582826145b9565b919050565b6000604051905090565b600067ffffffffffffffff82111561430f5761430e614720565b5b61431882614763565b9050602081019050919050565b600067ffffffffffffffff8211156143405761433f614720565b5b61434982614763565b9050602081019050919050565b600081519050919050565b600081519050919050565b600082825260208201905092915050565b600081905092915050565b600082825260208201905092915050565b600081905092915050565b60006143af82614523565b91506143ba83614523565b9250827fffffffffffffffffffffffffffffffffffffffffffffffffffffffffffffffff038211156143ef576143ee614664565b5b828201905092915050565b600061440582614523565b915061441083614523565b9250826144205761441f614693565b5b828204905092915050565b600061443682614523565b915061444183614523565b9250817fffffffffffffffffffffffffffffffffffffffffffffffffffffffffffffffff048311821515161561447a57614479614664565b5b828202905092915050565b600061449082614523565b915061449b83614523565b9250828210156144ae576144ad614664565b5b828203905092915050565b60006144c482614503565b9050919050565b60008115159050919050565b60007fffffffff0000000000000000000000000000000000000000000000000000000082169050919050565b600073ffffffffffffffffffffffffffffffffffffffff82169050919050565b6000819050919050565b60006bffffffffffffffffffffffff82169050919050565b82818337600083830152505050565b60005b83811015614572578082015181840152602081019050614557565b83811115614581576000848401525b50505050565b6000600282049050600182168061459f57607f821691505b602082108114156145b3576145b26146c2565b5b50919050565b6145c282614763565b810181811067ffffffffffffffff821117156145e1576145e0614720565b5b80604052505050565b60006145f582614523565b91507fffffffffffffffffffffffffffffffffffffffffffffffffffffffffffffffff82141561462857614627614664565b5b600182019050919050565b600061463e82614523565b915061464983614523565b92508261465957614658614693565b5b828206905092915050565b7f4e487b7100000000000000000000000000000000000000000000000000000000600052601160045260246000fd5b7f4e487b7100000000000000000000000000000000000000000000000000000000600052601260045260246000fd5b7f4e487b7100000000000000000000000000000000000000000000000000000000600052602260045260246000fd5b7f4e487b7100000000000000000000000000000000000000000000000000000000600052603260045260246000fd5b7f4e487b7100000000000000000000000000000000000000000000000000000000600052604160045260246000fd5b600080fd5b600080fd5b600080fd5b600080fd5b6000601f19601f8301169050919050565b7f4552433732313a207472616e7366657220746f206e6f6e20455243373231526560008201527f63656976657220696d706c656d656e7465720000000000000000000000000000602082015250565b7f4552433732313a207472616e736665722066726f6d20696e636f72726563742060008201527f6f776e6572000000000000000000000000000000000000000000000000000000602082015250565b7f4552433732313a20746f6b656e20616c7265616479206d696e74656400000000600082015250565b7f4552433732313a207472616e7366657220746f20746865207a65726f2061646460008201527f7265737300000000000000000000000000000000000000000000000000000000602082015250565b7f4552433732313a20617070726f766520746f2063616c6c657200000000000000600082015250565b7f4552433732313a2061646472657373207a65726f206973206e6f74206120766160008201527f6c6964206f776e65720000000000000000000000000000000000000000000000602082015250565b7f45524337323155524953746f726167653a2055524920736574206f66206e6f6e60008201527f6578697374656e7420746f6b656e000000000000000000000000000000000000602082015250565b7f4552433732313a20617070726f76652063616c6c6572206973206e6f7420746f60008201527f6b656e206f776e6572206e6f7220617070726f76656420666f7220616c6c0000602082015250565b7f4552433732313a206d696e7420746f20746865207a65726f2061646472657373600082015250565b7f4552433732313a20696e76616c696420746f6b656e2049440000000000000000600082015250565b7f4552433732313a20617070726f76616c20746f2063757272656e74206f776e6560008201527f7200000000000000000000000000000000000000000000000000000000000000602082015250565b50565b7f455243323938313a20496e76616c696420706172616d65746572730000000000600082015250565b7f455243323938313a20726f79616c7479206665652077696c6c2065786365656460008201527f2073616c65507269636500000000000000000000000000000000000000000000602082015250565b7f4552433732313a2063616c6c6572206973206e6f7420746f6b656e206f776e6560008201527f72206e6f7220617070726f766564000000000000000000000000000000000000602082015250565b7f5265656e7472616e637947756172643a207265656e7472616e742063616c6c00600082015250565b614b3d816144b9565b8114614b4857600080fd5b50565b614b54816144cb565b8114614b5f57600080fd5b50565b614b6b816144d7565b8114614b7657600080fd5b50565b614b8281614523565b8114614b8d57600080fd5b50565b614b998161452d565b8114614ba457600080fd5b5056fea2646970667358221220cbb55e42ebc99e62aa5412b79474fee192c6f7a288564586892efd213a596d6564736f6c63430008070033",
  "linkReferences": {},
  "deployedLinkReferences": {}
}