{
  "_format": "hh-sol-artifact-1",
  "contractName": "TestNftFour",
  "sourceName": "contracts/test/TestNftFour.sol",
  "abi": [
    {
      "inputs": [
        {
          "internalType": "string",
          "name": "name",
          "type": "string"
        },
        {
          "internalType": "string",
          "name": "symbol",
          "type": "string"
        },
        {
          "internalType": "uint96",
          "name": "_royaltyFeesInBips",
          "type": "uint96"
        },
        {
          "internalType": "string",
          "name": "_tokenURI",
          "type": "string"
        }
      ],
      "stateMutability": "nonpayable",
      "type": "constructor"
    },
    {
      "anonymous": false,
      "inputs": [
        {
          "indexed": true,
          "internalType": "address",
          "name": "owner",
          "type": "address"
        },
        {
          "indexed": true,
          "internalType": "address",
          "name": "approved",
          "type": "address"
        },
        {
          "indexed": true,
          "internalType": "uint256",
          "name": "tokenId",
          "type": "uint256"
        }
      ],
      "name": "Approval",
      "type": "event"
    },
    {
      "anonymous": false,
      "inputs": [
        {
          "indexed": true,
          "internalType": "address",
          "name": "owner",
          "type": "address"
        },
        {
          "indexed": true,
          "internalType": "address",
          "name": "operator",
          "type": "address"
        },
        {
          "indexed": false,
          "internalType": "bool",
          "name": "approved",
          "type": "bool"
        }
      ],
      "name": "ApprovalForAll",
      "type": "event"
    },
    {
      "anonymous": false,
      "inputs": [
        {
          "indexed": true,
          "internalType": "address",
          "name": "previousOwner",
          "type": "address"
        },
        {
          "indexed": true,
          "internalType": "address",
          "name": "newOwner",
          "type": "address"
        }
      ],
      "name": "OwnershipTransferred",
      "type": "event"
    },
    {
      "anonymous": false,
      "inputs": [
        {
          "indexed": true,
          "internalType": "address",
          "name": "from",
          "type": "address"
        },
        {
          "indexed": true,
          "internalType": "address",
          "name": "to",
          "type": "address"
        },
        {
          "indexed": true,
          "internalType": "uint256",
          "name": "tokenId",
          "type": "uint256"
        }
      ],
      "name": "Transfer",
      "type": "event"
    },
    {
      "inputs": [
        {
          "internalType": "address",
          "name": "to",
          "type": "address"
        },
        {
          "internalType": "uint256",
          "name": "tokenId",
          "type": "uint256"
        }
      ],
      "name": "approve",
      "outputs": [],
      "stateMutability": "nonpayable",
      "type": "function"
    },
    {
      "inputs": [
        {
          "internalType": "address",
          "name": "owner",
          "type": "address"
        }
      ],
      "name": "balanceOf",
      "outputs": [
        {
          "internalType": "uint256",
          "name": "",
          "type": "uint256"
        }
      ],
      "stateMutability": "view",
      "type": "function"
    },
    {
      "inputs": [
        {
          "internalType": "uint256",
          "name": "tokenId",
          "type": "uint256"
        }
      ],
      "name": "getApproved",
      "outputs": [
        {
          "internalType": "address",
          "name": "",
          "type": "address"
        }
      ],
      "stateMutability": "view",
      "type": "function"
    },
    {
      "inputs": [
        {
          "internalType": "address",
          "name": "owner",
          "type": "address"
        },
        {
          "internalType": "address",
          "name": "operator",
          "type": "address"
        }
      ],
      "name": "isApprovedForAll",
      "outputs": [
        {
          "internalType": "bool",
          "name": "",
          "type": "bool"
        }
      ],
      "stateMutability": "view",
      "type": "function"
    },
    {
      "inputs": [],
      "name": "name",
      "outputs": [
        {
          "internalType": "string",
          "name": "",
          "type": "string"
        }
      ],
      "stateMutability": "view",
      "type": "function"
    },
    {
      "inputs": [],
      "name": "owner",
      "outputs": [
        {
          "internalType": "address",
          "name": "",
          "type": "address"
        }
      ],
      "stateMutability": "view",
      "type": "function"
    },
    {
      "inputs": [
        {
          "internalType": "uint256",
          "name": "tokenId",
          "type": "uint256"
        }
      ],
      "name": "ownerOf",
      "outputs": [
        {
          "internalType": "address",
          "name": "",
          "type": "address"
        }
      ],
      "stateMutability": "view",
      "type": "function"
    },
    {
      "inputs": [],
      "name": "renounceOwnership",
      "outputs": [],
      "stateMutability": "nonpayable",
      "type": "function"
    },
    {
      "inputs": [
        {
          "internalType": "uint256",
          "name": "_tokenId",
          "type": "uint256"
        },
        {
          "internalType": "uint256",
          "name": "_salePrice",
          "type": "uint256"
        }
      ],
      "name": "royaltyInfo",
      "outputs": [
        {
          "internalType": "address",
          "name": "",
          "type": "address"
        },
        {
          "internalType": "uint256",
          "name": "",
          "type": "uint256"
        }
      ],
      "stateMutability": "view",
      "type": "function"
    },
    {
      "inputs": [
        {
          "internalType": "address",
          "name": "to",
          "type": "address"
        },
        {
          "internalType": "uint256",
          "name": "tokenId",
          "type": "uint256"
        }
      ],
      "name": "safeMint",
      "outputs": [],
      "stateMutability": "nonpayable",
      "type": "function"
    },
    {
      "inputs": [
        {
          "internalType": "address",
          "name": "from",
          "type": "address"
        },
        {
          "internalType": "address",
          "name": "to",
          "type": "address"
        },
        {
          "internalType": "uint256",
          "name": "tokenId",
          "type": "uint256"
        }
      ],
      "name": "safeTransferFrom",
      "outputs": [],
      "stateMutability": "nonpayable",
      "type": "function"
    },
    {
      "inputs": [
        {
          "internalType": "address",
          "name": "from",
          "type": "address"
        },
        {
          "internalType": "address",
          "name": "to",
          "type": "address"
        },
        {
          "internalType": "uint256",
          "name": "tokenId",
          "type": "uint256"
        },
        {
          "internalType": "bytes",
          "name": "data",
          "type": "bytes"
        }
      ],
      "name": "safeTransferFrom",
      "outputs": [],
      "stateMutability": "nonpayable",
      "type": "function"
    },
    {
      "inputs": [
        {
          "internalType": "address",
          "name": "operator",
          "type": "address"
        },
        {
          "internalType": "bool",
          "name": "approved",
          "type": "bool"
        }
      ],
      "name": "setApprovalForAll",
      "outputs": [],
      "stateMutability": "nonpayable",
      "type": "function"
    },
    {
      "inputs": [
        {
          "internalType": "address",
          "name": "_receiver",
          "type": "address"
        },
        {
          "internalType": "uint96",
          "name": "_royaltyFeesInBips",
          "type": "uint96"
        }
      ],
      "name": "setRoyaltyInfo",
      "outputs": [],
      "stateMutability": "nonpayable",
      "type": "function"
    },
    {
      "inputs": [
        {
          "internalType": "string",
          "name": "_tokenURI",
          "type": "string"
        }
      ],
      "name": "setTokenURI",
      "outputs": [],
      "stateMutability": "nonpayable",
      "type": "function"
    },
    {
      "inputs": [
        {
          "internalType": "bytes4",
          "name": "interfaceId",
          "type": "bytes4"
        }
      ],
      "name": "supportsInterface",
      "outputs": [
        {
          "internalType": "bool",
          "name": "",
          "type": "bool"
        }
      ],
      "stateMutability": "view",
      "type": "function"
    },
    {
      "inputs": [],
      "name": "symbol",
      "outputs": [
        {
          "internalType": "string",
          "name": "",
          "type": "string"
        }
      ],
      "stateMutability": "view",
      "type": "function"
    },
    {
      "inputs": [
        {
          "internalType": "uint256",
          "name": "index",
          "type": "uint256"
        }
      ],
      "name": "tokenByIndex",
      "outputs": [
        {
          "internalType": "uint256",
          "name": "",
          "type": "uint256"
        }
      ],
      "stateMutability": "view",
      "type": "function"
    },
    {
      "inputs": [
        {
          "internalType": "address",
          "name": "owner",
          "type": "address"
        },
        {
          "internalType": "uint256",
          "name": "index",
          "type": "uint256"
        }
      ],
      "name": "tokenOfOwnerByIndex",
      "outputs": [
        {
          "internalType": "uint256",
          "name": "",
          "type": "uint256"
        }
      ],
      "stateMutability": "view",
      "type": "function"
    },
    {
      "inputs": [],
      "name": "tokenURI",
      "outputs": [
        {
          "internalType": "string",
          "name": "",
          "type": "string"
        }
      ],
      "stateMutability": "view",
      "type": "function"
    },
    {
      "inputs": [
        {
          "internalType": "uint256",
          "name": "tokenId",
          "type": "uint256"
        }
      ],
      "name": "tokenURI",
      "outputs": [
        {
          "internalType": "string",
          "name": "",
          "type": "string"
        }
      ],
      "stateMutability": "view",
      "type": "function"
    },
    {
      "inputs": [],
      "name": "totalSupply",
      "outputs": [
        {
          "internalType": "uint256",
          "name": "",
          "type": "uint256"
        }
      ],
      "stateMutability": "view",
      "type": "function"
    },
    {
      "inputs": [
        {
          "internalType": "address",
          "name": "from",
          "type": "address"
        },
        {
          "internalType": "address",
          "name": "to",
          "type": "address"
        },
        {
          "internalType": "uint256",
          "name": "tokenId",
          "type": "uint256"
        }
      ],
      "name": "transferFrom",
      "outputs": [],
      "stateMutability": "nonpayable",
      "type": "function"
    },
    {
      "inputs": [
        {
          "internalType": "address",
          "name": "newOwner",
          "type": "address"
        }
      ],
      "name": "transferOwnership",
      "outputs": [],
      "stateMutability": "nonpayable",
      "type": "function"
    }
  ],
  "bytecode": "0x60806040523480156200001157600080fd5b50604051620042e6380380620042e6833981810160405281019062000037919062000573565b83838160009080519060200190620000519291906200042e565b5080600190805190602001906200006a9291906200042e565b5050506200008d62000081620000d160201b60201c565b620000d960201b60201c565b620000ae620000a16200019f60201b60201c565b83620001c960201b60201c565b80600d9080519060200190620000c69291906200042e565b505050505062000985565b600033905090565b6000600c60009054906101000a900473ffffffffffffffffffffffffffffffffffffffff16905081600c60006101000a81548173ffffffffffffffffffffffffffffffffffffffff021916908373ffffffffffffffffffffffffffffffffffffffff1602179055508173ffffffffffffffffffffffffffffffffffffffff168173ffffffffffffffffffffffffffffffffffffffff167f8be0079c531659141344cd1fd0a4f28419497f9722a3daafe3b4186f6b6457e060405160405180910390a35050565b6000600c60009054906101000a900473ffffffffffffffffffffffffffffffffffffffff16905090565b620001d9620001ef60201b60201c565b620001eb82826200028060201b60201c565b5050565b620001ff620000d160201b60201c565b73ffffffffffffffffffffffffffffffffffffffff16620002256200019f60201b60201c565b73ffffffffffffffffffffffffffffffffffffffff16146200027e576040517f08c379a00000000000000000000000000000000000000000000000000000000081526004016200027590620006b7565b60405180910390fd5b565b620002906200042460201b60201c565b6bffffffffffffffffffffffff16816bffffffffffffffffffffffff161115620002f1576040517f08c379a0000000000000000000000000000000000000000000000000000000008152600401620002e890620006d9565b60405180910390fd5b600073ffffffffffffffffffffffffffffffffffffffff168273ffffffffffffffffffffffffffffffffffffffff16141562000364576040517f08c379a00000000000000000000000000000000000000000000000000000000081526004016200035b90620006fb565b60405180910390fd5b60405180604001604052808373ffffffffffffffffffffffffffffffffffffffff168152602001826bffffffffffffffffffffffff16815250600a60008201518160000160006101000a81548173ffffffffffffffffffffffffffffffffffffffff021916908373ffffffffffffffffffffffffffffffffffffffff16021790555060208201518160000160146101000a8154816bffffffffffffffffffffffff02191690836bffffffffffffffffffffffff1602179055509050505050565b6000612710905090565b8280546200043c90620007db565b90600052602060002090601f016020900481019282620004605760008555620004ac565b82601f106200047b57805160ff1916838001178555620004ac565b82800160010185558215620004ac579182015b82811115620004ab5782518255916020019190600101906200048e565b5b509050620004bb9190620004bf565b5090565b5b80821115620004da576000816000905550600101620004c0565b5090565b6000620004f5620004ef8462000746565b6200071d565b905082815260208101848484011115620005145762000513620008aa565b5b62000521848285620007a5565b509392505050565b600082601f830112620005415762000540620008a5565b5b815162000553848260208601620004de565b91505092915050565b6000815190506200056d816200096b565b92915050565b6000806000806080858703121562000590576200058f620008b4565b5b600085015167ffffffffffffffff811115620005b157620005b0620008af565b5b620005bf8782880162000529565b945050602085015167ffffffffffffffff811115620005e357620005e2620008af565b5b620005f18782880162000529565b935050604062000604878288016200055c565b925050606085015167ffffffffffffffff811115620006285762000627620008af565b5b620006368782880162000529565b91505092959194509250565b6000620006516020836200077c565b91506200065e82620008ca565b602082019050919050565b600062000678602a836200077c565b91506200068582620008f3565b604082019050919050565b60006200069f6019836200077c565b9150620006ac8262000942565b602082019050919050565b60006020820190508181036000830152620006d28162000642565b9050919050565b60006020820190508181036000830152620006f48162000669565b9050919050565b60006020820190508181036000830152620007168162000690565b9050919050565b6000620007296200073c565b905062000737828262000811565b919050565b6000604051905090565b600067ffffffffffffffff82111562000764576200076362000876565b5b6200076f82620008b9565b9050602081019050919050565b600082825260208201905092915050565b60006bffffffffffffffffffffffff82169050919050565b60005b83811015620007c5578082015181840152602081019050620007a8565b83811115620007d5576000848401525b50505050565b60006002820490506001821680620007f457607f821691505b602082108114156200080b576200080a62000847565b5b50919050565b6200081c82620008b9565b810181811067ffffffffffffffff821117156200083e576200083d62000876565b5b80604052505050565b7f4e487b7100000000000000000000000000000000000000000000000000000000600052602260045260246000fd5b7f4e487b7100000000000000000000000000000000000000000000000000000000600052604160045260246000fd5b600080fd5b600080fd5b600080fd5b600080fd5b6000601f19601f8301169050919050565b7f4f776e61626c653a2063616c6c6572206973206e6f7420746865206f776e6572600082015250565b7f455243323938313a20726f79616c7479206665652077696c6c2065786365656460008201527f2073616c65507269636500000000000000000000000000000000000000000000602082015250565b7f455243323938313a20696e76616c696420726563656976657200000000000000600082015250565b62000976816200078d565b81146200098257600080fd5b50565b61395180620009956000396000f3fe608060405234801561001057600080fd5b50600436106101585760003560e01c80636352211e116100c3578063a22cb4651161007c578063a22cb465146103da578063b88d4fde146103f6578063c87b56dd14610412578063e0df5b6f14610442578063e985e9c51461045e578063f2fde38b1461048e57610158565b80636352211e1461031857806370a0823114610348578063715018a6146103785780638da5cb5b1461038257806395d89b41146103a0578063a1448194146103be57610158565b806323b872dd1161011557806323b872dd146102315780632a55205a1461024d5780632f745c591461027e5780633c130d90146102ae57806342842e0e146102cc5780634f6ccce7146102e857610158565b806301ffc9a71461015d57806302fa7c471461018d57806306fdde03146101a9578063081812fc146101c7578063095ea7b3146101f757806318160ddd14610213575b600080fd5b61017760048036038101906101729190612848565b6104aa565b6040516101849190612d33565b60405180910390f35b6101a760048036038101906101a29190612808565b6104bc565b005b6101b16104d2565b6040516101be9190612d4e565b60405180910390f35b6101e160048036038101906101dc91906128ef565b610564565b6040516101ee9190612ca3565b60405180910390f35b610211600480360381019061020c91906127c8565b6105aa565b005b61021b6106c2565b6040516102289190612f90565b60405180910390f35b61024b600480360381019061024691906126b2565b6106cf565b005b6102676004803603810190610262919061291c565b61072f565b604051610275929190612d0a565b60405180910390f35b610298600480360381019061029391906127c8565b61091a565b6040516102a59190612f90565b60405180910390f35b6102b66109bf565b6040516102c39190612d4e565b60405180910390f35b6102e660048036038101906102e191906126b2565b610a4d565b005b61030260048036038101906102fd91906128ef565b610a6d565b60405161030f9190612f90565b60405180910390f35b610332600480360381019061032d91906128ef565b610ade565b60405161033f9190612ca3565b60405180910390f35b610362600480360381019061035d9190612645565b610b90565b60405161036f9190612f90565b60405180910390f35b610380610c48565b005b61038a610c5c565b6040516103979190612ca3565b60405180910390f35b6103a8610c86565b6040516103b59190612d4e565b60405180910390f35b6103d860048036038101906103d391906127c8565b610d18565b005b6103f460048036038101906103ef9190612788565b610d2e565b005b610410600480360381019061040b9190612705565b610d44565b005b61042c600480360381019061042791906128ef565b610da6565b6040516104399190612d4e565b60405180910390f35b61045c600480360381019061045791906128a2565b610e0e565b005b61047860048036038101906104739190612672565b610e2c565b6040516104859190612d33565b60405180910390f35b6104a860048036038101906104a39190612645565b610ec0565b005b60006104b582610f44565b9050919050565b6104c4610fbe565b6104ce828261103c565b5050565b6060600080546104e190613227565b80601f016020809104026020016040519081016040528092919081815260200182805461050d90613227565b801561055a5780601f1061052f5761010080835404028352916020019161055a565b820191906000526020600020905b81548152906001019060200180831161053d57829003601f168201915b5050505050905090565b600061056f826111d2565b6004600083815260200190815260200160002060009054906101000a900473ffffffffffffffffffffffffffffffffffffffff169050919050565b60006105b582610ade565b90508073ffffffffffffffffffffffffffffffffffffffff168373ffffffffffffffffffffffffffffffffffffffff161415610626576040517f08c379a000000000000000000000000000000000000000000000000000000000815260040161061d90612ef0565b60405180910390fd5b8073ffffffffffffffffffffffffffffffffffffffff1661064561121d565b73ffffffffffffffffffffffffffffffffffffffff16148061067457506106738161066e61121d565b610e2c565b5b6106b3576040517f08c379a00000000000000000000000000000000000000000000000000000000081526004016106aa90612e70565b60405180910390fd5b6106bd8383611225565b505050565b6000600880549050905090565b6106e06106da61121d565b826112de565b61071f576040517f08c379a000000000000000000000000000000000000000000000000000000000815260040161071690612f50565b60405180910390fd5b61072a838383611373565b505050565b6000806000600b60008681526020019081526020016000206040518060400160405290816000820160009054906101000a900473ffffffffffffffffffffffffffffffffffffffff1673ffffffffffffffffffffffffffffffffffffffff1673ffffffffffffffffffffffffffffffffffffffff1681526020016000820160149054906101000a90046bffffffffffffffffffffffff166bffffffffffffffffffffffff166bffffffffffffffffffffffff16815250509050600073ffffffffffffffffffffffffffffffffffffffff16816000015173ffffffffffffffffffffffffffffffffffffffff1614156108c557600a6040518060400160405290816000820160009054906101000a900473ffffffffffffffffffffffffffffffffffffffff1673ffffffffffffffffffffffffffffffffffffffff1673ffffffffffffffffffffffffffffffffffffffff1681526020016000820160149054906101000a90046bffffffffffffffffffffffff166bffffffffffffffffffffffff166bffffffffffffffffffffffff168152505090505b60006108cf6115da565b6bffffffffffffffffffffffff1682602001516bffffffffffffffffffffffff16866108fb91906130cb565b610905919061309a565b90508160000151819350935050509250929050565b600061092583610b90565b8210610966576040517f08c379a000000000000000000000000000000000000000000000000000000000815260040161095d90612d70565b60405180910390fd5b600660008473ffffffffffffffffffffffffffffffffffffffff1673ffffffffffffffffffffffffffffffffffffffff168152602001908152602001600020600083815260200190815260200160002054905092915050565b600d80546109cc90613227565b80601f01602080910402602001604051908101604052809291908181526020018280546109f890613227565b8015610a455780601f10610a1a57610100808354040283529160200191610a45565b820191906000526020600020905b815481529060010190602001808311610a2857829003601f168201915b505050505081565b610a6883838360405180602001604052806000815250610d44565b505050565b6000610a776106c2565b8210610ab8576040517f08c379a0000000000000000000000000000000000000000000000000000000008152600401610aaf90612f10565b60405180910390fd5b60088281548110610acc57610acb6133c0565b5b90600052602060002001549050919050565b6000806002600084815260200190815260200160002060009054906101000a900473ffffffffffffffffffffffffffffffffffffffff169050600073ffffffffffffffffffffffffffffffffffffffff168173ffffffffffffffffffffffffffffffffffffffff161415610b87576040517f08c379a0000000000000000000000000000000000000000000000000000000008152600401610b7e90612ed0565b60405180910390fd5b80915050919050565b60008073ffffffffffffffffffffffffffffffffffffffff168273ffffffffffffffffffffffffffffffffffffffff161415610c01576040517f08c379a0000000000000000000000000000000000000000000000000000000008152600401610bf890612e50565b60405180910390fd5b600360008373ffffffffffffffffffffffffffffffffffffffff1673ffffffffffffffffffffffffffffffffffffffff168152602001908152602001600020549050919050565b610c50610fbe565b610c5a60006115e4565b565b6000600c60009054906101000a900473ffffffffffffffffffffffffffffffffffffffff16905090565b606060018054610c9590613227565b80601f0160208091040260200160405190810160405280929190818152602001828054610cc190613227565b8015610d0e5780601f10610ce357610100808354040283529160200191610d0e565b820191906000526020600020905b815481529060010190602001808311610cf157829003601f168201915b5050505050905090565b610d20610fbe565b610d2a82826116aa565b5050565b610d40610d3961121d565b83836116c8565b5050565b610d55610d4f61121d565b836112de565b610d94576040517f08c379a0000000000000000000000000000000000000000000000000000000008152600401610d8b90612f50565b60405180910390fd5b610da084848484611835565b50505050565b6060610db1826111d2565b6000610dbb611891565b90506000815111610ddb5760405180602001604052806000815250610e06565b80610de5846118a8565b604051602001610df6929190612c7f565b6040516020818303038152906040525b915050919050565b610e16610fbe565b8181600d9190610e2792919061245e565b505050565b6000600560008473ffffffffffffffffffffffffffffffffffffffff1673ffffffffffffffffffffffffffffffffffffffff16815260200190815260200160002060008373ffffffffffffffffffffffffffffffffffffffff1673ffffffffffffffffffffffffffffffffffffffff16815260200190815260200160002060009054906101000a900460ff16905092915050565b610ec8610fbe565b600073ffffffffffffffffffffffffffffffffffffffff168173ffffffffffffffffffffffffffffffffffffffff161415610f38576040517f08c379a0000000000000000000000000000000000000000000000000000000008152600401610f2f90612db0565b60405180910390fd5b610f41816115e4565b50565b60007f2a55205a000000000000000000000000000000000000000000000000000000007bffffffffffffffffffffffffffffffffffffffffffffffffffffffff1916827bffffffffffffffffffffffffffffffffffffffffffffffffffffffff19161480610fb75750610fb682611a09565b5b9050919050565b610fc661121d565b73ffffffffffffffffffffffffffffffffffffffff16610fe4610c5c565b73ffffffffffffffffffffffffffffffffffffffff161461103a576040517f08c379a000000000000000000000000000000000000000000000000000000000815260040161103190612eb0565b60405180910390fd5b565b6110446115da565b6bffffffffffffffffffffffff16816bffffffffffffffffffffffff1611156110a2576040517f08c379a000000000000000000000000000000000000000000000000000000000815260040161109990612f30565b60405180910390fd5b600073ffffffffffffffffffffffffffffffffffffffff168273ffffffffffffffffffffffffffffffffffffffff161415611112576040517f08c379a000000000000000000000000000000000000000000000000000000000815260040161110990612f70565b60405180910390fd5b60405180604001604052808373ffffffffffffffffffffffffffffffffffffffff168152602001826bffffffffffffffffffffffff16815250600a60008201518160000160006101000a81548173ffffffffffffffffffffffffffffffffffffffff021916908373ffffffffffffffffffffffffffffffffffffffff16021790555060208201518160000160146101000a8154816bffffffffffffffffffffffff02191690836bffffffffffffffffffffffff1602179055509050505050565b6111db81611a83565b61121a576040517f08c379a000000000000000000000000000000000000000000000000000000000815260040161121190612ed0565b60405180910390fd5b50565b600033905090565b816004600083815260200190815260200160002060006101000a81548173ffffffffffffffffffffffffffffffffffffffff021916908373ffffffffffffffffffffffffffffffffffffffff160217905550808273ffffffffffffffffffffffffffffffffffffffff1661129883610ade565b73ffffffffffffffffffffffffffffffffffffffff167f8c5be1e5ebec7d5bd14f71427d1e84f3dd0314c0f7b2291e5b200ac8c7c3b92560405160405180910390a45050565b6000806112ea83610ade565b90508073ffffffffffffffffffffffffffffffffffffffff168473ffffffffffffffffffffffffffffffffffffffff16148061132c575061132b8185610e2c565b5b8061136a57508373ffffffffffffffffffffffffffffffffffffffff1661135284610564565b73ffffffffffffffffffffffffffffffffffffffff16145b91505092915050565b8273ffffffffffffffffffffffffffffffffffffffff1661139382610ade565b73ffffffffffffffffffffffffffffffffffffffff16146113e9576040517f08c379a00000000000000000000000000000000000000000000000000000000081526004016113e090612dd0565b60405180910390fd5b600073ffffffffffffffffffffffffffffffffffffffff168273ffffffffffffffffffffffffffffffffffffffff161415611459576040517f08c379a000000000000000000000000000000000000000000000000000000000815260040161145090612e10565b60405180910390fd5b611464838383611aef565b61146f600082611225565b6001600360008573ffffffffffffffffffffffffffffffffffffffff1673ffffffffffffffffffffffffffffffffffffffff16815260200190815260200160002060008282546114bf9190613125565b925050819055506001600360008473ffffffffffffffffffffffffffffffffffffffff1673ffffffffffffffffffffffffffffffffffffffff16815260200190815260200160002060008282546115169190613044565b92505081905550816002600083815260200190815260200160002060006101000a81548173ffffffffffffffffffffffffffffffffffffffff021916908373ffffffffffffffffffffffffffffffffffffffff160217905550808273ffffffffffffffffffffffffffffffffffffffff168473ffffffffffffffffffffffffffffffffffffffff167fddf252ad1be2c89b69c2b068fc378daa952ba7f163c4a11628f55a4df523b3ef60405160405180910390a46115d5838383611aff565b505050565b6000612710905090565b6000600c60009054906101000a900473ffffffffffffffffffffffffffffffffffffffff16905081600c60006101000a81548173ffffffffffffffffffffffffffffffffffffffff021916908373ffffffffffffffffffffffffffffffffffffffff1602179055508173ffffffffffffffffffffffffffffffffffffffff168173ffffffffffffffffffffffffffffffffffffffff167f8be0079c531659141344cd1fd0a4f28419497f9722a3daafe3b4186f6b6457e060405160405180910390a35050565b6116c4828260405180602001604052806000815250611b04565b5050565b8173ffffffffffffffffffffffffffffffffffffffff168373ffffffffffffffffffffffffffffffffffffffff161415611737576040517f08c379a000000000000000000000000000000000000000000000000000000000815260040161172e90612e30565b60405180910390fd5b80600560008573ffffffffffffffffffffffffffffffffffffffff1673ffffffffffffffffffffffffffffffffffffffff16815260200190815260200160002060008473ffffffffffffffffffffffffffffffffffffffff1673ffffffffffffffffffffffffffffffffffffffff16815260200190815260200160002060006101000a81548160ff0219169083151502179055508173ffffffffffffffffffffffffffffffffffffffff168373ffffffffffffffffffffffffffffffffffffffff167f17307eab39ab6107e8899845ad3d59bd9653f200f220920489ca2b5937696c31836040516118289190612d33565b60405180910390a3505050565b611840848484611373565b61184c84848484611b5f565b61188b576040517f08c379a000000000000000000000000000000000000000000000000000000000815260040161188290612d90565b60405180910390fd5b50505050565b606060405180602001604052806000815250905090565b606060008214156118f0576040518060400160405280600181526020017f30000000000000000000000000000000000000000000000000000000000000008152509050611a04565b600082905060005b6000821461192257808061190b9061328a565b915050600a8261191b919061309a565b91506118f8565b60008167ffffffffffffffff81111561193e5761193d6133ef565b5b6040519080825280601f01601f1916602001820160405280156119705781602001600182028036833780820191505090505b5090505b600085146119fd576001826119899190613125565b9150600a8561199891906132d3565b60306119a49190613044565b60f81b8183815181106119ba576119b96133c0565b5b60200101907effffffffffffffffffffffffffffffffffffffffffffffffffffffffffffff1916908160001a905350600a856119f6919061309a565b9450611974565b8093505050505b919050565b60007f780e9d63000000000000000000000000000000000000000000000000000000007bffffffffffffffffffffffffffffffffffffffffffffffffffffffff1916827bffffffffffffffffffffffffffffffffffffffffffffffffffffffff19161480611a7c5750611a7b82611cf6565b5b9050919050565b60008073ffffffffffffffffffffffffffffffffffffffff166002600084815260200190815260200160002060009054906101000a900473ffffffffffffffffffffffffffffffffffffffff1673ffffffffffffffffffffffffffffffffffffffff1614159050919050565b611afa838383611dd8565b505050565b505050565b611b0e8383611eec565b611b1b6000848484611b5f565b611b5a576040517f08c379a0000000000000000000000000000000000000000000000000000000008152600401611b5190612d90565b60405180910390fd5b505050565b6000611b808473ffffffffffffffffffffffffffffffffffffffff166120c6565b15611ce9578373ffffffffffffffffffffffffffffffffffffffff1663150b7a02611ba961121d565b8786866040518563ffffffff1660e01b8152600401611bcb9493929190612cbe565b602060405180830381600087803b158015611be557600080fd5b505af1925050508015611c1657506040513d601f19601f82011682018060405250810190611c139190612875565b60015b611c99573d8060008114611c46576040519150601f19603f3d011682016040523d82523d6000602084013e611c4b565b606091505b50600081511415611c91576040517f08c379a0000000000000000000000000000000000000000000000000000000008152600401611c8890612d90565b60405180910390fd5b805181602001fd5b63150b7a0260e01b7bffffffffffffffffffffffffffffffffffffffffffffffffffffffff1916817bffffffffffffffffffffffffffffffffffffffffffffffffffffffff191614915050611cee565b600190505b949350505050565b60007f80ac58cd000000000000000000000000000000000000000000000000000000007bffffffffffffffffffffffffffffffffffffffffffffffffffffffff1916827bffffffffffffffffffffffffffffffffffffffffffffffffffffffff19161480611dc157507f5b5e139f000000000000000000000000000000000000000000000000000000007bffffffffffffffffffffffffffffffffffffffffffffffffffffffff1916827bffffffffffffffffffffffffffffffffffffffffffffffffffffffff1916145b80611dd15750611dd0826120e9565b5b9050919050565b611de3838383612153565b600073ffffffffffffffffffffffffffffffffffffffff168373ffffffffffffffffffffffffffffffffffffffff161415611e2657611e2181612158565b611e65565b8173ffffffffffffffffffffffffffffffffffffffff168373ffffffffffffffffffffffffffffffffffffffff1614611e6457611e6383826121a1565b5b5b600073ffffffffffffffffffffffffffffffffffffffff168273ffffffffffffffffffffffffffffffffffffffff161415611ea857611ea38161230e565b611ee7565b8273ffffffffffffffffffffffffffffffffffffffff168273ffffffffffffffffffffffffffffffffffffffff1614611ee657611ee582826123df565b5b5b505050565b600073ffffffffffffffffffffffffffffffffffffffff168273ffffffffffffffffffffffffffffffffffffffff161415611f5c576040517f08c379a0000000000000000000000000000000000000000000000000000000008152600401611f5390612e90565b60405180910390fd5b611f6581611a83565b15611fa5576040517f08c379a0000000000000000000000000000000000000000000000000000000008152600401611f9c90612df0565b60405180910390fd5b611fb160008383611aef565b6001600360008473ffffffffffffffffffffffffffffffffffffffff1673ffffffffffffffffffffffffffffffffffffffff16815260200190815260200160002060008282546120019190613044565b92505081905550816002600083815260200190815260200160002060006101000a81548173ffffffffffffffffffffffffffffffffffffffff021916908373ffffffffffffffffffffffffffffffffffffffff160217905550808273ffffffffffffffffffffffffffffffffffffffff16600073ffffffffffffffffffffffffffffffffffffffff167fddf252ad1be2c89b69c2b068fc378daa952ba7f163c4a11628f55a4df523b3ef60405160405180910390a46120c260008383611aff565b5050565b6000808273ffffffffffffffffffffffffffffffffffffffff163b119050919050565b60007f01ffc9a7000000000000000000000000000000000000000000000000000000007bffffffffffffffffffffffffffffffffffffffffffffffffffffffff1916827bffffffffffffffffffffffffffffffffffffffffffffffffffffffff1916149050919050565b505050565b6008805490506009600083815260200190815260200160002081905550600881908060018154018082558091505060019003906000526020600020016000909190919091505550565b600060016121ae84610b90565b6121b89190613125565b905060006007600084815260200190815260200160002054905081811461229d576000600660008673ffffffffffffffffffffffffffffffffffffffff1673ffffffffffffffffffffffffffffffffffffffff168152602001908152602001600020600084815260200190815260200160002054905080600660008773ffffffffffffffffffffffffffffffffffffffff1673ffffffffffffffffffffffffffffffffffffffff168152602001908152602001600020600084815260200190815260200160002081905550816007600083815260200190815260200160002081905550505b6007600084815260200190815260200160002060009055600660008573ffffffffffffffffffffffffffffffffffffffff1673ffffffffffffffffffffffffffffffffffffffff16815260200190815260200160002060008381526020019081526020016000206000905550505050565b600060016008805490506123229190613125565b9050600060096000848152602001908152602001600020549050600060088381548110612352576123516133c0565b5b906000526020600020015490508060088381548110612374576123736133c0565b5b9060005260206000200181905550816009600083815260200190815260200160002081905550600960008581526020019081526020016000206000905560088054806123c3576123c2613391565b5b6001900381819060005260206000200160009055905550505050565b60006123ea83610b90565b905081600660008573ffffffffffffffffffffffffffffffffffffffff1673ffffffffffffffffffffffffffffffffffffffff168152602001908152602001600020600083815260200190815260200160002081905550806007600084815260200190815260200160002081905550505050565b82805461246a90613227565b90600052602060002090601f01602090048101928261248c57600085556124d3565b82601f106124a557803560ff19168380011785556124d3565b828001600101855582156124d3579182015b828111156124d25782358255916020019190600101906124b7565b5b5090506124e091906124e4565b5090565b5b808211156124fd5760008160009055506001016124e5565b5090565b600061251461250f84612fd0565b612fab565b9050828152602081018484840111156125305761252f61342d565b5b61253b8482856131e5565b509392505050565b600081359050612552816138a8565b92915050565b600081359050612567816138bf565b92915050565b60008135905061257c816138d6565b92915050565b600081519050612591816138d6565b92915050565b600082601f8301126125ac576125ab613423565b5b81356125bc848260208601612501565b91505092915050565b60008083601f8401126125db576125da613423565b5b8235905067ffffffffffffffff8111156125f8576125f761341e565b5b60208301915083600182028301111561261457612613613428565b5b9250929050565b60008135905061262a816138ed565b92915050565b60008135905061263f81613904565b92915050565b60006020828403121561265b5761265a613437565b5b600061266984828501612543565b91505092915050565b6000806040838503121561268957612688613437565b5b600061269785828601612543565b92505060206126a885828601612543565b9150509250929050565b6000806000606084860312156126cb576126ca613437565b5b60006126d986828701612543565b93505060206126ea86828701612543565b92505060406126fb8682870161261b565b9150509250925092565b6000806000806080858703121561271f5761271e613437565b5b600061272d87828801612543565b945050602061273e87828801612543565b935050604061274f8782880161261b565b925050606085013567ffffffffffffffff8111156127705761276f613432565b5b61277c87828801612597565b91505092959194509250565b6000806040838503121561279f5761279e613437565b5b60006127ad85828601612543565b92505060206127be85828601612558565b9150509250929050565b600080604083850312156127df576127de613437565b5b60006127ed85828601612543565b92505060206127fe8582860161261b565b9150509250929050565b6000806040838503121561281f5761281e613437565b5b600061282d85828601612543565b925050602061283e85828601612630565b9150509250929050565b60006020828403121561285e5761285d613437565b5b600061286c8482850161256d565b91505092915050565b60006020828403121561288b5761288a613437565b5b600061289984828501612582565b91505092915050565b600080602083850312156128b9576128b8613437565b5b600083013567ffffffffffffffff8111156128d7576128d6613432565b5b6128e3858286016125c5565b92509250509250929050565b60006020828403121561290557612904613437565b5b60006129138482850161261b565b91505092915050565b6000806040838503121561293357612932613437565b5b60006129418582860161261b565b92505060206129528582860161261b565b9150509250929050565b61296581613159565b82525050565b6129748161316b565b82525050565b600061298582613001565b61298f8185613017565b935061299f8185602086016131f4565b6129a88161343c565b840191505092915050565b60006129be8261300c565b6129c88185613028565b93506129d88185602086016131f4565b6129e18161343c565b840191505092915050565b60006129f78261300c565b612a018185613039565b9350612a118185602086016131f4565b80840191505092915050565b6000612a2a602b83613028565b9150612a358261344d565b604082019050919050565b6000612a4d603283613028565b9150612a588261349c565b604082019050919050565b6000612a70602683613028565b9150612a7b826134eb565b604082019050919050565b6000612a93602583613028565b9150612a9e8261353a565b604082019050919050565b6000612ab6601c83613028565b9150612ac182613589565b602082019050919050565b6000612ad9602483613028565b9150612ae4826135b2565b604082019050919050565b6000612afc601983613028565b9150612b0782613601565b602082019050919050565b6000612b1f602983613028565b9150612b2a8261362a565b604082019050919050565b6000612b42603e83613028565b9150612b4d82613679565b604082019050919050565b6000612b65602083613028565b9150612b70826136c8565b602082019050919050565b6000612b88602083613028565b9150612b93826136f1565b602082019050919050565b6000612bab601883613028565b9150612bb68261371a565b602082019050919050565b6000612bce602183613028565b9150612bd982613743565b604082019050919050565b6000612bf1602c83613028565b9150612bfc82613792565b604082019050919050565b6000612c14602a83613028565b9150612c1f826137e1565b604082019050919050565b6000612c37602e83613028565b9150612c4282613830565b604082019050919050565b6000612c5a601983613028565b9150612c658261387f565b602082019050919050565b612c79816131c3565b82525050565b6000612c8b82856129ec565b9150612c9782846129ec565b91508190509392505050565b6000602082019050612cb8600083018461295c565b92915050565b6000608082019050612cd3600083018761295c565b612ce0602083018661295c565b612ced6040830185612c70565b8181036060830152612cff818461297a565b905095945050505050565b6000604082019050612d1f600083018561295c565b612d2c6020830184612c70565b9392505050565b6000602082019050612d48600083018461296b565b92915050565b60006020820190508181036000830152612d6881846129b3565b905092915050565b60006020820190508181036000830152612d8981612a1d565b9050919050565b60006020820190508181036000830152612da981612a40565b9050919050565b60006020820190508181036000830152612dc981612a63565b9050919050565b60006020820190508181036000830152612de981612a86565b9050919050565b60006020820190508181036000830152612e0981612aa9565b9050919050565b60006020820190508181036000830152612e2981612acc565b9050919050565b60006020820190508181036000830152612e4981612aef565b9050919050565b60006020820190508181036000830152612e6981612b12565b9050919050565b60006020820190508181036000830152612e8981612b35565b9050919050565b60006020820190508181036000830152612ea981612b58565b9050919050565b60006020820190508181036000830152612ec981612b7b565b9050919050565b60006020820190508181036000830152612ee981612b9e565b9050919050565b60006020820190508181036000830152612f0981612bc1565b9050919050565b60006020820190508181036000830152612f2981612be4565b9050919050565b60006020820190508181036000830152612f4981612c07565b9050919050565b60006020820190508181036000830152612f6981612c2a565b9050919050565b60006020820190508181036000830152612f8981612c4d565b9050919050565b6000602082019050612fa56000830184612c70565b92915050565b6000612fb5612fc6565b9050612fc18282613259565b919050565b6000604051905090565b600067ffffffffffffffff821115612feb57612fea6133ef565b5b612ff48261343c565b9050602081019050919050565b600081519050919050565b600081519050919050565b600082825260208201905092915050565b600082825260208201905092915050565b600081905092915050565b600061304f826131c3565b915061305a836131c3565b9250827fffffffffffffffffffffffffffffffffffffffffffffffffffffffffffffffff0382111561308f5761308e613304565b5b828201905092915050565b60006130a5826131c3565b91506130b0836131c3565b9250826130c0576130bf613333565b5b828204905092915050565b60006130d6826131c3565b91506130e1836131c3565b9250817fffffffffffffffffffffffffffffffffffffffffffffffffffffffffffffffff048311821515161561311a57613119613304565b5b828202905092915050565b6000613130826131c3565b915061313b836131c3565b92508282101561314e5761314d613304565b5b828203905092915050565b6000613164826131a3565b9050919050565b60008115159050919050565b60007fffffffff0000000000000000000000000000000000000000000000000000000082169050919050565b600073ffffffffffffffffffffffffffffffffffffffff82169050919050565b6000819050919050565b60006bffffffffffffffffffffffff82169050919050565b82818337600083830152505050565b60005b838110156132125780820151818401526020810190506131f7565b83811115613221576000848401525b50505050565b6000600282049050600182168061323f57607f821691505b6020821081141561325357613252613362565b5b50919050565b6132628261343c565b810181811067ffffffffffffffff82111715613281576132806133ef565b5b80604052505050565b6000613295826131c3565b91507fffffffffffffffffffffffffffffffffffffffffffffffffffffffffffffffff8214156132c8576132c7613304565b5b600182019050919050565b60006132de826131c3565b91506132e9836131c3565b9250826132f9576132f8613333565b5b828206905092915050565b7f4e487b7100000000000000000000000000000000000000000000000000000000600052601160045260246000fd5b7f4e487b7100000000000000000000000000000000000000000000000000000000600052601260045260246000fd5b7f4e487b7100000000000000000000000000000000000000000000000000000000600052602260045260246000fd5b7f4e487b7100000000000000000000000000000000000000000000000000000000600052603160045260246000fd5b7f4e487b7100000000000000000000000000000000000000000000000000000000600052603260045260246000fd5b7f4e487b7100000000000000000000000000000000000000000000000000000000600052604160045260246000fd5b600080fd5b600080fd5b600080fd5b600080fd5b600080fd5b600080fd5b6000601f19601f8301169050919050565b7f455243373231456e756d657261626c653a206f776e657220696e646578206f7560008201527f74206f6620626f756e6473000000000000000000000000000000000000000000602082015250565b7f4552433732313a207472616e7366657220746f206e6f6e20455243373231526560008201527f63656976657220696d706c656d656e7465720000000000000000000000000000602082015250565b7f4f776e61626c653a206e6577206f776e657220697320746865207a65726f206160008201527f6464726573730000000000000000000000000000000000000000000000000000602082015250565b7f4552433732313a207472616e736665722066726f6d20696e636f72726563742060008201527f6f776e6572000000000000000000000000000000000000000000000000000000602082015250565b7f4552433732313a20746f6b656e20616c7265616479206d696e74656400000000600082015250565b7f4552433732313a207472616e7366657220746f20746865207a65726f2061646460008201527f7265737300000000000000000000000000000000000000000000000000000000602082015250565b7f4552433732313a20617070726f766520746f2063616c6c657200000000000000600082015250565b7f4552433732313a2061646472657373207a65726f206973206e6f74206120766160008201527f6c6964206f776e65720000000000000000000000000000000000000000000000602082015250565b7f4552433732313a20617070726f76652063616c6c6572206973206e6f7420746f60008201527f6b656e206f776e6572206e6f7220617070726f76656420666f7220616c6c0000602082015250565b7f4552433732313a206d696e7420746f20746865207a65726f2061646472657373600082015250565b7f4f776e61626c653a2063616c6c6572206973206e6f7420746865206f776e6572600082015250565b7f4552433732313a20696e76616c696420746f6b656e2049440000000000000000600082015250565b7f4552433732313a20617070726f76616c20746f2063757272656e74206f776e6560008201527f7200000000000000000000000000000000000000000000000000000000000000602082015250565b7f455243373231456e756d657261626c653a20676c6f62616c20696e646578206f60008201527f7574206f6620626f756e64730000000000000000000000000000000000000000602082015250565b7f455243323938313a20726f79616c7479206665652077696c6c2065786365656460008201527f2073616c65507269636500000000000000000000000000000000000000000000602082015250565b7f4552433732313a2063616c6c6572206973206e6f7420746f6b656e206f776e6560008201527f72206e6f7220617070726f766564000000000000000000000000000000000000602082015250565b7f455243323938313a20696e76616c696420726563656976657200000000000000600082015250565b6138b181613159565b81146138bc57600080fd5b50565b6138c88161316b565b81146138d357600080fd5b50565b6138df81613177565b81146138ea57600080fd5b50565b6138f6816131c3565b811461390157600080fd5b50565b61390d816131cd565b811461391857600080fd5b5056fea264697066735822122058d31c896a577a66fda271b8041604d9b2b674c91b783a229fc643ba39b9110764736f6c63430008070033",
  "linkReferences": {},
  "deployedLinkReferences": {}
}