{
  "address": "0xA1fb1020CE16198c5a2797cc789C6f0d767eacD9",
  "abi": [
    {
      "inputs": [],
      "stateMutability": "nonpayable",
      "type": "constructor"
    },
    {
      "inputs": [
        {
          "internalType": "uint256",
          "name": "tokenId",
          "type": "uint256"
        }
      ],
      "name": "NeuralNFTMarketplace__AlreadyListed",
      "type": "error"
    },
    {
      "inputs": [],
      "name": "NeuralNFTMarketplace__InsufficientFunds",
      "type": "error"
    },
    {
      "inputs": [],
      "name": "NeuralNFTMarketplace__NoProceeds",
      "type": "error"
    },
    {
      "inputs": [],
      "name": "NeuralNFTMarketplace__NotApprovedForMarketplace",
      "type": "error"
    },
    {
      "inputs": [
        {
          "internalType": "uint256",
          "name": "tokenId",
          "type": "uint256"
        },
        {
          "internalType": "address",
          "name": "caller",
          "type": "address"
        }
      ],
      "name": "NeuralNFTMarketplace__NotCreator",
      "type": "error"
    },
    {
      "inputs": [
        {
          "internalType": "uint256",
          "name": "tokenId",
          "type": "uint256"
        }
      ],
      "name": "NeuralNFTMarketplace__NotListed",
      "type": "error"
    },
    {
      "inputs": [],
      "name": "NeuralNFTMarketplace__NotOwner",
      "type": "error"
    },
    {
      "inputs": [],
      "name": "NeuralNFTMarketplace__PriceMustBeAboveZero",
      "type": "error"
    },
    {
      "inputs": [
        {
          "internalType": "uint256",
          "name": "tokenId",
          "type": "uint256"
        },
        {
          "internalType": "uint256",
          "name": "price",
          "type": "uint256"
        }
      ],
      "name": "NeuralNFTMarketplace__PriceNotMet",
      "type": "error"
    },
    {
      "inputs": [
        {
          "internalType": "uint96",
          "name": "",
          "type": "uint96"
        }
      ],
      "name": "NeuralNFTMarketplace__RoyaltyFeesTooHigh",
      "type": "error"
    },
    {
      "inputs": [],
      "name": "NeuralNFTMarketplace__TransferFailed",
      "type": "error"
    },
    {
      "anonymous": false,
      "inputs": [
        {
          "indexed": true,
          "internalType": "address",
          "name": "owner",
          "type": "address"
        },
        {
          "indexed": true,
          "internalType": "address",
          "name": "approved",
          "type": "address"
        },
        {
          "indexed": true,
          "internalType": "uint256",
          "name": "tokenId",
          "type": "uint256"
        }
      ],
      "name": "Approval",
      "type": "event"
    },
    {
      "anonymous": false,
      "inputs": [
        {
          "indexed": true,
          "internalType": "address",
          "name": "owner",
          "type": "address"
        },
        {
          "indexed": true,
          "internalType": "address",
          "name": "operator",
          "type": "address"
        },
        {
          "indexed": false,
          "internalType": "bool",
          "name": "approved",
          "type": "bool"
        }
      ],
      "name": "ApprovalForAll",
      "type": "event"
    },
    {
      "anonymous": false,
      "inputs": [
        {
          "indexed": true,
          "internalType": "address",
          "name": "buyer",
          "type": "address"
        },
        {
          "indexed": true,
          "internalType": "uint256",
          "name": "tokenId",
          "type": "uint256"
        },
        {
          "indexed": false,
          "internalType": "uint256",
          "name": "price",
          "type": "uint256"
        }
      ],
      "name": "ItemBought",
      "type": "event"
    },
    {
      "anonymous": false,
      "inputs": [
        {
          "indexed": true,
          "internalType": "address",
          "name": "seller",
          "type": "address"
        },
        {
          "indexed": true,
          "internalType": "uint256",
          "name": "tokenId",
          "type": "uint256"
        }
      ],
      "name": "ItemCancelled",
      "type": "event"
    },
    {
      "anonymous": false,
      "inputs": [
        {
          "indexed": true,
          "internalType": "address",
          "name": "seller",
          "type": "address"
        },
        {
          "indexed": true,
          "internalType": "uint256",
          "name": "tokenId",
          "type": "uint256"
        },
        {
          "indexed": false,
          "internalType": "uint256",
          "name": "price",
          "type": "uint256"
        }
      ],
      "name": "ItemListed",
      "type": "event"
    },
    {
      "anonymous": false,
      "inputs": [
        {
          "indexed": true,
          "internalType": "address",
          "name": "creator",
          "type": "address"
        },
        {
          "indexed": true,
          "internalType": "uint256",
          "name": "tokenId",
          "type": "uint256"
        },
        {
          "indexed": false,
          "internalType": "uint96",
          "name": "royaltyFees",
          "type": "uint96"
        }
      ],
      "name": "NewNftMinted",
      "type": "event"
    },
    {
      "anonymous": false,
      "inputs": [
        {
          "indexed": true,
          "internalType": "uint256",
          "name": "tokenId",
          "type": "uint256"
        },
        {
          "indexed": false,
          "internalType": "uint96",
          "name": "royaltyFees",
          "type": "uint96"
        }
      ],
      "name": "NftRoyaltyUpdated",
      "type": "event"
    },
    {
      "anonymous": false,
      "inputs": [
        {
          "indexed": true,
          "internalType": "address",
          "name": "from",
          "type": "address"
        },
        {
          "indexed": true,
          "internalType": "address",
          "name": "to",
          "type": "address"
        },
        {
          "indexed": true,
          "internalType": "uint256",
          "name": "tokenId",
          "type": "uint256"
        }
      ],
      "name": "Transfer",
      "type": "event"
    },
    {
      "stateMutability": "payable",
      "type": "fallback"
    },
    {
      "inputs": [],
      "name": "PLATFORM_FEE",
      "outputs": [
        {
          "internalType": "uint256",
          "name": "",
          "type": "uint256"
        }
      ],
      "stateMutability": "view",
      "type": "function"
    },
    {
      "inputs": [
        {
          "internalType": "address",
          "name": "to",
          "type": "address"
        },
        {
          "internalType": "uint256",
          "name": "tokenId",
          "type": "uint256"
        }
      ],
      "name": "approve",
      "outputs": [],
      "stateMutability": "nonpayable",
      "type": "function"
    },
    {
      "inputs": [
        {
          "internalType": "address",
          "name": "owner",
          "type": "address"
        }
      ],
      "name": "balanceOf",
      "outputs": [
        {
          "internalType": "uint256",
          "name": "",
          "type": "uint256"
        }
      ],
      "stateMutability": "view",
      "type": "function"
    },
    {
      "inputs": [
        {
          "internalType": "uint256",
          "name": "tokenId",
          "type": "uint256"
        }
      ],
      "name": "buyItem",
      "outputs": [],
      "stateMutability": "payable",
      "type": "function"
    },
    {
      "inputs": [
        {
          "internalType": "uint256",
          "name": "tokenId",
          "type": "uint256"
        }
      ],
      "name": "cancelListing",
      "outputs": [],
      "stateMutability": "nonpayable",
      "type": "function"
    },
    {
      "inputs": [
        {
          "internalType": "uint256",
          "name": "tokenId",
          "type": "uint256"
        }
      ],
      "name": "getApproved",
      "outputs": [
        {
          "internalType": "address",
          "name": "",
          "type": "address"
        }
      ],
      "stateMutability": "view",
      "type": "function"
    },
    {
      "inputs": [
        {
          "internalType": "address",
          "name": "seller",
          "type": "address"
        }
      ],
      "name": "getEarnings",
      "outputs": [
        {
          "internalType": "uint256",
          "name": "",
          "type": "uint256"
        }
      ],
      "stateMutability": "view",
      "type": "function"
    },
    {
      "inputs": [],
      "name": "getListFee",
      "outputs": [
        {
          "internalType": "uint256",
          "name": "",
          "type": "uint256"
        }
      ],
      "stateMutability": "view",
      "type": "function"
    },
    {
      "inputs": [
        {
          "internalType": "uint256",
          "name": "tokenId",
          "type": "uint256"
        }
      ],
      "name": "getListing",
      "outputs": [
        {
          "components": [
            {
              "internalType": "uint256",
              "name": "price",
              "type": "uint256"
            },
            {
              "internalType": "address",
              "name": "seller",
              "type": "address"
            }
          ],
          "internalType": "struct NeuralNFTMarketplace.Listing",
          "name": "",
          "type": "tuple"
        }
      ],
      "stateMutability": "view",
      "type": "function"
    },
    {
      "inputs": [],
      "name": "getPlatformFee",
      "outputs": [
        {
          "internalType": "uint256",
          "name": "",
          "type": "uint256"
        }
      ],
      "stateMutability": "pure",
      "type": "function"
    },
    {
      "inputs": [
        {
          "internalType": "address",
          "name": "owner",
          "type": "address"
        },
        {
          "internalType": "address",
          "name": "operator",
          "type": "address"
        }
      ],
      "name": "isApprovedForAll",
      "outputs": [
        {
          "internalType": "bool",
          "name": "",
          "type": "bool"
        }
      ],
      "stateMutability": "view",
      "type": "function"
    },
    {
      "inputs": [
        {
          "internalType": "uint256",
          "name": "tokenId",
          "type": "uint256"
        },
        {
          "internalType": "uint256",
          "name": "price",
          "type": "uint256"
        }
      ],
      "name": "listItem",
      "outputs": [],
      "stateMutability": "payable",
      "type": "function"
    },
    {
      "inputs": [
        {
          "internalType": "string",
          "name": "nftURI",
          "type": "string"
        },
        {
          "internalType": "address",
          "name": "royaltyReceiver",
          "type": "address"
        },
        {
          "internalType": "uint96",
          "name": "_royaltyFeesInBips",
          "type": "uint96"
        }
      ],
      "name": "mintNft",
      "outputs": [
        {
          "internalType": "uint256",
          "name": "newItemId",
          "type": "uint256"
        }
      ],
      "stateMutability": "nonpayable",
      "type": "function"
    },
    {
      "inputs": [],
      "name": "name",
      "outputs": [
        {
          "internalType": "string",
          "name": "",
          "type": "string"
        }
      ],
      "stateMutability": "view",
      "type": "function"
    },
    {
      "inputs": [
        {
          "internalType": "uint256",
          "name": "tokenId",
          "type": "uint256"
        }
      ],
      "name": "ownerOf",
      "outputs": [
        {
          "internalType": "address",
          "name": "",
          "type": "address"
        }
      ],
      "stateMutability": "view",
      "type": "function"
    },
    {
      "inputs": [
        {
          "internalType": "uint256",
          "name": "_tokenId",
          "type": "uint256"
        },
        {
          "internalType": "uint256",
          "name": "_salePrice",
          "type": "uint256"
        }
      ],
      "name": "royaltyInfo",
      "outputs": [
        {
          "internalType": "address",
          "name": "",
          "type": "address"
        },
        {
          "internalType": "uint256",
          "name": "",
          "type": "uint256"
        }
      ],
      "stateMutability": "view",
      "type": "function"
    },
    {
      "inputs": [],
      "name": "s_list_fee",
      "outputs": [
        {
          "internalType": "uint256",
          "name": "",
          "type": "uint256"
        }
      ],
      "stateMutability": "view",
      "type": "function"
    },
    {
      "inputs": [
        {
          "internalType": "address",
          "name": "from",
          "type": "address"
        },
        {
          "internalType": "address",
          "name": "to",
          "type": "address"
        },
        {
          "internalType": "uint256",
          "name": "tokenId",
          "type": "uint256"
        }
      ],
      "name": "safeTransferFrom",
      "outputs": [],
      "stateMutability": "nonpayable",
      "type": "function"
    },
    {
      "inputs": [
        {
          "internalType": "address",
          "name": "from",
          "type": "address"
        },
        {
          "internalType": "address",
          "name": "to",
          "type": "address"
        },
        {
          "internalType": "uint256",
          "name": "tokenId",
          "type": "uint256"
        },
        {
          "internalType": "bytes",
          "name": "data",
          "type": "bytes"
        }
      ],
      "name": "safeTransferFrom",
      "outputs": [],
      "stateMutability": "nonpayable",
      "type": "function"
    },
    {
      "inputs": [
        {
          "internalType": "address",
          "name": "operator",
          "type": "address"
        },
        {
          "internalType": "bool",
          "name": "approved",
          "type": "bool"
        }
      ],
      "name": "setApprovalForAll",
      "outputs": [],
      "stateMutability": "nonpayable",
      "type": "function"
    },
    {
      "inputs": [
        {
          "internalType": "uint256",
          "name": "newListFee",
          "type": "uint256"
        }
      ],
      "name": "setListFee",
      "outputs": [],
      "stateMutability": "nonpayable",
      "type": "function"
    },
    {
      "inputs": [
        {
          "internalType": "uint256",
          "name": "_tokenId",
          "type": "uint256"
        },
        {
          "internalType": "address",
          "name": "_receiver",
          "type": "address"
        },
        {
          "internalType": "uint96",
          "name": "_royaltyFeesInBips",
          "type": "uint96"
        }
      ],
      "name": "setRoyaltyInfo",
      "outputs": [],
      "stateMutability": "nonpayable",
      "type": "function"
    },
    {
      "inputs": [
        {
          "internalType": "bytes4",
          "name": "interfaceId",
          "type": "bytes4"
        }
      ],
      "name": "supportsInterface",
      "outputs": [
        {
          "internalType": "bool",
          "name": "",
          "type": "bool"
        }
      ],
      "stateMutability": "view",
      "type": "function"
    },
    {
      "inputs": [],
      "name": "symbol",
      "outputs": [
        {
          "internalType": "string",
          "name": "",
          "type": "string"
        }
      ],
      "stateMutability": "view",
      "type": "function"
    },
    {
      "inputs": [
        {
          "internalType": "uint256",
          "name": "tokenId",
          "type": "uint256"
        }
      ],
      "name": "tokenURI",
      "outputs": [
        {
          "internalType": "string",
          "name": "",
          "type": "string"
        }
      ],
      "stateMutability": "view",
      "type": "function"
    },
    {
      "inputs": [
        {
          "internalType": "address",
          "name": "from",
          "type": "address"
        },
        {
          "internalType": "address",
          "name": "to",
          "type": "address"
        },
        {
          "internalType": "uint256",
          "name": "tokenId",
          "type": "uint256"
        }
      ],
      "name": "transferFrom",
      "outputs": [],
      "stateMutability": "nonpayable",
      "type": "function"
    },
    {
      "inputs": [
        {
          "internalType": "uint256",
          "name": "tokenId",
          "type": "uint256"
        },
        {
          "internalType": "uint256",
          "name": "newPrice",
          "type": "uint256"
        }
      ],
      "name": "updateListing",
      "outputs": [],
      "stateMutability": "payable",
      "type": "function"
    },
    {
      "inputs": [],
      "name": "withdrawProceeds",
      "outputs": [],
      "stateMutability": "nonpayable",
      "type": "function"
    },
    {
      "stateMutability": "payable",
      "type": "receive"
    }
  ],
  "transactionHash": "0x35d11027ce23f33e8e6bb2c9c0c0828df84ff3e247b771acc90d41c65a2a6132",
  "args": [],
  "numDeployments": 1,
  "solcInputHash": "c13dc46473ef59a9da6c842b675060b9",
  "bytecode": "0x60a060405266038d7ea4c68000600e553480156200001c57600080fd5b506040518060400160405280600981526020017f4e657572616c4e465400000000000000000000000000000000000000000000008152506040518060400160405280600481526020017f4e4e4654000000000000000000000000000000000000000000000000000000008152508160029080519060200190620000a192919062000102565b508060039080519060200190620000ba92919062000102565b50505060016009819055503373ffffffffffffffffffffffffffffffffffffffff1660808173ffffffffffffffffffffffffffffffffffffffff1660601b8152505062000217565b8280546200011090620001b2565b90600052602060002090601f01602090048101928262000134576000855562000180565b82601f106200014f57805160ff191683800117855562000180565b8280016001018555821562000180579182015b828111156200017f57825182559160200191906001019062000162565b5b5090506200018f919062000193565b5090565b5b80821115620001ae57600081600090555060010162000194565b5090565b60006002820490506001821680620001cb57607f821691505b60208210811415620001e257620001e1620001e8565b5b50919050565b7f4e487b7100000000000000000000000000000000000000000000000000000000600052602260045260246000fd5b60805160601c614a4162000259600039600081816101c70152818161023f015281816109ce01528181610dcf015281816117c901526121550152614a416000f3fe6080604052600436106101bb5760003560e01c80636352211e116100ec578063a22cb4651161008a578063c87b56dd11610064578063c87b56dd14610707578063e7fb74c714610744578063e985e9c514610760578063fb5134921461079d57610238565b8063a22cb4651461068a578063b88d4fde146106b3578063c379f647146106dc57610238565b8063883efa67116100c6578063883efa67146105ef5780639038e6931461060b57806395d89b41146106225780639ed19d801461064d57610238565b80636352211e1461054a5780636ea8bc101461058757806370a08231146105b257610238565b80631495fa99116101595780632a55205a116101335780632a55205a1461048f578063305a67a8146104cd57806334fbc9a1146104f657806342842e0e1461052157610238565b80631495fa99146104145780631d0488601461043d57806323b872dd1461046657610238565b8063081812fc11610195578063081812fc14610334578063095ea7b314610371578063107a274a1461039a578063131b9c04146103d757610238565b80630179ea88146102b057806301ffc9a7146102cc57806306fdde031461030957610238565b366102385734600c60007f000000000000000000000000000000000000000000000000000000000000000073ffffffffffffffffffffffffffffffffffffffff1673ffffffffffffffffffffffffffffffffffffffff168152602001908152602001600020600082825461022f9190614208565b92505081905550005b34600c60007f000000000000000000000000000000000000000000000000000000000000000073ffffffffffffffffffffffffffffffffffffffff1673ffffffffffffffffffffffffffffffffffffffff16815260200190815260200160002060008282546102a79190614208565b92505081905550005b6102ca60048036038101906102c59190613a0e565b6107c8565b005b3480156102d857600080fd5b506102f360048036038101906102ee91906138c5565b610ab7565b6040516103009190613e73565b60405180910390f35b34801561031557600080fd5b5061031e610ac9565b60405161032b9190613e8e565b60405180910390f35b34801561034057600080fd5b5061035b6004803603810190610356919061398e565b610b5b565b6040516103689190613de3565b60405180910390f35b34801561037d57600080fd5b5061039860048036038101906103939190613885565b610ba1565b005b3480156103a657600080fd5b506103c160048036038101906103bc919061398e565b610baf565b6040516103ce9190614090565b60405180910390f35b3480156103e357600080fd5b506103fe60048036038101906103f99190613702565b610c3c565b60405161040b91906140ab565b60405180910390f35b34801561042057600080fd5b5061043b600480360381019061043691906139bb565b610c85565b005b34801561044957600080fd5b50610464600480360381019061045f919061398e565b610dcd565b005b34801561047257600080fd5b5061048d6004803603810190610488919061376f565b610e5c565b005b34801561049b57600080fd5b506104b660048036038101906104b19190613a0e565b610f3d565b6040516104c4929190613e4a565b60405180910390f35b3480156104d957600080fd5b506104f460048036038101906104ef919061398e565b611128565b005b34801561050257600080fd5b5061050b611349565b60405161051891906140ab565b60405180910390f35b34801561052d57600080fd5b506105486004803603810190610543919061376f565b61134e565b005b34801561055657600080fd5b50610571600480360381019061056c919061398e565b61142f565b60405161057e9190613de3565b60405180910390f35b34801561059357600080fd5b5061059c6114e1565b6040516105a991906140ab565b60405180910390f35b3480156105be57600080fd5b506105d960048036038101906105d49190613702565b6114ea565b6040516105e691906140ab565b60405180910390f35b61060960048036038101906106049190613a0e565b6115a2565b005b34801561061757600080fd5b50610620611922565b005b34801561062e57600080fd5b50610637611ae2565b6040516106449190613e8e565b60405180910390f35b34801561065957600080fd5b50610674600480360381019061066f919061391f565b611b74565b60405161068191906140ab565b60405180910390f35b34801561069657600080fd5b506106b160048036038101906106ac9190613845565b611d00565b005b3480156106bf57600080fd5b506106da60048036038101906106d591906137c2565b611d16565b005b3480156106e857600080fd5b506106f1611d78565b6040516106fe91906140ab565b60405180910390f35b34801561071357600080fd5b5061072e6004803603810190610729919061398e565b611d7e565b60405161073b9190613e8e565b60405180910390f35b61075e6004803603810190610759919061398e565b611e91565b005b34801561076c57600080fd5b506107876004803603810190610782919061372f565b612267565b6040516107949190613e73565b60405180910390f35b3480156107a957600080fd5b506107b26122fb565b6040516107bf91906140ab565b60405180910390f35b81336107d38261142f565b73ffffffffffffffffffffffffffffffffffffffff168173ffffffffffffffffffffffffffffffffffffffff1614610837576040517f2ac3f91100000000000000000000000000000000000000000000000000000000815260040160405180910390fd5b836000600b6000838152602001908152602001600020604051806040016040529081600082015481526020016001820160009054906101000a900473ffffffffffffffffffffffffffffffffffffffff1673ffffffffffffffffffffffffffffffffffffffff1673ffffffffffffffffffffffffffffffffffffffff16815250509050600081600001511161090357816040517fdb363db80000000000000000000000000000000000000000000000000000000081526004016108fa91906140ab565b60405180910390fd5b60026009541415610949576040517f08c379a000000000000000000000000000000000000000000000000000000000815260040161094090614070565b60405180910390fd5b6002600981905550600e5434101561098d576040517fade20f9200000000000000000000000000000000000000000000000000000000815260040160405180910390fd5b600085116109c7576040517ff1c64ea600000000000000000000000000000000000000000000000000000000815260040160405180910390fd5b34600c60007f000000000000000000000000000000000000000000000000000000000000000073ffffffffffffffffffffffffffffffffffffffff1673ffffffffffffffffffffffffffffffffffffffff1681526020019081526020016000206000828254610a369190614208565b9250508190555084600b600088815260200190815260200160002060000181905550853373ffffffffffffffffffffffffffffffffffffffff167f94e7b934c857a9e3202e8ed9c1f3f96e396b7d2b5885930d2001abcb51ff58fa87604051610a9f91906140ab565b60405180910390a36001600981905550505050505050565b6000610ac282612305565b9050919050565b606060028054610ad8906143eb565b80601f0160208091040260200160405190810160405280929190818152602001828054610b04906143eb565b8015610b515780601f10610b2657610100808354040283529160200191610b51565b820191906000526020600020905b815481529060010190602001808311610b3457829003601f168201915b5050505050905090565b6000610b66826123e7565b6006600083815260200190815260200160002060009054906101000a900473ffffffffffffffffffffffffffffffffffffffff169050919050565b610bab8282612432565b5050565b610bb76134d1565b600b6000838152602001908152602001600020604051806040016040529081600082015481526020016001820160009054906101000a900473ffffffffffffffffffffffffffffffffffffffff1673ffffffffffffffffffffffffffffffffffffffff1673ffffffffffffffffffffffffffffffffffffffff16815250509050919050565b6000600c60008373ffffffffffffffffffffffffffffffffffffffff1673ffffffffffffffffffffffffffffffffffffffff168152602001908152602001600020549050919050565b806107d0816bffffffffffffffffffffffff161115610cdb57806040517f05a79cda000000000000000000000000000000000000000000000000000000008152600401610cd29190614118565b60405180910390fd5b83338073ffffffffffffffffffffffffffffffffffffffff16600d600084815260200190815260200160002060009054906101000a900473ffffffffffffffffffffffffffffffffffffffff1673ffffffffffffffffffffffffffffffffffffffff1614610d825781816040517fee3671ac000000000000000000000000000000000000000000000000000000008152600401610d799291906140c6565b60405180910390fd5b610d8d86868661254a565b857f51a561a62c793496a64ccae0329d6a4a31b3b2107025e3d0770a06b6188f506385604051610dbd9190614118565b60405180910390a2505050505050565b7f000000000000000000000000000000000000000000000000000000000000000073ffffffffffffffffffffffffffffffffffffffff163373ffffffffffffffffffffffffffffffffffffffff1614610e52576040517f2ac3f91100000000000000000000000000000000000000000000000000000000815260040160405180910390fd5b80600e8190555050565b80836000600b6000848152602001908152602001600020604051806040016040529081600082015481526020016001820160009054906101000a900473ffffffffffffffffffffffffffffffffffffffff1673ffffffffffffffffffffffffffffffffffffffff1673ffffffffffffffffffffffffffffffffffffffff16815250509050600081600001511115610f2a57826040517fe000ca91000000000000000000000000000000000000000000000000000000008152600401610f2191906140ab565b60405180910390fd5b610f358686866126f2565b505050505050565b6000806000600160008681526020019081526020016000206040518060400160405290816000820160009054906101000a900473ffffffffffffffffffffffffffffffffffffffff1673ffffffffffffffffffffffffffffffffffffffff1673ffffffffffffffffffffffffffffffffffffffff1681526020016000820160149054906101000a90046bffffffffffffffffffffffff166bffffffffffffffffffffffff166bffffffffffffffffffffffff16815250509050600073ffffffffffffffffffffffffffffffffffffffff16816000015173ffffffffffffffffffffffffffffffffffffffff1614156110d35760006040518060400160405290816000820160009054906101000a900473ffffffffffffffffffffffffffffffffffffffff1673ffffffffffffffffffffffffffffffffffffffff1673ffffffffffffffffffffffffffffffffffffffff1681526020016000820160149054906101000a90046bffffffffffffffffffffffff166bffffffffffffffffffffffff166bffffffffffffffffffffffff168152505090505b60006110dd612752565b6bffffffffffffffffffffffff1682602001516bffffffffffffffffffffffff1686611109919061428f565b611113919061425e565b90508160000151819350935050509250929050565b80336111338261142f565b73ffffffffffffffffffffffffffffffffffffffff168173ffffffffffffffffffffffffffffffffffffffff1614611197576040517f2ac3f91100000000000000000000000000000000000000000000000000000000815260040160405180910390fd5b826000600b6000838152602001908152602001600020604051806040016040529081600082015481526020016001820160009054906101000a900473ffffffffffffffffffffffffffffffffffffffff1673ffffffffffffffffffffffffffffffffffffffff1673ffffffffffffffffffffffffffffffffffffffff16815250509050600081600001511161126357816040517fdb363db800000000000000000000000000000000000000000000000000000000815260040161125a91906140ab565b60405180910390fd5b600260095414156112a9576040517f08c379a00000000000000000000000000000000000000000000000000000000081526004016112a090614070565b60405180910390fd5b6002600981905550600b60008681526020019081526020016000206000808201600090556001820160006101000a81549073ffffffffffffffffffffffffffffffffffffffff02191690555050843373ffffffffffffffffffffffffffffffffffffffff167f6be0c8480cb6f0bffcd4a654fb162c986ba528d5ff0e743ee21b1fc900fa264f60405160405180910390a360016009819055505050505050565b600281565b80836000600b6000848152602001908152602001600020604051806040016040529081600082015481526020016001820160009054906101000a900473ffffffffffffffffffffffffffffffffffffffff1673ffffffffffffffffffffffffffffffffffffffff1673ffffffffffffffffffffffffffffffffffffffff1681525050905060008160000151111561141c57826040517fe000ca9100000000000000000000000000000000000000000000000000000000815260040161141391906140ab565b60405180910390fd5b6114278686866126f2565b505050505050565b6000806004600084815260200190815260200160002060009054906101000a900473ffffffffffffffffffffffffffffffffffffffff169050600073ffffffffffffffffffffffffffffffffffffffff168173ffffffffffffffffffffffffffffffffffffffff1614156114d8576040517f08c379a00000000000000000000000000000000000000000000000000000000081526004016114cf90613fd0565b60405180910390fd5b80915050919050565b60006002905090565b60008073ffffffffffffffffffffffffffffffffffffffff168273ffffffffffffffffffffffffffffffffffffffff16141561155b576040517f08c379a000000000000000000000000000000000000000000000000000000000815260040161155290613f50565b60405180910390fd5b600560008373ffffffffffffffffffffffffffffffffffffffff1673ffffffffffffffffffffffffffffffffffffffff168152602001908152602001600020549050919050565b81336000600b6000848152602001908152602001600020604051806040016040529081600082015481526020016001820160009054906101000a900473ffffffffffffffffffffffffffffffffffffffff1673ffffffffffffffffffffffffffffffffffffffff1673ffffffffffffffffffffffffffffffffffffffff1681525050905060008160000151111561167057826040517fe000ca9100000000000000000000000000000000000000000000000000000000815260040161166791906140ab565b60405180910390fd5b843361167b8261142f565b73ffffffffffffffffffffffffffffffffffffffff168173ffffffffffffffffffffffffffffffffffffffff16146116df576040517f2ac3f91100000000000000000000000000000000000000000000000000000000815260040160405180910390fd5b600e5434101561171b576040517fade20f9200000000000000000000000000000000000000000000000000000000815260040160405180910390fd5b60008611611755576040517ff1c64ea600000000000000000000000000000000000000000000000000000000815260040160405180910390fd5b3073ffffffffffffffffffffffffffffffffffffffff1661177588610b5b565b73ffffffffffffffffffffffffffffffffffffffff16146117c2576040517f913365f800000000000000000000000000000000000000000000000000000000815260040160405180910390fd5b34600c60007f000000000000000000000000000000000000000000000000000000000000000073ffffffffffffffffffffffffffffffffffffffff1673ffffffffffffffffffffffffffffffffffffffff16815260200190815260200160002060008282546118319190614208565b9250508190555060405180604001604052808781526020013373ffffffffffffffffffffffffffffffffffffffff16815250600b60008981526020019081526020016000206000820151816000015560208201518160010160006101000a81548173ffffffffffffffffffffffffffffffffffffffff021916908373ffffffffffffffffffffffffffffffffffffffff160217905550905050863373ffffffffffffffffffffffffffffffffffffffff167f94e7b934c857a9e3202e8ed9c1f3f96e396b7d2b5885930d2001abcb51ff58fa8860405161191191906140ab565b60405180910390a350505050505050565b60026009541415611968576040517f08c379a000000000000000000000000000000000000000000000000000000000815260040161195f90614070565b60405180910390fd5b60026009819055506000600c60003373ffffffffffffffffffffffffffffffffffffffff1673ffffffffffffffffffffffffffffffffffffffff168152602001908152602001600020549050600081116119ee576040517f22be094a00000000000000000000000000000000000000000000000000000000815260040160405180910390fd5b6000600c60003373ffffffffffffffffffffffffffffffffffffffff1673ffffffffffffffffffffffffffffffffffffffff1681526020019081526020016000208190555060003373ffffffffffffffffffffffffffffffffffffffff1682604051611a5990613dce565b60006040518083038185875af1925050503d8060008114611a96576040519150601f19603f3d011682016040523d82523d6000602084013e611a9b565b606091505b5050905080611ad6576040517f1413ec4b00000000000000000000000000000000000000000000000000000000815260040160405180910390fd5b50506001600981905550565b606060038054611af1906143eb565b80601f0160208091040260200160405190810160405280929190818152602001828054611b1d906143eb565b8015611b6a5780601f10611b3f57610100808354040283529160200191611b6a565b820191906000526020600020905b815481529060010190602001808311611b4d57829003601f168201915b5050505050905090565b6000816107d0816bffffffffffffffffffffffff161115611bcc57806040517f05a79cda000000000000000000000000000000000000000000000000000000008152600401611bc39190614118565b60405180910390fd5b60026009541415611c12576040517f08c379a0000000000000000000000000000000000000000000000000000000008152600401611c0990614070565b60405180910390fd5b6002600981905550611c24600a61275c565b9150611c30338361276a565b611c3b82858561254a565b611c458286612788565b33600d600084815260200190815260200160002060006101000a81548173ffffffffffffffffffffffffffffffffffffffff021916908373ffffffffffffffffffffffffffffffffffffffff160217905550611ca1600a6127fc565b813373ffffffffffffffffffffffffffffffffffffffff167fd3d96b5226b0f7dc725f612a664675b5e04ef0727b38f7f6b22c5f2398ca707985604051611ce89190614118565b60405180910390a36001600981905550509392505050565b611d12611d0b612812565b838361281a565b5050565b611d27611d21612812565b83612987565b611d66576040517f08c379a0000000000000000000000000000000000000000000000000000000008152600401611d5d90614050565b60405180910390fd5b611d7284848484612a1c565b50505050565b600e5481565b6060611d89826123e7565b6000600860008481526020019081526020016000208054611da9906143eb565b80601f0160208091040260200160405190810160405280929190818152602001828054611dd5906143eb565b8015611e225780601f10611df757610100808354040283529160200191611e22565b820191906000526020600020905b815481529060010190602001808311611e0557829003601f168201915b505050505090506000611e33612a78565b9050600081511415611e49578192505050611e8c565b600082511115611e7e578082604051602001611e66929190613daa565b60405160208183030381529060405292505050611e8c565b611e8784612a8f565b925050505b919050565b806000600b6000838152602001908152602001600020604051806040016040529081600082015481526020016001820160009054906101000a900473ffffffffffffffffffffffffffffffffffffffff1673ffffffffffffffffffffffffffffffffffffffff1673ffffffffffffffffffffffffffffffffffffffff168152505090506000816000015111611f5d57816040517fdb363db8000000000000000000000000000000000000000000000000000000008152600401611f5491906140ab565b60405180910390fd5b60026009541415611fa3576040517f08c379a0000000000000000000000000000000000000000000000000000000008152600401611f9a90614070565b60405180910390fd5b60026009819055506000600b6000858152602001908152602001600020604051806040016040529081600082015481526020016001820160009054906101000a900473ffffffffffffffffffffffffffffffffffffffff1673ffffffffffffffffffffffffffffffffffffffff1673ffffffffffffffffffffffffffffffffffffffff16815250509050806000015134101561207c578381600001516040517f8eb7b75f0000000000000000000000000000000000000000000000000000000081526004016120739291906140ef565b60405180910390fd5b60646002606461208c91906142e9565b34612097919061428f565b6120a1919061425e565b600c6000836020015173ffffffffffffffffffffffffffffffffffffffff1673ffffffffffffffffffffffffffffffffffffffff168152602001908152602001600020546120ef9190614208565b600c6000836020015173ffffffffffffffffffffffffffffffffffffffff1673ffffffffffffffffffffffffffffffffffffffff168152602001908152602001600020819055506064600234612145919061428f565b61214f919061425e565b600c60007f000000000000000000000000000000000000000000000000000000000000000073ffffffffffffffffffffffffffffffffffffffff1673ffffffffffffffffffffffffffffffffffffffff16815260200190815260200160002081905550600b60008581526020019081526020016000206000808201600090556001820160006101000a81549073ffffffffffffffffffffffffffffffffffffffff021916905550506122068160200151338661134e565b833373ffffffffffffffffffffffffffffffffffffffff167ffe2094c9ff56716cb07edf0cff82da158f346cb3bb2d89703228ab4eb0c329b6836000015160405161225191906140ab565b60405180910390a3506001600981905550505050565b6000600760008473ffffffffffffffffffffffffffffffffffffffff1673ffffffffffffffffffffffffffffffffffffffff16815260200190815260200160002060008373ffffffffffffffffffffffffffffffffffffffff1673ffffffffffffffffffffffffffffffffffffffff16815260200190815260200160002060009054906101000a900460ff16905092915050565b6000600e54905090565b60007f80ac58cd000000000000000000000000000000000000000000000000000000007bffffffffffffffffffffffffffffffffffffffffffffffffffffffff1916827bffffffffffffffffffffffffffffffffffffffffffffffffffffffff191614806123d057507f5b5e139f000000000000000000000000000000000000000000000000000000007bffffffffffffffffffffffffffffffffffffffffffffffffffffffff1916827bffffffffffffffffffffffffffffffffffffffffffffffffffffffff1916145b806123e057506123df82612af7565b5b9050919050565b6123f081612b71565b61242f576040517f08c379a000000000000000000000000000000000000000000000000000000000815260040161242690613fd0565b60405180910390fd5b50565b600061243d8261142f565b90508073ffffffffffffffffffffffffffffffffffffffff168373ffffffffffffffffffffffffffffffffffffffff1614156124ae576040517f08c379a00000000000000000000000000000000000000000000000000000000081526004016124a590613ff0565b60405180910390fd5b8073ffffffffffffffffffffffffffffffffffffffff166124cd612812565b73ffffffffffffffffffffffffffffffffffffffff1614806124fc57506124fb816124f6612812565b612267565b5b61253b576040517f08c379a000000000000000000000000000000000000000000000000000000000815260040161253290613f90565b60405180910390fd5b6125458383612bdd565b505050565b612552612752565b6bffffffffffffffffffffffff16816bffffffffffffffffffffffff1611156125b0576040517f08c379a00000000000000000000000000000000000000000000000000000000081526004016125a790614030565b60405180910390fd5b600073ffffffffffffffffffffffffffffffffffffffff168273ffffffffffffffffffffffffffffffffffffffff161415612620576040517f08c379a000000000000000000000000000000000000000000000000000000000815260040161261790614010565b60405180910390fd5b60405180604001604052808373ffffffffffffffffffffffffffffffffffffffff168152602001826bffffffffffffffffffffffff168152506001600085815260200190815260200160002060008201518160000160006101000a81548173ffffffffffffffffffffffffffffffffffffffff021916908373ffffffffffffffffffffffffffffffffffffffff16021790555060208201518160000160146101000a8154816bffffffffffffffffffffffff02191690836bffffffffffffffffffffffff160217905550905050505050565b6127036126fd612812565b82612987565b612742576040517f08c379a000000000000000000000000000000000000000000000000000000000815260040161273990614050565b60405180910390fd5b61274d838383612c96565b505050565b6000612710905090565b600081600001549050919050565b612784828260405180602001604052806000815250612efd565b5050565b61279182612b71565b6127d0576040517f08c379a00000000000000000000000000000000000000000000000000000000081526004016127c790613f70565b60405180910390fd5b806008600084815260200190815260200160002090805190602001906127f7929190613501565b505050565b6001816000016000828254019250508190555050565b600033905090565b8173ffffffffffffffffffffffffffffffffffffffff168373ffffffffffffffffffffffffffffffffffffffff161415612889576040517f08c379a000000000000000000000000000000000000000000000000000000000815260040161288090613f30565b60405180910390fd5b80600760008573ffffffffffffffffffffffffffffffffffffffff1673ffffffffffffffffffffffffffffffffffffffff16815260200190815260200160002060008473ffffffffffffffffffffffffffffffffffffffff1673ffffffffffffffffffffffffffffffffffffffff16815260200190815260200160002060006101000a81548160ff0219169083151502179055508173ffffffffffffffffffffffffffffffffffffffff168373ffffffffffffffffffffffffffffffffffffffff167f17307eab39ab6107e8899845ad3d59bd9653f200f220920489ca2b5937696c318360405161297a9190613e73565b60405180910390a3505050565b6000806129938361142f565b90508073ffffffffffffffffffffffffffffffffffffffff168473ffffffffffffffffffffffffffffffffffffffff1614806129d557506129d48185612267565b5b80612a1357508373ffffffffffffffffffffffffffffffffffffffff166129fb84610b5b565b73ffffffffffffffffffffffffffffffffffffffff16145b91505092915050565b612a27848484612c96565b612a3384848484612f58565b612a72576040517f08c379a0000000000000000000000000000000000000000000000000000000008152600401612a6990613eb0565b60405180910390fd5b50505050565b606060405180602001604052806000815250905090565b6060612a9a826123e7565b6000612aa4612a78565b90506000815111612ac45760405180602001604052806000815250612aef565b80612ace846130ef565b604051602001612adf929190613daa565b6040516020818303038152906040525b915050919050565b60007f2a55205a000000000000000000000000000000000000000000000000000000007bffffffffffffffffffffffffffffffffffffffffffffffffffffffff1916827bffffffffffffffffffffffffffffffffffffffffffffffffffffffff19161480612b6a5750612b6982613250565b5b9050919050565b60008073ffffffffffffffffffffffffffffffffffffffff166004600084815260200190815260200160002060009054906101000a900473ffffffffffffffffffffffffffffffffffffffff1673ffffffffffffffffffffffffffffffffffffffff1614159050919050565b816006600083815260200190815260200160002060006101000a81548173ffffffffffffffffffffffffffffffffffffffff021916908373ffffffffffffffffffffffffffffffffffffffff160217905550808273ffffffffffffffffffffffffffffffffffffffff16612c508361142f565b73ffffffffffffffffffffffffffffffffffffffff167f8c5be1e5ebec7d5bd14f71427d1e84f3dd0314c0f7b2291e5b200ac8c7c3b92560405160405180910390a45050565b8273ffffffffffffffffffffffffffffffffffffffff16612cb68261142f565b73ffffffffffffffffffffffffffffffffffffffff1614612d0c576040517f08c379a0000000000000000000000000000000000000000000000000000000008152600401612d0390613ed0565b60405180910390fd5b600073ffffffffffffffffffffffffffffffffffffffff168273ffffffffffffffffffffffffffffffffffffffff161415612d7c576040517f08c379a0000000000000000000000000000000000000000000000000000000008152600401612d7390613f10565b60405180910390fd5b612d878383836132ba565b612d92600082612bdd565b6001600560008573ffffffffffffffffffffffffffffffffffffffff1673ffffffffffffffffffffffffffffffffffffffff1681526020019081526020016000206000828254612de291906142e9565b925050819055506001600560008473ffffffffffffffffffffffffffffffffffffffff1673ffffffffffffffffffffffffffffffffffffffff1681526020019081526020016000206000828254612e399190614208565b92505081905550816004600083815260200190815260200160002060006101000a81548173ffffffffffffffffffffffffffffffffffffffff021916908373ffffffffffffffffffffffffffffffffffffffff160217905550808273ffffffffffffffffffffffffffffffffffffffff168473ffffffffffffffffffffffffffffffffffffffff167fddf252ad1be2c89b69c2b068fc378daa952ba7f163c4a11628f55a4df523b3ef60405160405180910390a4612ef88383836132ca565b505050565b612f0783836132cf565b612f146000848484612f58565b612f53576040517f08c379a0000000000000000000000000000000000000000000000000000000008152600401612f4a90613eb0565b60405180910390fd5b505050565b6000612f798473ffffffffffffffffffffffffffffffffffffffff166134a9565b156130e2578373ffffffffffffffffffffffffffffffffffffffff1663150b7a02612fa2612812565b8786866040518563ffffffff1660e01b8152600401612fc49493929190613dfe565b602060405180830381600087803b158015612fde57600080fd5b505af192505050801561300f57506040513d601f19601f8201168201806040525081019061300c91906138f2565b60015b613092573d806000811461303f576040519150601f19603f3d011682016040523d82523d6000602084013e613044565b606091505b5060008151141561308a576040517f08c379a000000000000000000000000000000000000000000000000000000000815260040161308190613eb0565b60405180910390fd5b805181602001fd5b63150b7a0260e01b7bffffffffffffffffffffffffffffffffffffffffffffffffffffffff1916817bffffffffffffffffffffffffffffffffffffffffffffffffffffffff1916149150506130e7565b600190505b949350505050565b60606000821415613137576040518060400160405280600181526020017f3000000000000000000000000000000000000000000000000000000000000000815250905061324b565b600082905060005b600082146131695780806131529061444e565b915050600a82613162919061425e565b915061313f565b60008167ffffffffffffffff81111561318557613184614584565b5b6040519080825280601f01601f1916602001820160405280156131b75781602001600182028036833780820191505090505b5090505b60008514613244576001826131d091906142e9565b9150600a856131df9190614497565b60306131eb9190614208565b60f81b81838151811061320157613200614555565b5b60200101907effffffffffffffffffffffffffffffffffffffffffffffffffffffffffffff1916908160001a905350600a8561323d919061425e565b94506131bb565b8093505050505b919050565b60007f01ffc9a7000000000000000000000000000000000000000000000000000000007bffffffffffffffffffffffffffffffffffffffffffffffffffffffff1916827bffffffffffffffffffffffffffffffffffffffffffffffffffffffff1916149050919050565b6132c58383836134cc565b505050565b505050565b600073ffffffffffffffffffffffffffffffffffffffff168273ffffffffffffffffffffffffffffffffffffffff16141561333f576040517f08c379a000000000000000000000000000000000000000000000000000000000815260040161333690613fb0565b60405180910390fd5b61334881612b71565b15613388576040517f08c379a000000000000000000000000000000000000000000000000000000000815260040161337f90613ef0565b60405180910390fd5b613394600083836132ba565b6001600560008473ffffffffffffffffffffffffffffffffffffffff1673ffffffffffffffffffffffffffffffffffffffff16815260200190815260200160002060008282546133e49190614208565b92505081905550816004600083815260200190815260200160002060006101000a81548173ffffffffffffffffffffffffffffffffffffffff021916908373ffffffffffffffffffffffffffffffffffffffff160217905550808273ffffffffffffffffffffffffffffffffffffffff16600073ffffffffffffffffffffffffffffffffffffffff167fddf252ad1be2c89b69c2b068fc378daa952ba7f163c4a11628f55a4df523b3ef60405160405180910390a46134a5600083836132ca565b5050565b6000808273ffffffffffffffffffffffffffffffffffffffff163b119050919050565b505050565b604051806040016040528060008152602001600073ffffffffffffffffffffffffffffffffffffffff1681525090565b82805461350d906143eb565b90600052602060002090601f01602090048101928261352f5760008555613576565b82601f1061354857805160ff1916838001178555613576565b82800160010185558215613576579182015b8281111561357557825182559160200191906001019061355a565b5b5090506135839190613587565b5090565b5b808211156135a0576000816000905550600101613588565b5090565b60006135b76135b284614158565b614133565b9050828152602081018484840111156135d3576135d26145b8565b5b6135de8482856143a9565b509392505050565b60006135f96135f484614189565b614133565b905082815260208101848484011115613615576136146145b8565b5b6136208482856143a9565b509392505050565b60008135905061363781614998565b92915050565b60008135905061364c816149af565b92915050565b600081359050613661816149c6565b92915050565b600081519050613676816149c6565b92915050565b600082601f830112613691576136906145b3565b5b81356136a18482602086016135a4565b91505092915050565b600082601f8301126136bf576136be6145b3565b5b81356136cf8482602086016135e6565b91505092915050565b6000813590506136e7816149dd565b92915050565b6000813590506136fc816149f4565b92915050565b600060208284031215613718576137176145c2565b5b600061372684828501613628565b91505092915050565b60008060408385031215613746576137456145c2565b5b600061375485828601613628565b925050602061376585828601613628565b9150509250929050565b600080600060608486031215613788576137876145c2565b5b600061379686828701613628565b93505060206137a786828701613628565b92505060406137b8868287016136d8565b9150509250925092565b600080600080608085870312156137dc576137db6145c2565b5b60006137ea87828801613628565b94505060206137fb87828801613628565b935050604061380c878288016136d8565b925050606085013567ffffffffffffffff81111561382d5761382c6145bd565b5b6138398782880161367c565b91505092959194509250565b6000806040838503121561385c5761385b6145c2565b5b600061386a85828601613628565b925050602061387b8582860161363d565b9150509250929050565b6000806040838503121561389c5761389b6145c2565b5b60006138aa85828601613628565b92505060206138bb858286016136d8565b9150509250929050565b6000602082840312156138db576138da6145c2565b5b60006138e984828501613652565b91505092915050565b600060208284031215613908576139076145c2565b5b600061391684828501613667565b91505092915050565b600080600060608486031215613938576139376145c2565b5b600084013567ffffffffffffffff811115613956576139556145bd565b5b613962868287016136aa565b935050602061397386828701613628565b9250506040613984868287016136ed565b9150509250925092565b6000602082840312156139a4576139a36145c2565b5b60006139b2848285016136d8565b91505092915050565b6000806000606084860312156139d4576139d36145c2565b5b60006139e2868287016136d8565b93505060206139f386828701613628565b9250506040613a04868287016136ed565b9150509250925092565b60008060408385031215613a2557613a246145c2565b5b6000613a33858286016136d8565b9250506020613a44858286016136d8565b9150509250929050565b613a578161431d565b82525050565b613a668161431d565b82525050565b613a758161432f565b82525050565b6000613a86826141ba565b613a9081856141d0565b9350613aa08185602086016143b8565b613aa9816145c7565b840191505092915050565b6000613abf826141c5565b613ac981856141ec565b9350613ad98185602086016143b8565b613ae2816145c7565b840191505092915050565b6000613af8826141c5565b613b0281856141fd565b9350613b128185602086016143b8565b80840191505092915050565b6000613b2b6032836141ec565b9150613b36826145d8565b604082019050919050565b6000613b4e6025836141ec565b9150613b5982614627565b604082019050919050565b6000613b71601c836141ec565b9150613b7c82614676565b602082019050919050565b6000613b946024836141ec565b9150613b9f8261469f565b604082019050919050565b6000613bb76019836141ec565b9150613bc2826146ee565b602082019050919050565b6000613bda6029836141ec565b9150613be582614717565b604082019050919050565b6000613bfd602e836141ec565b9150613c0882614766565b604082019050919050565b6000613c20603e836141ec565b9150613c2b826147b5565b604082019050919050565b6000613c436020836141ec565b9150613c4e82614804565b602082019050919050565b6000613c666018836141ec565b9150613c718261482d565b602082019050919050565b6000613c896021836141ec565b9150613c9482614856565b604082019050919050565b6000613cac6000836141e1565b9150613cb7826148a5565b600082019050919050565b6000613ccf601b836141ec565b9150613cda826148a8565b602082019050919050565b6000613cf2602a836141ec565b9150613cfd826148d1565b604082019050919050565b6000613d15602e836141ec565b9150613d2082614920565b604082019050919050565b6000613d38601f836141ec565b9150613d438261496f565b602082019050919050565b604082016000820151613d646000850182613d7d565b506020820151613d776020850182613a4e565b50505050565b613d8681614387565b82525050565b613d9581614387565b82525050565b613da481614391565b82525050565b6000613db68285613aed565b9150613dc28284613aed565b91508190509392505050565b6000613dd982613c9f565b9150819050919050565b6000602082019050613df86000830184613a5d565b92915050565b6000608082019050613e136000830187613a5d565b613e206020830186613a5d565b613e2d6040830185613d8c565b8181036060830152613e3f8184613a7b565b905095945050505050565b6000604082019050613e5f6000830185613a5d565b613e6c6020830184613d8c565b9392505050565b6000602082019050613e886000830184613a6c565b92915050565b60006020820190508181036000830152613ea88184613ab4565b905092915050565b60006020820190508181036000830152613ec981613b1e565b9050919050565b60006020820190508181036000830152613ee981613b41565b9050919050565b60006020820190508181036000830152613f0981613b64565b9050919050565b60006020820190508181036000830152613f2981613b87565b9050919050565b60006020820190508181036000830152613f4981613baa565b9050919050565b60006020820190508181036000830152613f6981613bcd565b9050919050565b60006020820190508181036000830152613f8981613bf0565b9050919050565b60006020820190508181036000830152613fa981613c13565b9050919050565b60006020820190508181036000830152613fc981613c36565b9050919050565b60006020820190508181036000830152613fe981613c59565b9050919050565b6000602082019050818103600083015261400981613c7c565b9050919050565b6000602082019050818103600083015261402981613cc2565b9050919050565b6000602082019050818103600083015261404981613ce5565b9050919050565b6000602082019050818103600083015261406981613d08565b9050919050565b6000602082019050818103600083015261408981613d2b565b9050919050565b60006040820190506140a56000830184613d4e565b92915050565b60006020820190506140c06000830184613d8c565b92915050565b60006040820190506140db6000830185613d8c565b6140e86020830184613a5d565b9392505050565b60006040820190506141046000830185613d8c565b6141116020830184613d8c565b9392505050565b600060208201905061412d6000830184613d9b565b92915050565b600061413d61414e565b9050614149828261441d565b919050565b6000604051905090565b600067ffffffffffffffff82111561417357614172614584565b5b61417c826145c7565b9050602081019050919050565b600067ffffffffffffffff8211156141a4576141a3614584565b5b6141ad826145c7565b9050602081019050919050565b600081519050919050565b600081519050919050565b600082825260208201905092915050565b600081905092915050565b600082825260208201905092915050565b600081905092915050565b600061421382614387565b915061421e83614387565b9250827fffffffffffffffffffffffffffffffffffffffffffffffffffffffffffffffff03821115614253576142526144c8565b5b828201905092915050565b600061426982614387565b915061427483614387565b925082614284576142836144f7565b5b828204905092915050565b600061429a82614387565b91506142a583614387565b9250817fffffffffffffffffffffffffffffffffffffffffffffffffffffffffffffffff04831182151516156142de576142dd6144c8565b5b828202905092915050565b60006142f482614387565b91506142ff83614387565b925082821015614312576143116144c8565b5b828203905092915050565b600061432882614367565b9050919050565b60008115159050919050565b60007fffffffff0000000000000000000000000000000000000000000000000000000082169050919050565b600073ffffffffffffffffffffffffffffffffffffffff82169050919050565b6000819050919050565b60006bffffffffffffffffffffffff82169050919050565b82818337600083830152505050565b60005b838110156143d65780820151818401526020810190506143bb565b838111156143e5576000848401525b50505050565b6000600282049050600182168061440357607f821691505b6020821081141561441757614416614526565b5b50919050565b614426826145c7565b810181811067ffffffffffffffff8211171561444557614444614584565b5b80604052505050565b600061445982614387565b91507fffffffffffffffffffffffffffffffffffffffffffffffffffffffffffffffff82141561448c5761448b6144c8565b5b600182019050919050565b60006144a282614387565b91506144ad83614387565b9250826144bd576144bc6144f7565b5b828206905092915050565b7f4e487b7100000000000000000000000000000000000000000000000000000000600052601160045260246000fd5b7f4e487b7100000000000000000000000000000000000000000000000000000000600052601260045260246000fd5b7f4e487b7100000000000000000000000000000000000000000000000000000000600052602260045260246000fd5b7f4e487b7100000000000000000000000000000000000000000000000000000000600052603260045260246000fd5b7f4e487b7100000000000000000000000000000000000000000000000000000000600052604160045260246000fd5b600080fd5b600080fd5b600080fd5b600080fd5b6000601f19601f8301169050919050565b7f4552433732313a207472616e7366657220746f206e6f6e20455243373231526560008201527f63656976657220696d706c656d656e7465720000000000000000000000000000602082015250565b7f4552433732313a207472616e736665722066726f6d20696e636f72726563742060008201527f6f776e6572000000000000000000000000000000000000000000000000000000602082015250565b7f4552433732313a20746f6b656e20616c7265616479206d696e74656400000000600082015250565b7f4552433732313a207472616e7366657220746f20746865207a65726f2061646460008201527f7265737300000000000000000000000000000000000000000000000000000000602082015250565b7f4552433732313a20617070726f766520746f2063616c6c657200000000000000600082015250565b7f4552433732313a2061646472657373207a65726f206973206e6f74206120766160008201527f6c6964206f776e65720000000000000000000000000000000000000000000000602082015250565b7f45524337323155524953746f726167653a2055524920736574206f66206e6f6e60008201527f6578697374656e7420746f6b656e000000000000000000000000000000000000602082015250565b7f4552433732313a20617070726f76652063616c6c6572206973206e6f7420746f60008201527f6b656e206f776e6572206e6f7220617070726f76656420666f7220616c6c0000602082015250565b7f4552433732313a206d696e7420746f20746865207a65726f2061646472657373600082015250565b7f4552433732313a20696e76616c696420746f6b656e2049440000000000000000600082015250565b7f4552433732313a20617070726f76616c20746f2063757272656e74206f776e6560008201527f7200000000000000000000000000000000000000000000000000000000000000602082015250565b50565b7f455243323938313a20496e76616c696420706172616d65746572730000000000600082015250565b7f455243323938313a20726f79616c7479206665652077696c6c2065786365656460008201527f2073616c65507269636500000000000000000000000000000000000000000000602082015250565b7f4552433732313a2063616c6c6572206973206e6f7420746f6b656e206f776e6560008201527f72206e6f7220617070726f766564000000000000000000000000000000000000602082015250565b7f5265656e7472616e637947756172643a207265656e7472616e742063616c6c00600082015250565b6149a18161431d565b81146149ac57600080fd5b50565b6149b88161432f565b81146149c357600080fd5b50565b6149cf8161433b565b81146149da57600080fd5b50565b6149e681614387565b81146149f157600080fd5b50565b6149fd81614391565b8114614a0857600080fd5b5056fea264697066735822122088bb4d7a2c36b9f177ce8482f7d415c3fc3e094bb049211255d5bbc63e371b2a64736f6c63430008070033",
  "devdoc": {
    "author": "Gabriel Antony Xaviour",
    "details": "ENeural NFTs are ERC2981 to provide",
    "events": {
      "ItemListed(address,uint256,uint256)": {
        "details": "Fired for indexing data using theGraph protocol (https://thegraph.com/docs/en/about/)"
      }
    },
    "kind": "dev",
    "methods": {
      "approve(address,uint256)": {
        "details": "See {IERC721-approve}."
      },
      "balanceOf(address)": {
        "details": "See {IERC721-balanceOf}."
      },
      "buyItem(uint256)": {
        "params": {
          "tokenId": "The ID of the NFT in the NFT contract"
        }
      },
      "cancelListing(uint256)": {
        "params": {
          "tokenId": "The ID of the NFT in the NFT contract"
        }
      },
      "getApproved(uint256)": {
        "details": "See {IERC721-getApproved}."
      },
      "isApprovedForAll(address,address)": {
        "details": "See {IERC721-isApprovedForAll}."
      },
      "listItem(uint256,uint256)": {
        "params": {
          "price": "The desired listing price by the seller",
          "tokenId": "The ID of the NFT in the NFT contract"
        }
      },
      "name()": {
        "details": "See {IERC721Metadata-name}."
      },
      "ownerOf(uint256)": {
        "details": "See {IERC721-ownerOf}."
      },
      "royaltyInfo(uint256,uint256)": {
        "details": "Returns how much royalty is owed and to whom, based on a sale price that may be denominated in any unit of exchange. The royalty amount is denominated and should be paid in that same unit of exchange."
      },
      "safeTransferFrom(address,address,uint256)": {
        "details": "See {IERC721-safeTransferFrom}."
      },
      "safeTransferFrom(address,address,uint256,bytes)": {
        "details": "See {IERC721-safeTransferFrom}."
      },
      "setApprovalForAll(address,bool)": {
        "details": "See {IERC721-setApprovalForAll}."
      },
      "symbol()": {
        "details": "See {IERC721Metadata-symbol}."
      },
      "tokenURI(uint256)": {
        "details": "See {IERC721Metadata-tokenURI}."
      },
      "transferFrom(address,address,uint256)": {
        "details": "See {IERC721-transferFrom}."
      },
      "updateListing(uint256,uint256)": {
        "params": {
          "newPrice": "The updated listing price proposed by the seller",
          "tokenId": "The ID of the NFT in the NFT contract"
        }
      },
      "withdrawProceeds()": {
        "details": "Reentrancy guard put into action preventing multiple calls to this function"
      }
    },
    "title": "NeuralNFTMarketplace",
    "version": 1
  },
  "userdoc": {
    "errors": {
      "NeuralNFTMarketplace__PriceMustBeAboveZero()": [
        {
          "notice": "Error Declarations"
        }
      ]
    },
    "kind": "user",
    "methods": {
      "PLATFORM_FEE()": {
        "notice": "2% of the sale of a NFT goes to the owner of the contract"
      },
      "buyItem(uint256)": {
        "notice": "Buys an NFT which is on sale in the marketplace"
      },
      "cancelListing(uint256)": {
        "notice": "Cancels a listing by the user in the marketplace"
      },
      "constructor": {
        "notice": "Initializes the marketplace and owner of the contract."
      },
      "listItem(uint256,uint256)": {
        "notice": "Lists an NFT for sale on the marketplace"
      },
      "setListFee(uint256)": {
        "notice": "Getters and Setters"
      },
      "updateListing(uint256,uint256)": {
        "notice": "Updates a listing by the user which is on sale in the marketplace"
      },
      "withdrawProceeds()": {
        "notice": "Withdraws the earnings made by the user in the marketplace"
      }
    },
    "notice": "A marketplace for NFTs with the sixth sense",
    "version": 1
  },
  "storageLayout": {
    "storage": [
      {
        "astId": 1228,
        "contract": "contracts/NeuralNFTMarketplace.sol:NeuralNFTMarketplace",
        "label": "_defaultRoyaltyInfo",
        "offset": 0,
        "slot": "0",
        "type": "t_struct(RoyaltyInfo)1225_storage"
      },
      {
        "astId": 1233,
        "contract": "contracts/NeuralNFTMarketplace.sol:NeuralNFTMarketplace",
        "label": "_tokenRoyaltyInfo",
        "offset": 0,
        "slot": "1",
        "type": "t_mapping(t_uint256,t_struct(RoyaltyInfo)1225_storage)"
      },
      {
        "astId": 84,
        "contract": "contracts/NeuralNFTMarketplace.sol:NeuralNFTMarketplace",
        "label": "_name",
        "offset": 0,
        "slot": "2",
        "type": "t_string_storage"
      },
      {
        "astId": 86,
        "contract": "contracts/NeuralNFTMarketplace.sol:NeuralNFTMarketplace",
        "label": "_symbol",
        "offset": 0,
        "slot": "3",
        "type": "t_string_storage"
      },
      {
        "astId": 90,
        "contract": "contracts/NeuralNFTMarketplace.sol:NeuralNFTMarketplace",
        "label": "_owners",
        "offset": 0,
        "slot": "4",
        "type": "t_mapping(t_uint256,t_address)"
      },
      {
        "astId": 94,
        "contract": "contracts/NeuralNFTMarketplace.sol:NeuralNFTMarketplace",
        "label": "_balances",
        "offset": 0,
        "slot": "5",
        "type": "t_mapping(t_address,t_uint256)"
      },
      {
        "astId": 98,
        "contract": "contracts/NeuralNFTMarketplace.sol:NeuralNFTMarketplace",
        "label": "_tokenApprovals",
        "offset": 0,
        "slot": "6",
        "type": "t_mapping(t_uint256,t_address)"
      },
      {
        "astId": 104,
        "contract": "contracts/NeuralNFTMarketplace.sol:NeuralNFTMarketplace",
        "label": "_operatorApprovals",
        "offset": 0,
        "slot": "7",
        "type": "t_mapping(t_address,t_mapping(t_address,t_bool))"
      },
      {
        "astId": 1072,
        "contract": "contracts/NeuralNFTMarketplace.sol:NeuralNFTMarketplace",
        "label": "_tokenURIs",
        "offset": 0,
        "slot": "8",
        "type": "t_mapping(t_uint256,t_string_storage)"
      },
      {
        "astId": 29,
        "contract": "contracts/NeuralNFTMarketplace.sol:NeuralNFTMarketplace",
        "label": "_status",
        "offset": 0,
        "slot": "9",
        "type": "t_uint256"
      },
      {
        "astId": 2123,
        "contract": "contracts/NeuralNFTMarketplace.sol:NeuralNFTMarketplace",
        "label": "_tokenIds",
        "offset": 0,
        "slot": "10",
        "type": "t_struct(Counter)1732_storage"
      },
      {
        "astId": 2139,
        "contract": "contracts/NeuralNFTMarketplace.sol:NeuralNFTMarketplace",
        "label": "s_listings",
        "offset": 0,
        "slot": "11",
        "type": "t_mapping(t_uint256,t_struct(Listing)2128_storage)"
      },
      {
        "astId": 2143,
        "contract": "contracts/NeuralNFTMarketplace.sol:NeuralNFTMarketplace",
        "label": "s_earnings",
        "offset": 0,
        "slot": "12",
        "type": "t_mapping(t_address,t_uint256)"
      },
      {
        "astId": 2147,
        "contract": "contracts/NeuralNFTMarketplace.sol:NeuralNFTMarketplace",
        "label": "s_creator",
        "offset": 0,
        "slot": "13",
        "type": "t_mapping(t_uint256,t_address)"
      },
      {
        "astId": 2150,
        "contract": "contracts/NeuralNFTMarketplace.sol:NeuralNFTMarketplace",
        "label": "s_list_fee",
        "offset": 0,
        "slot": "14",
        "type": "t_uint256"
      }
    ],
    "types": {
      "t_address": {
        "encoding": "inplace",
        "label": "address",
        "numberOfBytes": "20"
      },
      "t_bool": {
        "encoding": "inplace",
        "label": "bool",
        "numberOfBytes": "1"
      },
      "t_mapping(t_address,t_bool)": {
        "encoding": "mapping",
        "key": "t_address",
        "label": "mapping(address => bool)",
        "numberOfBytes": "32",
        "value": "t_bool"
      },
      "t_mapping(t_address,t_mapping(t_address,t_bool))": {
        "encoding": "mapping",
        "key": "t_address",
        "label": "mapping(address => mapping(address => bool))",
        "numberOfBytes": "32",
        "value": "t_mapping(t_address,t_bool)"
      },
      "t_mapping(t_address,t_uint256)": {
        "encoding": "mapping",
        "key": "t_address",
        "label": "mapping(address => uint256)",
        "numberOfBytes": "32",
        "value": "t_uint256"
      },
      "t_mapping(t_uint256,t_address)": {
        "encoding": "mapping",
        "key": "t_uint256",
        "label": "mapping(uint256 => address)",
        "numberOfBytes": "32",
        "value": "t_address"
      },
      "t_mapping(t_uint256,t_string_storage)": {
        "encoding": "mapping",
        "key": "t_uint256",
        "label": "mapping(uint256 => string)",
        "numberOfBytes": "32",
        "value": "t_string_storage"
      },
      "t_mapping(t_uint256,t_struct(Listing)2128_storage)": {
        "encoding": "mapping",
        "key": "t_uint256",
        "label": "mapping(uint256 => struct NeuralNFTMarketplace.Listing)",
        "numberOfBytes": "32",
        "value": "t_struct(Listing)2128_storage"
      },
      "t_mapping(t_uint256,t_struct(RoyaltyInfo)1225_storage)": {
        "encoding": "mapping",
        "key": "t_uint256",
        "label": "mapping(uint256 => struct ERC2981.RoyaltyInfo)",
        "numberOfBytes": "32",
        "value": "t_struct(RoyaltyInfo)1225_storage"
      },
      "t_string_storage": {
        "encoding": "bytes",
        "label": "string",
        "numberOfBytes": "32"
      },
      "t_struct(Counter)1732_storage": {
        "encoding": "inplace",
        "label": "struct Counters.Counter",
        "members": [
          {
            "astId": 1731,
            "contract": "contracts/NeuralNFTMarketplace.sol:NeuralNFTMarketplace",
            "label": "_value",
            "offset": 0,
            "slot": "0",
            "type": "t_uint256"
          }
        ],
        "numberOfBytes": "32"
      },
      "t_struct(Listing)2128_storage": {
        "encoding": "inplace",
        "label": "struct NeuralNFTMarketplace.Listing",
        "members": [
          {
            "astId": 2125,
            "contract": "contracts/NeuralNFTMarketplace.sol:NeuralNFTMarketplace",
            "label": "price",
            "offset": 0,
            "slot": "0",
            "type": "t_uint256"
          },
          {
            "astId": 2127,
            "contract": "contracts/NeuralNFTMarketplace.sol:NeuralNFTMarketplace",
            "label": "seller",
            "offset": 0,
            "slot": "1",
            "type": "t_address"
          }
        ],
        "numberOfBytes": "64"
      },
      "t_struct(RoyaltyInfo)1225_storage": {
        "encoding": "inplace",
        "label": "struct ERC2981.RoyaltyInfo",
        "members": [
          {
            "astId": 1222,
            "contract": "contracts/NeuralNFTMarketplace.sol:NeuralNFTMarketplace",
            "label": "receiver",
            "offset": 0,
            "slot": "0",
            "type": "t_address"
          },
          {
            "astId": 1224,
            "contract": "contracts/NeuralNFTMarketplace.sol:NeuralNFTMarketplace",
            "label": "royaltyFraction",
            "offset": 20,
            "slot": "0",
            "type": "t_uint96"
          }
        ],
        "numberOfBytes": "32"
      },
      "t_uint256": {
        "encoding": "inplace",
        "label": "uint256",
        "numberOfBytes": "32"
      },
      "t_uint96": {
        "encoding": "inplace",
        "label": "uint96",
        "numberOfBytes": "12"
      }
    }
  }
}