{
  "address": "0x094605EB62e5AF67b9b03f51f313C747C4c7dE66",
  "abi": [
    {
      "inputs": [],
      "stateMutability": "nonpayable",
      "type": "constructor"
    },
    {
      "inputs": [
        {
          "internalType": "uint256",
          "name": "tokenId",
          "type": "uint256"
        }
      ],
      "name": "NeuralNFTMarketplace__AlreadyListed",
      "type": "error"
    },
    {
      "inputs": [],
      "name": "NeuralNFTMarketplace__InsufficientFunds",
      "type": "error"
    },
    {
      "inputs": [],
      "name": "NeuralNFTMarketplace__NoProceeds",
      "type": "error"
    },
    {
      "inputs": [],
      "name": "NeuralNFTMarketplace__NotApprovedForMarketplace",
      "type": "error"
    },
    {
      "inputs": [
        {
          "internalType": "uint256",
          "name": "tokenId",
          "type": "uint256"
        },
        {
          "internalType": "address",
          "name": "caller",
          "type": "address"
        }
      ],
      "name": "NeuralNFTMarketplace__NotCreator",
      "type": "error"
    },
    {
      "inputs": [
        {
          "internalType": "uint256",
          "name": "tokenId",
          "type": "uint256"
        }
      ],
      "name": "NeuralNFTMarketplace__NotListed",
      "type": "error"
    },
    {
      "inputs": [],
      "name": "NeuralNFTMarketplace__NotOwner",
      "type": "error"
    },
    {
      "inputs": [],
      "name": "NeuralNFTMarketplace__PriceMustBeAboveZero",
      "type": "error"
    },
    {
      "inputs": [
        {
          "internalType": "uint256",
          "name": "tokenId",
          "type": "uint256"
        },
        {
          "internalType": "uint256",
          "name": "price",
          "type": "uint256"
        }
      ],
      "name": "NeuralNFTMarketplace__PriceNotMet",
      "type": "error"
    },
    {
      "inputs": [
        {
          "internalType": "uint96",
          "name": "",
          "type": "uint96"
        }
      ],
      "name": "NeuralNFTMarketplace__RoyaltyFeesTooHigh",
      "type": "error"
    },
    {
      "inputs": [],
      "name": "NeuralNFTMarketplace__TransferFailed",
      "type": "error"
    },
    {
      "anonymous": false,
      "inputs": [
        {
          "indexed": true,
          "internalType": "address",
          "name": "owner",
          "type": "address"
        },
        {
          "indexed": true,
          "internalType": "address",
          "name": "approved",
          "type": "address"
        },
        {
          "indexed": true,
          "internalType": "uint256",
          "name": "tokenId",
          "type": "uint256"
        }
      ],
      "name": "Approval",
      "type": "event"
    },
    {
      "anonymous": false,
      "inputs": [
        {
          "indexed": true,
          "internalType": "address",
          "name": "owner",
          "type": "address"
        },
        {
          "indexed": true,
          "internalType": "address",
          "name": "operator",
          "type": "address"
        },
        {
          "indexed": false,
          "internalType": "bool",
          "name": "approved",
          "type": "bool"
        }
      ],
      "name": "ApprovalForAll",
      "type": "event"
    },
    {
      "anonymous": false,
      "inputs": [
        {
          "indexed": true,
          "internalType": "address",
          "name": "buyer",
          "type": "address"
        },
        {
          "indexed": true,
          "internalType": "uint256",
          "name": "tokenId",
          "type": "uint256"
        },
        {
          "indexed": false,
          "internalType": "uint256",
          "name": "price",
          "type": "uint256"
        }
      ],
      "name": "ItemBought",
      "type": "event"
    },
    {
      "anonymous": false,
      "inputs": [
        {
          "indexed": true,
          "internalType": "address",
          "name": "seller",
          "type": "address"
        },
        {
          "indexed": true,
          "internalType": "uint256",
          "name": "tokenId",
          "type": "uint256"
        }
      ],
      "name": "ItemCancelled",
      "type": "event"
    },
    {
      "anonymous": false,
      "inputs": [
        {
          "indexed": true,
          "internalType": "address",
          "name": "seller",
          "type": "address"
        },
        {
          "indexed": true,
          "internalType": "uint256",
          "name": "tokenId",
          "type": "uint256"
        },
        {
          "indexed": false,
          "internalType": "uint256",
          "name": "price",
          "type": "uint256"
        }
      ],
      "name": "ItemListed",
      "type": "event"
    },
    {
      "anonymous": false,
      "inputs": [
        {
          "indexed": true,
          "internalType": "address",
          "name": "creator",
          "type": "address"
        },
        {
          "indexed": true,
          "internalType": "uint256",
          "name": "tokenId",
          "type": "uint256"
        },
        {
          "indexed": false,
          "internalType": "uint96",
          "name": "royaltyFees",
          "type": "uint96"
        }
      ],
      "name": "NewNftMinted",
      "type": "event"
    },
    {
      "anonymous": false,
      "inputs": [
        {
          "indexed": true,
          "internalType": "uint256",
          "name": "tokenId",
          "type": "uint256"
        },
        {
          "indexed": false,
          "internalType": "uint96",
          "name": "royaltyFees",
          "type": "uint96"
        }
      ],
      "name": "NftRoyaltyUpdated",
      "type": "event"
    },
    {
      "anonymous": false,
      "inputs": [
        {
          "indexed": true,
          "internalType": "address",
          "name": "from",
          "type": "address"
        },
        {
          "indexed": true,
          "internalType": "address",
          "name": "to",
          "type": "address"
        },
        {
          "indexed": true,
          "internalType": "uint256",
          "name": "tokenId",
          "type": "uint256"
        }
      ],
      "name": "Transfer",
      "type": "event"
    },
    {
      "stateMutability": "payable",
      "type": "fallback"
    },
    {
      "inputs": [],
      "name": "PLATFORM_FEE",
      "outputs": [
        {
          "internalType": "uint256",
          "name": "",
          "type": "uint256"
        }
      ],
      "stateMutability": "view",
      "type": "function"
    },
    {
      "inputs": [
        {
          "internalType": "address",
          "name": "to",
          "type": "address"
        },
        {
          "internalType": "uint256",
          "name": "tokenId",
          "type": "uint256"
        }
      ],
      "name": "approve",
      "outputs": [],
      "stateMutability": "nonpayable",
      "type": "function"
    },
    {
      "inputs": [
        {
          "internalType": "address",
          "name": "owner",
          "type": "address"
        }
      ],
      "name": "balanceOf",
      "outputs": [
        {
          "internalType": "uint256",
          "name": "",
          "type": "uint256"
        }
      ],
      "stateMutability": "view",
      "type": "function"
    },
    {
      "inputs": [
        {
          "internalType": "uint256",
          "name": "tokenId",
          "type": "uint256"
        }
      ],
      "name": "buyItem",
      "outputs": [],
      "stateMutability": "payable",
      "type": "function"
    },
    {
      "inputs": [
        {
          "internalType": "uint256",
          "name": "tokenId",
          "type": "uint256"
        }
      ],
      "name": "cancelListing",
      "outputs": [],
      "stateMutability": "nonpayable",
      "type": "function"
    },
    {
      "inputs": [
        {
          "internalType": "uint256",
          "name": "tokenId",
          "type": "uint256"
        }
      ],
      "name": "getApproved",
      "outputs": [
        {
          "internalType": "address",
          "name": "",
          "type": "address"
        }
      ],
      "stateMutability": "view",
      "type": "function"
    },
    {
      "inputs": [
        {
          "internalType": "uint256",
          "name": "tokenId",
          "type": "uint256"
        }
      ],
      "name": "getCreator",
      "outputs": [
        {
          "internalType": "address",
          "name": "",
          "type": "address"
        }
      ],
      "stateMutability": "view",
      "type": "function"
    },
    {
      "inputs": [],
      "name": "getEarnings",
      "outputs": [
        {
          "internalType": "uint256",
          "name": "",
          "type": "uint256"
        }
      ],
      "stateMutability": "view",
      "type": "function"
    },
    {
      "inputs": [],
      "name": "getListFee",
      "outputs": [
        {
          "internalType": "uint256",
          "name": "",
          "type": "uint256"
        }
      ],
      "stateMutability": "view",
      "type": "function"
    },
    {
      "inputs": [
        {
          "internalType": "uint256",
          "name": "tokenId",
          "type": "uint256"
        }
      ],
      "name": "getListing",
      "outputs": [
        {
          "components": [
            {
              "internalType": "uint256",
              "name": "price",
              "type": "uint256"
            },
            {
              "internalType": "address",
              "name": "seller",
              "type": "address"
            }
          ],
          "internalType": "struct NeuralNFTMarketplace.Listing",
          "name": "",
          "type": "tuple"
        }
      ],
      "stateMutability": "view",
      "type": "function"
    },
    {
      "inputs": [],
      "name": "getPlatformFee",
      "outputs": [
        {
          "internalType": "uint256",
          "name": "",
          "type": "uint256"
        }
      ],
      "stateMutability": "pure",
      "type": "function"
    },
    {
      "inputs": [
        {
          "internalType": "address",
          "name": "owner",
          "type": "address"
        },
        {
          "internalType": "address",
          "name": "operator",
          "type": "address"
        }
      ],
      "name": "isApprovedForAll",
      "outputs": [
        {
          "internalType": "bool",
          "name": "",
          "type": "bool"
        }
      ],
      "stateMutability": "view",
      "type": "function"
    },
    {
      "inputs": [
        {
          "internalType": "uint256",
          "name": "tokenId",
          "type": "uint256"
        },
        {
          "internalType": "uint256",
          "name": "price",
          "type": "uint256"
        }
      ],
      "name": "listItem",
      "outputs": [],
      "stateMutability": "payable",
      "type": "function"
    },
    {
      "inputs": [
        {
          "internalType": "string",
          "name": "nftURI",
          "type": "string"
        },
        {
          "internalType": "address",
          "name": "royaltyReceiver",
          "type": "address"
        },
        {
          "internalType": "uint96",
          "name": "_royaltyFeesInBips",
          "type": "uint96"
        }
      ],
      "name": "mintNft",
      "outputs": [
        {
          "internalType": "uint256",
          "name": "newItemId",
          "type": "uint256"
        }
      ],
      "stateMutability": "nonpayable",
      "type": "function"
    },
    {
      "inputs": [],
      "name": "name",
      "outputs": [
        {
          "internalType": "string",
          "name": "",
          "type": "string"
        }
      ],
      "stateMutability": "view",
      "type": "function"
    },
    {
      "inputs": [
        {
          "internalType": "uint256",
          "name": "tokenId",
          "type": "uint256"
        }
      ],
      "name": "ownerOf",
      "outputs": [
        {
          "internalType": "address",
          "name": "",
          "type": "address"
        }
      ],
      "stateMutability": "view",
      "type": "function"
    },
    {
      "inputs": [
        {
          "internalType": "uint256",
          "name": "_tokenId",
          "type": "uint256"
        },
        {
          "internalType": "uint256",
          "name": "_salePrice",
          "type": "uint256"
        }
      ],
      "name": "royaltyInfo",
      "outputs": [
        {
          "internalType": "address",
          "name": "",
          "type": "address"
        },
        {
          "internalType": "uint256",
          "name": "",
          "type": "uint256"
        }
      ],
      "stateMutability": "view",
      "type": "function"
    },
    {
      "inputs": [],
      "name": "s_list_fee",
      "outputs": [
        {
          "internalType": "uint256",
          "name": "",
          "type": "uint256"
        }
      ],
      "stateMutability": "view",
      "type": "function"
    },
    {
      "inputs": [
        {
          "internalType": "address",
          "name": "from",
          "type": "address"
        },
        {
          "internalType": "address",
          "name": "to",
          "type": "address"
        },
        {
          "internalType": "uint256",
          "name": "tokenId",
          "type": "uint256"
        }
      ],
      "name": "safeTransferFrom",
      "outputs": [],
      "stateMutability": "nonpayable",
      "type": "function"
    },
    {
      "inputs": [
        {
          "internalType": "address",
          "name": "from",
          "type": "address"
        },
        {
          "internalType": "address",
          "name": "to",
          "type": "address"
        },
        {
          "internalType": "uint256",
          "name": "tokenId",
          "type": "uint256"
        },
        {
          "internalType": "bytes",
          "name": "data",
          "type": "bytes"
        }
      ],
      "name": "safeTransferFrom",
      "outputs": [],
      "stateMutability": "nonpayable",
      "type": "function"
    },
    {
      "inputs": [
        {
          "internalType": "address",
          "name": "operator",
          "type": "address"
        },
        {
          "internalType": "bool",
          "name": "approved",
          "type": "bool"
        }
      ],
      "name": "setApprovalForAll",
      "outputs": [],
      "stateMutability": "nonpayable",
      "type": "function"
    },
    {
      "inputs": [
        {
          "internalType": "uint256",
          "name": "newListFee",
          "type": "uint256"
        }
      ],
      "name": "setListFee",
      "outputs": [],
      "stateMutability": "nonpayable",
      "type": "function"
    },
    {
      "inputs": [
        {
          "internalType": "uint256",
          "name": "_tokenId",
          "type": "uint256"
        },
        {
          "internalType": "address",
          "name": "_receiver",
          "type": "address"
        },
        {
          "internalType": "uint96",
          "name": "_royaltyFeesInBips",
          "type": "uint96"
        }
      ],
      "name": "setRoyaltyInfo",
      "outputs": [],
      "stateMutability": "nonpayable",
      "type": "function"
    },
    {
      "inputs": [
        {
          "internalType": "bytes4",
          "name": "interfaceId",
          "type": "bytes4"
        }
      ],
      "name": "supportsInterface",
      "outputs": [
        {
          "internalType": "bool",
          "name": "",
          "type": "bool"
        }
      ],
      "stateMutability": "view",
      "type": "function"
    },
    {
      "inputs": [],
      "name": "symbol",
      "outputs": [
        {
          "internalType": "string",
          "name": "",
          "type": "string"
        }
      ],
      "stateMutability": "view",
      "type": "function"
    },
    {
      "inputs": [
        {
          "internalType": "uint256",
          "name": "tokenId",
          "type": "uint256"
        }
      ],
      "name": "tokenURI",
      "outputs": [
        {
          "internalType": "string",
          "name": "",
          "type": "string"
        }
      ],
      "stateMutability": "view",
      "type": "function"
    },
    {
      "inputs": [
        {
          "internalType": "address",
          "name": "from",
          "type": "address"
        },
        {
          "internalType": "address",
          "name": "to",
          "type": "address"
        },
        {
          "internalType": "uint256",
          "name": "tokenId",
          "type": "uint256"
        }
      ],
      "name": "transferFrom",
      "outputs": [],
      "stateMutability": "nonpayable",
      "type": "function"
    },
    {
      "inputs": [
        {
          "internalType": "uint256",
          "name": "tokenId",
          "type": "uint256"
        },
        {
          "internalType": "uint256",
          "name": "newPrice",
          "type": "uint256"
        }
      ],
      "name": "updateListing",
      "outputs": [],
      "stateMutability": "payable",
      "type": "function"
    },
    {
      "inputs": [],
      "name": "withdrawProceeds",
      "outputs": [],
      "stateMutability": "nonpayable",
      "type": "function"
    },
    {
      "stateMutability": "payable",
      "type": "receive"
    }
  ],
  "transactionHash": "0x8c7bfb2b5adf550d5afbdab5deba25e8f4323d8bb9c763e4ec3809887888c007",
  "args": [],
  "numDeployments": 2,
  "solcInputHash": "3c49a7d911e0cba8773e06c56b8c7171",
  "bytecode": "0x60a060405266038d7ea4c68000600e553480156200001c57600080fd5b506040518060400160405280600981526020017f4e657572616c4e465400000000000000000000000000000000000000000000008152506040518060400160405280600481526020017f4e4e4654000000000000000000000000000000000000000000000000000000008152508160029080519060200190620000a192919062000102565b508060039080519060200190620000ba92919062000102565b50505060016009819055503373ffffffffffffffffffffffffffffffffffffffff1660808173ffffffffffffffffffffffffffffffffffffffff1660601b8152505062000217565b8280546200011090620001b2565b90600052602060002090601f01602090048101928262000134576000855562000180565b82601f106200014f57805160ff191683800117855562000180565b8280016001018555821562000180579182015b828111156200017f57825182559160200191906001019062000162565b5b5090506200018f919062000193565b5090565b5b80821115620001ae57600081600090555060010162000194565b5090565b60006002820490506001821680620001cb57607f821691505b60208210811415620001e257620001e1620001e8565b5b50919050565b7f4e487b7100000000000000000000000000000000000000000000000000000000600052602260045260246000fd5b60805160601c614c6262000259600039600081816101d20152818161024a01528181610a0401528181610dbc015281816117f701526122070152614c626000f3fe6080604052600436106101c65760003560e01c80636ea8bc10116100f7578063a22cb46511610095578063d48e638a11610064578063d48e638a1461073d578063e7fb74c71461077a578063e985e9c514610796578063fb513492146107d357610243565b8063a22cb46514610683578063b88d4fde146106ac578063c379f647146106d5578063c87b56dd1461070057610243565b80639038e693116100d15780639038e693146105d957806390666232146105f057806395d89b411461061b5780639ed19d801461064657610243565b80636ea8bc101461055557806370a0823114610580578063883efa67146105bd57610243565b80631d04886011610164578063305a67a81161013e578063305a67a81461049b57806334fbc9a1146104c457806342842e0e146104ef5780636352211e1461051857610243565b80631d0488601461040b57806323b872dd146104345780632a55205a1461045d57610243565b8063081812fc116101a0578063081812fc1461033f578063095ea7b31461037c578063107a274a146103a55780631495fa99146103e257610243565b80630179ea88146102bb57806301ffc9a7146102d757806306fdde031461031457610243565b366102435734600c60007f000000000000000000000000000000000000000000000000000000000000000073ffffffffffffffffffffffffffffffffffffffff1673ffffffffffffffffffffffffffffffffffffffff168152602001908152602001600020600082825461023a9190614429565b92505081905550005b34600c60007f000000000000000000000000000000000000000000000000000000000000000073ffffffffffffffffffffffffffffffffffffffff1673ffffffffffffffffffffffffffffffffffffffff16815260200190815260200160002060008282546102b29190614429565b92505081905550005b6102d560048036038101906102d09190613bf8565b6107fe565b005b3480156102e357600080fd5b506102fe60048036038101906102f99190613aaf565b610aed565b60405161030b9190614094565b60405180910390f35b34801561032057600080fd5b50610329610aff565b60405161033691906140af565b60405180910390f35b34801561034b57600080fd5b5061036660048036038101906103619190613b78565b610b91565b6040516103739190613fcd565b60405180910390f35b34801561038857600080fd5b506103a3600480360381019061039e9190613a6f565b610bd7565b005b3480156103b157600080fd5b506103cc60048036038101906103c79190613b78565b610be5565b6040516103d991906142b1565b60405180910390f35b3480156103ee57600080fd5b5061040960048036038101906104049190613ba5565b610c72565b005b34801561041757600080fd5b50610432600480360381019061042d9190613b78565b610dba565b005b34801561044057600080fd5b5061045b60048036038101906104569190613959565b610e49565b005b34801561046957600080fd5b50610484600480360381019061047f9190613bf8565b610f2a565b60405161049292919061406b565b60405180910390f35b3480156104a757600080fd5b506104c260048036038101906104bd9190613b78565b611115565b005b3480156104d057600080fd5b506104d9611336565b6040516104e691906142cc565b60405180910390f35b3480156104fb57600080fd5b5061051660048036038101906105119190613959565b61133b565b005b34801561052457600080fd5b5061053f600480360381019061053a9190613b78565b611453565b60405161054c9190613fcd565b60405180910390f35b34801561056157600080fd5b5061056a611505565b60405161057791906142cc565b60405180910390f35b34801561058c57600080fd5b506105a760048036038101906105a291906138ec565b61150e565b6040516105b491906142cc565b60405180910390f35b6105d760048036038101906105d29190613bf8565b6115c6565b005b3480156105e557600080fd5b506105ee611950565b005b3480156105fc57600080fd5b50610605611b10565b60405161061291906142cc565b60405180910390f35b34801561062757600080fd5b50610630611b57565b60405161063d91906140af565b60405180910390f35b34801561065257600080fd5b5061066d60048036038101906106689190613b09565b611be9565b60405161067a91906142cc565b60405180910390f35b34801561068f57600080fd5b506106aa60048036038101906106a59190613a2f565b611d75565b005b3480156106b857600080fd5b506106d360048036038101906106ce91906139ac565b611d8b565b005b3480156106e157600080fd5b506106ea611ded565b6040516106f791906142cc565b60405180910390f35b34801561070c57600080fd5b5061072760048036038101906107229190613b78565b611df3565b60405161073491906140af565b60405180910390f35b34801561074957600080fd5b50610764600480360381019061075f9190613b78565b611f06565b6040516107719190613fcd565b60405180910390f35b610794600480360381019061078f9190613b78565b611f43565b005b3480156107a257600080fd5b506107bd60048036038101906107b89190613919565b61238f565b6040516107ca9190614094565b60405180910390f35b3480156107df57600080fd5b506107e8612423565b6040516107f591906142cc565b60405180910390f35b813361080982611453565b73ffffffffffffffffffffffffffffffffffffffff168173ffffffffffffffffffffffffffffffffffffffff161461086d576040517f2ac3f91100000000000000000000000000000000000000000000000000000000815260040160405180910390fd5b836000600b6000838152602001908152602001600020604051806040016040529081600082015481526020016001820160009054906101000a900473ffffffffffffffffffffffffffffffffffffffff1673ffffffffffffffffffffffffffffffffffffffff1673ffffffffffffffffffffffffffffffffffffffff16815250509050600081600001511161093957816040517fdb363db800000000000000000000000000000000000000000000000000000000815260040161093091906142cc565b60405180910390fd5b6002600954141561097f576040517f08c379a000000000000000000000000000000000000000000000000000000000815260040161097690614291565b60405180910390fd5b6002600981905550600e543410156109c3576040517fade20f9200000000000000000000000000000000000000000000000000000000815260040160405180910390fd5b600085116109fd576040517ff1c64ea600000000000000000000000000000000000000000000000000000000815260040160405180910390fd5b34600c60007f000000000000000000000000000000000000000000000000000000000000000073ffffffffffffffffffffffffffffffffffffffff1673ffffffffffffffffffffffffffffffffffffffff1681526020019081526020016000206000828254610a6c9190614429565b9250508190555084600b600088815260200190815260200160002060000181905550853373ffffffffffffffffffffffffffffffffffffffff167f94e7b934c857a9e3202e8ed9c1f3f96e396b7d2b5885930d2001abcb51ff58fa87604051610ad591906142cc565b60405180910390a36001600981905550505050505050565b6000610af88261242d565b9050919050565b606060028054610b0e9061460c565b80601f0160208091040260200160405190810160405280929190818152602001828054610b3a9061460c565b8015610b875780601f10610b5c57610100808354040283529160200191610b87565b820191906000526020600020905b815481529060010190602001808311610b6a57829003601f168201915b5050505050905090565b6000610b9c8261250f565b6006600083815260200190815260200160002060009054906101000a900473ffffffffffffffffffffffffffffffffffffffff169050919050565b610be1828261255a565b5050565b610bed6136bb565b600b6000838152602001908152602001600020604051806040016040529081600082015481526020016001820160009054906101000a900473ffffffffffffffffffffffffffffffffffffffff1673ffffffffffffffffffffffffffffffffffffffff1673ffffffffffffffffffffffffffffffffffffffff16815250509050919050565b806107d0816bffffffffffffffffffffffff161115610cc857806040517f05a79cda000000000000000000000000000000000000000000000000000000008152600401610cbf9190614339565b60405180910390fd5b83338073ffffffffffffffffffffffffffffffffffffffff16600d600084815260200190815260200160002060009054906101000a900473ffffffffffffffffffffffffffffffffffffffff1673ffffffffffffffffffffffffffffffffffffffff1614610d6f5781816040517fee3671ac000000000000000000000000000000000000000000000000000000008152600401610d669291906142e7565b60405180910390fd5b610d7a868686612672565b857f51a561a62c793496a64ccae0329d6a4a31b3b2107025e3d0770a06b6188f506385604051610daa9190614339565b60405180910390a2505050505050565b7f000000000000000000000000000000000000000000000000000000000000000073ffffffffffffffffffffffffffffffffffffffff163373ffffffffffffffffffffffffffffffffffffffff1614610e3f576040517f2ac3f91100000000000000000000000000000000000000000000000000000000815260040160405180910390fd5b80600e8190555050565b80836000600b6000848152602001908152602001600020604051806040016040529081600082015481526020016001820160009054906101000a900473ffffffffffffffffffffffffffffffffffffffff1673ffffffffffffffffffffffffffffffffffffffff1673ffffffffffffffffffffffffffffffffffffffff16815250509050600081600001511115610f1757826040517fe000ca91000000000000000000000000000000000000000000000000000000008152600401610f0e91906142cc565b60405180910390fd5b610f2286868661281a565b505050505050565b6000806000600160008681526020019081526020016000206040518060400160405290816000820160009054906101000a900473ffffffffffffffffffffffffffffffffffffffff1673ffffffffffffffffffffffffffffffffffffffff1673ffffffffffffffffffffffffffffffffffffffff1681526020016000820160149054906101000a90046bffffffffffffffffffffffff166bffffffffffffffffffffffff166bffffffffffffffffffffffff16815250509050600073ffffffffffffffffffffffffffffffffffffffff16816000015173ffffffffffffffffffffffffffffffffffffffff1614156110c05760006040518060400160405290816000820160009054906101000a900473ffffffffffffffffffffffffffffffffffffffff1673ffffffffffffffffffffffffffffffffffffffff1673ffffffffffffffffffffffffffffffffffffffff1681526020016000820160149054906101000a90046bffffffffffffffffffffffff166bffffffffffffffffffffffff166bffffffffffffffffffffffff168152505090505b60006110ca61287a565b6bffffffffffffffffffffffff1682602001516bffffffffffffffffffffffff16866110f691906144b0565b611100919061447f565b90508160000151819350935050509250929050565b803361112082611453565b73ffffffffffffffffffffffffffffffffffffffff168173ffffffffffffffffffffffffffffffffffffffff1614611184576040517f2ac3f91100000000000000000000000000000000000000000000000000000000815260040160405180910390fd5b826000600b6000838152602001908152602001600020604051806040016040529081600082015481526020016001820160009054906101000a900473ffffffffffffffffffffffffffffffffffffffff1673ffffffffffffffffffffffffffffffffffffffff1673ffffffffffffffffffffffffffffffffffffffff16815250509050600081600001511161125057816040517fdb363db800000000000000000000000000000000000000000000000000000000815260040161124791906142cc565b60405180910390fd5b60026009541415611296576040517f08c379a000000000000000000000000000000000000000000000000000000000815260040161128d90614291565b60405180910390fd5b6002600981905550600b60008681526020019081526020016000206000808201600090556001820160006101000a81549073ffffffffffffffffffffffffffffffffffffffff02191690555050843373ffffffffffffffffffffffffffffffffffffffff167f6be0c8480cb6f0bffcd4a654fb162c986ba528d5ff0e743ee21b1fc900fa264f60405160405180910390a360016009819055505050505050565b600281565b80836000600b6000848152602001908152602001600020604051806040016040529081600082015481526020016001820160009054906101000a900473ffffffffffffffffffffffffffffffffffffffff1673ffffffffffffffffffffffffffffffffffffffff1673ffffffffffffffffffffffffffffffffffffffff1681525050905060008160000151111561140957826040517fe000ca9100000000000000000000000000000000000000000000000000000000815260040161140091906142cc565b60405180910390fd5b6114403073ffffffffffffffffffffffffffffffffffffffff163373ffffffffffffffffffffffffffffffffffffffff1614612884565b61144b86868661281a565b505050505050565b6000806004600084815260200190815260200160002060009054906101000a900473ffffffffffffffffffffffffffffffffffffffff169050600073ffffffffffffffffffffffffffffffffffffffff168173ffffffffffffffffffffffffffffffffffffffff1614156114fc576040517f08c379a00000000000000000000000000000000000000000000000000000000081526004016114f3906141f1565b60405180910390fd5b80915050919050565b60006002905090565b60008073ffffffffffffffffffffffffffffffffffffffff168273ffffffffffffffffffffffffffffffffffffffff16141561157f576040517f08c379a000000000000000000000000000000000000000000000000000000000815260040161157690614171565b60405180910390fd5b600560008373ffffffffffffffffffffffffffffffffffffffff1673ffffffffffffffffffffffffffffffffffffffff168152602001908152602001600020549050919050565b81336000600b6000848152602001908152602001600020604051806040016040529081600082015481526020016001820160009054906101000a900473ffffffffffffffffffffffffffffffffffffffff1673ffffffffffffffffffffffffffffffffffffffff1673ffffffffffffffffffffffffffffffffffffffff1681525050905060008160000151111561169457826040517fe000ca9100000000000000000000000000000000000000000000000000000000815260040161168b91906142cc565b60405180910390fd5b843361169f82611453565b73ffffffffffffffffffffffffffffffffffffffff168173ffffffffffffffffffffffffffffffffffffffff1614611703576040517f2ac3f91100000000000000000000000000000000000000000000000000000000815260040160405180910390fd5b600e5434101561173f576040517fade20f9200000000000000000000000000000000000000000000000000000000815260040160405180910390fd5b60008611611779576040517ff1c64ea600000000000000000000000000000000000000000000000000000000815260040160405180910390fd5b6117833088610bd7565b3073ffffffffffffffffffffffffffffffffffffffff166117a388610b91565b73ffffffffffffffffffffffffffffffffffffffff16146117f0576040517f913365f800000000000000000000000000000000000000000000000000000000815260040160405180910390fd5b34600c60007f000000000000000000000000000000000000000000000000000000000000000073ffffffffffffffffffffffffffffffffffffffff1673ffffffffffffffffffffffffffffffffffffffff168152602001908152602001600020600082825461185f9190614429565b9250508190555060405180604001604052808781526020013373ffffffffffffffffffffffffffffffffffffffff16815250600b60008981526020019081526020016000206000820151816000015560208201518160010160006101000a81548173ffffffffffffffffffffffffffffffffffffffff021916908373ffffffffffffffffffffffffffffffffffffffff160217905550905050863373ffffffffffffffffffffffffffffffffffffffff167f94e7b934c857a9e3202e8ed9c1f3f96e396b7d2b5885930d2001abcb51ff58fa8860405161193f91906142cc565b60405180910390a350505050505050565b60026009541415611996576040517f08c379a000000000000000000000000000000000000000000000000000000000815260040161198d90614291565b60405180910390fd5b60026009819055506000600c60003373ffffffffffffffffffffffffffffffffffffffff1673ffffffffffffffffffffffffffffffffffffffff16815260200190815260200160002054905060008111611a1c576040517f22be094a00000000000000000000000000000000000000000000000000000000815260040160405180910390fd5b6000600c60003373ffffffffffffffffffffffffffffffffffffffff1673ffffffffffffffffffffffffffffffffffffffff1681526020019081526020016000208190555060003373ffffffffffffffffffffffffffffffffffffffff1682604051611a8790613fb8565b60006040518083038185875af1925050503d8060008114611ac4576040519150601f19603f3d011682016040523d82523d6000602084013e611ac9565b606091505b5050905080611b04576040517f1413ec4b00000000000000000000000000000000000000000000000000000000815260040160405180910390fd5b50506001600981905550565b6000600c60003373ffffffffffffffffffffffffffffffffffffffff1673ffffffffffffffffffffffffffffffffffffffff16815260200190815260200160002054905090565b606060038054611b669061460c565b80601f0160208091040260200160405190810160405280929190818152602001828054611b929061460c565b8015611bdf5780601f10611bb457610100808354040283529160200191611bdf565b820191906000526020600020905b815481529060010190602001808311611bc257829003601f168201915b5050505050905090565b6000816107d0816bffffffffffffffffffffffff161115611c4157806040517f05a79cda000000000000000000000000000000000000000000000000000000008152600401611c389190614339565b60405180910390fd5b60026009541415611c87576040517f08c379a0000000000000000000000000000000000000000000000000000000008152600401611c7e90614291565b60405180910390fd5b6002600981905550611c99600a61291d565b9150611ca5338361292b565b611cb0828585612672565b611cba8286612949565b33600d600084815260200190815260200160002060006101000a81548173ffffffffffffffffffffffffffffffffffffffff021916908373ffffffffffffffffffffffffffffffffffffffff160217905550611d16600a6129bd565b813373ffffffffffffffffffffffffffffffffffffffff167fd3d96b5226b0f7dc725f612a664675b5e04ef0727b38f7f6b22c5f2398ca707985604051611d5d9190614339565b60405180910390a36001600981905550509392505050565b611d87611d806129d3565b83836129db565b5050565b611d9c611d966129d3565b83612b48565b611ddb576040517f08c379a0000000000000000000000000000000000000000000000000000000008152600401611dd290614271565b60405180910390fd5b611de784848484612bdd565b50505050565b600e5481565b6060611dfe8261250f565b6000600860008481526020019081526020016000208054611e1e9061460c565b80601f0160208091040260200160405190810160405280929190818152602001828054611e4a9061460c565b8015611e975780601f10611e6c57610100808354040283529160200191611e97565b820191906000526020600020905b815481529060010190602001808311611e7a57829003601f168201915b505050505090506000611ea8612c39565b9050600081511415611ebe578192505050611f01565b600082511115611ef3578082604051602001611edb929190613f94565b60405160208183030381529060405292505050611f01565b611efc84612c50565b925050505b919050565b6000600d600083815260200190815260200160002060009054906101000a900473ffffffffffffffffffffffffffffffffffffffff169050919050565b806000600b6000838152602001908152602001600020604051806040016040529081600082015481526020016001820160009054906101000a900473ffffffffffffffffffffffffffffffffffffffff1673ffffffffffffffffffffffffffffffffffffffff1673ffffffffffffffffffffffffffffffffffffffff16815250509050600081600001511161200f57816040517fdb363db800000000000000000000000000000000000000000000000000000000815260040161200691906142cc565b60405180910390fd5b60026009541415612055576040517f08c379a000000000000000000000000000000000000000000000000000000000815260040161204c90614291565b60405180910390fd5b60026009819055506000600b6000858152602001908152602001600020604051806040016040529081600082015481526020016001820160009054906101000a900473ffffffffffffffffffffffffffffffffffffffff1673ffffffffffffffffffffffffffffffffffffffff1673ffffffffffffffffffffffffffffffffffffffff16815250509050806000015134101561212e578381600001516040517f8eb7b75f000000000000000000000000000000000000000000000000000000008152600401612125929190614310565b60405180910390fd5b60646002606461213e919061450a565b3461214991906144b0565b612153919061447f565b600c6000836020015173ffffffffffffffffffffffffffffffffffffffff1673ffffffffffffffffffffffffffffffffffffffff168152602001908152602001600020546121a19190614429565b600c6000836020015173ffffffffffffffffffffffffffffffffffffffff1673ffffffffffffffffffffffffffffffffffffffff1681526020019081526020016000208190555060646002346121f791906144b0565b612201919061447f565b600c60007f000000000000000000000000000000000000000000000000000000000000000073ffffffffffffffffffffffffffffffffffffffff1673ffffffffffffffffffffffffffffffffffffffff168152602001908152602001600020600082825461226f9190614429565b92505081905550600b60008581526020019081526020016000206000808201600090556001820160006101000a81549073ffffffffffffffffffffffffffffffffffffffff021916905550503073ffffffffffffffffffffffffffffffffffffffff166342842e0e826020015133876040518463ffffffff1660e01b81526004016122fc93929190613fe8565b600060405180830381600087803b15801561231657600080fd5b505af115801561232a573d6000803e3d6000fd5b50505050833373ffffffffffffffffffffffffffffffffffffffff167ffe2094c9ff56716cb07edf0cff82da158f346cb3bb2d89703228ab4eb0c329b6836000015160405161237991906142cc565b60405180910390a3506001600981905550505050565b6000600760008473ffffffffffffffffffffffffffffffffffffffff1673ffffffffffffffffffffffffffffffffffffffff16815260200190815260200160002060008373ffffffffffffffffffffffffffffffffffffffff1673ffffffffffffffffffffffffffffffffffffffff16815260200190815260200160002060009054906101000a900460ff16905092915050565b6000600e54905090565b60007f80ac58cd000000000000000000000000000000000000000000000000000000007bffffffffffffffffffffffffffffffffffffffffffffffffffffffff1916827bffffffffffffffffffffffffffffffffffffffffffffffffffffffff191614806124f857507f5b5e139f000000000000000000000000000000000000000000000000000000007bffffffffffffffffffffffffffffffffffffffffffffffffffffffff1916827bffffffffffffffffffffffffffffffffffffffffffffffffffffffff1916145b80612508575061250782612cb8565b5b9050919050565b61251881612d32565b612557576040517f08c379a000000000000000000000000000000000000000000000000000000000815260040161254e906141f1565b60405180910390fd5b50565b600061256582611453565b90508073ffffffffffffffffffffffffffffffffffffffff168373ffffffffffffffffffffffffffffffffffffffff1614156125d6576040517f08c379a00000000000000000000000000000000000000000000000000000000081526004016125cd90614211565b60405180910390fd5b8073ffffffffffffffffffffffffffffffffffffffff166125f56129d3565b73ffffffffffffffffffffffffffffffffffffffff16148061262457506126238161261e6129d3565b61238f565b5b612663576040517f08c379a000000000000000000000000000000000000000000000000000000000815260040161265a906141b1565b60405180910390fd5b61266d8383612d9e565b505050565b61267a61287a565b6bffffffffffffffffffffffff16816bffffffffffffffffffffffff1611156126d8576040517f08c379a00000000000000000000000000000000000000000000000000000000081526004016126cf90614251565b60405180910390fd5b600073ffffffffffffffffffffffffffffffffffffffff168273ffffffffffffffffffffffffffffffffffffffff161415612748576040517f08c379a000000000000000000000000000000000000000000000000000000000815260040161273f90614231565b60405180910390fd5b60405180604001604052808373ffffffffffffffffffffffffffffffffffffffff168152602001826bffffffffffffffffffffffff168152506001600085815260200190815260200160002060008201518160000160006101000a81548173ffffffffffffffffffffffffffffffffffffffff021916908373ffffffffffffffffffffffffffffffffffffffff16021790555060208201518160000160146101000a8154816bffffffffffffffffffffffff02191690836bffffffffffffffffffffffff160217905550905050505050565b61282b6128256129d3565b82612b48565b61286a576040517f08c379a000000000000000000000000000000000000000000000000000000000815260040161286190614271565b60405180910390fd5b612875838383612e57565b505050565b6000612710905090565b61291a816040516024016128989190614094565b6040516020818303038152906040527f32458eed000000000000000000000000000000000000000000000000000000007bffffffffffffffffffffffffffffffffffffffffffffffffffffffff19166020820180517bffffffffffffffffffffffffffffffffffffffffffffffffffffffff83818316178352505050506130be565b50565b600081600001549050919050565b6129458282604051806020016040528060008152506130e7565b5050565b61295282612d32565b612991576040517f08c379a000000000000000000000000000000000000000000000000000000000815260040161298890614191565b60405180910390fd5b806008600084815260200190815260200160002090805190602001906129b89291906136eb565b505050565b6001816000016000828254019250508190555050565b600033905090565b8173ffffffffffffffffffffffffffffffffffffffff168373ffffffffffffffffffffffffffffffffffffffff161415612a4a576040517f08c379a0000000000000000000000000000000000000000000000000000000008152600401612a4190614151565b60405180910390fd5b80600760008573ffffffffffffffffffffffffffffffffffffffff1673ffffffffffffffffffffffffffffffffffffffff16815260200190815260200160002060008473ffffffffffffffffffffffffffffffffffffffff1673ffffffffffffffffffffffffffffffffffffffff16815260200190815260200160002060006101000a81548160ff0219169083151502179055508173ffffffffffffffffffffffffffffffffffffffff168373ffffffffffffffffffffffffffffffffffffffff167f17307eab39ab6107e8899845ad3d59bd9653f200f220920489ca2b5937696c3183604051612b3b9190614094565b60405180910390a3505050565b600080612b5483611453565b90508073ffffffffffffffffffffffffffffffffffffffff168473ffffffffffffffffffffffffffffffffffffffff161480612b965750612b95818561238f565b5b80612bd457508373ffffffffffffffffffffffffffffffffffffffff16612bbc84610b91565b73ffffffffffffffffffffffffffffffffffffffff16145b91505092915050565b612be8848484612e57565b612bf484848484613142565b612c33576040517f08c379a0000000000000000000000000000000000000000000000000000000008152600401612c2a906140d1565b60405180910390fd5b50505050565b606060405180602001604052806000815250905090565b6060612c5b8261250f565b6000612c65612c39565b90506000815111612c855760405180602001604052806000815250612cb0565b80612c8f846132d9565b604051602001612ca0929190613f94565b6040516020818303038152906040525b915050919050565b60007f2a55205a000000000000000000000000000000000000000000000000000000007bffffffffffffffffffffffffffffffffffffffffffffffffffffffff1916827bffffffffffffffffffffffffffffffffffffffffffffffffffffffff19161480612d2b5750612d2a8261343a565b5b9050919050565b60008073ffffffffffffffffffffffffffffffffffffffff166004600084815260200190815260200160002060009054906101000a900473ffffffffffffffffffffffffffffffffffffffff1673ffffffffffffffffffffffffffffffffffffffff1614159050919050565b816006600083815260200190815260200160002060006101000a81548173ffffffffffffffffffffffffffffffffffffffff021916908373ffffffffffffffffffffffffffffffffffffffff160217905550808273ffffffffffffffffffffffffffffffffffffffff16612e1183611453565b73ffffffffffffffffffffffffffffffffffffffff167f8c5be1e5ebec7d5bd14f71427d1e84f3dd0314c0f7b2291e5b200ac8c7c3b92560405160405180910390a45050565b8273ffffffffffffffffffffffffffffffffffffffff16612e7782611453565b73ffffffffffffffffffffffffffffffffffffffff1614612ecd576040517f08c379a0000000000000000000000000000000000000000000000000000000008152600401612ec4906140f1565b60405180910390fd5b600073ffffffffffffffffffffffffffffffffffffffff168273ffffffffffffffffffffffffffffffffffffffff161415612f3d576040517f08c379a0000000000000000000000000000000000000000000000000000000008152600401612f3490614131565b60405180910390fd5b612f488383836134a4565b612f53600082612d9e565b6001600560008573ffffffffffffffffffffffffffffffffffffffff1673ffffffffffffffffffffffffffffffffffffffff1681526020019081526020016000206000828254612fa3919061450a565b925050819055506001600560008473ffffffffffffffffffffffffffffffffffffffff1673ffffffffffffffffffffffffffffffffffffffff1681526020019081526020016000206000828254612ffa9190614429565b92505081905550816004600083815260200190815260200160002060006101000a81548173ffffffffffffffffffffffffffffffffffffffff021916908373ffffffffffffffffffffffffffffffffffffffff160217905550808273ffffffffffffffffffffffffffffffffffffffff168473ffffffffffffffffffffffffffffffffffffffff167fddf252ad1be2c89b69c2b068fc378daa952ba7f163c4a11628f55a4df523b3ef60405160405180910390a46130b98383836134b4565b505050565b60008151905060006a636f6e736f6c652e6c6f679050602083016000808483855afa5050505050565b6130f183836134b9565b6130fe6000848484613142565b61313d576040517f08c379a0000000000000000000000000000000000000000000000000000000008152600401613134906140d1565b60405180910390fd5b505050565b60006131638473ffffffffffffffffffffffffffffffffffffffff16613693565b156132cc578373ffffffffffffffffffffffffffffffffffffffff1663150b7a0261318c6129d3565b8786866040518563ffffffff1660e01b81526004016131ae949392919061401f565b602060405180830381600087803b1580156131c857600080fd5b505af19250505080156131f957506040513d601f19601f820116820180604052508101906131f69190613adc565b60015b61327c573d8060008114613229576040519150601f19603f3d011682016040523d82523d6000602084013e61322e565b606091505b50600081511415613274576040517f08c379a000000000000000000000000000000000000000000000000000000000815260040161326b906140d1565b60405180910390fd5b805181602001fd5b63150b7a0260e01b7bffffffffffffffffffffffffffffffffffffffffffffffffffffffff1916817bffffffffffffffffffffffffffffffffffffffffffffffffffffffff1916149150506132d1565b600190505b949350505050565b60606000821415613321576040518060400160405280600181526020017f30000000000000000000000000000000000000000000000000000000000000008152509050613435565b600082905060005b6000821461335357808061333c9061466f565b915050600a8261334c919061447f565b9150613329565b60008167ffffffffffffffff81111561336f5761336e6147a5565b5b6040519080825280601f01601f1916602001820160405280156133a15781602001600182028036833780820191505090505b5090505b6000851461342e576001826133ba919061450a565b9150600a856133c991906146b8565b60306133d59190614429565b60f81b8183815181106133eb576133ea614776565b5b60200101907effffffffffffffffffffffffffffffffffffffffffffffffffffffffffffff1916908160001a905350600a85613427919061447f565b94506133a5565b8093505050505b919050565b60007f01ffc9a7000000000000000000000000000000000000000000000000000000007bffffffffffffffffffffffffffffffffffffffffffffffffffffffff1916827bffffffffffffffffffffffffffffffffffffffffffffffffffffffff1916149050919050565b6134af8383836136b6565b505050565b505050565b600073ffffffffffffffffffffffffffffffffffffffff168273ffffffffffffffffffffffffffffffffffffffff161415613529576040517f08c379a0000000000000000000000000000000000000000000000000000000008152600401613520906141d1565b60405180910390fd5b61353281612d32565b15613572576040517f08c379a000000000000000000000000000000000000000000000000000000000815260040161356990614111565b60405180910390fd5b61357e600083836134a4565b6001600560008473ffffffffffffffffffffffffffffffffffffffff1673ffffffffffffffffffffffffffffffffffffffff16815260200190815260200160002060008282546135ce9190614429565b92505081905550816004600083815260200190815260200160002060006101000a81548173ffffffffffffffffffffffffffffffffffffffff021916908373ffffffffffffffffffffffffffffffffffffffff160217905550808273ffffffffffffffffffffffffffffffffffffffff16600073ffffffffffffffffffffffffffffffffffffffff167fddf252ad1be2c89b69c2b068fc378daa952ba7f163c4a11628f55a4df523b3ef60405160405180910390a461368f600083836134b4565b5050565b6000808273ffffffffffffffffffffffffffffffffffffffff163b119050919050565b505050565b604051806040016040528060008152602001600073ffffffffffffffffffffffffffffffffffffffff1681525090565b8280546136f79061460c565b90600052602060002090601f0160209004810192826137195760008555613760565b82601f1061373257805160ff1916838001178555613760565b82800160010185558215613760579182015b8281111561375f578251825591602001919060010190613744565b5b50905061376d9190613771565b5090565b5b8082111561378a576000816000905550600101613772565b5090565b60006137a161379c84614379565b614354565b9050828152602081018484840111156137bd576137bc6147d9565b5b6137c88482856145ca565b509392505050565b60006137e36137de846143aa565b614354565b9050828152602081018484840111156137ff576137fe6147d9565b5b61380a8482856145ca565b509392505050565b60008135905061382181614bb9565b92915050565b60008135905061383681614bd0565b92915050565b60008135905061384b81614be7565b92915050565b60008151905061386081614be7565b92915050565b600082601f83011261387b5761387a6147d4565b5b813561388b84826020860161378e565b91505092915050565b600082601f8301126138a9576138a86147d4565b5b81356138b98482602086016137d0565b91505092915050565b6000813590506138d181614bfe565b92915050565b6000813590506138e681614c15565b92915050565b600060208284031215613902576139016147e3565b5b600061391084828501613812565b91505092915050565b600080604083850312156139305761392f6147e3565b5b600061393e85828601613812565b925050602061394f85828601613812565b9150509250929050565b600080600060608486031215613972576139716147e3565b5b600061398086828701613812565b935050602061399186828701613812565b92505060406139a2868287016138c2565b9150509250925092565b600080600080608085870312156139c6576139c56147e3565b5b60006139d487828801613812565b94505060206139e587828801613812565b93505060406139f6878288016138c2565b925050606085013567ffffffffffffffff811115613a1757613a166147de565b5b613a2387828801613866565b91505092959194509250565b60008060408385031215613a4657613a456147e3565b5b6000613a5485828601613812565b9250506020613a6585828601613827565b9150509250929050565b60008060408385031215613a8657613a856147e3565b5b6000613a9485828601613812565b9250506020613aa5858286016138c2565b9150509250929050565b600060208284031215613ac557613ac46147e3565b5b6000613ad38482850161383c565b91505092915050565b600060208284031215613af257613af16147e3565b5b6000613b0084828501613851565b91505092915050565b600080600060608486031215613b2257613b216147e3565b5b600084013567ffffffffffffffff811115613b4057613b3f6147de565b5b613b4c86828701613894565b9350506020613b5d86828701613812565b9250506040613b6e868287016138d7565b9150509250925092565b600060208284031215613b8e57613b8d6147e3565b5b6000613b9c848285016138c2565b91505092915050565b600080600060608486031215613bbe57613bbd6147e3565b5b6000613bcc868287016138c2565b9350506020613bdd86828701613812565b9250506040613bee868287016138d7565b9150509250925092565b60008060408385031215613c0f57613c0e6147e3565b5b6000613c1d858286016138c2565b9250506020613c2e858286016138c2565b9150509250929050565b613c418161453e565b82525050565b613c508161453e565b82525050565b613c5f81614550565b82525050565b6000613c70826143db565b613c7a81856143f1565b9350613c8a8185602086016145d9565b613c93816147e8565b840191505092915050565b6000613ca9826143e6565b613cb3818561440d565b9350613cc38185602086016145d9565b613ccc816147e8565b840191505092915050565b6000613ce2826143e6565b613cec818561441e565b9350613cfc8185602086016145d9565b80840191505092915050565b6000613d1560328361440d565b9150613d20826147f9565b604082019050919050565b6000613d3860258361440d565b9150613d4382614848565b604082019050919050565b6000613d5b601c8361440d565b9150613d6682614897565b602082019050919050565b6000613d7e60248361440d565b9150613d89826148c0565b604082019050919050565b6000613da160198361440d565b9150613dac8261490f565b602082019050919050565b6000613dc460298361440d565b9150613dcf82614938565b604082019050919050565b6000613de7602e8361440d565b9150613df282614987565b604082019050919050565b6000613e0a603e8361440d565b9150613e15826149d6565b604082019050919050565b6000613e2d60208361440d565b9150613e3882614a25565b602082019050919050565b6000613e5060188361440d565b9150613e5b82614a4e565b602082019050919050565b6000613e7360218361440d565b9150613e7e82614a77565b604082019050919050565b6000613e96600083614402565b9150613ea182614ac6565b600082019050919050565b6000613eb9601b8361440d565b9150613ec482614ac9565b602082019050919050565b6000613edc602a8361440d565b9150613ee782614af2565b604082019050919050565b6000613eff602e8361440d565b9150613f0a82614b41565b604082019050919050565b6000613f22601f8361440d565b9150613f2d82614b90565b602082019050919050565b604082016000820151613f4e6000850182613f67565b506020820151613f616020850182613c38565b50505050565b613f70816145a8565b82525050565b613f7f816145a8565b82525050565b613f8e816145b2565b82525050565b6000613fa08285613cd7565b9150613fac8284613cd7565b91508190509392505050565b6000613fc382613e89565b9150819050919050565b6000602082019050613fe26000830184613c47565b92915050565b6000606082019050613ffd6000830186613c47565b61400a6020830185613c47565b6140176040830184613f76565b949350505050565b60006080820190506140346000830187613c47565b6140416020830186613c47565b61404e6040830185613f76565b81810360608301526140608184613c65565b905095945050505050565b60006040820190506140806000830185613c47565b61408d6020830184613f76565b9392505050565b60006020820190506140a96000830184613c56565b92915050565b600060208201905081810360008301526140c98184613c9e565b905092915050565b600060208201905081810360008301526140ea81613d08565b9050919050565b6000602082019050818103600083015261410a81613d2b565b9050919050565b6000602082019050818103600083015261412a81613d4e565b9050919050565b6000602082019050818103600083015261414a81613d71565b9050919050565b6000602082019050818103600083015261416a81613d94565b9050919050565b6000602082019050818103600083015261418a81613db7565b9050919050565b600060208201905081810360008301526141aa81613dda565b9050919050565b600060208201905081810360008301526141ca81613dfd565b9050919050565b600060208201905081810360008301526141ea81613e20565b9050919050565b6000602082019050818103600083015261420a81613e43565b9050919050565b6000602082019050818103600083015261422a81613e66565b9050919050565b6000602082019050818103600083015261424a81613eac565b9050919050565b6000602082019050818103600083015261426a81613ecf565b9050919050565b6000602082019050818103600083015261428a81613ef2565b9050919050565b600060208201905081810360008301526142aa81613f15565b9050919050565b60006040820190506142c66000830184613f38565b92915050565b60006020820190506142e16000830184613f76565b92915050565b60006040820190506142fc6000830185613f76565b6143096020830184613c47565b9392505050565b60006040820190506143256000830185613f76565b6143326020830184613f76565b9392505050565b600060208201905061434e6000830184613f85565b92915050565b600061435e61436f565b905061436a828261463e565b919050565b6000604051905090565b600067ffffffffffffffff821115614394576143936147a5565b5b61439d826147e8565b9050602081019050919050565b600067ffffffffffffffff8211156143c5576143c46147a5565b5b6143ce826147e8565b9050602081019050919050565b600081519050919050565b600081519050919050565b600082825260208201905092915050565b600081905092915050565b600082825260208201905092915050565b600081905092915050565b6000614434826145a8565b915061443f836145a8565b9250827fffffffffffffffffffffffffffffffffffffffffffffffffffffffffffffffff03821115614474576144736146e9565b5b828201905092915050565b600061448a826145a8565b9150614495836145a8565b9250826144a5576144a4614718565b5b828204905092915050565b60006144bb826145a8565b91506144c6836145a8565b9250817fffffffffffffffffffffffffffffffffffffffffffffffffffffffffffffffff04831182151516156144ff576144fe6146e9565b5b828202905092915050565b6000614515826145a8565b9150614520836145a8565b925082821015614533576145326146e9565b5b828203905092915050565b600061454982614588565b9050919050565b60008115159050919050565b60007fffffffff0000000000000000000000000000000000000000000000000000000082169050919050565b600073ffffffffffffffffffffffffffffffffffffffff82169050919050565b6000819050919050565b60006bffffffffffffffffffffffff82169050919050565b82818337600083830152505050565b60005b838110156145f75780820151818401526020810190506145dc565b83811115614606576000848401525b50505050565b6000600282049050600182168061462457607f821691505b6020821081141561463857614637614747565b5b50919050565b614647826147e8565b810181811067ffffffffffffffff82111715614666576146656147a5565b5b80604052505050565b600061467a826145a8565b91507fffffffffffffffffffffffffffffffffffffffffffffffffffffffffffffffff8214156146ad576146ac6146e9565b5b600182019050919050565b60006146c3826145a8565b91506146ce836145a8565b9250826146de576146dd614718565b5b828206905092915050565b7f4e487b7100000000000000000000000000000000000000000000000000000000600052601160045260246000fd5b7f4e487b7100000000000000000000000000000000000000000000000000000000600052601260045260246000fd5b7f4e487b7100000000000000000000000000000000000000000000000000000000600052602260045260246000fd5b7f4e487b7100000000000000000000000000000000000000000000000000000000600052603260045260246000fd5b7f4e487b7100000000000000000000000000000000000000000000000000000000600052604160045260246000fd5b600080fd5b600080fd5b600080fd5b600080fd5b6000601f19601f8301169050919050565b7f4552433732313a207472616e7366657220746f206e6f6e20455243373231526560008201527f63656976657220696d706c656d656e7465720000000000000000000000000000602082015250565b7f4552433732313a207472616e736665722066726f6d20696e636f72726563742060008201527f6f776e6572000000000000000000000000000000000000000000000000000000602082015250565b7f4552433732313a20746f6b656e20616c7265616479206d696e74656400000000600082015250565b7f4552433732313a207472616e7366657220746f20746865207a65726f2061646460008201527f7265737300000000000000000000000000000000000000000000000000000000602082015250565b7f4552433732313a20617070726f766520746f2063616c6c657200000000000000600082015250565b7f4552433732313a2061646472657373207a65726f206973206e6f74206120766160008201527f6c6964206f776e65720000000000000000000000000000000000000000000000602082015250565b7f45524337323155524953746f726167653a2055524920736574206f66206e6f6e60008201527f6578697374656e7420746f6b656e000000000000000000000000000000000000602082015250565b7f4552433732313a20617070726f76652063616c6c6572206973206e6f7420746f60008201527f6b656e206f776e6572206e6f7220617070726f76656420666f7220616c6c0000602082015250565b7f4552433732313a206d696e7420746f20746865207a65726f2061646472657373600082015250565b7f4552433732313a20696e76616c696420746f6b656e2049440000000000000000600082015250565b7f4552433732313a20617070726f76616c20746f2063757272656e74206f776e6560008201527f7200000000000000000000000000000000000000000000000000000000000000602082015250565b50565b7f455243323938313a20496e76616c696420706172616d65746572730000000000600082015250565b7f455243323938313a20726f79616c7479206665652077696c6c2065786365656460008201527f2073616c65507269636500000000000000000000000000000000000000000000602082015250565b7f4552433732313a2063616c6c6572206973206e6f7420746f6b656e206f776e6560008201527f72206e6f7220617070726f766564000000000000000000000000000000000000602082015250565b7f5265656e7472616e637947756172643a207265656e7472616e742063616c6c00600082015250565b614bc28161453e565b8114614bcd57600080fd5b50565b614bd981614550565b8114614be457600080fd5b50565b614bf08161455c565b8114614bfb57600080fd5b50565b614c07816145a8565b8114614c1257600080fd5b50565b614c1e816145b2565b8114614c2957600080fd5b5056fea2646970667358221220b494e66e8f79744b946c2c0742aa25426e796bb6ccd4e66dfe0f909da84bdde564736f6c63430008070033",
  "devdoc": {
    "author": "Gabriel Antony Xaviour",
    "details": "ENeural NFTs are ERC2981 to provide",
    "events": {
      "ItemListed(address,uint256,uint256)": {
        "details": "Fired for indexing data using theGraph protocol (https://thegraph.com/docs/en/about/)"
      }
    },
    "kind": "dev",
    "methods": {
      "approve(address,uint256)": {
        "details": "See {IERC721-approve}."
      },
      "balanceOf(address)": {
        "details": "See {IERC721-balanceOf}."
      },
      "buyItem(uint256)": {
        "params": {
          "tokenId": "The ID of the NFT in the NFT contract"
        }
      },
      "cancelListing(uint256)": {
        "params": {
          "tokenId": "The ID of the NFT in the NFT contract"
        }
      },
      "getApproved(uint256)": {
        "details": "See {IERC721-getApproved}."
      },
      "isApprovedForAll(address,address)": {
        "details": "See {IERC721-isApprovedForAll}."
      },
      "listItem(uint256,uint256)": {
        "params": {
          "price": "The desired listing price by the seller",
          "tokenId": "The ID of the NFT in the NFT contract"
        }
      },
      "name()": {
        "details": "See {IERC721Metadata-name}."
      },
      "ownerOf(uint256)": {
        "details": "See {IERC721-ownerOf}."
      },
      "royaltyInfo(uint256,uint256)": {
        "details": "Returns how much royalty is owed and to whom, based on a sale price that may be denominated in any unit of exchange. The royalty amount is denominated and should be paid in that same unit of exchange."
      },
      "safeTransferFrom(address,address,uint256)": {
        "details": "See {IERC721-safeTransferFrom}."
      },
      "safeTransferFrom(address,address,uint256,bytes)": {
        "details": "See {IERC721-safeTransferFrom}."
      },
      "setApprovalForAll(address,bool)": {
        "details": "See {IERC721-setApprovalForAll}."
      },
      "symbol()": {
        "details": "See {IERC721Metadata-symbol}."
      },
      "tokenURI(uint256)": {
        "details": "See {IERC721Metadata-tokenURI}."
      },
      "transferFrom(address,address,uint256)": {
        "details": "See {IERC721-transferFrom}."
      },
      "updateListing(uint256,uint256)": {
        "params": {
          "newPrice": "The updated listing price proposed by the seller",
          "tokenId": "The ID of the NFT in the NFT contract"
        }
      },
      "withdrawProceeds()": {
        "details": "Reentrancy guard put into action preventing multiple calls to this function"
      }
    },
    "title": "NeuralNFTMarketplace",
    "version": 1
  },
  "userdoc": {
    "errors": {
      "NeuralNFTMarketplace__PriceMustBeAboveZero()": [
        {
          "notice": "Error Declarations"
        }
      ]
    },
    "kind": "user",
    "methods": {
      "PLATFORM_FEE()": {
        "notice": "2% of the sale of a NFT goes to the owner of the contract"
      },
      "buyItem(uint256)": {
        "notice": "Buys an NFT which is on sale in the marketplace"
      },
      "cancelListing(uint256)": {
        "notice": "Cancels a listing by the user in the marketplace"
      },
      "constructor": {
        "notice": "Initializes the marketplace and owner of the contract."
      },
      "listItem(uint256,uint256)": {
        "notice": "Lists an NFT for sale on the marketplace"
      },
      "setListFee(uint256)": {
        "notice": "Getters and Setters"
      },
      "updateListing(uint256,uint256)": {
        "notice": "Updates a listing by the user which is on sale in the marketplace"
      },
      "withdrawProceeds()": {
        "notice": "Withdraws the earnings made by the user in the marketplace"
      }
    },
    "notice": "A marketplace for NFTs with the sixth sense",
    "version": 1
  },
  "storageLayout": {
    "storage": [
      {
        "astId": 1228,
        "contract": "contracts/NeuralNFTMarketplace.sol:NeuralNFTMarketplace",
        "label": "_defaultRoyaltyInfo",
        "offset": 0,
        "slot": "0",
        "type": "t_struct(RoyaltyInfo)1225_storage"
      },
      {
        "astId": 1233,
        "contract": "contracts/NeuralNFTMarketplace.sol:NeuralNFTMarketplace",
        "label": "_tokenRoyaltyInfo",
        "offset": 0,
        "slot": "1",
        "type": "t_mapping(t_uint256,t_struct(RoyaltyInfo)1225_storage)"
      },
      {
        "astId": 84,
        "contract": "contracts/NeuralNFTMarketplace.sol:NeuralNFTMarketplace",
        "label": "_name",
        "offset": 0,
        "slot": "2",
        "type": "t_string_storage"
      },
      {
        "astId": 86,
        "contract": "contracts/NeuralNFTMarketplace.sol:NeuralNFTMarketplace",
        "label": "_symbol",
        "offset": 0,
        "slot": "3",
        "type": "t_string_storage"
      },
      {
        "astId": 90,
        "contract": "contracts/NeuralNFTMarketplace.sol:NeuralNFTMarketplace",
        "label": "_owners",
        "offset": 0,
        "slot": "4",
        "type": "t_mapping(t_uint256,t_address)"
      },
      {
        "astId": 94,
        "contract": "contracts/NeuralNFTMarketplace.sol:NeuralNFTMarketplace",
        "label": "_balances",
        "offset": 0,
        "slot": "5",
        "type": "t_mapping(t_address,t_uint256)"
      },
      {
        "astId": 98,
        "contract": "contracts/NeuralNFTMarketplace.sol:NeuralNFTMarketplace",
        "label": "_tokenApprovals",
        "offset": 0,
        "slot": "6",
        "type": "t_mapping(t_uint256,t_address)"
      },
      {
        "astId": 104,
        "contract": "contracts/NeuralNFTMarketplace.sol:NeuralNFTMarketplace",
        "label": "_operatorApprovals",
        "offset": 0,
        "slot": "7",
        "type": "t_mapping(t_address,t_mapping(t_address,t_bool))"
      },
      {
        "astId": 1072,
        "contract": "contracts/NeuralNFTMarketplace.sol:NeuralNFTMarketplace",
        "label": "_tokenURIs",
        "offset": 0,
        "slot": "8",
        "type": "t_mapping(t_uint256,t_string_storage)"
      },
      {
        "astId": 29,
        "contract": "contracts/NeuralNFTMarketplace.sol:NeuralNFTMarketplace",
        "label": "_status",
        "offset": 0,
        "slot": "9",
        "type": "t_uint256"
      },
      {
        "astId": 2124,
        "contract": "contracts/NeuralNFTMarketplace.sol:NeuralNFTMarketplace",
        "label": "_tokenIds",
        "offset": 0,
        "slot": "10",
        "type": "t_struct(Counter)1732_storage"
      },
      {
        "astId": 2140,
        "contract": "contracts/NeuralNFTMarketplace.sol:NeuralNFTMarketplace",
        "label": "s_listings",
        "offset": 0,
        "slot": "11",
        "type": "t_mapping(t_uint256,t_struct(Listing)2129_storage)"
      },
      {
        "astId": 2144,
        "contract": "contracts/NeuralNFTMarketplace.sol:NeuralNFTMarketplace",
        "label": "s_earnings",
        "offset": 0,
        "slot": "12",
        "type": "t_mapping(t_address,t_uint256)"
      },
      {
        "astId": 2148,
        "contract": "contracts/NeuralNFTMarketplace.sol:NeuralNFTMarketplace",
        "label": "s_creator",
        "offset": 0,
        "slot": "13",
        "type": "t_mapping(t_uint256,t_address)"
      },
      {
        "astId": 2151,
        "contract": "contracts/NeuralNFTMarketplace.sol:NeuralNFTMarketplace",
        "label": "s_list_fee",
        "offset": 0,
        "slot": "14",
        "type": "t_uint256"
      }
    ],
    "types": {
      "t_address": {
        "encoding": "inplace",
        "label": "address",
        "numberOfBytes": "20"
      },
      "t_bool": {
        "encoding": "inplace",
        "label": "bool",
        "numberOfBytes": "1"
      },
      "t_mapping(t_address,t_bool)": {
        "encoding": "mapping",
        "key": "t_address",
        "label": "mapping(address => bool)",
        "numberOfBytes": "32",
        "value": "t_bool"
      },
      "t_mapping(t_address,t_mapping(t_address,t_bool))": {
        "encoding": "mapping",
        "key": "t_address",
        "label": "mapping(address => mapping(address => bool))",
        "numberOfBytes": "32",
        "value": "t_mapping(t_address,t_bool)"
      },
      "t_mapping(t_address,t_uint256)": {
        "encoding": "mapping",
        "key": "t_address",
        "label": "mapping(address => uint256)",
        "numberOfBytes": "32",
        "value": "t_uint256"
      },
      "t_mapping(t_uint256,t_address)": {
        "encoding": "mapping",
        "key": "t_uint256",
        "label": "mapping(uint256 => address)",
        "numberOfBytes": "32",
        "value": "t_address"
      },
      "t_mapping(t_uint256,t_string_storage)": {
        "encoding": "mapping",
        "key": "t_uint256",
        "label": "mapping(uint256 => string)",
        "numberOfBytes": "32",
        "value": "t_string_storage"
      },
      "t_mapping(t_uint256,t_struct(Listing)2129_storage)": {
        "encoding": "mapping",
        "key": "t_uint256",
        "label": "mapping(uint256 => struct NeuralNFTMarketplace.Listing)",
        "numberOfBytes": "32",
        "value": "t_struct(Listing)2129_storage"
      },
      "t_mapping(t_uint256,t_struct(RoyaltyInfo)1225_storage)": {
        "encoding": "mapping",
        "key": "t_uint256",
        "label": "mapping(uint256 => struct ERC2981.RoyaltyInfo)",
        "numberOfBytes": "32",
        "value": "t_struct(RoyaltyInfo)1225_storage"
      },
      "t_string_storage": {
        "encoding": "bytes",
        "label": "string",
        "numberOfBytes": "32"
      },
      "t_struct(Counter)1732_storage": {
        "encoding": "inplace",
        "label": "struct Counters.Counter",
        "members": [
          {
            "astId": 1731,
            "contract": "contracts/NeuralNFTMarketplace.sol:NeuralNFTMarketplace",
            "label": "_value",
            "offset": 0,
            "slot": "0",
            "type": "t_uint256"
          }
        ],
        "numberOfBytes": "32"
      },
      "t_struct(Listing)2129_storage": {
        "encoding": "inplace",
        "label": "struct NeuralNFTMarketplace.Listing",
        "members": [
          {
            "astId": 2126,
            "contract": "contracts/NeuralNFTMarketplace.sol:NeuralNFTMarketplace",
            "label": "price",
            "offset": 0,
            "slot": "0",
            "type": "t_uint256"
          },
          {
            "astId": 2128,
            "contract": "contracts/NeuralNFTMarketplace.sol:NeuralNFTMarketplace",
            "label": "seller",
            "offset": 0,
            "slot": "1",
            "type": "t_address"
          }
        ],
        "numberOfBytes": "64"
      },
      "t_struct(RoyaltyInfo)1225_storage": {
        "encoding": "inplace",
        "label": "struct ERC2981.RoyaltyInfo",
        "members": [
          {
            "astId": 1222,
            "contract": "contracts/NeuralNFTMarketplace.sol:NeuralNFTMarketplace",
            "label": "receiver",
            "offset": 0,
            "slot": "0",
            "type": "t_address"
          },
          {
            "astId": 1224,
            "contract": "contracts/NeuralNFTMarketplace.sol:NeuralNFTMarketplace",
            "label": "royaltyFraction",
            "offset": 20,
            "slot": "0",
            "type": "t_uint96"
          }
        ],
        "numberOfBytes": "32"
      },
      "t_uint256": {
        "encoding": "inplace",
        "label": "uint256",
        "numberOfBytes": "32"
      },
      "t_uint96": {
        "encoding": "inplace",
        "label": "uint96",
        "numberOfBytes": "12"
      }
    }
  }
}