{
  "_format": "hh-sol-artifact-1",
  "contractName": "NeuralNFTMarketplace",
  "sourceName": "contracts/NeuralNFTMarketplace.sol",
  "abi": [
    {
      "inputs": [],
      "stateMutability": "nonpayable",
      "type": "constructor"
    },
    {
      "inputs": [
        {
          "internalType": "uint256",
          "name": "tokenId",
          "type": "uint256"
        }
      ],
      "name": "NeuralNFTMarketplace__AlreadyListed",
      "type": "error"
    },
    {
      "inputs": [],
      "name": "NeuralNFTMarketplace__InsufficientFunds",
      "type": "error"
    },
    {
      "inputs": [],
      "name": "NeuralNFTMarketplace__NoEarnings",
      "type": "error"
    },
    {
      "inputs": [],
      "name": "NeuralNFTMarketplace__NotCreator",
      "type": "error"
    },
    {
      "inputs": [
        {
          "internalType": "uint256",
          "name": "tokenId",
          "type": "uint256"
        }
      ],
      "name": "NeuralNFTMarketplace__NotListed",
      "type": "error"
    },
    {
      "inputs": [],
      "name": "NeuralNFTMarketplace__NotOwner",
      "type": "error"
    },
    {
      "inputs": [],
      "name": "NeuralNFTMarketplace__PriceMustBeAboveZero",
      "type": "error"
    },
    {
      "inputs": [
        {
          "internalType": "uint256",
          "name": "tokenId",
          "type": "uint256"
        },
        {
          "internalType": "uint256",
          "name": "price",
          "type": "uint256"
        }
      ],
      "name": "NeuralNFTMarketplace__PriceNotMet",
      "type": "error"
    },
    {
      "inputs": [
        {
          "internalType": "uint96",
          "name": "",
          "type": "uint96"
        }
      ],
      "name": "NeuralNFTMarketplace__RoyaltyFeesTooHigh",
      "type": "error"
    },
    {
      "inputs": [],
      "name": "NeuralNFTMarketplace__TransferFailed",
      "type": "error"
    },
    {
      "anonymous": false,
      "inputs": [
        {
          "indexed": true,
          "internalType": "address",
          "name": "owner",
          "type": "address"
        },
        {
          "indexed": true,
          "internalType": "address",
          "name": "approved",
          "type": "address"
        },
        {
          "indexed": true,
          "internalType": "uint256",
          "name": "tokenId",
          "type": "uint256"
        }
      ],
      "name": "Approval",
      "type": "event"
    },
    {
      "anonymous": false,
      "inputs": [
        {
          "indexed": true,
          "internalType": "address",
          "name": "owner",
          "type": "address"
        },
        {
          "indexed": true,
          "internalType": "address",
          "name": "operator",
          "type": "address"
        },
        {
          "indexed": false,
          "internalType": "bool",
          "name": "approved",
          "type": "bool"
        }
      ],
      "name": "ApprovalForAll",
      "type": "event"
    },
    {
      "anonymous": false,
      "inputs": [
        {
          "indexed": true,
          "internalType": "address",
          "name": "buyer",
          "type": "address"
        },
        {
          "indexed": true,
          "internalType": "uint256",
          "name": "tokenId",
          "type": "uint256"
        },
        {
          "indexed": false,
          "internalType": "uint256",
          "name": "price",
          "type": "uint256"
        }
      ],
      "name": "ItemBought",
      "type": "event"
    },
    {
      "anonymous": false,
      "inputs": [
        {
          "indexed": true,
          "internalType": "address",
          "name": "seller",
          "type": "address"
        },
        {
          "indexed": true,
          "internalType": "uint256",
          "name": "tokenId",
          "type": "uint256"
        }
      ],
      "name": "ItemCancelled",
      "type": "event"
    },
    {
      "anonymous": false,
      "inputs": [
        {
          "indexed": true,
          "internalType": "address",
          "name": "seller",
          "type": "address"
        },
        {
          "indexed": true,
          "internalType": "uint256",
          "name": "tokenId",
          "type": "uint256"
        },
        {
          "indexed": false,
          "internalType": "uint256",
          "name": "price",
          "type": "uint256"
        }
      ],
      "name": "ItemListed",
      "type": "event"
    },
    {
      "anonymous": false,
      "inputs": [
        {
          "indexed": true,
          "internalType": "address",
          "name": "creator",
          "type": "address"
        },
        {
          "indexed": true,
          "internalType": "uint256",
          "name": "tokenId",
          "type": "uint256"
        },
        {
          "indexed": false,
          "internalType": "uint96",
          "name": "royaltyFees",
          "type": "uint96"
        }
      ],
      "name": "NewNftMinted",
      "type": "event"
    },
    {
      "anonymous": false,
      "inputs": [
        {
          "indexed": true,
          "internalType": "uint256",
          "name": "tokenId",
          "type": "uint256"
        },
        {
          "indexed": false,
          "internalType": "uint96",
          "name": "royaltyFees",
          "type": "uint96"
        }
      ],
      "name": "NftRoyaltyUpdated",
      "type": "event"
    },
    {
      "anonymous": false,
      "inputs": [
        {
          "indexed": true,
          "internalType": "address",
          "name": "from",
          "type": "address"
        },
        {
          "indexed": true,
          "internalType": "address",
          "name": "to",
          "type": "address"
        },
        {
          "indexed": true,
          "internalType": "uint256",
          "name": "tokenId",
          "type": "uint256"
        }
      ],
      "name": "Transfer",
      "type": "event"
    },
    {
      "stateMutability": "payable",
      "type": "fallback"
    },
    {
      "inputs": [],
      "name": "PLATFORM_FEE",
      "outputs": [
        {
          "internalType": "uint256",
          "name": "",
          "type": "uint256"
        }
      ],
      "stateMutability": "view",
      "type": "function"
    },
    {
      "inputs": [
        {
          "internalType": "address",
          "name": "to",
          "type": "address"
        },
        {
          "internalType": "uint256",
          "name": "tokenId",
          "type": "uint256"
        }
      ],
      "name": "approve",
      "outputs": [],
      "stateMutability": "nonpayable",
      "type": "function"
    },
    {
      "inputs": [
        {
          "internalType": "address",
          "name": "owner",
          "type": "address"
        }
      ],
      "name": "balanceOf",
      "outputs": [
        {
          "internalType": "uint256",
          "name": "",
          "type": "uint256"
        }
      ],
      "stateMutability": "view",
      "type": "function"
    },
    {
      "inputs": [
        {
          "internalType": "uint256",
          "name": "tokenId",
          "type": "uint256"
        }
      ],
      "name": "buyItem",
      "outputs": [],
      "stateMutability": "payable",
      "type": "function"
    },
    {
      "inputs": [
        {
          "internalType": "uint256",
          "name": "tokenId",
          "type": "uint256"
        }
      ],
      "name": "cancelListing",
      "outputs": [],
      "stateMutability": "nonpayable",
      "type": "function"
    },
    {
      "inputs": [
        {
          "internalType": "uint256",
          "name": "tokenId",
          "type": "uint256"
        }
      ],
      "name": "getApproved",
      "outputs": [
        {
          "internalType": "address",
          "name": "",
          "type": "address"
        }
      ],
      "stateMutability": "view",
      "type": "function"
    },
    {
      "inputs": [
        {
          "internalType": "uint256",
          "name": "tokenId",
          "type": "uint256"
        }
      ],
      "name": "getCreator",
      "outputs": [
        {
          "internalType": "address",
          "name": "",
          "type": "address"
        }
      ],
      "stateMutability": "view",
      "type": "function"
    },
    {
      "inputs": [],
      "name": "getEarnings",
      "outputs": [
        {
          "internalType": "uint256",
          "name": "",
          "type": "uint256"
        }
      ],
      "stateMutability": "view",
      "type": "function"
    },
    {
      "inputs": [],
      "name": "getListFee",
      "outputs": [
        {
          "internalType": "uint256",
          "name": "",
          "type": "uint256"
        }
      ],
      "stateMutability": "view",
      "type": "function"
    },
    {
      "inputs": [
        {
          "internalType": "uint256",
          "name": "tokenId",
          "type": "uint256"
        }
      ],
      "name": "getListing",
      "outputs": [
        {
          "components": [
            {
              "internalType": "uint256",
              "name": "price",
              "type": "uint256"
            },
            {
              "internalType": "address",
              "name": "seller",
              "type": "address"
            }
          ],
          "internalType": "struct NeuralNFTMarketplace.Listing",
          "name": "",
          "type": "tuple"
        }
      ],
      "stateMutability": "view",
      "type": "function"
    },
    {
      "inputs": [],
      "name": "getPlatformFee",
      "outputs": [
        {
          "internalType": "uint256",
          "name": "",
          "type": "uint256"
        }
      ],
      "stateMutability": "pure",
      "type": "function"
    },
    {
      "inputs": [
        {
          "internalType": "address",
          "name": "owner",
          "type": "address"
        },
        {
          "internalType": "address",
          "name": "operator",
          "type": "address"
        }
      ],
      "name": "isApprovedForAll",
      "outputs": [
        {
          "internalType": "bool",
          "name": "",
          "type": "bool"
        }
      ],
      "stateMutability": "view",
      "type": "function"
    },
    {
      "inputs": [
        {
          "internalType": "uint256",
          "name": "tokenId",
          "type": "uint256"
        },
        {
          "internalType": "uint256",
          "name": "price",
          "type": "uint256"
        }
      ],
      "name": "listItem",
      "outputs": [],
      "stateMutability": "payable",
      "type": "function"
    },
    {
      "inputs": [
        {
          "internalType": "string",
          "name": "nftURI",
          "type": "string"
        },
        {
          "internalType": "address",
          "name": "royaltyReceiver",
          "type": "address"
        },
        {
          "internalType": "uint96",
          "name": "_royaltyFeesInBips",
          "type": "uint96"
        }
      ],
      "name": "mintNft",
      "outputs": [
        {
          "internalType": "uint256",
          "name": "newItemId",
          "type": "uint256"
        }
      ],
      "stateMutability": "nonpayable",
      "type": "function"
    },
    {
      "inputs": [],
      "name": "name",
      "outputs": [
        {
          "internalType": "string",
          "name": "",
          "type": "string"
        }
      ],
      "stateMutability": "view",
      "type": "function"
    },
    {
      "inputs": [
        {
          "internalType": "uint256",
          "name": "tokenId",
          "type": "uint256"
        }
      ],
      "name": "ownerOf",
      "outputs": [
        {
          "internalType": "address",
          "name": "",
          "type": "address"
        }
      ],
      "stateMutability": "view",
      "type": "function"
    },
    {
      "inputs": [
        {
          "internalType": "uint256",
          "name": "_tokenId",
          "type": "uint256"
        },
        {
          "internalType": "uint256",
          "name": "_salePrice",
          "type": "uint256"
        }
      ],
      "name": "royaltyInfo",
      "outputs": [
        {
          "internalType": "address",
          "name": "",
          "type": "address"
        },
        {
          "internalType": "uint256",
          "name": "",
          "type": "uint256"
        }
      ],
      "stateMutability": "view",
      "type": "function"
    },
    {
      "inputs": [],
      "name": "s_list_fee",
      "outputs": [
        {
          "internalType": "uint256",
          "name": "",
          "type": "uint256"
        }
      ],
      "stateMutability": "view",
      "type": "function"
    },
    {
      "inputs": [
        {
          "internalType": "address",
          "name": "from",
          "type": "address"
        },
        {
          "internalType": "address",
          "name": "to",
          "type": "address"
        },
        {
          "internalType": "uint256",
          "name": "tokenId",
          "type": "uint256"
        }
      ],
      "name": "safeTransferFrom",
      "outputs": [],
      "stateMutability": "nonpayable",
      "type": "function"
    },
    {
      "inputs": [
        {
          "internalType": "address",
          "name": "from",
          "type": "address"
        },
        {
          "internalType": "address",
          "name": "to",
          "type": "address"
        },
        {
          "internalType": "uint256",
          "name": "tokenId",
          "type": "uint256"
        },
        {
          "internalType": "bytes",
          "name": "data",
          "type": "bytes"
        }
      ],
      "name": "safeTransferFrom",
      "outputs": [],
      "stateMutability": "nonpayable",
      "type": "function"
    },
    {
      "inputs": [
        {
          "internalType": "address",
          "name": "operator",
          "type": "address"
        },
        {
          "internalType": "bool",
          "name": "approved",
          "type": "bool"
        }
      ],
      "name": "setApprovalForAll",
      "outputs": [],
      "stateMutability": "nonpayable",
      "type": "function"
    },
    {
      "inputs": [
        {
          "internalType": "uint256",
          "name": "newListFee",
          "type": "uint256"
        }
      ],
      "name": "setListFee",
      "outputs": [],
      "stateMutability": "nonpayable",
      "type": "function"
    },
    {
      "inputs": [
        {
          "internalType": "uint256",
          "name": "_tokenId",
          "type": "uint256"
        },
        {
          "internalType": "address",
          "name": "_receiver",
          "type": "address"
        },
        {
          "internalType": "uint96",
          "name": "_royaltyFeesInBips",
          "type": "uint96"
        }
      ],
      "name": "setRoyaltyInfo",
      "outputs": [],
      "stateMutability": "nonpayable",
      "type": "function"
    },
    {
      "inputs": [
        {
          "internalType": "bytes4",
          "name": "interfaceId",
          "type": "bytes4"
        }
      ],
      "name": "supportsInterface",
      "outputs": [
        {
          "internalType": "bool",
          "name": "",
          "type": "bool"
        }
      ],
      "stateMutability": "view",
      "type": "function"
    },
    {
      "inputs": [],
      "name": "symbol",
      "outputs": [
        {
          "internalType": "string",
          "name": "",
          "type": "string"
        }
      ],
      "stateMutability": "view",
      "type": "function"
    },
    {
      "inputs": [
        {
          "internalType": "uint256",
          "name": "tokenId",
          "type": "uint256"
        }
      ],
      "name": "tokenURI",
      "outputs": [
        {
          "internalType": "string",
          "name": "",
          "type": "string"
        }
      ],
      "stateMutability": "view",
      "type": "function"
    },
    {
      "inputs": [
        {
          "internalType": "address",
          "name": "from",
          "type": "address"
        },
        {
          "internalType": "address",
          "name": "to",
          "type": "address"
        },
        {
          "internalType": "uint256",
          "name": "tokenId",
          "type": "uint256"
        }
      ],
      "name": "transferFrom",
      "outputs": [],
      "stateMutability": "nonpayable",
      "type": "function"
    },
    {
      "inputs": [
        {
          "internalType": "uint256",
          "name": "tokenId",
          "type": "uint256"
        },
        {
          "internalType": "uint256",
          "name": "newPrice",
          "type": "uint256"
        }
      ],
      "name": "updateListing",
      "outputs": [],
      "stateMutability": "payable",
      "type": "function"
    },
    {
      "inputs": [],
      "name": "withdrawEarnings",
      "outputs": [],
      "stateMutability": "nonpayable",
      "type": "function"
    },
    {
      "stateMutability": "payable",
      "type": "receive"
    }
  ],
  "bytecode": "0x60a060405266038d7ea4c68000600e553480156200001c57600080fd5b506040518060400160405280600981526020017f4e657572616c4e465400000000000000000000000000000000000000000000008152506040518060400160405280600481526020017f4e4e4654000000000000000000000000000000000000000000000000000000008152508160029080519060200190620000a192919062000102565b508060039080519060200190620000ba92919062000102565b50505060016009819055503373ffffffffffffffffffffffffffffffffffffffff1660808173ffffffffffffffffffffffffffffffffffffffff1660601b8152505062000217565b8280546200011090620001b2565b90600052602060002090601f01602090048101928262000134576000855562000180565b82601f106200014f57805160ff191683800117855562000180565b8280016001018555821562000180579182015b828111156200017f57825182559160200191906001019062000162565b5b5090506200018f919062000193565b5090565b5b80821115620001ae57600081600090555060010162000194565b5090565b60006002820490506001821680620001cb57607f821691505b60208210811415620001e257620001e1620001e8565b5b50919050565b7f4e487b7100000000000000000000000000000000000000000000000000000000600052602260045260246000fd5b60805160601c614c2262000259600039600081816101d20152818161024a01528181610a0401528181610f870152818161191e01526123ca0152614c226000f3fe6080604052600436106101c65760003560e01c80636ea8bc10116100f7578063b73c6ce911610095578063d48e638a11610064578063d48e638a1461073d578063e7fb74c71461077a578063e985e9c514610796578063fb513492146107d357610243565b8063b73c6ce914610695578063b88d4fde146106ac578063c379f647146106d5578063c87b56dd1461070057610243565b806390666232116100d157806390666232146105d957806395d89b41146106045780639ed19d801461062f578063a22cb4651461066c57610243565b80636ea8bc101461055557806370a0823114610580578063883efa67146105bd57610243565b80631d04886011610164578063305a67a81161013e578063305a67a81461049b57806334fbc9a1146104c457806342842e0e146104ef5780636352211e1461051857610243565b80631d0488601461040b57806323b872dd146104345780632a55205a1461045d57610243565b8063081812fc116101a0578063081812fc1461033f578063095ea7b31461037c578063107a274a146103a55780631495fa99146103e257610243565b80630179ea88146102bb57806301ffc9a7146102d757806306fdde031461031457610243565b366102435734600c60007f000000000000000000000000000000000000000000000000000000000000000073ffffffffffffffffffffffffffffffffffffffff1673ffffffffffffffffffffffffffffffffffffffff168152602001908152602001600020600082825461023a91906143e9565b92505081905550005b34600c60007f000000000000000000000000000000000000000000000000000000000000000073ffffffffffffffffffffffffffffffffffffffff1673ffffffffffffffffffffffffffffffffffffffff16815260200190815260200160002060008282546102b291906143e9565b92505081905550005b6102d560048036038101906102d09190613be1565b6107fe565b005b3480156102e357600080fd5b506102fe60048036038101906102f99190613a98565b610aed565b60405161030b919061407d565b60405180910390f35b34801561032057600080fd5b50610329610aff565b6040516103369190614098565b60405180910390f35b34801561034b57600080fd5b5061036660048036038101906103619190613b61565b610b91565b6040516103739190613fb6565b60405180910390f35b34801561038857600080fd5b506103a3600480360381019061039e9190613a58565b610bd7565b005b3480156103b157600080fd5b506103cc60048036038101906103c79190613b61565b610cef565b6040516103d9919061429a565b60405180910390f35b3480156103ee57600080fd5b5061040960048036038101906104049190613b8e565b610e4a565b005b34801561041757600080fd5b50610432600480360381019061042d9190613b61565b610f85565b005b34801561044057600080fd5b5061045b60048036038101906104569190613942565b611014565b005b34801561046957600080fd5b50610484600480360381019061047f9190613be1565b6110f5565b604051610492929190614054565b60405180910390f35b3480156104a757600080fd5b506104c260048036038101906104bd9190613b61565b6112e0565b005b3480156104d057600080fd5b506104d9611501565b6040516104e691906142b5565b60405180910390f35b3480156104fb57600080fd5b5061051660048036038101906105119190613942565b611506565b005b34801561052457600080fd5b5061053f600480360381019061053a9190613b61565b6115e7565b60405161054c9190613fb6565b60405180910390f35b34801561056157600080fd5b5061056a611699565b60405161057791906142b5565b60405180910390f35b34801561058c57600080fd5b506105a760048036038101906105a291906138d5565b6116a2565b6040516105b491906142b5565b60405180910390f35b6105d760048036038101906105d29190613be1565b61175a565b005b3480156105e557600080fd5b506105ee611a77565b6040516105fb91906142b5565b60405180910390f35b34801561061057600080fd5b50610619611abe565b6040516106269190614098565b60405180910390f35b34801561063b57600080fd5b5061065660048036038101906106519190613af2565b611b50565b60405161066391906142b5565b60405180910390f35b34801561067857600080fd5b50610693600480360381019061068e9190613a18565b611cdc565b005b3480156106a157600080fd5b506106aa611cf2565b005b3480156106b857600080fd5b506106d360048036038101906106ce9190613995565b611eb2565b005b3480156106e157600080fd5b506106ea611f14565b6040516106f791906142b5565b60405180910390f35b34801561070c57600080fd5b5061072760048036038101906107229190613b61565b611f1a565b6040516107349190614098565b60405180910390f35b34801561074957600080fd5b50610764600480360381019061075f9190613b61565b61202d565b6040516107719190613fb6565b60405180910390f35b610794600480360381019061078f9190613b61565b612106565b005b3480156107a257600080fd5b506107bd60048036038101906107b89190613902565b612552565b6040516107ca919061407d565b60405180910390f35b3480156107df57600080fd5b506107e86125e6565b6040516107f591906142b5565b60405180910390f35b8133610809826115e7565b73ffffffffffffffffffffffffffffffffffffffff168173ffffffffffffffffffffffffffffffffffffffff161461086d576040517f2ac3f91100000000000000000000000000000000000000000000000000000000815260040160405180910390fd5b836000600b6000838152602001908152602001600020604051806040016040529081600082015481526020016001820160009054906101000a900473ffffffffffffffffffffffffffffffffffffffff1673ffffffffffffffffffffffffffffffffffffffff1673ffffffffffffffffffffffffffffffffffffffff16815250509050600081600001511161093957816040517fdb363db800000000000000000000000000000000000000000000000000000000815260040161093091906142b5565b60405180910390fd5b6002600954141561097f576040517f08c379a00000000000000000000000000000000000000000000000000000000081526004016109769061427a565b60405180910390fd5b6002600981905550600e543410156109c3576040517fade20f9200000000000000000000000000000000000000000000000000000000815260040160405180910390fd5b600085116109fd576040517ff1c64ea600000000000000000000000000000000000000000000000000000000815260040160405180910390fd5b34600c60007f000000000000000000000000000000000000000000000000000000000000000073ffffffffffffffffffffffffffffffffffffffff1673ffffffffffffffffffffffffffffffffffffffff1681526020019081526020016000206000828254610a6c91906143e9565b9250508190555084600b600088815260200190815260200160002060000181905550853373ffffffffffffffffffffffffffffffffffffffff167f94e7b934c857a9e3202e8ed9c1f3f96e396b7d2b5885930d2001abcb51ff58fa87604051610ad591906142b5565b60405180910390a36001600981905550505050505050565b6000610af8826125f0565b9050919050565b606060028054610b0e906145cc565b80601f0160208091040260200160405190810160405280929190818152602001828054610b3a906145cc565b8015610b875780601f10610b5c57610100808354040283529160200191610b87565b820191906000526020600020905b815481529060010190602001808311610b6a57829003601f168201915b5050505050905090565b6000610b9c826126d2565b6006600083815260200190815260200160002060009054906101000a900473ffffffffffffffffffffffffffffffffffffffff169050919050565b6000610be2826115e7565b90508073ffffffffffffffffffffffffffffffffffffffff168373ffffffffffffffffffffffffffffffffffffffff161415610c53576040517f08c379a0000000000000000000000000000000000000000000000000000000008152600401610c4a906141fa565b60405180910390fd5b8073ffffffffffffffffffffffffffffffffffffffff16610c7261271d565b73ffffffffffffffffffffffffffffffffffffffff161480610ca15750610ca081610c9b61271d565b612552565b5b610ce0576040517f08c379a0000000000000000000000000000000000000000000000000000000008152600401610cd79061419a565b60405180910390fd5b610cea8383612725565b505050565b610cf76136a4565b816000600b6000838152602001908152602001600020604051806040016040529081600082015481526020016001820160009054906101000a900473ffffffffffffffffffffffffffffffffffffffff1673ffffffffffffffffffffffffffffffffffffffff1673ffffffffffffffffffffffffffffffffffffffff168152505090506000816000015111610dc357816040517fdb363db8000000000000000000000000000000000000000000000000000000008152600401610dba91906142b5565b60405180910390fd5b600b6000858152602001908152602001600020604051806040016040529081600082015481526020016001820160009054906101000a900473ffffffffffffffffffffffffffffffffffffffff1673ffffffffffffffffffffffffffffffffffffffff1673ffffffffffffffffffffffffffffffffffffffff168152505092505050919050565b806107d0816bffffffffffffffffffffffff161115610ea057806040517f05a79cda000000000000000000000000000000000000000000000000000000008152600401610e9791906142f9565b60405180910390fd5b83338073ffffffffffffffffffffffffffffffffffffffff16600d600084815260200190815260200160002060009054906101000a900473ffffffffffffffffffffffffffffffffffffffff1673ffffffffffffffffffffffffffffffffffffffff1614610f3a576040517f0bfc395c00000000000000000000000000000000000000000000000000000000815260040160405180910390fd5b610f458686866127de565b857f51a561a62c793496a64ccae0329d6a4a31b3b2107025e3d0770a06b6188f506385604051610f7591906142f9565b60405180910390a2505050505050565b7f000000000000000000000000000000000000000000000000000000000000000073ffffffffffffffffffffffffffffffffffffffff163373ffffffffffffffffffffffffffffffffffffffff161461100a576040517f2ac3f91100000000000000000000000000000000000000000000000000000000815260040160405180910390fd5b80600e8190555050565b80836000600b6000848152602001908152602001600020604051806040016040529081600082015481526020016001820160009054906101000a900473ffffffffffffffffffffffffffffffffffffffff1673ffffffffffffffffffffffffffffffffffffffff1673ffffffffffffffffffffffffffffffffffffffff168152505090506000816000015111156110e257826040517fe000ca910000000000000000000000000000000000000000000000000000000081526004016110d991906142b5565b60405180910390fd5b6110ed868686612986565b505050505050565b6000806000600160008681526020019081526020016000206040518060400160405290816000820160009054906101000a900473ffffffffffffffffffffffffffffffffffffffff1673ffffffffffffffffffffffffffffffffffffffff1673ffffffffffffffffffffffffffffffffffffffff1681526020016000820160149054906101000a90046bffffffffffffffffffffffff166bffffffffffffffffffffffff166bffffffffffffffffffffffff16815250509050600073ffffffffffffffffffffffffffffffffffffffff16816000015173ffffffffffffffffffffffffffffffffffffffff16141561128b5760006040518060400160405290816000820160009054906101000a900473ffffffffffffffffffffffffffffffffffffffff1673ffffffffffffffffffffffffffffffffffffffff1673ffffffffffffffffffffffffffffffffffffffff1681526020016000820160149054906101000a90046bffffffffffffffffffffffff166bffffffffffffffffffffffff166bffffffffffffffffffffffff168152505090505b60006112956129e6565b6bffffffffffffffffffffffff1682602001516bffffffffffffffffffffffff16866112c19190614470565b6112cb919061443f565b90508160000151819350935050509250929050565b80336112eb826115e7565b73ffffffffffffffffffffffffffffffffffffffff168173ffffffffffffffffffffffffffffffffffffffff161461134f576040517f2ac3f91100000000000000000000000000000000000000000000000000000000815260040160405180910390fd5b826000600b6000838152602001908152602001600020604051806040016040529081600082015481526020016001820160009054906101000a900473ffffffffffffffffffffffffffffffffffffffff1673ffffffffffffffffffffffffffffffffffffffff1673ffffffffffffffffffffffffffffffffffffffff16815250509050600081600001511161141b57816040517fdb363db800000000000000000000000000000000000000000000000000000000815260040161141291906142b5565b60405180910390fd5b60026009541415611461576040517f08c379a00000000000000000000000000000000000000000000000000000000081526004016114589061427a565b60405180910390fd5b6002600981905550600b60008681526020019081526020016000206000808201600090556001820160006101000a81549073ffffffffffffffffffffffffffffffffffffffff02191690555050843373ffffffffffffffffffffffffffffffffffffffff167f6be0c8480cb6f0bffcd4a654fb162c986ba528d5ff0e743ee21b1fc900fa264f60405160405180910390a360016009819055505050505050565b600281565b80836000600b6000848152602001908152602001600020604051806040016040529081600082015481526020016001820160009054906101000a900473ffffffffffffffffffffffffffffffffffffffff1673ffffffffffffffffffffffffffffffffffffffff1673ffffffffffffffffffffffffffffffffffffffff168152505090506000816000015111156115d457826040517fe000ca910000000000000000000000000000000000000000000000000000000081526004016115cb91906142b5565b60405180910390fd5b6115df868686612986565b505050505050565b6000806004600084815260200190815260200160002060009054906101000a900473ffffffffffffffffffffffffffffffffffffffff169050600073ffffffffffffffffffffffffffffffffffffffff168173ffffffffffffffffffffffffffffffffffffffff161415611690576040517f08c379a0000000000000000000000000000000000000000000000000000000008152600401611687906141da565b60405180910390fd5b80915050919050565b60006002905090565b60008073ffffffffffffffffffffffffffffffffffffffff168273ffffffffffffffffffffffffffffffffffffffff161415611713576040517f08c379a000000000000000000000000000000000000000000000000000000000815260040161170a9061415a565b60405180910390fd5b600560008373ffffffffffffffffffffffffffffffffffffffff1673ffffffffffffffffffffffffffffffffffffffff168152602001908152602001600020549050919050565b81336000600b6000848152602001908152602001600020604051806040016040529081600082015481526020016001820160009054906101000a900473ffffffffffffffffffffffffffffffffffffffff1673ffffffffffffffffffffffffffffffffffffffff1673ffffffffffffffffffffffffffffffffffffffff1681525050905060008160000151111561182857826040517fe000ca9100000000000000000000000000000000000000000000000000000000815260040161181f91906142b5565b60405180910390fd5b8433611833826115e7565b73ffffffffffffffffffffffffffffffffffffffff168173ffffffffffffffffffffffffffffffffffffffff1614611897576040517f2ac3f91100000000000000000000000000000000000000000000000000000000815260040160405180910390fd5b600e543410156118d3576040517fade20f9200000000000000000000000000000000000000000000000000000000815260040160405180910390fd5b6000861161190d576040517ff1c64ea600000000000000000000000000000000000000000000000000000000815260040160405180910390fd5b6119173088610bd7565b34600c60007f000000000000000000000000000000000000000000000000000000000000000073ffffffffffffffffffffffffffffffffffffffff1673ffffffffffffffffffffffffffffffffffffffff168152602001908152602001600020600082825461198691906143e9565b9250508190555060405180604001604052808781526020013373ffffffffffffffffffffffffffffffffffffffff16815250600b60008981526020019081526020016000206000820151816000015560208201518160010160006101000a81548173ffffffffffffffffffffffffffffffffffffffff021916908373ffffffffffffffffffffffffffffffffffffffff160217905550905050863373ffffffffffffffffffffffffffffffffffffffff167f94e7b934c857a9e3202e8ed9c1f3f96e396b7d2b5885930d2001abcb51ff58fa88604051611a6691906142b5565b60405180910390a350505050505050565b6000600c60003373ffffffffffffffffffffffffffffffffffffffff1673ffffffffffffffffffffffffffffffffffffffff16815260200190815260200160002054905090565b606060038054611acd906145cc565b80601f0160208091040260200160405190810160405280929190818152602001828054611af9906145cc565b8015611b465780601f10611b1b57610100808354040283529160200191611b46565b820191906000526020600020905b815481529060010190602001808311611b2957829003601f168201915b5050505050905090565b6000816107d0816bffffffffffffffffffffffff161115611ba857806040517f05a79cda000000000000000000000000000000000000000000000000000000008152600401611b9f91906142f9565b60405180910390fd5b60026009541415611bee576040517f08c379a0000000000000000000000000000000000000000000000000000000008152600401611be59061427a565b60405180910390fd5b6002600981905550611c00600a6129f0565b9150611c0c33836129fe565b611c178285856127de565b611c218286612a1c565b33600d600084815260200190815260200160002060006101000a81548173ffffffffffffffffffffffffffffffffffffffff021916908373ffffffffffffffffffffffffffffffffffffffff160217905550611c7d600a612a90565b813373ffffffffffffffffffffffffffffffffffffffff167fd3d96b5226b0f7dc725f612a664675b5e04ef0727b38f7f6b22c5f2398ca707985604051611cc491906142f9565b60405180910390a36001600981905550509392505050565b611cee611ce761271d565b8383612aa6565b5050565b60026009541415611d38576040517f08c379a0000000000000000000000000000000000000000000000000000000008152600401611d2f9061427a565b60405180910390fd5b60026009819055506000600c60003373ffffffffffffffffffffffffffffffffffffffff1673ffffffffffffffffffffffffffffffffffffffff16815260200190815260200160002054905060008111611dbe576040517ff0c1bf7100000000000000000000000000000000000000000000000000000000815260040160405180910390fd5b6000600c60003373ffffffffffffffffffffffffffffffffffffffff1673ffffffffffffffffffffffffffffffffffffffff1681526020019081526020016000208190555060003373ffffffffffffffffffffffffffffffffffffffff1682604051611e2990613fa1565b60006040518083038185875af1925050503d8060008114611e66576040519150601f19603f3d011682016040523d82523d6000602084013e611e6b565b606091505b5050905080611ea6576040517f1413ec4b00000000000000000000000000000000000000000000000000000000815260040160405180910390fd5b50506001600981905550565b611ec3611ebd61271d565b83612c13565b611f02576040517f08c379a0000000000000000000000000000000000000000000000000000000008152600401611ef99061425a565b60405180910390fd5b611f0e84848484612ca8565b50505050565b600e5481565b6060611f25826126d2565b6000600860008481526020019081526020016000208054611f45906145cc565b80601f0160208091040260200160405190810160405280929190818152602001828054611f71906145cc565b8015611fbe5780601f10611f9357610100808354040283529160200191611fbe565b820191906000526020600020905b815481529060010190602001808311611fa157829003601f168201915b505050505090506000611fcf612d04565b9050600081511415611fe5578192505050612028565b60008251111561201a578082604051602001612002929190613f7d565b60405160208183030381529060405292505050612028565b61202384612d1b565b925050505b919050565b600081338073ffffffffffffffffffffffffffffffffffffffff16600d600084815260200190815260200160002060009054906101000a900473ffffffffffffffffffffffffffffffffffffffff1673ffffffffffffffffffffffffffffffffffffffff16146120c9576040517f0bfc395c00000000000000000000000000000000000000000000000000000000815260040160405180910390fd5b600d600085815260200190815260200160002060009054906101000a900473ffffffffffffffffffffffffffffffffffffffff1692505050919050565b806000600b6000838152602001908152602001600020604051806040016040529081600082015481526020016001820160009054906101000a900473ffffffffffffffffffffffffffffffffffffffff1673ffffffffffffffffffffffffffffffffffffffff1673ffffffffffffffffffffffffffffffffffffffff1681525050905060008160000151116121d257816040517fdb363db80000000000000000000000000000000000000000000000000000000081526004016121c991906142b5565b60405180910390fd5b60026009541415612218576040517f08c379a000000000000000000000000000000000000000000000000000000000815260040161220f9061427a565b60405180910390fd5b60026009819055506000600b6000858152602001908152602001600020604051806040016040529081600082015481526020016001820160009054906101000a900473ffffffffffffffffffffffffffffffffffffffff1673ffffffffffffffffffffffffffffffffffffffff1673ffffffffffffffffffffffffffffffffffffffff1681525050905080600001513410156122f1578381600001516040517f8eb7b75f0000000000000000000000000000000000000000000000000000000081526004016122e89291906142d0565b60405180910390fd5b60646002606461230191906144ca565b3461230c9190614470565b612316919061443f565b600c6000836020015173ffffffffffffffffffffffffffffffffffffffff1673ffffffffffffffffffffffffffffffffffffffff1681526020019081526020016000205461236491906143e9565b600c6000836020015173ffffffffffffffffffffffffffffffffffffffff1673ffffffffffffffffffffffffffffffffffffffff1681526020019081526020016000208190555060646002346123ba9190614470565b6123c4919061443f565b600c60007f000000000000000000000000000000000000000000000000000000000000000073ffffffffffffffffffffffffffffffffffffffff1673ffffffffffffffffffffffffffffffffffffffff168152602001908152602001600020600082825461243291906143e9565b92505081905550600b60008581526020019081526020016000206000808201600090556001820160006101000a81549073ffffffffffffffffffffffffffffffffffffffff021916905550503073ffffffffffffffffffffffffffffffffffffffff166342842e0e826020015133876040518463ffffffff1660e01b81526004016124bf93929190613fd1565b600060405180830381600087803b1580156124d957600080fd5b505af11580156124ed573d6000803e3d6000fd5b50505050833373ffffffffffffffffffffffffffffffffffffffff167ffe2094c9ff56716cb07edf0cff82da158f346cb3bb2d89703228ab4eb0c329b6836000015160405161253c91906142b5565b60405180910390a3506001600981905550505050565b6000600760008473ffffffffffffffffffffffffffffffffffffffff1673ffffffffffffffffffffffffffffffffffffffff16815260200190815260200160002060008373ffffffffffffffffffffffffffffffffffffffff1673ffffffffffffffffffffffffffffffffffffffff16815260200190815260200160002060009054906101000a900460ff16905092915050565b6000600e54905090565b60007f80ac58cd000000000000000000000000000000000000000000000000000000007bffffffffffffffffffffffffffffffffffffffffffffffffffffffff1916827bffffffffffffffffffffffffffffffffffffffffffffffffffffffff191614806126bb57507f5b5e139f000000000000000000000000000000000000000000000000000000007bffffffffffffffffffffffffffffffffffffffffffffffffffffffff1916827bffffffffffffffffffffffffffffffffffffffffffffffffffffffff1916145b806126cb57506126ca82612d83565b5b9050919050565b6126db81612dfd565b61271a576040517f08c379a0000000000000000000000000000000000000000000000000000000008152600401612711906141da565b60405180910390fd5b50565b600033905090565b816006600083815260200190815260200160002060006101000a81548173ffffffffffffffffffffffffffffffffffffffff021916908373ffffffffffffffffffffffffffffffffffffffff160217905550808273ffffffffffffffffffffffffffffffffffffffff16612798836115e7565b73ffffffffffffffffffffffffffffffffffffffff167f8c5be1e5ebec7d5bd14f71427d1e84f3dd0314c0f7b2291e5b200ac8c7c3b92560405160405180910390a45050565b6127e66129e6565b6bffffffffffffffffffffffff16816bffffffffffffffffffffffff161115612844576040517f08c379a000000000000000000000000000000000000000000000000000000000815260040161283b9061423a565b60405180910390fd5b600073ffffffffffffffffffffffffffffffffffffffff168273ffffffffffffffffffffffffffffffffffffffff1614156128b4576040517f08c379a00000000000000000000000000000000000000000000000000000000081526004016128ab9061421a565b60405180910390fd5b60405180604001604052808373ffffffffffffffffffffffffffffffffffffffff168152602001826bffffffffffffffffffffffff168152506001600085815260200190815260200160002060008201518160000160006101000a81548173ffffffffffffffffffffffffffffffffffffffff021916908373ffffffffffffffffffffffffffffffffffffffff16021790555060208201518160000160146101000a8154816bffffffffffffffffffffffff02191690836bffffffffffffffffffffffff160217905550905050505050565b61299761299161271d565b82612c13565b6129d6576040517f08c379a00000000000000000000000000000000000000000000000000000000081526004016129cd9061425a565b60405180910390fd5b6129e1838383612e69565b505050565b6000612710905090565b600081600001549050919050565b612a188282604051806020016040528060008152506130d0565b5050565b612a2582612dfd565b612a64576040517f08c379a0000000000000000000000000000000000000000000000000000000008152600401612a5b9061417a565b60405180910390fd5b80600860008481526020019081526020016000209080519060200190612a8b9291906136d4565b505050565b6001816000016000828254019250508190555050565b8173ffffffffffffffffffffffffffffffffffffffff168373ffffffffffffffffffffffffffffffffffffffff161415612b15576040517f08c379a0000000000000000000000000000000000000000000000000000000008152600401612b0c9061413a565b60405180910390fd5b80600760008573ffffffffffffffffffffffffffffffffffffffff1673ffffffffffffffffffffffffffffffffffffffff16815260200190815260200160002060008473ffffffffffffffffffffffffffffffffffffffff1673ffffffffffffffffffffffffffffffffffffffff16815260200190815260200160002060006101000a81548160ff0219169083151502179055508173ffffffffffffffffffffffffffffffffffffffff168373ffffffffffffffffffffffffffffffffffffffff167f17307eab39ab6107e8899845ad3d59bd9653f200f220920489ca2b5937696c3183604051612c06919061407d565b60405180910390a3505050565b600080612c1f836115e7565b90508073ffffffffffffffffffffffffffffffffffffffff168473ffffffffffffffffffffffffffffffffffffffff161480612c615750612c608185612552565b5b80612c9f57508373ffffffffffffffffffffffffffffffffffffffff16612c8784610b91565b73ffffffffffffffffffffffffffffffffffffffff16145b91505092915050565b612cb3848484612e69565b612cbf8484848461312b565b612cfe576040517f08c379a0000000000000000000000000000000000000000000000000000000008152600401612cf5906140ba565b60405180910390fd5b50505050565b606060405180602001604052806000815250905090565b6060612d26826126d2565b6000612d30612d04565b90506000815111612d505760405180602001604052806000815250612d7b565b80612d5a846132c2565b604051602001612d6b929190613f7d565b6040516020818303038152906040525b915050919050565b60007f2a55205a000000000000000000000000000000000000000000000000000000007bffffffffffffffffffffffffffffffffffffffffffffffffffffffff1916827bffffffffffffffffffffffffffffffffffffffffffffffffffffffff19161480612df65750612df582613423565b5b9050919050565b60008073ffffffffffffffffffffffffffffffffffffffff166004600084815260200190815260200160002060009054906101000a900473ffffffffffffffffffffffffffffffffffffffff1673ffffffffffffffffffffffffffffffffffffffff1614159050919050565b8273ffffffffffffffffffffffffffffffffffffffff16612e89826115e7565b73ffffffffffffffffffffffffffffffffffffffff1614612edf576040517f08c379a0000000000000000000000000000000000000000000000000000000008152600401612ed6906140da565b60405180910390fd5b600073ffffffffffffffffffffffffffffffffffffffff168273ffffffffffffffffffffffffffffffffffffffff161415612f4f576040517f08c379a0000000000000000000000000000000000000000000000000000000008152600401612f469061411a565b60405180910390fd5b612f5a83838361348d565b612f65600082612725565b6001600560008573ffffffffffffffffffffffffffffffffffffffff1673ffffffffffffffffffffffffffffffffffffffff1681526020019081526020016000206000828254612fb591906144ca565b925050819055506001600560008473ffffffffffffffffffffffffffffffffffffffff1673ffffffffffffffffffffffffffffffffffffffff168152602001908152602001600020600082825461300c91906143e9565b92505081905550816004600083815260200190815260200160002060006101000a81548173ffffffffffffffffffffffffffffffffffffffff021916908373ffffffffffffffffffffffffffffffffffffffff160217905550808273ffffffffffffffffffffffffffffffffffffffff168473ffffffffffffffffffffffffffffffffffffffff167fddf252ad1be2c89b69c2b068fc378daa952ba7f163c4a11628f55a4df523b3ef60405160405180910390a46130cb83838361349d565b505050565b6130da83836134a2565b6130e7600084848461312b565b613126576040517f08c379a000000000000000000000000000000000000000000000000000000000815260040161311d906140ba565b60405180910390fd5b505050565b600061314c8473ffffffffffffffffffffffffffffffffffffffff1661367c565b156132b5578373ffffffffffffffffffffffffffffffffffffffff1663150b7a0261317561271d565b8786866040518563ffffffff1660e01b81526004016131979493929190614008565b602060405180830381600087803b1580156131b157600080fd5b505af19250505080156131e257506040513d601f19601f820116820180604052508101906131df9190613ac5565b60015b613265573d8060008114613212576040519150601f19603f3d011682016040523d82523d6000602084013e613217565b606091505b5060008151141561325d576040517f08c379a0000000000000000000000000000000000000000000000000000000008152600401613254906140ba565b60405180910390fd5b805181602001fd5b63150b7a0260e01b7bffffffffffffffffffffffffffffffffffffffffffffffffffffffff1916817bffffffffffffffffffffffffffffffffffffffffffffffffffffffff1916149150506132ba565b600190505b949350505050565b6060600082141561330a576040518060400160405280600181526020017f3000000000000000000000000000000000000000000000000000000000000000815250905061341e565b600082905060005b6000821461333c5780806133259061462f565b915050600a82613335919061443f565b9150613312565b60008167ffffffffffffffff81111561335857613357614765565b5b6040519080825280601f01601f19166020018201604052801561338a5781602001600182028036833780820191505090505b5090505b60008514613417576001826133a391906144ca565b9150600a856133b29190614678565b60306133be91906143e9565b60f81b8183815181106133d4576133d3614736565b5b60200101907effffffffffffffffffffffffffffffffffffffffffffffffffffffffffffff1916908160001a905350600a85613410919061443f565b945061338e565b8093505050505b919050565b60007f01ffc9a7000000000000000000000000000000000000000000000000000000007bffffffffffffffffffffffffffffffffffffffffffffffffffffffff1916827bffffffffffffffffffffffffffffffffffffffffffffffffffffffff1916149050919050565b61349883838361369f565b505050565b505050565b600073ffffffffffffffffffffffffffffffffffffffff168273ffffffffffffffffffffffffffffffffffffffff161415613512576040517f08c379a0000000000000000000000000000000000000000000000000000000008152600401613509906141ba565b60405180910390fd5b61351b81612dfd565b1561355b576040517f08c379a0000000000000000000000000000000000000000000000000000000008152600401613552906140fa565b60405180910390fd5b6135676000838361348d565b6001600560008473ffffffffffffffffffffffffffffffffffffffff1673ffffffffffffffffffffffffffffffffffffffff16815260200190815260200160002060008282546135b791906143e9565b92505081905550816004600083815260200190815260200160002060006101000a81548173ffffffffffffffffffffffffffffffffffffffff021916908373ffffffffffffffffffffffffffffffffffffffff160217905550808273ffffffffffffffffffffffffffffffffffffffff16600073ffffffffffffffffffffffffffffffffffffffff167fddf252ad1be2c89b69c2b068fc378daa952ba7f163c4a11628f55a4df523b3ef60405160405180910390a46136786000838361349d565b5050565b6000808273ffffffffffffffffffffffffffffffffffffffff163b119050919050565b505050565b604051806040016040528060008152602001600073ffffffffffffffffffffffffffffffffffffffff1681525090565b8280546136e0906145cc565b90600052602060002090601f0160209004810192826137025760008555613749565b82601f1061371b57805160ff1916838001178555613749565b82800160010185558215613749579182015b8281111561374857825182559160200191906001019061372d565b5b509050613756919061375a565b5090565b5b8082111561377357600081600090555060010161375b565b5090565b600061378a61378584614339565b614314565b9050828152602081018484840111156137a6576137a5614799565b5b6137b184828561458a565b509392505050565b60006137cc6137c78461436a565b614314565b9050828152602081018484840111156137e8576137e7614799565b5b6137f384828561458a565b509392505050565b60008135905061380a81614b79565b92915050565b60008135905061381f81614b90565b92915050565b60008135905061383481614ba7565b92915050565b60008151905061384981614ba7565b92915050565b600082601f83011261386457613863614794565b5b8135613874848260208601613777565b91505092915050565b600082601f83011261389257613891614794565b5b81356138a28482602086016137b9565b91505092915050565b6000813590506138ba81614bbe565b92915050565b6000813590506138cf81614bd5565b92915050565b6000602082840312156138eb576138ea6147a3565b5b60006138f9848285016137fb565b91505092915050565b60008060408385031215613919576139186147a3565b5b6000613927858286016137fb565b9250506020613938858286016137fb565b9150509250929050565b60008060006060848603121561395b5761395a6147a3565b5b6000613969868287016137fb565b935050602061397a868287016137fb565b925050604061398b868287016138ab565b9150509250925092565b600080600080608085870312156139af576139ae6147a3565b5b60006139bd878288016137fb565b94505060206139ce878288016137fb565b93505060406139df878288016138ab565b925050606085013567ffffffffffffffff811115613a00576139ff61479e565b5b613a0c8782880161384f565b91505092959194509250565b60008060408385031215613a2f57613a2e6147a3565b5b6000613a3d858286016137fb565b9250506020613a4e85828601613810565b9150509250929050565b60008060408385031215613a6f57613a6e6147a3565b5b6000613a7d858286016137fb565b9250506020613a8e858286016138ab565b9150509250929050565b600060208284031215613aae57613aad6147a3565b5b6000613abc84828501613825565b91505092915050565b600060208284031215613adb57613ada6147a3565b5b6000613ae98482850161383a565b91505092915050565b600080600060608486031215613b0b57613b0a6147a3565b5b600084013567ffffffffffffffff811115613b2957613b2861479e565b5b613b358682870161387d565b9350506020613b46868287016137fb565b9250506040613b57868287016138c0565b9150509250925092565b600060208284031215613b7757613b766147a3565b5b6000613b85848285016138ab565b91505092915050565b600080600060608486031215613ba757613ba66147a3565b5b6000613bb5868287016138ab565b9350506020613bc6868287016137fb565b9250506040613bd7868287016138c0565b9150509250925092565b60008060408385031215613bf857613bf76147a3565b5b6000613c06858286016138ab565b9250506020613c17858286016138ab565b9150509250929050565b613c2a816144fe565b82525050565b613c39816144fe565b82525050565b613c4881614510565b82525050565b6000613c598261439b565b613c6381856143b1565b9350613c73818560208601614599565b613c7c816147a8565b840191505092915050565b6000613c92826143a6565b613c9c81856143cd565b9350613cac818560208601614599565b613cb5816147a8565b840191505092915050565b6000613ccb826143a6565b613cd581856143de565b9350613ce5818560208601614599565b80840191505092915050565b6000613cfe6032836143cd565b9150613d09826147b9565b604082019050919050565b6000613d216025836143cd565b9150613d2c82614808565b604082019050919050565b6000613d44601c836143cd565b9150613d4f82614857565b602082019050919050565b6000613d676024836143cd565b9150613d7282614880565b604082019050919050565b6000613d8a6019836143cd565b9150613d95826148cf565b602082019050919050565b6000613dad6029836143cd565b9150613db8826148f8565b604082019050919050565b6000613dd0602e836143cd565b9150613ddb82614947565b604082019050919050565b6000613df3603e836143cd565b9150613dfe82614996565b604082019050919050565b6000613e166020836143cd565b9150613e21826149e5565b602082019050919050565b6000613e396018836143cd565b9150613e4482614a0e565b602082019050919050565b6000613e5c6021836143cd565b9150613e6782614a37565b604082019050919050565b6000613e7f6000836143c2565b9150613e8a82614a86565b600082019050919050565b6000613ea2601b836143cd565b9150613ead82614a89565b602082019050919050565b6000613ec5602a836143cd565b9150613ed082614ab2565b604082019050919050565b6000613ee8602e836143cd565b9150613ef382614b01565b604082019050919050565b6000613f0b601f836143cd565b9150613f1682614b50565b602082019050919050565b604082016000820151613f376000850182613f50565b506020820151613f4a6020850182613c21565b50505050565b613f5981614568565b82525050565b613f6881614568565b82525050565b613f7781614572565b82525050565b6000613f898285613cc0565b9150613f958284613cc0565b91508190509392505050565b6000613fac82613e72565b9150819050919050565b6000602082019050613fcb6000830184613c30565b92915050565b6000606082019050613fe66000830186613c30565b613ff36020830185613c30565b6140006040830184613f5f565b949350505050565b600060808201905061401d6000830187613c30565b61402a6020830186613c30565b6140376040830185613f5f565b81810360608301526140498184613c4e565b905095945050505050565b60006040820190506140696000830185613c30565b6140766020830184613f5f565b9392505050565b60006020820190506140926000830184613c3f565b92915050565b600060208201905081810360008301526140b28184613c87565b905092915050565b600060208201905081810360008301526140d381613cf1565b9050919050565b600060208201905081810360008301526140f381613d14565b9050919050565b6000602082019050818103600083015261411381613d37565b9050919050565b6000602082019050818103600083015261413381613d5a565b9050919050565b6000602082019050818103600083015261415381613d7d565b9050919050565b6000602082019050818103600083015261417381613da0565b9050919050565b6000602082019050818103600083015261419381613dc3565b9050919050565b600060208201905081810360008301526141b381613de6565b9050919050565b600060208201905081810360008301526141d381613e09565b9050919050565b600060208201905081810360008301526141f381613e2c565b9050919050565b6000602082019050818103600083015261421381613e4f565b9050919050565b6000602082019050818103600083015261423381613e95565b9050919050565b6000602082019050818103600083015261425381613eb8565b9050919050565b6000602082019050818103600083015261427381613edb565b9050919050565b6000602082019050818103600083015261429381613efe565b9050919050565b60006040820190506142af6000830184613f21565b92915050565b60006020820190506142ca6000830184613f5f565b92915050565b60006040820190506142e56000830185613f5f565b6142f26020830184613f5f565b9392505050565b600060208201905061430e6000830184613f6e565b92915050565b600061431e61432f565b905061432a82826145fe565b919050565b6000604051905090565b600067ffffffffffffffff82111561435457614353614765565b5b61435d826147a8565b9050602081019050919050565b600067ffffffffffffffff82111561438557614384614765565b5b61438e826147a8565b9050602081019050919050565b600081519050919050565b600081519050919050565b600082825260208201905092915050565b600081905092915050565b600082825260208201905092915050565b600081905092915050565b60006143f482614568565b91506143ff83614568565b9250827fffffffffffffffffffffffffffffffffffffffffffffffffffffffffffffffff03821115614434576144336146a9565b5b828201905092915050565b600061444a82614568565b915061445583614568565b925082614465576144646146d8565b5b828204905092915050565b600061447b82614568565b915061448683614568565b9250817fffffffffffffffffffffffffffffffffffffffffffffffffffffffffffffffff04831182151516156144bf576144be6146a9565b5b828202905092915050565b60006144d582614568565b91506144e083614568565b9250828210156144f3576144f26146a9565b5b828203905092915050565b600061450982614548565b9050919050565b60008115159050919050565b60007fffffffff0000000000000000000000000000000000000000000000000000000082169050919050565b600073ffffffffffffffffffffffffffffffffffffffff82169050919050565b6000819050919050565b60006bffffffffffffffffffffffff82169050919050565b82818337600083830152505050565b60005b838110156145b757808201518184015260208101905061459c565b838111156145c6576000848401525b50505050565b600060028204905060018216806145e457607f821691505b602082108114156145f8576145f7614707565b5b50919050565b614607826147a8565b810181811067ffffffffffffffff8211171561462657614625614765565b5b80604052505050565b600061463a82614568565b91507fffffffffffffffffffffffffffffffffffffffffffffffffffffffffffffffff82141561466d5761466c6146a9565b5b600182019050919050565b600061468382614568565b915061468e83614568565b92508261469e5761469d6146d8565b5b828206905092915050565b7f4e487b7100000000000000000000000000000000000000000000000000000000600052601160045260246000fd5b7f4e487b7100000000000000000000000000000000000000000000000000000000600052601260045260246000fd5b7f4e487b7100000000000000000000000000000000000000000000000000000000600052602260045260246000fd5b7f4e487b7100000000000000000000000000000000000000000000000000000000600052603260045260246000fd5b7f4e487b7100000000000000000000000000000000000000000000000000000000600052604160045260246000fd5b600080fd5b600080fd5b600080fd5b600080fd5b6000601f19601f8301169050919050565b7f4552433732313a207472616e7366657220746f206e6f6e20455243373231526560008201527f63656976657220696d706c656d656e7465720000000000000000000000000000602082015250565b7f4552433732313a207472616e736665722066726f6d20696e636f72726563742060008201527f6f776e6572000000000000000000000000000000000000000000000000000000602082015250565b7f4552433732313a20746f6b656e20616c7265616479206d696e74656400000000600082015250565b7f4552433732313a207472616e7366657220746f20746865207a65726f2061646460008201527f7265737300000000000000000000000000000000000000000000000000000000602082015250565b7f4552433732313a20617070726f766520746f2063616c6c657200000000000000600082015250565b7f4552433732313a2061646472657373207a65726f206973206e6f74206120766160008201527f6c6964206f776e65720000000000000000000000000000000000000000000000602082015250565b7f45524337323155524953746f726167653a2055524920736574206f66206e6f6e60008201527f6578697374656e7420746f6b656e000000000000000000000000000000000000602082015250565b7f4552433732313a20617070726f76652063616c6c6572206973206e6f7420746f60008201527f6b656e206f776e6572206e6f7220617070726f76656420666f7220616c6c0000602082015250565b7f4552433732313a206d696e7420746f20746865207a65726f2061646472657373600082015250565b7f4552433732313a20696e76616c696420746f6b656e2049440000000000000000600082015250565b7f4552433732313a20617070726f76616c20746f2063757272656e74206f776e6560008201527f7200000000000000000000000000000000000000000000000000000000000000602082015250565b50565b7f455243323938313a20496e76616c696420706172616d65746572730000000000600082015250565b7f455243323938313a20726f79616c7479206665652077696c6c2065786365656460008201527f2073616c65507269636500000000000000000000000000000000000000000000602082015250565b7f4552433732313a2063616c6c6572206973206e6f7420746f6b656e206f776e6560008201527f72206e6f7220617070726f766564000000000000000000000000000000000000602082015250565b7f5265656e7472616e637947756172643a207265656e7472616e742063616c6c00600082015250565b614b82816144fe565b8114614b8d57600080fd5b50565b614b9981614510565b8114614ba457600080fd5b50565b614bb08161451c565b8114614bbb57600080fd5b50565b614bc781614568565b8114614bd257600080fd5b50565b614bde81614572565b8114614be957600080fd5b5056fea2646970667358221220c02f0d5fc96949978bdba2f9a922c0bfadc47d8e3ecef2d2153b998aa54fbafa64736f6c63430008070033",
  "linkReferences": {},
  "deployedLinkReferences": {}
}