{
  "_format": "hh-sol-artifact-1",
  "contractName": "TestNft",
  "sourceName": "contracts/test/TestNft.sol",
  "abi": [
    {
      "inputs": [
        {
          "internalType": "string",
          "name": "name",
          "type": "string"
        },
        {
          "internalType": "string",
          "name": "symbol",
          "type": "string"
        },
        {
          "internalType": "uint96",
          "name": "_royaltyFeesInBips",
          "type": "uint96"
        },
        {
          "internalType": "string",
          "name": "_nftURI",
          "type": "string"
        }
      ],
      "stateMutability": "nonpayable",
      "type": "constructor"
    },
    {
      "inputs": [],
      "name": "TestNft__NonExistentToken",
      "type": "error"
    },
    {
      "anonymous": false,
      "inputs": [
        {
          "indexed": true,
          "internalType": "address",
          "name": "owner",
          "type": "address"
        },
        {
          "indexed": true,
          "internalType": "address",
          "name": "approved",
          "type": "address"
        },
        {
          "indexed": true,
          "internalType": "uint256",
          "name": "tokenId",
          "type": "uint256"
        }
      ],
      "name": "Approval",
      "type": "event"
    },
    {
      "anonymous": false,
      "inputs": [
        {
          "indexed": true,
          "internalType": "address",
          "name": "owner",
          "type": "address"
        },
        {
          "indexed": true,
          "internalType": "address",
          "name": "operator",
          "type": "address"
        },
        {
          "indexed": false,
          "internalType": "bool",
          "name": "approved",
          "type": "bool"
        }
      ],
      "name": "ApprovalForAll",
      "type": "event"
    },
    {
      "anonymous": false,
      "inputs": [
        {
          "indexed": true,
          "internalType": "address",
          "name": "previousOwner",
          "type": "address"
        },
        {
          "indexed": true,
          "internalType": "address",
          "name": "newOwner",
          "type": "address"
        }
      ],
      "name": "OwnershipTransferred",
      "type": "event"
    },
    {
      "anonymous": false,
      "inputs": [
        {
          "indexed": true,
          "internalType": "address",
          "name": "from",
          "type": "address"
        },
        {
          "indexed": true,
          "internalType": "address",
          "name": "to",
          "type": "address"
        },
        {
          "indexed": true,
          "internalType": "uint256",
          "name": "tokenId",
          "type": "uint256"
        }
      ],
      "name": "Transfer",
      "type": "event"
    },
    {
      "inputs": [
        {
          "internalType": "address",
          "name": "to",
          "type": "address"
        },
        {
          "internalType": "uint256",
          "name": "tokenId",
          "type": "uint256"
        }
      ],
      "name": "approve",
      "outputs": [],
      "stateMutability": "nonpayable",
      "type": "function"
    },
    {
      "inputs": [
        {
          "internalType": "address",
          "name": "owner",
          "type": "address"
        }
      ],
      "name": "balanceOf",
      "outputs": [
        {
          "internalType": "uint256",
          "name": "",
          "type": "uint256"
        }
      ],
      "stateMutability": "view",
      "type": "function"
    },
    {
      "inputs": [
        {
          "internalType": "uint256",
          "name": "tokenId",
          "type": "uint256"
        }
      ],
      "name": "getApproved",
      "outputs": [
        {
          "internalType": "address",
          "name": "",
          "type": "address"
        }
      ],
      "stateMutability": "view",
      "type": "function"
    },
    {
      "inputs": [
        {
          "internalType": "address",
          "name": "owner",
          "type": "address"
        },
        {
          "internalType": "address",
          "name": "operator",
          "type": "address"
        }
      ],
      "name": "isApprovedForAll",
      "outputs": [
        {
          "internalType": "bool",
          "name": "",
          "type": "bool"
        }
      ],
      "stateMutability": "view",
      "type": "function"
    },
    {
      "inputs": [],
      "name": "name",
      "outputs": [
        {
          "internalType": "string",
          "name": "",
          "type": "string"
        }
      ],
      "stateMutability": "view",
      "type": "function"
    },
    {
      "inputs": [],
      "name": "nftURI",
      "outputs": [
        {
          "internalType": "string",
          "name": "",
          "type": "string"
        }
      ],
      "stateMutability": "view",
      "type": "function"
    },
    {
      "inputs": [],
      "name": "owner",
      "outputs": [
        {
          "internalType": "address",
          "name": "",
          "type": "address"
        }
      ],
      "stateMutability": "view",
      "type": "function"
    },
    {
      "inputs": [
        {
          "internalType": "uint256",
          "name": "tokenId",
          "type": "uint256"
        }
      ],
      "name": "ownerOf",
      "outputs": [
        {
          "internalType": "address",
          "name": "",
          "type": "address"
        }
      ],
      "stateMutability": "view",
      "type": "function"
    },
    {
      "inputs": [],
      "name": "renounceOwnership",
      "outputs": [],
      "stateMutability": "nonpayable",
      "type": "function"
    },
    {
      "inputs": [
        {
          "internalType": "uint256",
          "name": "_tokenId",
          "type": "uint256"
        },
        {
          "internalType": "uint256",
          "name": "_salePrice",
          "type": "uint256"
        }
      ],
      "name": "royaltyInfo",
      "outputs": [
        {
          "internalType": "address",
          "name": "",
          "type": "address"
        },
        {
          "internalType": "uint256",
          "name": "",
          "type": "uint256"
        }
      ],
      "stateMutability": "view",
      "type": "function"
    },
    {
      "inputs": [
        {
          "internalType": "address",
          "name": "from",
          "type": "address"
        },
        {
          "internalType": "address",
          "name": "to",
          "type": "address"
        },
        {
          "internalType": "uint256",
          "name": "tokenId",
          "type": "uint256"
        }
      ],
      "name": "safeTransferFrom",
      "outputs": [],
      "stateMutability": "nonpayable",
      "type": "function"
    },
    {
      "inputs": [
        {
          "internalType": "address",
          "name": "from",
          "type": "address"
        },
        {
          "internalType": "address",
          "name": "to",
          "type": "address"
        },
        {
          "internalType": "uint256",
          "name": "tokenId",
          "type": "uint256"
        },
        {
          "internalType": "bytes",
          "name": "data",
          "type": "bytes"
        }
      ],
      "name": "safeTransferFrom",
      "outputs": [],
      "stateMutability": "nonpayable",
      "type": "function"
    },
    {
      "inputs": [
        {
          "internalType": "address",
          "name": "operator",
          "type": "address"
        },
        {
          "internalType": "bool",
          "name": "approved",
          "type": "bool"
        }
      ],
      "name": "setApprovalForAll",
      "outputs": [],
      "stateMutability": "nonpayable",
      "type": "function"
    },
    {
      "inputs": [
        {
          "internalType": "address",
          "name": "_receiver",
          "type": "address"
        },
        {
          "internalType": "uint96",
          "name": "_royaltyFeesInBips",
          "type": "uint96"
        }
      ],
      "name": "setRoyaltyInfo",
      "outputs": [],
      "stateMutability": "nonpayable",
      "type": "function"
    },
    {
      "inputs": [
        {
          "internalType": "bytes4",
          "name": "interfaceId",
          "type": "bytes4"
        }
      ],
      "name": "supportsInterface",
      "outputs": [
        {
          "internalType": "bool",
          "name": "",
          "type": "bool"
        }
      ],
      "stateMutability": "view",
      "type": "function"
    },
    {
      "inputs": [],
      "name": "symbol",
      "outputs": [
        {
          "internalType": "string",
          "name": "",
          "type": "string"
        }
      ],
      "stateMutability": "view",
      "type": "function"
    },
    {
      "inputs": [
        {
          "internalType": "uint256",
          "name": "index",
          "type": "uint256"
        }
      ],
      "name": "tokenByIndex",
      "outputs": [
        {
          "internalType": "uint256",
          "name": "",
          "type": "uint256"
        }
      ],
      "stateMutability": "view",
      "type": "function"
    },
    {
      "inputs": [
        {
          "internalType": "address",
          "name": "owner",
          "type": "address"
        },
        {
          "internalType": "uint256",
          "name": "index",
          "type": "uint256"
        }
      ],
      "name": "tokenOfOwnerByIndex",
      "outputs": [
        {
          "internalType": "uint256",
          "name": "",
          "type": "uint256"
        }
      ],
      "stateMutability": "view",
      "type": "function"
    },
    {
      "inputs": [
        {
          "internalType": "uint256",
          "name": "tokenId",
          "type": "uint256"
        }
      ],
      "name": "tokenURI",
      "outputs": [
        {
          "internalType": "string",
          "name": "",
          "type": "string"
        }
      ],
      "stateMutability": "view",
      "type": "function"
    },
    {
      "inputs": [],
      "name": "totalSupply",
      "outputs": [
        {
          "internalType": "uint256",
          "name": "",
          "type": "uint256"
        }
      ],
      "stateMutability": "view",
      "type": "function"
    },
    {
      "inputs": [
        {
          "internalType": "address",
          "name": "from",
          "type": "address"
        },
        {
          "internalType": "address",
          "name": "to",
          "type": "address"
        },
        {
          "internalType": "uint256",
          "name": "tokenId",
          "type": "uint256"
        }
      ],
      "name": "transferFrom",
      "outputs": [],
      "stateMutability": "nonpayable",
      "type": "function"
    },
    {
      "inputs": [
        {
          "internalType": "address",
          "name": "newOwner",
          "type": "address"
        }
      ],
      "name": "transferOwnership",
      "outputs": [],
      "stateMutability": "nonpayable",
      "type": "function"
    }
  ],
  "bytecode": "0x60806040523480156200001157600080fd5b5060405162004b1738038062004b17833981810160405281019062000037919062000ffd565b838381600090805190602001906200005192919062000e6f565b5080600190805190602001906200006a92919062000e6f565b5050506200008d62000081620000e460201b60201c565b620000ec60201b60201c565b620000ae620000a1620001b260201b60201c565b83620001dc60201b60201c565b80600d9080519060200190620000c692919062000e6f565b50620000da3360006200020260201b60201c565b505050506200189f565b600033905090565b6000600c60009054906101000a900473ffffffffffffffffffffffffffffffffffffffff16905081600c60006101000a81548173ffffffffffffffffffffffffffffffffffffffff021916908373ffffffffffffffffffffffffffffffffffffffff1602179055508173ffffffffffffffffffffffffffffffffffffffff168173ffffffffffffffffffffffffffffffffffffffff167f8be0079c531659141344cd1fd0a4f28419497f9722a3daafe3b4186f6b6457e060405160405180910390a35050565b6000600c60009054906101000a900473ffffffffffffffffffffffffffffffffffffffff16905090565b620001ec6200022860201b60201c565b620001fe8282620002b960201b60201c565b5050565b620002248282604051806020016040528060008152506200045d60201b60201c565b5050565b62000238620000e460201b60201c565b73ffffffffffffffffffffffffffffffffffffffff166200025e620001b260201b60201c565b73ffffffffffffffffffffffffffffffffffffffff1614620002b7576040517f08c379a0000000000000000000000000000000000000000000000000000000008152600401620002ae906200131c565b60405180910390fd5b565b620002c9620004cb60201b60201c565b6bffffffffffffffffffffffff16816bffffffffffffffffffffffff1611156200032a576040517f08c379a000000000000000000000000000000000000000000000000000000000815260040162000321906200133e565b60405180910390fd5b600073ffffffffffffffffffffffffffffffffffffffff168273ffffffffffffffffffffffffffffffffffffffff1614156200039d576040517f08c379a0000000000000000000000000000000000000000000000000000000008152600401620003949062001360565b60405180910390fd5b60405180604001604052808373ffffffffffffffffffffffffffffffffffffffff168152602001826bffffffffffffffffffffffff16815250600a60008201518160000160006101000a81548173ffffffffffffffffffffffffffffffffffffffff021916908373ffffffffffffffffffffffffffffffffffffffff16021790555060208201518160000160146101000a8154816bffffffffffffffffffffffff02191690836bffffffffffffffffffffffff1602179055509050505050565b6200046f8383620004d560201b60201c565b620004846000848484620006cf60201b60201c565b620004c6576040517f08c379a0000000000000000000000000000000000000000000000000000000008152600401620004bd9062001294565b60405180910390fd5b505050565b6000612710905090565b600073ffffffffffffffffffffffffffffffffffffffff168273ffffffffffffffffffffffffffffffffffffffff16141562000548576040517f08c379a00000000000000000000000000000000000000000000000000000000081526004016200053f90620012fa565b60405180910390fd5b62000559816200088960201b60201c565b156200059c576040517f08c379a00000000000000000000000000000000000000000000000000000000081526004016200059390620012b6565b60405180910390fd5b620005b060008383620008f560201b60201c565b6001600360008473ffffffffffffffffffffffffffffffffffffffff1673ffffffffffffffffffffffffffffffffffffffff16815260200190815260200160002060008282546200060291906200140e565b92505081905550816002600083815260200190815260200160002060006101000a81548173ffffffffffffffffffffffffffffffffffffffff021916908373ffffffffffffffffffffffffffffffffffffffff160217905550808273ffffffffffffffffffffffffffffffffffffffff16600073ffffffffffffffffffffffffffffffffffffffff167fddf252ad1be2c89b69c2b068fc378daa952ba7f163c4a11628f55a4df523b3ef60405160405180910390a4620006cb600083836200091260201b60201c565b5050565b6000620006fd8473ffffffffffffffffffffffffffffffffffffffff166200091760201b62000f281760201c565b156200087c578373ffffffffffffffffffffffffffffffffffffffff1663150b7a026200072f620000e460201b60201c565b8786866040518563ffffffff1660e01b815260040162000753949392919062001240565b602060405180830381600087803b1580156200076e57600080fd5b505af1925050508015620007a257506040513d601f19601f820116820180604052508101906200079f919062000fcb565b60015b6200082b573d8060008114620007d5576040519150601f19603f3d011682016040523d82523d6000602084013e620007da565b606091505b5060008151141562000823576040517f08c379a00000000000000000000000000000000000000000000000000000000081526004016200081a9062001294565b60405180910390fd5b805181602001fd5b63150b7a0260e01b7bffffffffffffffffffffffffffffffffffffffffffffffffffffffff1916817bffffffffffffffffffffffffffffffffffffffffffffffffffffffff19161491505062000881565b600190505b949350505050565b60008073ffffffffffffffffffffffffffffffffffffffff166002600084815260200190815260200160002060009054906101000a900473ffffffffffffffffffffffffffffffffffffffff1673ffffffffffffffffffffffffffffffffffffffff1614159050919050565b6200090d8383836200093a60201b62000f4b1760201c565b505050565b505050565b6000808273ffffffffffffffffffffffffffffffffffffffff163b119050919050565b6200095283838362000a8160201b6200105f1760201c565b600073ffffffffffffffffffffffffffffffffffffffff168373ffffffffffffffffffffffffffffffffffffffff1614156200099f57620009998162000a8660201b60201c565b620009e7565b8173ffffffffffffffffffffffffffffffffffffffff168373ffffffffffffffffffffffffffffffffffffffff1614620009e657620009e5838262000acf60201b60201c565b5b5b600073ffffffffffffffffffffffffffffffffffffffff168273ffffffffffffffffffffffffffffffffffffffff16141562000a345762000a2e8162000c4c60201b60201c565b62000a7c565b8273ffffffffffffffffffffffffffffffffffffffff168273ffffffffffffffffffffffffffffffffffffffff161462000a7b5762000a7a828262000d2860201b60201c565b5b5b505050565b505050565b6008805490506009600083815260200190815260200160002081905550600881908060018154018082558091505060019003906000526020600020016000909190919091505550565b6000600162000ae98462000db460201b62000b421760201c565b62000af591906200146b565b905060006007600084815260200190815260200160002054905081811462000bdb576000600660008673ffffffffffffffffffffffffffffffffffffffff1673ffffffffffffffffffffffffffffffffffffffff168152602001908152602001600020600084815260200190815260200160002054905080600660008773ffffffffffffffffffffffffffffffffffffffff1673ffffffffffffffffffffffffffffffffffffffff168152602001908152602001600020600084815260200190815260200160002081905550816007600083815260200190815260200160002081905550505b6007600084815260200190815260200160002060009055600660008573ffffffffffffffffffffffffffffffffffffffff1673ffffffffffffffffffffffffffffffffffffffff16815260200190815260200160002060008381526020019081526020016000206000905550505050565b6000600160088054905062000c6291906200146b565b905060006009600084815260200190815260200160002054905060006008838154811062000c955762000c9462001657565b5b90600052602060002001549050806008838154811062000cba5762000cb962001657565b5b90600052602060002001819055508160096000838152602001908152602001600020819055506009600085815260200190815260200160002060009055600880548062000d0c5762000d0b62001628565b5b6001900381819060005260206000200160009055905550505050565b600062000d408362000db460201b62000b421760201c565b905081600660008573ffffffffffffffffffffffffffffffffffffffff1673ffffffffffffffffffffffffffffffffffffffff168152602001908152602001600020600083815260200190815260200160002081905550806007600084815260200190815260200160002081905550505050565b60008073ffffffffffffffffffffffffffffffffffffffff168273ffffffffffffffffffffffffffffffffffffffff16141562000e28576040517f08c379a000000000000000000000000000000000000000000000000000000000815260040162000e1f90620012d8565b60405180910390fd5b600360008373ffffffffffffffffffffffffffffffffffffffff1673ffffffffffffffffffffffffffffffffffffffff168152602001908152602001600020549050919050565b82805462000e7d906200155e565b90600052602060002090601f01602090048101928262000ea1576000855562000eed565b82601f1062000ebc57805160ff191683800117855562000eed565b8280016001018555821562000eed579182015b8281111562000eec57825182559160200191906001019062000ecf565b5b50905062000efc919062000f00565b5090565b5b8082111562000f1b57600081600090555060010162000f01565b5090565b600062000f3662000f3084620013ab565b62001382565b90508281526020810184848401111562000f555762000f54620016ba565b5b62000f6284828562001528565b509392505050565b60008151905062000f7b816200186b565b92915050565b600082601f83011262000f995762000f98620016b5565b5b815162000fab84826020860162000f1f565b91505092915050565b60008151905062000fc58162001885565b92915050565b60006020828403121562000fe45762000fe3620016c4565b5b600062000ff48482850162000f6a565b91505092915050565b600080600080608085870312156200101a5762001019620016c4565b5b600085015167ffffffffffffffff8111156200103b576200103a620016bf565b5b620010498782880162000f81565b945050602085015167ffffffffffffffff8111156200106d576200106c620016bf565b5b6200107b8782880162000f81565b93505060406200108e8782880162000fb4565b925050606085015167ffffffffffffffff811115620010b257620010b1620016bf565b5b620010c08782880162000f81565b91505092959194509250565b620010d781620014a6565b82525050565b6000620010ea82620013e1565b620010f68185620013ec565b93506200110881856020860162001528565b6200111381620016c9565b840191505092915050565b60006200112d603283620013fd565b91506200113a82620016da565b604082019050919050565b600062001154601c83620013fd565b9150620011618262001729565b602082019050919050565b60006200117b602983620013fd565b9150620011888262001752565b604082019050919050565b6000620011a2602083620013fd565b9150620011af82620017a1565b602082019050919050565b6000620011c9602083620013fd565b9150620011d682620017ca565b602082019050919050565b6000620011f0602a83620013fd565b9150620011fd82620017f3565b604082019050919050565b600062001217601983620013fd565b9150620012248262001842565b602082019050919050565b6200123a8162001506565b82525050565b6000608082019050620012576000830187620010cc565b620012666020830186620010cc565b6200127560408301856200122f565b8181036060830152620012898184620010dd565b905095945050505050565b60006020820190508181036000830152620012af816200111e565b9050919050565b60006020820190508181036000830152620012d18162001145565b9050919050565b60006020820190508181036000830152620012f3816200116c565b9050919050565b60006020820190508181036000830152620013158162001193565b9050919050565b600060208201905081810360008301526200133781620011ba565b9050919050565b600060208201905081810360008301526200135981620011e1565b9050919050565b600060208201905081810360008301526200137b8162001208565b9050919050565b60006200138e620013a1565b90506200139c828262001594565b919050565b6000604051905090565b600067ffffffffffffffff821115620013c957620013c862001686565b5b620013d482620016c9565b9050602081019050919050565b600081519050919050565b600082825260208201905092915050565b600082825260208201905092915050565b60006200141b8262001506565b9150620014288362001506565b9250827fffffffffffffffffffffffffffffffffffffffffffffffffffffffffffffffff0382111562001460576200145f620015ca565b5b828201905092915050565b6000620014788262001506565b9150620014858362001506565b9250828210156200149b576200149a620015ca565b5b828203905092915050565b6000620014b382620014e6565b9050919050565b60007fffffffff0000000000000000000000000000000000000000000000000000000082169050919050565b600073ffffffffffffffffffffffffffffffffffffffff82169050919050565b6000819050919050565b60006bffffffffffffffffffffffff82169050919050565b60005b83811015620015485780820151818401526020810190506200152b565b8381111562001558576000848401525b50505050565b600060028204905060018216806200157757607f821691505b602082108114156200158e576200158d620015f9565b5b50919050565b6200159f82620016c9565b810181811067ffffffffffffffff82111715620015c157620015c062001686565b5b80604052505050565b7f4e487b7100000000000000000000000000000000000000000000000000000000600052601160045260246000fd5b7f4e487b7100000000000000000000000000000000000000000000000000000000600052602260045260246000fd5b7f4e487b7100000000000000000000000000000000000000000000000000000000600052603160045260246000fd5b7f4e487b7100000000000000000000000000000000000000000000000000000000600052603260045260246000fd5b7f4e487b7100000000000000000000000000000000000000000000000000000000600052604160045260246000fd5b600080fd5b600080fd5b600080fd5b600080fd5b6000601f19601f8301169050919050565b7f4552433732313a207472616e7366657220746f206e6f6e20455243373231526560008201527f63656976657220696d706c656d656e7465720000000000000000000000000000602082015250565b7f4552433732313a20746f6b656e20616c7265616479206d696e74656400000000600082015250565b7f4552433732313a2061646472657373207a65726f206973206e6f74206120766160008201527f6c6964206f776e65720000000000000000000000000000000000000000000000602082015250565b7f4552433732313a206d696e7420746f20746865207a65726f2061646472657373600082015250565b7f4f776e61626c653a2063616c6c6572206973206e6f7420746865206f776e6572600082015250565b7f455243323938313a20726f79616c7479206665652077696c6c2065786365656460008201527f2073616c65507269636500000000000000000000000000000000000000000000602082015250565b7f455243323938313a20696e76616c696420726563656976657200000000000000600082015250565b6200187681620014ba565b81146200188257600080fd5b50565b620018908162001510565b81146200189c57600080fd5b50565b61326880620018af6000396000f3fe608060405234801561001057600080fd5b50600436106101425760003560e01c80634fa153b3116100b857806395d89b411161007c57806395d89b411461038a578063a22cb465146103a8578063b88d4fde146103c4578063c87b56dd146103e0578063e985e9c514610410578063f2fde38b1461044057610142565b80634fa153b3146102e45780636352211e1461030257806370a0823114610332578063715018a6146103625780638da5cb5b1461036c57610142565b806318160ddd1161010a57806318160ddd146101fd57806323b872dd1461021b5780632a55205a146102375780632f745c591461026857806342842e0e146102985780634f6ccce7146102b457610142565b806301ffc9a71461014757806302fa7c471461017757806306fdde0314610193578063081812fc146101b1578063095ea7b3146101e1575b600080fd5b610161600480360381019061015c9190612368565b61045c565b60405161016e919061276b565b60405180910390f35b610191600480360381019061018c9190612328565b61046e565b005b61019b610484565b6040516101a89190612786565b60405180910390f35b6101cb60048036038101906101c691906123c2565b610516565b6040516101d891906126db565b60405180910390f35b6101fb60048036038101906101f691906122e8565b61055c565b005b610205610674565b6040516102129190612988565b60405180910390f35b610235600480360381019061023091906121d2565b610681565b005b610251600480360381019061024c91906123ef565b6106e1565b60405161025f929190612742565b60405180910390f35b610282600480360381019061027d91906122e8565b6108cc565b60405161028f9190612988565b60405180910390f35b6102b260048036038101906102ad91906121d2565b610971565b005b6102ce60048036038101906102c991906123c2565b610991565b6040516102db9190612988565b60405180910390f35b6102ec610a02565b6040516102f99190612786565b60405180910390f35b61031c600480360381019061031791906123c2565b610a90565b60405161032991906126db565b60405180910390f35b61034c60048036038101906103479190612165565b610b42565b6040516103599190612988565b60405180910390f35b61036a610bfa565b005b610374610c0e565b60405161038191906126db565b60405180910390f35b610392610c38565b60405161039f9190612786565b60405180910390f35b6103c260048036038101906103bd91906122a8565b610cca565b005b6103de60048036038101906103d99190612225565b610ce0565b005b6103fa60048036038101906103f591906123c2565b610d42565b6040516104079190612786565b60405180910390f35b61042a60048036038101906104259190612192565b610e10565b604051610437919061276b565b60405180910390f35b61045a60048036038101906104559190612165565b610ea4565b005b600061046782611064565b9050919050565b6104766110de565b610480828261115c565b5050565b60606000805461049390612c14565b80601f01602080910402602001604051908101604052809291908181526020018280546104bf90612c14565b801561050c5780601f106104e15761010080835404028352916020019161050c565b820191906000526020600020905b8154815290600101906020018083116104ef57829003601f168201915b5050505050905090565b6000610521826112f2565b6004600083815260200190815260200160002060009054906101000a900473ffffffffffffffffffffffffffffffffffffffff169050919050565b600061056782610a90565b90508073ffffffffffffffffffffffffffffffffffffffff168373ffffffffffffffffffffffffffffffffffffffff1614156105d8576040517f08c379a00000000000000000000000000000000000000000000000000000000081526004016105cf906128e8565b60405180910390fd5b8073ffffffffffffffffffffffffffffffffffffffff166105f761133d565b73ffffffffffffffffffffffffffffffffffffffff16148061062657506106258161062061133d565b610e10565b5b610665576040517f08c379a000000000000000000000000000000000000000000000000000000000815260040161065c90612888565b60405180910390fd5b61066f8383611345565b505050565b6000600880549050905090565b61069261068c61133d565b826113fe565b6106d1576040517f08c379a00000000000000000000000000000000000000000000000000000000081526004016106c890612948565b60405180910390fd5b6106dc838383611493565b505050565b6000806000600b60008681526020019081526020016000206040518060400160405290816000820160009054906101000a900473ffffffffffffffffffffffffffffffffffffffff1673ffffffffffffffffffffffffffffffffffffffff1673ffffffffffffffffffffffffffffffffffffffff1681526020016000820160149054906101000a90046bffffffffffffffffffffffff166bffffffffffffffffffffffff166bffffffffffffffffffffffff16815250509050600073ffffffffffffffffffffffffffffffffffffffff16816000015173ffffffffffffffffffffffffffffffffffffffff16141561087757600a6040518060400160405290816000820160009054906101000a900473ffffffffffffffffffffffffffffffffffffffff1673ffffffffffffffffffffffffffffffffffffffff1673ffffffffffffffffffffffffffffffffffffffff1681526020016000820160149054906101000a90046bffffffffffffffffffffffff166bffffffffffffffffffffffff166bffffffffffffffffffffffff168152505090505b60006108816116fa565b6bffffffffffffffffffffffff1682602001516bffffffffffffffffffffffff16866108ad9190612ab8565b6108b79190612a87565b90508160000151819350935050509250929050565b60006108d783610b42565b8210610918576040517f08c379a000000000000000000000000000000000000000000000000000000000815260040161090f906127a8565b60405180910390fd5b600660008473ffffffffffffffffffffffffffffffffffffffff1673ffffffffffffffffffffffffffffffffffffffff168152602001908152602001600020600083815260200190815260200160002054905092915050565b61098c83838360405180602001604052806000815250610ce0565b505050565b600061099b610674565b82106109dc576040517f08c379a00000000000000000000000000000000000000000000000000000000081526004016109d390612908565b60405180910390fd5b600882815481106109f0576109ef612d33565b5b90600052602060002001549050919050565b600d8054610a0f90612c14565b80601f0160208091040260200160405190810160405280929190818152602001828054610a3b90612c14565b8015610a885780601f10610a5d57610100808354040283529160200191610a88565b820191906000526020600020905b815481529060010190602001808311610a6b57829003601f168201915b505050505081565b6000806002600084815260200190815260200160002060009054906101000a900473ffffffffffffffffffffffffffffffffffffffff169050600073ffffffffffffffffffffffffffffffffffffffff168173ffffffffffffffffffffffffffffffffffffffff161415610b39576040517f08c379a0000000000000000000000000000000000000000000000000000000008152600401610b30906128c8565b60405180910390fd5b80915050919050565b60008073ffffffffffffffffffffffffffffffffffffffff168273ffffffffffffffffffffffffffffffffffffffff161415610bb3576040517f08c379a0000000000000000000000000000000000000000000000000000000008152600401610baa90612868565b60405180910390fd5b600360008373ffffffffffffffffffffffffffffffffffffffff1673ffffffffffffffffffffffffffffffffffffffff168152602001908152602001600020549050919050565b610c026110de565b610c0c6000611704565b565b6000600c60009054906101000a900473ffffffffffffffffffffffffffffffffffffffff16905090565b606060018054610c4790612c14565b80601f0160208091040260200160405190810160405280929190818152602001828054610c7390612c14565b8015610cc05780601f10610c9557610100808354040283529160200191610cc0565b820191906000526020600020905b815481529060010190602001808311610ca357829003601f168201915b5050505050905090565b610cdc610cd561133d565b83836117ca565b5050565b610cf1610ceb61133d565b836113fe565b610d30576040517f08c379a0000000000000000000000000000000000000000000000000000000008152600401610d2790612948565b60405180910390fd5b610d3c84848484611937565b50505050565b606060008214610d7e576040517ffe13ec9100000000000000000000000000000000000000000000000000000000815260040160405180910390fd5b600d8054610d8b90612c14565b80601f0160208091040260200160405190810160405280929190818152602001828054610db790612c14565b8015610e045780601f10610dd957610100808354040283529160200191610e04565b820191906000526020600020905b815481529060010190602001808311610de757829003601f168201915b50505050509050919050565b6000600560008473ffffffffffffffffffffffffffffffffffffffff1673ffffffffffffffffffffffffffffffffffffffff16815260200190815260200160002060008373ffffffffffffffffffffffffffffffffffffffff1673ffffffffffffffffffffffffffffffffffffffff16815260200190815260200160002060009054906101000a900460ff16905092915050565b610eac6110de565b600073ffffffffffffffffffffffffffffffffffffffff168173ffffffffffffffffffffffffffffffffffffffff161415610f1c576040517f08c379a0000000000000000000000000000000000000000000000000000000008152600401610f13906127e8565b60405180910390fd5b610f2581611704565b50565b6000808273ffffffffffffffffffffffffffffffffffffffff163b119050919050565b610f5683838361105f565b600073ffffffffffffffffffffffffffffffffffffffff168373ffffffffffffffffffffffffffffffffffffffff161415610f9957610f9481611993565b610fd8565b8173ffffffffffffffffffffffffffffffffffffffff168373ffffffffffffffffffffffffffffffffffffffff1614610fd757610fd683826119dc565b5b5b600073ffffffffffffffffffffffffffffffffffffffff168273ffffffffffffffffffffffffffffffffffffffff16141561101b5761101681611b49565b61105a565b8273ffffffffffffffffffffffffffffffffffffffff168273ffffffffffffffffffffffffffffffffffffffff1614611059576110588282611c1a565b5b5b505050565b505050565b60007f2a55205a000000000000000000000000000000000000000000000000000000007bffffffffffffffffffffffffffffffffffffffffffffffffffffffff1916827bffffffffffffffffffffffffffffffffffffffffffffffffffffffff191614806110d757506110d682611c99565b5b9050919050565b6110e661133d565b73ffffffffffffffffffffffffffffffffffffffff16611104610c0e565b73ffffffffffffffffffffffffffffffffffffffff161461115a576040517f08c379a0000000000000000000000000000000000000000000000000000000008152600401611151906128a8565b60405180910390fd5b565b6111646116fa565b6bffffffffffffffffffffffff16816bffffffffffffffffffffffff1611156111c2576040517f08c379a00000000000000000000000000000000000000000000000000000000081526004016111b990612928565b60405180910390fd5b600073ffffffffffffffffffffffffffffffffffffffff168273ffffffffffffffffffffffffffffffffffffffff161415611232576040517f08c379a000000000000000000000000000000000000000000000000000000000815260040161122990612968565b60405180910390fd5b60405180604001604052808373ffffffffffffffffffffffffffffffffffffffff168152602001826bffffffffffffffffffffffff16815250600a60008201518160000160006101000a81548173ffffffffffffffffffffffffffffffffffffffff021916908373ffffffffffffffffffffffffffffffffffffffff16021790555060208201518160000160146101000a8154816bffffffffffffffffffffffff02191690836bffffffffffffffffffffffff1602179055509050505050565b6112fb81611d13565b61133a576040517f08c379a0000000000000000000000000000000000000000000000000000000008152600401611331906128c8565b60405180910390fd5b50565b600033905090565b816004600083815260200190815260200160002060006101000a81548173ffffffffffffffffffffffffffffffffffffffff021916908373ffffffffffffffffffffffffffffffffffffffff160217905550808273ffffffffffffffffffffffffffffffffffffffff166113b883610a90565b73ffffffffffffffffffffffffffffffffffffffff167f8c5be1e5ebec7d5bd14f71427d1e84f3dd0314c0f7b2291e5b200ac8c7c3b92560405160405180910390a45050565b60008061140a83610a90565b90508073ffffffffffffffffffffffffffffffffffffffff168473ffffffffffffffffffffffffffffffffffffffff16148061144c575061144b8185610e10565b5b8061148a57508373ffffffffffffffffffffffffffffffffffffffff1661147284610516565b73ffffffffffffffffffffffffffffffffffffffff16145b91505092915050565b8273ffffffffffffffffffffffffffffffffffffffff166114b382610a90565b73ffffffffffffffffffffffffffffffffffffffff1614611509576040517f08c379a000000000000000000000000000000000000000000000000000000000815260040161150090612808565b60405180910390fd5b600073ffffffffffffffffffffffffffffffffffffffff168273ffffffffffffffffffffffffffffffffffffffff161415611579576040517f08c379a000000000000000000000000000000000000000000000000000000000815260040161157090612828565b60405180910390fd5b611584838383611d7f565b61158f600082611345565b6001600360008573ffffffffffffffffffffffffffffffffffffffff1673ffffffffffffffffffffffffffffffffffffffff16815260200190815260200160002060008282546115df9190612b12565b925050819055506001600360008473ffffffffffffffffffffffffffffffffffffffff1673ffffffffffffffffffffffffffffffffffffffff16815260200190815260200160002060008282546116369190612a31565b92505081905550816002600083815260200190815260200160002060006101000a81548173ffffffffffffffffffffffffffffffffffffffff021916908373ffffffffffffffffffffffffffffffffffffffff160217905550808273ffffffffffffffffffffffffffffffffffffffff168473ffffffffffffffffffffffffffffffffffffffff167fddf252ad1be2c89b69c2b068fc378daa952ba7f163c4a11628f55a4df523b3ef60405160405180910390a46116f5838383611d8f565b505050565b6000612710905090565b6000600c60009054906101000a900473ffffffffffffffffffffffffffffffffffffffff16905081600c60006101000a81548173ffffffffffffffffffffffffffffffffffffffff021916908373ffffffffffffffffffffffffffffffffffffffff1602179055508173ffffffffffffffffffffffffffffffffffffffff168173ffffffffffffffffffffffffffffffffffffffff167f8be0079c531659141344cd1fd0a4f28419497f9722a3daafe3b4186f6b6457e060405160405180910390a35050565b8173ffffffffffffffffffffffffffffffffffffffff168373ffffffffffffffffffffffffffffffffffffffff161415611839576040517f08c379a000000000000000000000000000000000000000000000000000000000815260040161183090612848565b60405180910390fd5b80600560008573ffffffffffffffffffffffffffffffffffffffff1673ffffffffffffffffffffffffffffffffffffffff16815260200190815260200160002060008473ffffffffffffffffffffffffffffffffffffffff1673ffffffffffffffffffffffffffffffffffffffff16815260200190815260200160002060006101000a81548160ff0219169083151502179055508173ffffffffffffffffffffffffffffffffffffffff168373ffffffffffffffffffffffffffffffffffffffff167f17307eab39ab6107e8899845ad3d59bd9653f200f220920489ca2b5937696c318360405161192a919061276b565b60405180910390a3505050565b611942848484611493565b61194e84848484611d94565b61198d576040517f08c379a0000000000000000000000000000000000000000000000000000000008152600401611984906127c8565b60405180910390fd5b50505050565b6008805490506009600083815260200190815260200160002081905550600881908060018154018082558091505060019003906000526020600020016000909190919091505550565b600060016119e984610b42565b6119f39190612b12565b9050600060076000848152602001908152602001600020549050818114611ad8576000600660008673ffffffffffffffffffffffffffffffffffffffff1673ffffffffffffffffffffffffffffffffffffffff168152602001908152602001600020600084815260200190815260200160002054905080600660008773ffffffffffffffffffffffffffffffffffffffff1673ffffffffffffffffffffffffffffffffffffffff168152602001908152602001600020600084815260200190815260200160002081905550816007600083815260200190815260200160002081905550505b6007600084815260200190815260200160002060009055600660008573ffffffffffffffffffffffffffffffffffffffff1673ffffffffffffffffffffffffffffffffffffffff16815260200190815260200160002060008381526020019081526020016000206000905550505050565b60006001600880549050611b5d9190612b12565b9050600060096000848152602001908152602001600020549050600060088381548110611b8d57611b8c612d33565b5b906000526020600020015490508060088381548110611baf57611bae612d33565b5b906000526020600020018190555081600960008381526020019081526020016000208190555060096000858152602001908152602001600020600090556008805480611bfe57611bfd612d04565b5b6001900381819060005260206000200160009055905550505050565b6000611c2583610b42565b905081600660008573ffffffffffffffffffffffffffffffffffffffff1673ffffffffffffffffffffffffffffffffffffffff168152602001908152602001600020600083815260200190815260200160002081905550806007600084815260200190815260200160002081905550505050565b60007f780e9d63000000000000000000000000000000000000000000000000000000007bffffffffffffffffffffffffffffffffffffffffffffffffffffffff1916827bffffffffffffffffffffffffffffffffffffffffffffffffffffffff19161480611d0c5750611d0b82611f2b565b5b9050919050565b60008073ffffffffffffffffffffffffffffffffffffffff166002600084815260200190815260200160002060009054906101000a900473ffffffffffffffffffffffffffffffffffffffff1673ffffffffffffffffffffffffffffffffffffffff1614159050919050565b611d8a838383610f4b565b505050565b505050565b6000611db58473ffffffffffffffffffffffffffffffffffffffff16610f28565b15611f1e578373ffffffffffffffffffffffffffffffffffffffff1663150b7a02611dde61133d565b8786866040518563ffffffff1660e01b8152600401611e0094939291906126f6565b602060405180830381600087803b158015611e1a57600080fd5b505af1925050508015611e4b57506040513d601f19601f82011682018060405250810190611e489190612395565b60015b611ece573d8060008114611e7b576040519150601f19603f3d011682016040523d82523d6000602084013e611e80565b606091505b50600081511415611ec6576040517f08c379a0000000000000000000000000000000000000000000000000000000008152600401611ebd906127c8565b60405180910390fd5b805181602001fd5b63150b7a0260e01b7bffffffffffffffffffffffffffffffffffffffffffffffffffffffff1916817bffffffffffffffffffffffffffffffffffffffffffffffffffffffff191614915050611f23565b600190505b949350505050565b60007f80ac58cd000000000000000000000000000000000000000000000000000000007bffffffffffffffffffffffffffffffffffffffffffffffffffffffff1916827bffffffffffffffffffffffffffffffffffffffffffffffffffffffff19161480611ff657507f5b5e139f000000000000000000000000000000000000000000000000000000007bffffffffffffffffffffffffffffffffffffffffffffffffffffffff1916827bffffffffffffffffffffffffffffffffffffffffffffffffffffffff1916145b8061200657506120058261200d565b5b9050919050565b60007f01ffc9a7000000000000000000000000000000000000000000000000000000007bffffffffffffffffffffffffffffffffffffffffffffffffffffffff1916827bffffffffffffffffffffffffffffffffffffffffffffffffffffffff1916149050919050565b600061208a612085846129c8565b6129a3565b9050828152602081018484840111156120a6576120a5612d96565b5b6120b1848285612bd2565b509392505050565b6000813590506120c8816131bf565b92915050565b6000813590506120dd816131d6565b92915050565b6000813590506120f2816131ed565b92915050565b600081519050612107816131ed565b92915050565b600082601f83011261212257612121612d91565b5b8135612132848260208601612077565b91505092915050565b60008135905061214a81613204565b92915050565b60008135905061215f8161321b565b92915050565b60006020828403121561217b5761217a612da0565b5b6000612189848285016120b9565b91505092915050565b600080604083850312156121a9576121a8612da0565b5b60006121b7858286016120b9565b92505060206121c8858286016120b9565b9150509250929050565b6000806000606084860312156121eb576121ea612da0565b5b60006121f9868287016120b9565b935050602061220a868287016120b9565b925050604061221b8682870161213b565b9150509250925092565b6000806000806080858703121561223f5761223e612da0565b5b600061224d878288016120b9565b945050602061225e878288016120b9565b935050604061226f8782880161213b565b925050606085013567ffffffffffffffff8111156122905761228f612d9b565b5b61229c8782880161210d565b91505092959194509250565b600080604083850312156122bf576122be612da0565b5b60006122cd858286016120b9565b92505060206122de858286016120ce565b9150509250929050565b600080604083850312156122ff576122fe612da0565b5b600061230d858286016120b9565b925050602061231e8582860161213b565b9150509250929050565b6000806040838503121561233f5761233e612da0565b5b600061234d858286016120b9565b925050602061235e85828601612150565b9150509250929050565b60006020828403121561237e5761237d612da0565b5b600061238c848285016120e3565b91505092915050565b6000602082840312156123ab576123aa612da0565b5b60006123b9848285016120f8565b91505092915050565b6000602082840312156123d8576123d7612da0565b5b60006123e68482850161213b565b91505092915050565b6000806040838503121561240657612405612da0565b5b60006124148582860161213b565b92505060206124258582860161213b565b9150509250929050565b61243881612b46565b82525050565b61244781612b58565b82525050565b6000612458826129f9565b6124628185612a0f565b9350612472818560208601612be1565b61247b81612da5565b840191505092915050565b600061249182612a04565b61249b8185612a20565b93506124ab818560208601612be1565b6124b481612da5565b840191505092915050565b60006124cc602b83612a20565b91506124d782612db6565b604082019050919050565b60006124ef603283612a20565b91506124fa82612e05565b604082019050919050565b6000612512602683612a20565b915061251d82612e54565b604082019050919050565b6000612535602583612a20565b915061254082612ea3565b604082019050919050565b6000612558602483612a20565b915061256382612ef2565b604082019050919050565b600061257b601983612a20565b915061258682612f41565b602082019050919050565b600061259e602983612a20565b91506125a982612f6a565b604082019050919050565b60006125c1603e83612a20565b91506125cc82612fb9565b604082019050919050565b60006125e4602083612a20565b91506125ef82613008565b602082019050919050565b6000612607601883612a20565b915061261282613031565b602082019050919050565b600061262a602183612a20565b91506126358261305a565b604082019050919050565b600061264d602c83612a20565b9150612658826130a9565b604082019050919050565b6000612670602a83612a20565b915061267b826130f8565b604082019050919050565b6000612693602e83612a20565b915061269e82613147565b604082019050919050565b60006126b6601983612a20565b91506126c182613196565b602082019050919050565b6126d581612bb0565b82525050565b60006020820190506126f0600083018461242f565b92915050565b600060808201905061270b600083018761242f565b612718602083018661242f565b61272560408301856126cc565b8181036060830152612737818461244d565b905095945050505050565b6000604082019050612757600083018561242f565b61276460208301846126cc565b9392505050565b6000602082019050612780600083018461243e565b92915050565b600060208201905081810360008301526127a08184612486565b905092915050565b600060208201905081810360008301526127c1816124bf565b9050919050565b600060208201905081810360008301526127e1816124e2565b9050919050565b6000602082019050818103600083015261280181612505565b9050919050565b6000602082019050818103600083015261282181612528565b9050919050565b600060208201905081810360008301526128418161254b565b9050919050565b600060208201905081810360008301526128618161256e565b9050919050565b6000602082019050818103600083015261288181612591565b9050919050565b600060208201905081810360008301526128a1816125b4565b9050919050565b600060208201905081810360008301526128c1816125d7565b9050919050565b600060208201905081810360008301526128e1816125fa565b9050919050565b600060208201905081810360008301526129018161261d565b9050919050565b6000602082019050818103600083015261292181612640565b9050919050565b6000602082019050818103600083015261294181612663565b9050919050565b6000602082019050818103600083015261296181612686565b9050919050565b60006020820190508181036000830152612981816126a9565b9050919050565b600060208201905061299d60008301846126cc565b92915050565b60006129ad6129be565b90506129b98282612c46565b919050565b6000604051905090565b600067ffffffffffffffff8211156129e3576129e2612d62565b5b6129ec82612da5565b9050602081019050919050565b600081519050919050565b600081519050919050565b600082825260208201905092915050565b600082825260208201905092915050565b6000612a3c82612bb0565b9150612a4783612bb0565b9250827fffffffffffffffffffffffffffffffffffffffffffffffffffffffffffffffff03821115612a7c57612a7b612c77565b5b828201905092915050565b6000612a9282612bb0565b9150612a9d83612bb0565b925082612aad57612aac612ca6565b5b828204905092915050565b6000612ac382612bb0565b9150612ace83612bb0565b9250817fffffffffffffffffffffffffffffffffffffffffffffffffffffffffffffffff0483118215151615612b0757612b06612c77565b5b828202905092915050565b6000612b1d82612bb0565b9150612b2883612bb0565b925082821015612b3b57612b3a612c77565b5b828203905092915050565b6000612b5182612b90565b9050919050565b60008115159050919050565b60007fffffffff0000000000000000000000000000000000000000000000000000000082169050919050565b600073ffffffffffffffffffffffffffffffffffffffff82169050919050565b6000819050919050565b60006bffffffffffffffffffffffff82169050919050565b82818337600083830152505050565b60005b83811015612bff578082015181840152602081019050612be4565b83811115612c0e576000848401525b50505050565b60006002820490506001821680612c2c57607f821691505b60208210811415612c4057612c3f612cd5565b5b50919050565b612c4f82612da5565b810181811067ffffffffffffffff82111715612c6e57612c6d612d62565b5b80604052505050565b7f4e487b7100000000000000000000000000000000000000000000000000000000600052601160045260246000fd5b7f4e487b7100000000000000000000000000000000000000000000000000000000600052601260045260246000fd5b7f4e487b7100000000000000000000000000000000000000000000000000000000600052602260045260246000fd5b7f4e487b7100000000000000000000000000000000000000000000000000000000600052603160045260246000fd5b7f4e487b7100000000000000000000000000000000000000000000000000000000600052603260045260246000fd5b7f4e487b7100000000000000000000000000000000000000000000000000000000600052604160045260246000fd5b600080fd5b600080fd5b600080fd5b600080fd5b6000601f19601f8301169050919050565b7f455243373231456e756d657261626c653a206f776e657220696e646578206f7560008201527f74206f6620626f756e6473000000000000000000000000000000000000000000602082015250565b7f4552433732313a207472616e7366657220746f206e6f6e20455243373231526560008201527f63656976657220696d706c656d656e7465720000000000000000000000000000602082015250565b7f4f776e61626c653a206e6577206f776e657220697320746865207a65726f206160008201527f6464726573730000000000000000000000000000000000000000000000000000602082015250565b7f4552433732313a207472616e736665722066726f6d20696e636f72726563742060008201527f6f776e6572000000000000000000000000000000000000000000000000000000602082015250565b7f4552433732313a207472616e7366657220746f20746865207a65726f2061646460008201527f7265737300000000000000000000000000000000000000000000000000000000602082015250565b7f4552433732313a20617070726f766520746f2063616c6c657200000000000000600082015250565b7f4552433732313a2061646472657373207a65726f206973206e6f74206120766160008201527f6c6964206f776e65720000000000000000000000000000000000000000000000602082015250565b7f4552433732313a20617070726f76652063616c6c6572206973206e6f7420746f60008201527f6b656e206f776e6572206e6f7220617070726f76656420666f7220616c6c0000602082015250565b7f4f776e61626c653a2063616c6c6572206973206e6f7420746865206f776e6572600082015250565b7f4552433732313a20696e76616c696420746f6b656e2049440000000000000000600082015250565b7f4552433732313a20617070726f76616c20746f2063757272656e74206f776e6560008201527f7200000000000000000000000000000000000000000000000000000000000000602082015250565b7f455243373231456e756d657261626c653a20676c6f62616c20696e646578206f60008201527f7574206f6620626f756e64730000000000000000000000000000000000000000602082015250565b7f455243323938313a20726f79616c7479206665652077696c6c2065786365656460008201527f2073616c65507269636500000000000000000000000000000000000000000000602082015250565b7f4552433732313a2063616c6c6572206973206e6f7420746f6b656e206f776e6560008201527f72206e6f7220617070726f766564000000000000000000000000000000000000602082015250565b7f455243323938313a20696e76616c696420726563656976657200000000000000600082015250565b6131c881612b46565b81146131d357600080fd5b50565b6131df81612b58565b81146131ea57600080fd5b50565b6131f681612b64565b811461320157600080fd5b50565b61320d81612bb0565b811461321857600080fd5b50565b61322481612bba565b811461322f57600080fd5b5056fea26469706673582212206bf9d189bcf53b085c37e6cbff6ead8bd4db0425a0bd5ff6f88802bba1c2e76164736f6c63430008070033",
  "linkReferences": {},
  "deployedLinkReferences": {}
}